{
  "contractName": "AddressSet",
  "abi": [
    {
      "constant": true,
      "inputs": [
        {
          "name": "self",
          "type": "AddressSet.SetData storage"
        },
        {
          "name": "a",
          "type": "address"
        }
      ],
      "name": "indexOf",
      "outputs": [
        {
          "name": "",
          "type": "uint256"
        }
      ],
      "payable": false,
      "stateMutability": "view",
      "type": "function"
    },
    {
      "constant": true,
      "inputs": [
        {
          "name": "self",
          "type": "AddressSet.SetData storage"
        },
        {
          "name": "index",
          "type": "uint256"
        }
      ],
      "name": "getAt",
      "outputs": [
        {
          "name": "",
          "type": "address"
        }
      ],
      "payable": false,
      "stateMutability": "view",
      "type": "function"
    },
    {
      "constant": true,
      "inputs": [
        {
          "name": "self",
          "type": "AddressSet.SetData storage"
        },
        {
          "name": "a",
          "type": "address"
        }
      ],
      "name": "contains",
      "outputs": [
        {
          "name": "",
          "type": "bool"
        }
      ],
      "payable": false,
      "stateMutability": "view",
      "type": "function"
    },
    {
      "constant": true,
      "inputs": [
        {
          "name": "self",
          "type": "AddressSet.SetData storage"
        }
      ],
      "name": "size",
      "outputs": [
        {
          "name": "",
          "type": "uint256"
        }
      ],
      "payable": false,
      "stateMutability": "view",
      "type": "function"
    },
    {
      "constant": false,
      "inputs": [
        {
          "name": "self",
          "type": "AddressSet.SetData storage"
        },
        {
          "name": "a",
          "type": "address"
        }
      ],
      "name": "remove",
      "outputs": [],
      "payable": false,
      "stateMutability": "nonpayable",
      "type": "function"
    },
    {
      "constant": false,
      "inputs": [
        {
          "name": "self",
          "type": "AddressSet.SetData storage"
        },
        {
          "name": "a",
          "type": "address"
        }
      ],
      "name": "put",
      "outputs": [],
      "payable": false,
      "stateMutability": "nonpayable",
      "type": "function"
    }
  ],
  "bytecode": "0x6060604052341561000f57600080fd5b6103fd8061001e6000396000f300606060405236156100755763ffffffff7c010000000000000000000000000000000000000000000000000000000060003504166318c40249811461007a5780635c2125a7146100a3578063758241e0146100cd578063913aa6cd146100f8578063e134066a14610103578063f9802f851461011c575b600080fd5b610091600435600160a060020a0360243516610133565b60405190815260200160405180910390f35b6100b1600435602435610152565b604051600160a060020a03909116815260200160405180910390f35b6100e4600435600160a060020a0360243516610181565b604051901515815260200160405180910390f35b6100916004356101a0565b61011a600435600160a060020a03602435166101a7565b005b61011a600435600160a060020a03602435166102d2565b600160a060020a03166000908152600191909101602052604090205490565b6000826002018281548110151561016557fe5b600091825260209091200154600160a060020a03169392505050565b600160a060020a03166000908152602091909152604090205460ff1690565b6002015490565b600160a060020a038116600090815260208390526040812054819060ff16156102cc57600160a060020a0383166000908152600180860160205260409091205492506101f2856101a0565b0382101561028a57836002016001610209866101a0565b0381548110151561021657fe5b600091825260209091200154600285018054600160a060020a03909216925082918490811061024157fe5b6000918252602080832091909101805473ffffffffffffffffffffffffffffffffffffffff1916600160a060020a03948516179055918316815260018601909152604090208290555b6002840180549061029f906000198301610387565b50600160a060020a038316600090815260208581526040808320805460ff19169055600187019091528120555b50505050565b600160a060020a03811660009081526020839052604090205460ff16151561038357600160a060020a0381166000908152602083905260409020805460ff191660019081179091556002830180549091810161032e8382610387565b506000918252602080832091909101805473ffffffffffffffffffffffffffffffffffffffff1916600160a060020a038516908117909155600285015490835260018501909152604090912060001990910190555b5050565b8154818355818115116103ab576000838152602090206103ab9181019083016103b0565b505050565b6103ce91905b808211156103ca57600081556001016103b6565b5090565b905600a165627a7a723058204470ceb237f07311de17a797a2a8c35e26434c8ed34d0da6e55e507be95419e40029",
  "source": "// ------------------------------------------------------------------------------\n// This file is part of netvote.\n//\n// netvote is free software: you can redistribute it and/or modify\n// it under the terms of the GNU General Public License as published by\n// the Free Software Foundation, either version 3 of the License, or\n// (at your option) any later version.\n//\n// netvote is distributed in the hope that it will be useful,\n// but WITHOUT ANY WARRANTY; without even the implied warranty of\n// MERCHANTABILITY or FITNESS FOR A PARTICULAR PURPOSE.  See the\n// GNU General Public License for more details.\n//\n// You should have received a copy of the GNU General Public License\n// along with solidity.  If not, see <http://www.gnu.org/licenses/>\n//\n// (c) 2017 netvote contributors.\n//------------------------------------------------------------------------------\n\npragma solidity ^0.4.17;\n\n\nlibrary AddressSet {\n\n    struct SetData {\n        mapping(address => bool) entryExists;\n        mapping(address => uint256) entryIndex;\n        address[] entries;\n    }\n\n    function indexOf(SetData storage self, address a) public constant returns (uint256) {\n        return self.entryIndex[a];\n    }\n\n    function getAt(SetData storage self, uint256 index) public constant returns (address) {\n        return self.entries[index];\n    }\n\n    function contains(SetData storage self, address a) public constant returns (bool) {\n        return self.entryExists[a];\n    }\n\n    function size(SetData storage self) public constant returns (uint256) {\n        return self.entries.length;\n    }\n\n    function put(SetData storage self, address a) public {\n        if (!self.entryExists[a]) {\n            self.entryExists[a] = true;\n            self.entries.push(a);\n            self.entryIndex[a] = self.entries.length - 1;\n        }\n    }\n\n    function remove(SetData storage self, address a) public {\n        if (self.entryExists[a]) {\n            uint256 index = self.entryIndex[a];\n            // if not last entry, copy last entry into a's slot\n            if (index < size(self) - 1) {\n                address lastEntry = self.entries[size(self)-1];\n                self.entries[index] = lastEntry;\n                self.entryIndex[lastEntry] = index;\n            }\n            // resize array\n            self.entries.length--;\n            delete self.entryExists[a];\n            delete self.entryIndex[a];\n        }\n    }\n}",
  "sourcePath": "/Users/slanders/netvote/elections/contracts/lib/AddressSet.sol",
  "schemaVersion": "1.0.0",
  "updatedAt": "2017-12-04T16:50:28.347Z"
}