{
  "contractName": "AddressSet",
  "abi": [
    {
      "constant": true,
      "inputs": [
        {
          "name": "self",
          "type": "AddressSet.SetData storage"
        },
        {
          "name": "a",
          "type": "address"
        }
      ],
      "name": "indexOf",
      "outputs": [
        {
          "name": "",
          "type": "uint256"
        }
      ],
      "payable": false,
      "stateMutability": "view",
      "type": "function"
    },
    {
      "constant": true,
      "inputs": [
        {
          "name": "self",
          "type": "AddressSet.SetData storage"
        },
        {
          "name": "index",
          "type": "uint256"
        }
      ],
      "name": "getAt",
      "outputs": [
        {
          "name": "",
          "type": "address"
        }
      ],
      "payable": false,
      "stateMutability": "view",
      "type": "function"
    },
    {
      "constant": true,
      "inputs": [
        {
          "name": "self",
          "type": "AddressSet.SetData storage"
        },
        {
          "name": "a",
          "type": "address"
        }
      ],
      "name": "contains",
      "outputs": [
        {
          "name": "",
          "type": "bool"
        }
      ],
      "payable": false,
      "stateMutability": "view",
      "type": "function"
    },
    {
      "constant": true,
      "inputs": [
        {
          "name": "self",
          "type": "AddressSet.SetData storage"
        }
      ],
      "name": "size",
      "outputs": [
        {
          "name": "",
          "type": "uint256"
        }
      ],
      "payable": false,
      "stateMutability": "view",
      "type": "function"
    },
    {
      "constant": false,
      "inputs": [
        {
          "name": "self",
          "type": "AddressSet.SetData storage"
        },
        {
          "name": "a",
          "type": "address"
        }
      ],
      "name": "remove",
      "outputs": [],
      "payable": false,
      "stateMutability": "nonpayable",
      "type": "function"
    },
    {
      "constant": false,
      "inputs": [
        {
          "name": "self",
          "type": "AddressSet.SetData storage"
        },
        {
          "name": "a",
          "type": "address"
        }
      ],
      "name": "put",
      "outputs": [],
      "payable": false,
      "stateMutability": "nonpayable",
      "type": "function"
    }
  ],
  "bytecode": "0x6060604052341561000f57600080fd5b6107708061001e6000396000f300606060405260043610610078576000357c0100000000000000000000000000000000000000000000000000000000900463ffffffff16806318c402491461007d5780635c2125a7146100c8578063758241e014610129578063913aa6cd14610178578063e134066a146101a4578063f9802f85146101db575b600080fd5b6100b2600480803590602001909190803573ffffffffffffffffffffffffffffffffffffffff16906020019091905050610212565b6040518082815260200191505060405180910390f35b6100e7600480803590602001909190803590602001909190505061025e565b604051808273ffffffffffffffffffffffffffffffffffffffff1673ffffffffffffffffffffffffffffffffffffffff16815260200191505060405180910390f35b61015e600480803590602001909190803573ffffffffffffffffffffffffffffffffffffffff169060200190919050506102a5565b604051808215151515815260200191505060405180910390f35b61018e60048080359060200190919050506102fe565b6040518082815260200191505060405180910390f35b6101d9600480803590602001909190803573ffffffffffffffffffffffffffffffffffffffff1690602001909190505061030f565b005b610210600480803590602001909190803573ffffffffffffffffffffffffffffffffffffffff1690602001909190505061055e565b005b60008260010160008373ffffffffffffffffffffffffffffffffffffffff1673ffffffffffffffffffffffffffffffffffffffff16815260200190815260200160002054905092915050565b6000826002018281548110151561027157fe5b906000526020600020900160009054906101000a900473ffffffffffffffffffffffffffffffffffffffff16905092915050565b60008260000160008373ffffffffffffffffffffffffffffffffffffffff1673ffffffffffffffffffffffffffffffffffffffff16815260200190815260200160002060009054906101000a900460ff16905092915050565b600081600201805490509050919050565b6000808360000160008473ffffffffffffffffffffffffffffffffffffffff1673ffffffffffffffffffffffffffffffffffffffff16815260200190815260200160002060009054906101000a900460ff1615610558578360010160008473ffffffffffffffffffffffffffffffffffffffff1673ffffffffffffffffffffffffffffffffffffffff16815260200190815260200160002054915060016103b5856102fe565b038210156104a9578360020160016103cc866102fe565b038154811015156103d957fe5b906000526020600020900160009054906101000a900473ffffffffffffffffffffffffffffffffffffffff16905080846002018381548110151561041957fe5b906000526020600020900160006101000a81548173ffffffffffffffffffffffffffffffffffffffff021916908373ffffffffffffffffffffffffffffffffffffffff160217905550818460010160008373ffffffffffffffffffffffffffffffffffffffff1673ffffffffffffffffffffffffffffffffffffffff168152602001908152602001600020819055505b836002018054809190600190036104c091906106c7565b508360000160008473ffffffffffffffffffffffffffffffffffffffff1673ffffffffffffffffffffffffffffffffffffffff16815260200190815260200160002060006101000a81549060ff02191690558360010160008473ffffffffffffffffffffffffffffffffffffffff1673ffffffffffffffffffffffffffffffffffffffff168152602001908152602001600020600090555b50505050565b8160000160008273ffffffffffffffffffffffffffffffffffffffff1673ffffffffffffffffffffffffffffffffffffffff16815260200190815260200160002060009054906101000a900460ff1615156106c35760018260000160008373ffffffffffffffffffffffffffffffffffffffff1673ffffffffffffffffffffffffffffffffffffffff16815260200190815260200160002060006101000a81548160ff02191690831515021790555081600201805480600101828161062391906106f3565b9160005260206000209001600083909190916101000a81548173ffffffffffffffffffffffffffffffffffffffff021916908373ffffffffffffffffffffffffffffffffffffffff1602179055505060018260020180549050038260010160008373ffffffffffffffffffffffffffffffffffffffff1673ffffffffffffffffffffffffffffffffffffffff168152602001908152602001600020819055505b5050565b8154818355818115116106ee578183600052602060002091820191016106ed919061071f565b5b505050565b81548183558181151161071a57818360005260206000209182019101610719919061071f565b5b505050565b61074191905b8082111561073d576000816000905550600101610725565b5090565b905600a165627a7a723058202a2a12297409b8ae1727a5320d7feef9b821e7be193fdf2c9d1029b476672c0d0029",
  "source": "// ------------------------------------------------------------------------------\n// This file is part of netvote.\n//\n// netvote is free software: you can redistribute it and/or modify\n// it under the terms of the GNU General Public License as published by\n// the Free Software Foundation, either version 3 of the License, or\n// (at your option) any later version.\n//\n// netvote is distributed in the hope that it will be useful,\n// but WITHOUT ANY WARRANTY; without even the implied warranty of\n// MERCHANTABILITY or FITNESS FOR A PARTICULAR PURPOSE.  See the\n// GNU General Public License for more details.\n//\n// You should have received a copy of the GNU General Public License\n// along with solidity.  If not, see <http://www.gnu.org/licenses/>\n//\n// (c) 2017 netvote contributors.\n//------------------------------------------------------------------------------\n\npragma solidity ^0.4.17;\n\n\nlibrary AddressSet {\n\n    struct SetData {\n        mapping(address => bool) entryExists;\n        mapping(address => uint256) entryIndex;\n        address[] entries;\n    }\n\n    function indexOf(SetData storage self, address a) public constant returns (uint256) {\n        return self.entryIndex[a];\n    }\n\n    function getAt(SetData storage self, uint256 index) public constant returns (address) {\n        return self.entries[index];\n    }\n\n    function contains(SetData storage self, address a) public constant returns (bool) {\n        return self.entryExists[a];\n    }\n\n    function size(SetData storage self) public constant returns (uint256) {\n        return self.entries.length;\n    }\n\n    function put(SetData storage self, address a) public {\n        if (!self.entryExists[a]) {\n            self.entryExists[a] = true;\n            self.entries.push(a);\n            self.entryIndex[a] = self.entries.length - 1;\n        }\n    }\n\n    function remove(SetData storage self, address a) public {\n        if (self.entryExists[a]) {\n            uint256 index = self.entryIndex[a];\n            // if not last entry, copy last entry into a's slot\n            if (index < size(self) - 1) {\n                address lastEntry = self.entries[size(self)-1];\n                self.entries[index] = lastEntry;\n                self.entryIndex[lastEntry] = index;\n            }\n            // resize array\n            self.entries.length--;\n            delete self.entryExists[a];\n            delete self.entryIndex[a];\n        }\n    }\n}",
  "sourcePath": "/Users/slanders/netvote/elections/contracts/lib/AddressSet.sol",
  "compiler": {
    "name": "solc",
    "version": "0.4.18+commit.9cf6e910.Emscripten.clang"
  },
  "schemaVersion": "1.0.1",
  "updatedAt": "2017-12-19T00:44:28.523Z"
}