{
  "contractName": "Adminable",
  "abi": [
    {
      "constant": false,
      "inputs": [
        {
          "name": "addr",
          "type": "address"
        }
      ],
      "name": "removeAdmin",
      "outputs": [],
      "payable": false,
      "stateMutability": "nonpayable",
      "type": "function"
    },
    {
      "constant": false,
      "inputs": [
        {
          "name": "addr",
          "type": "address"
        }
      ],
      "name": "addAdmin",
      "outputs": [],
      "payable": false,
      "stateMutability": "nonpayable",
      "type": "function"
    },
    {
      "constant": true,
      "inputs": [],
      "name": "owner",
      "outputs": [
        {
          "name": "",
          "type": "address"
        }
      ],
      "payable": false,
      "stateMutability": "view",
      "type": "function"
    },
    {
      "constant": false,
      "inputs": [
        {
          "name": "newOwner",
          "type": "address"
        }
      ],
      "name": "transferOwnership",
      "outputs": [],
      "payable": false,
      "stateMutability": "nonpayable",
      "type": "function"
    },
    {
      "anonymous": false,
      "inputs": [
        {
          "indexed": true,
          "name": "previousOwner",
          "type": "address"
        },
        {
          "indexed": true,
          "name": "newOwner",
          "type": "address"
        }
      ],
      "name": "OwnershipTransferred",
      "type": "event"
    }
  ],
  "bytecode": "0x606060405260008054600160a060020a033316600160a060020a0319909116179055610289806100306000396000f300606060405263ffffffff7c01000000000000000000000000000000000000000000000000000000006000350416631785f53c811461005d578063704802751461007e5780638da5cb5b1461009d578063f2fde38b146100cc57600080fd5b341561006857600080fd5b61007c600160a060020a03600435166100eb565b005b341561008957600080fd5b61007c600160a060020a036004351661014c565b34156100a857600080fd5b6100b06101b3565b604051600160a060020a03909116815260200160405180910390f35b34156100d757600080fd5b61007c600160a060020a03600435166101c2565b60005433600160a060020a03908116911614806101205750600160a060020a03331660009081526001602052604090205460ff165b151561012b57600080fd5b600160a060020a03166000908152600160205260409020805460ff19169055565b60005433600160a060020a03908116911614806101815750600160a060020a03331660009081526001602052604090205460ff165b151561018c57600080fd5b600160a060020a03166000908152600160208190526040909120805460ff19169091179055565b600054600160a060020a031681565b60005433600160a060020a039081169116146101dd57600080fd5b600160a060020a03811615156101f257600080fd5b600054600160a060020a0380831691167f8be0079c531659141344cd1fd0a4f28419497f9722a3daafe3b4186f6b6457e060405160405180910390a36000805473ffffffffffffffffffffffffffffffffffffffff1916600160a060020a03929092169190911790555600a165627a7a7230582009f6d35fc6e069da747d92d3355e8d8465bd7b867c55779ca273914edcaea66e0029",
  "source": "// ------------------------------------------------------------------------------\n// This file is part of netvote.\n//\n// netvote is free software: you can redistribute it and/or modify\n// it under the terms of the GNU General Public License as published by\n// the Free Software Foundation, either version 3 of the License, or\n// (at your option) any later version.\n//\n// netvote is distributed in the hope that it will be useful,\n// but WITHOUT ANY WARRANTY; without even the implied warranty of\n// MERCHANTABILITY or FITNESS FOR A PARTICULAR PURPOSE.  See the\n// GNU General Public License for more details.\n//\n// You should have received a copy of the GNU General Public License\n// along with solidity.  If not, see <http://www.gnu.org/licenses/>\n//\n// (c) 2017 netvote contributors.\n//------------------------------------------------------------------------------\n\npragma solidity ^0.4.17;\n\nimport \"zeppelin-solidity/contracts/ownership/Ownable.sol\";\n\n\n// Adminable\n// allows an owner to designate more admins\ncontract Adminable is Ownable {\n    mapping (address => bool) adminAddress;\n\n    modifier admin() {\n        require(msg.sender == owner || adminAddress[msg.sender]);\n        _;\n    }\n\n    function addAdmin(address addr) public admin {\n        adminAddress[addr] = true;\n    }\n\n    function removeAdmin(address addr) public admin {\n        adminAddress[addr] = false;\n    }\n}",
  "sourcePath": "/Users/slanders/netvote/elections/contracts/auth/Adminable.sol",
  "schemaVersion": "1.0.0",
  "updatedAt": "2017-12-04T16:50:25.997Z"
}