{
  "contractName": "Ballot",
  "abi": [
    {
      "constant": true,
      "inputs": [
        {
          "name": "group",
          "type": "bytes32"
        }
      ],
      "name": "groupPoolCount",
      "outputs": [
        {
          "name": "",
          "type": "uint256"
        }
      ],
      "payable": false,
      "stateMutability": "view",
      "type": "function"
    },
    {
      "constant": true,
      "inputs": [],
      "name": "getGroupCount",
      "outputs": [
        {
          "name": "",
          "type": "uint256"
        }
      ],
      "payable": false,
      "stateMutability": "view",
      "type": "function"
    },
    {
      "constant": true,
      "inputs": [
        {
          "name": "index",
          "type": "uint256"
        }
      ],
      "name": "getPool",
      "outputs": [
        {
          "name": "",
          "type": "address"
        }
      ],
      "payable": false,
      "stateMutability": "view",
      "type": "function"
    },
    {
      "constant": false,
      "inputs": [],
      "name": "activate",
      "outputs": [],
      "payable": false,
      "stateMutability": "nonpayable",
      "type": "function"
    },
    {
      "constant": false,
      "inputs": [
        {
          "name": "addr",
          "type": "address"
        }
      ],
      "name": "removeAdmin",
      "outputs": [],
      "payable": false,
      "stateMutability": "nonpayable",
      "type": "function"
    },
    {
      "constant": true,
      "inputs": [
        {
          "name": "p",
          "type": "address"
        }
      ],
      "name": "poolExists",
      "outputs": [
        {
          "name": "",
          "type": "bool"
        }
      ],
      "payable": false,
      "stateMutability": "view",
      "type": "function"
    },
    {
      "constant": true,
      "inputs": [],
      "name": "electionPhase",
      "outputs": [
        {
          "name": "",
          "type": "uint8"
        }
      ],
      "payable": false,
      "stateMutability": "view",
      "type": "function"
    },
    {
      "constant": false,
      "inputs": [],
      "name": "abort",
      "outputs": [],
      "payable": false,
      "stateMutability": "nonpayable",
      "type": "function"
    },
    {
      "constant": false,
      "inputs": [
        {
          "name": "p",
          "type": "address"
        }
      ],
      "name": "removePool",
      "outputs": [],
      "payable": false,
      "stateMutability": "nonpayable",
      "type": "function"
    },
    {
      "constant": false,
      "inputs": [
        {
          "name": "voteId",
          "type": "bytes32"
        }
      ],
      "name": "castVote",
      "outputs": [],
      "payable": false,
      "stateMutability": "nonpayable",
      "type": "function"
    },
    {
      "constant": false,
      "inputs": [
        {
          "name": "group",
          "type": "bytes32"
        }
      ],
      "name": "removeGroup",
      "outputs": [],
      "payable": false,
      "stateMutability": "nonpayable",
      "type": "function"
    },
    {
      "constant": false,
      "inputs": [],
      "name": "close",
      "outputs": [],
      "payable": false,
      "stateMutability": "nonpayable",
      "type": "function"
    },
    {
      "constant": true,
      "inputs": [],
      "name": "election",
      "outputs": [
        {
          "name": "",
          "type": "address"
        }
      ],
      "payable": false,
      "stateMutability": "view",
      "type": "function"
    },
    {
      "constant": true,
      "inputs": [
        {
          "name": "pool",
          "type": "address"
        },
        {
          "name": "index",
          "type": "uint256"
        }
      ],
      "name": "getPoolGroupAt",
      "outputs": [
        {
          "name": "",
          "type": "bytes32"
        }
      ],
      "payable": false,
      "stateMutability": "view",
      "type": "function"
    },
    {
      "constant": true,
      "inputs": [
        {
          "name": "pool",
          "type": "address"
        },
        {
          "name": "i",
          "type": "uint256"
        }
      ],
      "name": "getPoolVoter",
      "outputs": [
        {
          "name": "",
          "type": "bytes32"
        }
      ],
      "payable": false,
      "stateMutability": "view",
      "type": "function"
    },
    {
      "constant": false,
      "inputs": [
        {
          "name": "addr",
          "type": "address"
        }
      ],
      "name": "addAdmin",
      "outputs": [],
      "payable": false,
      "stateMutability": "nonpayable",
      "type": "function"
    },
    {
      "constant": true,
      "inputs": [
        {
          "name": "group",
          "type": "bytes32"
        },
        {
          "name": "index",
          "type": "uint256"
        }
      ],
      "name": "getGroupPool",
      "outputs": [
        {
          "name": "",
          "type": "address"
        }
      ],
      "payable": false,
      "stateMutability": "view",
      "type": "function"
    },
    {
      "constant": true,
      "inputs": [
        {
          "name": "p",
          "type": "address"
        }
      ],
      "name": "getPoolIndex",
      "outputs": [
        {
          "name": "",
          "type": "uint256"
        }
      ],
      "payable": false,
      "stateMutability": "view",
      "type": "function"
    },
    {
      "constant": true,
      "inputs": [],
      "name": "owner",
      "outputs": [
        {
          "name": "",
          "type": "address"
        }
      ],
      "payable": false,
      "stateMutability": "view",
      "type": "function"
    },
    {
      "constant": true,
      "inputs": [],
      "name": "checkPools",
      "outputs": [
        {
          "name": "",
          "type": "bool"
        }
      ],
      "payable": false,
      "stateMutability": "view",
      "type": "function"
    },
    {
      "constant": true,
      "inputs": [],
      "name": "getPoolCount",
      "outputs": [
        {
          "name": "",
          "type": "uint256"
        }
      ],
      "payable": false,
      "stateMutability": "view",
      "type": "function"
    },
    {
      "constant": true,
      "inputs": [
        {
          "name": "pool",
          "type": "address"
        }
      ],
      "name": "getPoolVoterCount",
      "outputs": [
        {
          "name": "",
          "type": "uint256"
        }
      ],
      "payable": false,
      "stateMutability": "view",
      "type": "function"
    },
    {
      "constant": true,
      "inputs": [],
      "name": "isLocked",
      "outputs": [
        {
          "name": "",
          "type": "bool"
        }
      ],
      "payable": false,
      "stateMutability": "view",
      "type": "function"
    },
    {
      "constant": false,
      "inputs": [],
      "name": "unlock",
      "outputs": [],
      "payable": false,
      "stateMutability": "nonpayable",
      "type": "function"
    },
    {
      "constant": true,
      "inputs": [],
      "name": "metadataLocation",
      "outputs": [
        {
          "name": "",
          "type": "string"
        }
      ],
      "payable": false,
      "stateMutability": "view",
      "type": "function"
    },
    {
      "constant": true,
      "inputs": [],
      "name": "isClosed",
      "outputs": [
        {
          "name": "",
          "type": "bool"
        }
      ],
      "payable": false,
      "stateMutability": "view",
      "type": "function"
    },
    {
      "constant": true,
      "inputs": [
        {
          "name": "index",
          "type": "uint256"
        }
      ],
      "name": "getGroup",
      "outputs": [
        {
          "name": "",
          "type": "bytes32"
        }
      ],
      "payable": false,
      "stateMutability": "view",
      "type": "function"
    },
    {
      "constant": true,
      "inputs": [],
      "name": "checkElection",
      "outputs": [
        {
          "name": "",
          "type": "bool"
        }
      ],
      "payable": false,
      "stateMutability": "view",
      "type": "function"
    },
    {
      "constant": false,
      "inputs": [
        {
          "name": "p",
          "type": "address"
        }
      ],
      "name": "addPool",
      "outputs": [],
      "payable": false,
      "stateMutability": "nonpayable",
      "type": "function"
    },
    {
      "constant": false,
      "inputs": [
        {
          "name": "pool",
          "type": "address"
        },
        {
          "name": "group",
          "type": "bytes32"
        }
      ],
      "name": "addPoolToGroup",
      "outputs": [],
      "payable": false,
      "stateMutability": "nonpayable",
      "type": "function"
    },
    {
      "constant": true,
      "inputs": [
        {
          "name": "pool",
          "type": "address"
        }
      ],
      "name": "getPoolGroupCount",
      "outputs": [
        {
          "name": "",
          "type": "uint256"
        }
      ],
      "payable": false,
      "stateMutability": "view",
      "type": "function"
    },
    {
      "constant": false,
      "inputs": [
        {
          "name": "location",
          "type": "string"
        }
      ],
      "name": "setMetadataLocation",
      "outputs": [],
      "payable": false,
      "stateMutability": "nonpayable",
      "type": "function"
    },
    {
      "constant": true,
      "inputs": [],
      "name": "checkConfig",
      "outputs": [
        {
          "name": "",
          "type": "bool"
        }
      ],
      "payable": false,
      "stateMutability": "view",
      "type": "function"
    },
    {
      "constant": false,
      "inputs": [
        {
          "name": "newOwner",
          "type": "address"
        }
      ],
      "name": "transferOwnership",
      "outputs": [],
      "payable": false,
      "stateMutability": "nonpayable",
      "type": "function"
    },
    {
      "constant": false,
      "inputs": [],
      "name": "lock",
      "outputs": [],
      "payable": false,
      "stateMutability": "nonpayable",
      "type": "function"
    },
    {
      "constant": false,
      "inputs": [
        {
          "name": "group",
          "type": "bytes32"
        }
      ],
      "name": "addGroup",
      "outputs": [],
      "payable": false,
      "stateMutability": "nonpayable",
      "type": "function"
    },
    {
      "inputs": [
        {
          "name": "electionAddress",
          "type": "address"
        },
        {
          "name": "ownerAddress",
          "type": "address"
        },
        {
          "name": "location",
          "type": "string"
        }
      ],
      "payable": false,
      "stateMutability": "nonpayable",
      "type": "constructor"
    },
    {
      "anonymous": false,
      "inputs": [
        {
          "indexed": false,
          "name": "pool",
          "type": "address"
        },
        {
          "indexed": false,
          "name": "voteId",
          "type": "bytes32"
        }
      ],
      "name": "BallotVote",
      "type": "event"
    },
    {
      "anonymous": false,
      "inputs": [],
      "name": "Closed",
      "type": "event"
    },
    {
      "anonymous": false,
      "inputs": [],
      "name": "Activated",
      "type": "event"
    },
    {
      "anonymous": false,
      "inputs": [],
      "name": "Aborted",
      "type": "event"
    },
    {
      "anonymous": false,
      "inputs": [],
      "name": "Locked",
      "type": "event"
    },
    {
      "anonymous": false,
      "inputs": [],
      "name": "Unlocked",
      "type": "event"
    },
    {
      "anonymous": false,
      "inputs": [
        {
          "indexed": true,
          "name": "previousOwner",
          "type": "address"
        },
        {
          "indexed": true,
          "name": "newOwner",
          "type": "address"
        }
      ],
      "name": "OwnershipTransferred",
      "type": "event"
    }
  ],
  "bytecode": "0x60606040526000600260006101000a81548160ff0219169083151502179055506000600260016101000a81548160ff021916908360038111156200003f57fe5b021790555034156200005057600080fd5b604051620037e4380380620037e483398101604052808051906020019091908051906020019091908051820191905050336000806101000a81548173ffffffffffffffffffffffffffffffffffffffff021916908373ffffffffffffffffffffffffffffffffffffffff160217905550600073ffffffffffffffffffffffffffffffffffffffff168373ffffffffffffffffffffffffffffffffffffffff1614151515620000fd57600080fd5b82600b60006101000a81548173ffffffffffffffffffffffffffffffffffffffff021916908373ffffffffffffffffffffffffffffffffffffffff160217905550816000806101000a81548173ffffffffffffffffffffffffffffffffffffffff021916908373ffffffffffffffffffffffffffffffffffffffff16021790555080600c90805190602001906200019692919062000253565b50600673__Bytes32Set____________________________63fffd959290917f414c4c00000000000000000000000000000000000000000000000000000000006040518363ffffffff167c01000000000000000000000000000000000000000000000000000000000281526004018083815260200182600019166000191681526020019250505060006040518083038186803b15156200023557600080fd5b6102c65a03f415156200024757600080fd5b50505050505062000302565b828054600181600116156101000203166002900490600052602060002090601f016020900481019282601f106200029657805160ff1916838001178555620002c7565b82800160010185558215620002c7579182015b82811115620002c6578251825591602001919060010190620002a9565b5b509050620002d69190620002da565b5090565b620002ff91905b80821115620002fb576000816000905550600101620002e1565b5090565b90565b6134d280620003126000396000f3006060604052600436106101c2576000357c0100000000000000000000000000000000000000000000000000000000900463ffffffff168063027defc1146101c757806306545a9314610202578063068bcd8d1461022b5780630f15f4c01461028e5780631785f53c146102a35780631e1c6a07146102dc578063265050b61461032d57806335a063b4146103645780633b7d0946146103795780633efafb6e146103b257806343273213146103d957806343d726d6146104005780634b1d3ede14610415578063597c92f71461046a57806368e3e6b6146104c857806370480275146105265780637a4e367c1461055f57806387063850146105cf5780638da5cb5b1461061c5780638e3d89cb146106715780638eec5d701461069e578063978daca7146106c7578063a4e2d63414610714578063a69df4b514610741578063b86901af14610756578063c2b6b58c146107e4578063ceb6065414610811578063d1bdd4d314610850578063d914cd4b1461087d578063e5d3b258146108b6578063e5de025a146108fc578063eefaf90514610949578063f098fe47146109a6578063f2fde38b146109d3578063f83d08ba14610a0c578063fe2b699a14610a21575b600080fd5b34156101d257600080fd5b6101ec600480803560001916906020019091905050610a48565b6040518082815260200191505060405180910390f35b341561020d57600080fd5b610215610afb565b6040518082815260200191505060405180910390f35b341561023657600080fd5b61024c6004808035906020019091905050610b93565b604051808273ffffffffffffffffffffffffffffffffffffffff1673ffffffffffffffffffffffffffffffffffffffff16815260200191505060405180910390f35b341561029957600080fd5b6102a1610c35565b005b34156102ae57600080fd5b6102da600480803573ffffffffffffffffffffffffffffffffffffffff16906020019091905050610d8e565b005b34156102e757600080fd5b610313600480803573ffffffffffffffffffffffffffffffffffffffff16906020019091905050610e98565b604051808215151515815260200191505060405180910390f35b341561033857600080fd5b610340610f66565b6040518082600381111561035057fe5b60ff16815260200191505060405180910390f35b341561036f57600080fd5b610377610f79565b005b341561038457600080fd5b6103b0600480803573ffffffffffffffffffffffffffffffffffffffff1690602001909190505061107a565b005b34156103bd57600080fd5b6103d7600480803560001916906020019091905050611226565b005b34156103e457600080fd5b6103fe600480803560001916906020019091905050611486565b005b341561040b57600080fd5b610413611826565b005b341561042057600080fd5b61042861196b565b604051808273ffffffffffffffffffffffffffffffffffffffff1673ffffffffffffffffffffffffffffffffffffffff16815260200191505060405180910390f35b341561047557600080fd5b6104aa600480803573ffffffffffffffffffffffffffffffffffffffff16906020019091908035906020019091905050611991565b60405180826000191660001916815260200191505060405180910390f35b34156104d357600080fd5b610508600480803573ffffffffffffffffffffffffffffffffffffffff16906020019091908035906020019091905050611a71565b60405180826000191660001916815260200191505060405180910390f35b341561053157600080fd5b61055d600480803573ffffffffffffffffffffffffffffffffffffffff16906020019091905050611ad3565b005b341561056a57600080fd5b61058d600480803560001916906020019091908035906020019091905050611bdc565b604051808273ffffffffffffffffffffffffffffffffffffffff1673ffffffffffffffffffffffffffffffffffffffff16815260200191505060405180910390f35b34156105da57600080fd5b610606600480803573ffffffffffffffffffffffffffffffffffffffff16906020019091905050611c98565b6040518082815260200191505060405180910390f35b341561062757600080fd5b61062f611d66565b604051808273ffffffffffffffffffffffffffffffffffffffff1673ffffffffffffffffffffffffffffffffffffffff16815260200191505060405180910390f35b341561067c57600080fd5b610684611d8b565b604051808215151515815260200191505060405180910390f35b34156106a957600080fd5b6106b161234d565b6040518082815260200191505060405180910390f35b34156106d257600080fd5b6106fe600480803573ffffffffffffffffffffffffffffffffffffffff169060200190919050506123e5565b6040518082815260200191505060405180910390f35b341561071f57600080fd5b610727612431565b604051808215151515815260200191505060405180910390f35b341561074c57600080fd5b610754612448565b005b341561076157600080fd5b610769612540565b6040518080602001828103825283818151815260200191508051906020019080838360005b838110156107a957808201518184015260208101905061078e565b50505050905090810190601f1680156107d65780820380516001836020036101000a031916815260200191505b509250505060405180910390f35b34156107ef57600080fd5b6107f76125de565b604051808215151515815260200191505060405180910390f35b341561081c57600080fd5b610832600480803590602001909190505061260e565b60405180826000191660001916815260200191505060405180910390f35b341561085b57600080fd5b6108636126b0565b604051808215151515815260200191505060405180910390f35b341561088857600080fd5b6108b4600480803573ffffffffffffffffffffffffffffffffffffffff169060200190919050506127f1565b005b34156108c157600080fd5b6108fa600480803573ffffffffffffffffffffffffffffffffffffffff16906020019091908035600019169060200190919050506129c7565b005b341561090757600080fd5b610933600480803573ffffffffffffffffffffffffffffffffffffffff16906020019091905050612dd7565b6040518082815260200191505060405180910390f35b341561095457600080fd5b6109a4600480803590602001908201803590602001908080601f01602080910402602001604051908101604052809392919081815260200183838082843782019150505050505091905050612eae565b005b34156109b157600080fd5b6109b9612fbc565b604051808215151515815260200191505060405180910390f35b34156109de57600080fd5b610a0a600480803573ffffffffffffffffffffffffffffffffffffffff16906020019091905050612fdb565b005b3415610a1757600080fd5b610a1f613130565b005b3415610a2c57600080fd5b610a46600480803560001916906020019091905050613228565b005b600060096000836000191660001916815260200190815260200160002073__AddressSet____________________________63913aa6cd90916000604051602001526040518263ffffffff167c01000000000000000000000000000000000000000000000000000000000281526004018082815260200191505060206040518083038186803b1515610ad957600080fd5b6102c65a03f41515610aea57600080fd5b505050604051805190509050919050565b6000600673__Bytes32Set____________________________633640611190916000604051602001526040518263ffffffff167c01000000000000000000000000000000000000000000000000000000000281526004018082815260200191505060206040518083038186803b1515610b7357600080fd5b6102c65a03f41515610b8457600080fd5b50505060405180519050905090565b6000600373__AddressSet____________________________635c2125a79091846000604051602001526040518363ffffffff167c0100000000000000000000000000000000000000000000000000000000028152600401808381526020018281526020019250505060206040518083038186803b1515610c1357600080fd5b6102c65a03f41515610c2457600080fd5b505050604051805190509050919050565b610c3d612431565b158015610c6f575060006003811115610c5257fe5b600260019054906101000a900460ff166003811115610c6d57fe5b145b1515610c7a57600080fd5b6000809054906101000a900473ffffffffffffffffffffffffffffffffffffffff1673ffffffffffffffffffffffffffffffffffffffff163373ffffffffffffffffffffffffffffffffffffffff161480610d1e5750600160003373ffffffffffffffffffffffffffffffffffffffff1673ffffffffffffffffffffffffffffffffffffffff16815260200190815260200160002060009054906101000a900460ff165b1515610d2957600080fd5b610d31612fbc565b1515610d3c57600080fd5b6001600260016101000a81548160ff02191690836003811115610d5b57fe5b02179055507fed1cd0670ee0c0017f550451a038818c696d0b6a9d6ce5b369e44275573cf9b060405160405180910390a1565b6000809054906101000a900473ffffffffffffffffffffffffffffffffffffffff1673ffffffffffffffffffffffffffffffffffffffff163373ffffffffffffffffffffffffffffffffffffffff161480610e325750600160003373ffffffffffffffffffffffffffffffffffffffff1673ffffffffffffffffffffffffffffffffffffffff16815260200190815260200160002060009054906101000a900460ff165b1515610e3d57600080fd5b6000600160008373ffffffffffffffffffffffffffffffffffffffff1673ffffffffffffffffffffffffffffffffffffffff16815260200190815260200160002060006101000a81548160ff02191690831515021790555050565b6000600373__AddressSet____________________________63758241e09091846000604051602001526040518363ffffffff167c0100000000000000000000000000000000000000000000000000000000028152600401808381526020018273ffffffffffffffffffffffffffffffffffffffff1673ffffffffffffffffffffffffffffffffffffffff1681526020019250505060206040518083038186803b1515610f4457600080fd5b6102c65a03f41515610f5557600080fd5b505050604051805190509050919050565b600260019054906101000a900460ff1681565b6000809054906101000a900473ffffffffffffffffffffffffffffffffffffffff1673ffffffffffffffffffffffffffffffffffffffff163373ffffffffffffffffffffffffffffffffffffffff16148061101d5750600160003373ffffffffffffffffffffffffffffffffffffffff1673ffffffffffffffffffffffffffffffffffffffff16815260200190815260200160002060009054906101000a900460ff165b151561102857600080fd5b6003600260016101000a81548160ff0219169083600381111561104757fe5b02179055507f72c874aeff0b183a56e2b79c71b46e1aed4dee5e09862134b8821ba2fddbf8bf60405160405180910390a1565b611082612431565b1580156110b457506000600381111561109757fe5b600260019054906101000a900460ff1660038111156110b257fe5b145b15156110bf57600080fd5b6000809054906101000a900473ffffffffffffffffffffffffffffffffffffffff1673ffffffffffffffffffffffffffffffffffffffff163373ffffffffffffffffffffffffffffffffffffffff1614806111635750600160003373ffffffffffffffffffffffffffffffffffffffff1673ffffffffffffffffffffffffffffffffffffffff16815260200190815260200160002060009054906101000a900460ff165b151561116e57600080fd5b600373__AddressSet____________________________63e134066a9091836040518363ffffffff167c0100000000000000000000000000000000000000000000000000000000028152600401808381526020018273ffffffffffffffffffffffffffffffffffffffff1673ffffffffffffffffffffffffffffffffffffffff1681526020019250505060006040518083038186803b151561120f57600080fd5b6102c65a03f4151561122057600080fd5b50505050565b61122e612431565b15801561126057506001600381111561124357fe5b600260019054906101000a900460ff16600381111561125e57fe5b145b151561126b57600080fd5b600373__AddressSet____________________________63758241e09091336000604051602001526040518363ffffffff167c0100000000000000000000000000000000000000000000000000000000028152600401808381526020018273ffffffffffffffffffffffffffffffffffffffff1673ffffffffffffffffffffffffffffffffffffffff1681526020019250505060206040518083038186803b151561131557600080fd5b6102c65a03f4151561132657600080fd5b50505060405180519050151561133b57600080fd5b600d6000826000191660001916815260200190815260200160002060009054906101000a900460ff1615151561137057600080fd5b6001600d6000836000191660001916815260200190815260200160002060006101000a81548160ff021916908315150217905550600e60003373ffffffffffffffffffffffffffffffffffffffff1673ffffffffffffffffffffffffffffffffffffffff16815260200190815260200160002080548060010182816113f591906133b0565b9160005260206000209001600083909190915090600019169055507f8da004b68c600da3aa991b5e006cb35a6909fb3a11e86cd1e36b7d97922da4a53382604051808373ffffffffffffffffffffffffffffffffffffffff1673ffffffffffffffffffffffffffffffffffffffff16815260200182600019166000191681526020019250505060405180910390a150565b600080611491612431565b1580156114c35750600060038111156114a657fe5b600260019054906101000a900460ff1660038111156114c157fe5b145b15156114ce57600080fd5b6000809054906101000a900473ffffffffffffffffffffffffffffffffffffffff1673ffffffffffffffffffffffffffffffffffffffff163373ffffffffffffffffffffffffffffffffffffffff1614806115725750600160003373ffffffffffffffffffffffffffffffffffffffff1673ffffffffffffffffffffffffffffffffffffffff16815260200190815260200160002060009054906101000a900460ff165b151561157d57600080fd5b600673__Bytes32Set____________________________639e3084b09091856040518363ffffffff167c01000000000000000000000000000000000000000000000000000000000281526004018083815260200182600019166000191681526020019250505060006040518083038186803b15156115fa57600080fd5b6102c65a03f4151561160b57600080fd5b505050600091505b600373__AddressSet____________________________63913aa6cd90916000604051602001526040518263ffffffff167c01000000000000000000000000000000000000000000000000000000000281526004018082815260200191505060206040518083038186803b151561168957600080fd5b6102c65a03f4151561169a57600080fd5b5050506040518051905082101561182157600373__AddressSet____________________________635c2125a79091846000604051602001526040518363ffffffff167c0100000000000000000000000000000000000000000000000000000000028152600401808381526020018281526020019250505060206040518083038186803b151561172957600080fd5b6102c65a03f4151561173a57600080fd5b505050604051805190509050600a60008273ffffffffffffffffffffffffffffffffffffffff1673ffffffffffffffffffffffffffffffffffffffff16815260200190815260200160002073__Bytes32Set____________________________639e3084b09091856040518363ffffffff167c01000000000000000000000000000000000000000000000000000000000281526004018083815260200182600019166000191681526020019250505060006040518083038186803b151561180057600080fd5b6102c65a03f4151561181157600080fd5b5050508180600101925050611613565b505050565b61182e612431565b15801561186057506001600381111561184357fe5b600260019054906101000a900460ff16600381111561185e57fe5b145b151561186b57600080fd5b6000809054906101000a900473ffffffffffffffffffffffffffffffffffffffff1673ffffffffffffffffffffffffffffffffffffffff163373ffffffffffffffffffffffffffffffffffffffff16148061190f5750600160003373ffffffffffffffffffffffffffffffffffffffff1673ffffffffffffffffffffffffffffffffffffffff16815260200190815260200160002060009054906101000a900460ff165b151561191a57600080fd5b60028060016101000a81548160ff0219169083600381111561193857fe5b02179055507f1cdde67b72a90f19919ac732a437ac2f7a10fc128d28c2a6e525d89ce5cd9d3a60405160405180910390a1565b600b60009054906101000a900473ffffffffffffffffffffffffffffffffffffffff1681565b6000600a60008473ffffffffffffffffffffffffffffffffffffffff1673ffffffffffffffffffffffffffffffffffffffff16815260200190815260200160002073__Bytes32Set____________________________639286e5419091846000604051602001526040518363ffffffff167c0100000000000000000000000000000000000000000000000000000000028152600401808381526020018281526020019250505060206040518083038186803b1515611a4e57600080fd5b6102c65a03f41515611a5f57600080fd5b50505060405180519050905092915050565b6000600e60008473ffffffffffffffffffffffffffffffffffffffff1673ffffffffffffffffffffffffffffffffffffffff16815260200190815260200160002082815481101515611abf57fe5b906000526020600020900154905092915050565b6000809054906101000a900473ffffffffffffffffffffffffffffffffffffffff1673ffffffffffffffffffffffffffffffffffffffff163373ffffffffffffffffffffffffffffffffffffffff161480611b775750600160003373ffffffffffffffffffffffffffffffffffffffff1673ffffffffffffffffffffffffffffffffffffffff16815260200190815260200160002060009054906101000a900460ff165b1515611b8257600080fd5b60018060008373ffffffffffffffffffffffffffffffffffffffff1673ffffffffffffffffffffffffffffffffffffffff16815260200190815260200160002060006101000a81548160ff02191690831515021790555050565b600060096000846000191660001916815260200190815260200160002073__AddressSet____________________________635c2125a79091846000604051602001526040518363ffffffff167c0100000000000000000000000000000000000000000000000000000000028152600401808381526020018281526020019250505060206040518083038186803b1515611c7557600080fd5b6102c65a03f41515611c8657600080fd5b50505060405180519050905092915050565b6000600373__AddressSet____________________________6318c402499091846000604051602001526040518363ffffffff167c0100000000000000000000000000000000000000000000000000000000028152600401808381526020018273ffffffffffffffffffffffffffffffffffffffff1673ffffffffffffffffffffffffffffffffffffffff1681526020019250505060206040518083038186803b1515611d4457600080fd5b6102c65a03f41515611d5557600080fd5b505050604051805190509050919050565b6000809054906101000a900473ffffffffffffffffffffffffffffffffffffffff1681565b6000806000600373__AddressSet____________________________63913aa6cd90916000604051602001526040518263ffffffff167c01000000000000000000000000000000000000000000000000000000000281526004018082815260200191505060206040518083038186803b1515611e0657600080fd5b6102c65a03f41515611e1757600080fd5b505050604051805190501415611e305760009150612349565b600090505b600373__AddressSet____________________________63913aa6cd90916000604051602001526040518263ffffffff167c01000000000000000000000000000000000000000000000000000000000281526004018082815260200191505060206040518083038186803b1515611eab57600080fd5b6102c65a03f41515611ebc57600080fd5b5050506040518051905081101561234457600373__AddressSet____________________________635c2125a79091836000604051602001526040518363ffffffff167c0100000000000000000000000000000000000000000000000000000000028152600401808381526020018281526020019250505060206040518083038186803b1515611f4b57600080fd5b6102c65a03f41515611f5c57600080fd5b5050506040518051905073ffffffffffffffffffffffffffffffffffffffff1663138b1fa0306000604051602001526040518263ffffffff167c0100000000000000000000000000000000000000000000000000000000028152600401808273ffffffffffffffffffffffffffffffffffffffff1673ffffffffffffffffffffffffffffffffffffffff168152602001915050602060405180830381600087803b151561200857600080fd5b6102c65a03f1151561201957600080fd5b5050506040518051905015156120325760009150612349565b600b60009054906101000a900473ffffffffffffffffffffffffffffffffffffffff1673ffffffffffffffffffffffffffffffffffffffff16600373__AddressSet____________________________635c2125a79091846000604051602001526040518363ffffffff167c0100000000000000000000000000000000000000000000000000000000028152600401808381526020018281526020019250505060206040518083038186803b15156120e957600080fd5b6102c65a03f415156120fa57600080fd5b5050506040518051905073ffffffffffffffffffffffffffffffffffffffff16634b1d3ede6000604051602001526040518163ffffffff167c0100000000000000000000000000000000000000000000000000000000028152600401602060405180830381600087803b151561216f57600080fd5b6102c65a03f1151561218057600080fd5b5050506040518051905073ffffffffffffffffffffffffffffffffffffffff161415156121b05760009150612349565b600b60009054906101000a900473ffffffffffffffffffffffffffffffffffffffff1673ffffffffffffffffffffffffffffffffffffffff16631e1c6a07600373__AddressSet____________________________635c2125a79091856000604051602001526040518363ffffffff167c0100000000000000000000000000000000000000000000000000000000028152600401808381526020018281526020019250505060206040518083038186803b151561226c57600080fd5b6102c65a03f4151561227d57600080fd5b505050604051805190506000604051602001526040518263ffffffff167c0100000000000000000000000000000000000000000000000000000000028152600401808273ffffffffffffffffffffffffffffffffffffffff1673ffffffffffffffffffffffffffffffffffffffff168152602001915050602060405180830381600087803b151561230d57600080fd5b6102c65a03f1151561231e57600080fd5b5050506040518051905015156123375760009150612349565b8080600101915050611e35565b600191505b5090565b6000600373__AddressSet____________________________63913aa6cd90916000604051602001526040518263ffffffff167c01000000000000000000000000000000000000000000000000000000000281526004018082815260200191505060206040518083038186803b15156123c557600080fd5b6102c65a03f415156123d657600080fd5b50505060405180519050905090565b6000600e60008373ffffffffffffffffffffffffffffffffffffffff1673ffffffffffffffffffffffffffffffffffffffff168152602001908152602001600020805490509050919050565b6000600260009054906101000a900460ff16905090565b6000809054906101000a900473ffffffffffffffffffffffffffffffffffffffff1673ffffffffffffffffffffffffffffffffffffffff163373ffffffffffffffffffffffffffffffffffffffff1614806124ec5750600160003373ffffffffffffffffffffffffffffffffffffffff1673ffffffffffffffffffffffffffffffffffffffff16815260200190815260200160002060009054906101000a900460ff165b15156124f757600080fd5b6000600260006101000a81548160ff0219169083151502179055507f19aad37188a1d3921e29eb3c66acf43d81975e107cb650d58cca878627955fd660405160405180910390a1565b600c8054600181600116156101000203166002900480601f0160208091040260200160405190810160405280929190818152602001828054600181600116156101000203166002900480156125d65780601f106125ab576101008083540402835291602001916125d6565b820191906000526020600020905b8154815290600101906020018083116125b957829003601f168201915b505050505081565b6000600260038111156125ed57fe5b600260019054906101000a900460ff16600381111561260857fe5b14905090565b6000600673__Bytes32Set____________________________639286e5419091846000604051602001526040518363ffffffff167c0100000000000000000000000000000000000000000000000000000000028152600401808381526020018281526020019250505060206040518083038186803b151561268e57600080fd5b6102c65a03f4151561269f57600080fd5b505050604051805190509050919050565b60008073ffffffffffffffffffffffffffffffffffffffff16600b60009054906101000a900473ffffffffffffffffffffffffffffffffffffffff1673ffffffffffffffffffffffffffffffffffffffff16141580156127ec5750600b60009054906101000a900473ffffffffffffffffffffffffffffffffffffffff1673ffffffffffffffffffffffffffffffffffffffff1663138b1fa0306000604051602001526040518263ffffffff167c0100000000000000000000000000000000000000000000000000000000028152600401808273ffffffffffffffffffffffffffffffffffffffff1673ffffffffffffffffffffffffffffffffffffffff168152602001915050602060405180830381600087803b15156127d057600080fd5b6102c65a03f115156127e157600080fd5b505050604051805190505b905090565b6127f9612431565b15801561282b57506000600381111561280e57fe5b600260019054906101000a900460ff16600381111561282957fe5b145b151561283657600080fd5b6000809054906101000a900473ffffffffffffffffffffffffffffffffffffffff1673ffffffffffffffffffffffffffffffffffffffff163373ffffffffffffffffffffffffffffffffffffffff1614806128da5750600160003373ffffffffffffffffffffffffffffffffffffffff1673ffffffffffffffffffffffffffffffffffffffff16815260200190815260200160002060009054906101000a900460ff165b15156128e557600080fd5b600373__AddressSet____________________________63f9802f859091836040518363ffffffff167c0100000000000000000000000000000000000000000000000000000000028152600401808381526020018273ffffffffffffffffffffffffffffffffffffffff1673ffffffffffffffffffffffffffffffffffffffff1681526020019250505060006040518083038186803b151561298657600080fd5b6102c65a03f4151561299757600080fd5b5050506129c4817f414c4c00000000000000000000000000000000000000000000000000000000006129c7565b50565b6129cf612431565b158015612a015750600060038111156129e457fe5b600260019054906101000a900460ff1660038111156129ff57fe5b145b1515612a0c57600080fd5b6000809054906101000a900473ffffffffffffffffffffffffffffffffffffffff1673ffffffffffffffffffffffffffffffffffffffff163373ffffffffffffffffffffffffffffffffffffffff161480612ab05750600160003373ffffffffffffffffffffffffffffffffffffffff1673ffffffffffffffffffffffffffffffffffffffff16815260200190815260200160002060009054906101000a900460ff165b1515612abb57600080fd5b600673__Bytes32Set____________________________63932dd8399091836000604051602001526040518363ffffffff167c01000000000000000000000000000000000000000000000000000000000281526004018083815260200182600019166000191681526020019250505060206040518083038186803b1515612b4157600080fd5b6102c65a03f41515612b5257600080fd5b505050604051805190501515612b6757600080fd5b600373__AddressSet____________________________63758241e09091846000604051602001526040518363ffffffff167c0100000000000000000000000000000000000000000000000000000000028152600401808381526020018273ffffffffffffffffffffffffffffffffffffffff1673ffffffffffffffffffffffffffffffffffffffff1681526020019250505060206040518083038186803b1515612c1157600080fd5b6102c65a03f41515612c2257600080fd5b505050604051805190501515612c3757600080fd5b60096000826000191660001916815260200190815260200160002073__AddressSet____________________________63f9802f859091846040518363ffffffff167c0100000000000000000000000000000000000000000000000000000000028152600401808381526020018273ffffffffffffffffffffffffffffffffffffffff1673ffffffffffffffffffffffffffffffffffffffff1681526020019250505060006040518083038186803b1515612cf157600080fd5b6102c65a03f41515612d0257600080fd5b505050600a60008373ffffffffffffffffffffffffffffffffffffffff1673ffffffffffffffffffffffffffffffffffffffff16815260200190815260200160002073__Bytes32Set____________________________63fffd95929091836040518363ffffffff167c01000000000000000000000000000000000000000000000000000000000281526004018083815260200182600019166000191681526020019250505060006040518083038186803b1515612dbf57600080fd5b6102c65a03f41515612dd057600080fd5b5050505050565b6000600a60008373ffffffffffffffffffffffffffffffffffffffff1673ffffffffffffffffffffffffffffffffffffffff16815260200190815260200160002073__Bytes32Set____________________________633640611190916000604051602001526040518263ffffffff167c01000000000000000000000000000000000000000000000000000000000281526004018082815260200191505060206040518083038186803b1515612e8c57600080fd5b6102c65a03f41515612e9d57600080fd5b505050604051805190509050919050565b612eb6612431565b158015612ee8575060006003811115612ecb57fe5b600260019054906101000a900460ff166003811115612ee657fe5b145b1515612ef357600080fd5b6000809054906101000a900473ffffffffffffffffffffffffffffffffffffffff1673ffffffffffffffffffffffffffffffffffffffff163373ffffffffffffffffffffffffffffffffffffffff161480612f975750600160003373ffffffffffffffffffffffffffffffffffffffff1673ffffffffffffffffffffffffffffffffffffffff16815260200190815260200160002060009054906101000a900460ff165b1515612fa257600080fd5b80600c9080519060200190612fb89291906133dc565b5050565b6000612fc66126b0565b8015612fd65750612fd5611d8b565b5b905090565b6000809054906101000a900473ffffffffffffffffffffffffffffffffffffffff1673ffffffffffffffffffffffffffffffffffffffff163373ffffffffffffffffffffffffffffffffffffffff1614151561303657600080fd5b600073ffffffffffffffffffffffffffffffffffffffff168173ffffffffffffffffffffffffffffffffffffffff161415151561307257600080fd5b8073ffffffffffffffffffffffffffffffffffffffff166000809054906101000a900473ffffffffffffffffffffffffffffffffffffffff1673ffffffffffffffffffffffffffffffffffffffff167f8be0079c531659141344cd1fd0a4f28419497f9722a3daafe3b4186f6b6457e060405160405180910390a3806000806101000a81548173ffffffffffffffffffffffffffffffffffffffff021916908373ffffffffffffffffffffffffffffffffffffffff16021790555050565b6000809054906101000a900473ffffffffffffffffffffffffffffffffffffffff1673ffffffffffffffffffffffffffffffffffffffff163373ffffffffffffffffffffffffffffffffffffffff1614806131d45750600160003373ffffffffffffffffffffffffffffffffffffffff1673ffffffffffffffffffffffffffffffffffffffff16815260200190815260200160002060009054906101000a900460ff165b15156131df57600080fd5b6001600260006101000a81548160ff0219169083151502179055507f0f2e5b6c72c6a4491efd919a9f9a409f324ef0708c11ee57d410c2cb06c0992b60405160405180910390a1565b613230612431565b15801561326257506000600381111561324557fe5b600260019054906101000a900460ff16600381111561326057fe5b145b151561326d57600080fd5b6000809054906101000a900473ffffffffffffffffffffffffffffffffffffffff1673ffffffffffffffffffffffffffffffffffffffff163373ffffffffffffffffffffffffffffffffffffffff1614806133115750600160003373ffffffffffffffffffffffffffffffffffffffff1673ffffffffffffffffffffffffffffffffffffffff16815260200190815260200160002060009054906101000a900460ff165b151561331c57600080fd5b600673__Bytes32Set____________________________63fffd95929091836040518363ffffffff167c01000000000000000000000000000000000000000000000000000000000281526004018083815260200182600019166000191681526020019250505060006040518083038186803b151561339957600080fd5b6102c65a03f415156133aa57600080fd5b50505050565b8154818355818115116133d7578183600052602060002091820191016133d6919061345c565b5b505050565b828054600181600116156101000203166002900490600052602060002090601f016020900481019282601f1061341d57805160ff191683800117855561344b565b8280016001018555821561344b579182015b8281111561344a57825182559160200191906001019061342f565b5b5090506134589190613481565b5090565b61347e91905b8082111561347a576000816000905550600101613462565b5090565b90565b6134a391905b8082111561349f576000816000905550600101613487565b5090565b905600a165627a7a72305820723947ebd34b94d747042291aecfdf15c8913bc49be093f4c5d63776f186bc610029",
  "source": "// ------------------------------------------------------------------------------\n// This file is part of netvote.\n//\n// netvote is free software: you can redistribute it and/or modify\n// it under the terms of the GNU General Public License as published by\n// the Free Software Foundation, either version 3 of the License, or\n// (at your option) any later version.\n//\n// netvote is distributed in the hope that it will be useful,\n// but WITHOUT ANY WARRANTY; without even the implied warranty of\n// MERCHANTABILITY or FITNESS FOR A PARTICULAR PURPOSE.  See the\n// GNU General Public License for more details.\n//\n// You should have received a copy of the GNU General Public License\n// along with solidity.  If not, see <http://www.gnu.org/licenses/>\n//\n// (c) 2017 netvote contributors.\n//------------------------------------------------------------------------------\n\npragma solidity ^0.4.17;\n\nimport \"../links/PoolRegistry.sol\";\nimport \"../lib/Bytes32Set.sol\";\nimport \"./Election.sol\";\nimport \"./RegistrationPool.sol\";\n\n\ncontract Ballot is PoolRegistry {\n    using Bytes32Set for Bytes32Set.SetData;\n\n    // events\n    event BallotVote(address pool, bytes32 voteId);\n\n    // default group (popular vote)\n    bytes32 constant GROUP_ALL = \"ALL\";\n\n    // configuration\n    Bytes32Set.SetData groupSet;\n    mapping (bytes32 => AddressSet.SetData) groupPoolSet;\n    mapping (address => Bytes32Set.SetData) poolGroupSet;\n\n    Election public election;\n    string public metadataLocation;\n\n    // state\n    // map of voters to prevent duplicates\n    mapping (bytes32 => bool) voterVoted;\n\n    // pools to the list of voters\n    mapping (address => bytes32[]) poolVoters;\n\n    function Ballot(address electionAddress, address ownerAddress, string location) public {\n        require(electionAddress != address(0));\n        election = Election(electionAddress);\n        owner = ownerAddress;\n        metadataLocation = location;\n        groupSet.put(GROUP_ALL);\n    }\n\n    modifier validPool() {\n        require(poolSet.contains(msg.sender));\n        _;\n    }\n\n    function setMetadataLocation(string location) public building admin {\n        metadataLocation = location;\n    }\n\n    function groupPoolCount(bytes32 group) constant public returns (uint256) {\n        return groupPoolSet[group].size();\n    }\n\n    function getGroupPool(bytes32 group, uint256 index) constant public returns (address) {\n        return groupPoolSet[group].getAt(index);\n    }\n\n    function getPoolVoterCount(address pool) constant public returns(uint256) {\n        return poolVoters[pool].length;\n    }\n\n    // gets voter address by pool and index (for iteration)\n    function getPoolVoter(address pool, uint256 i) constant public returns(bytes32) {\n        return poolVoters[pool][i];\n    }\n\n    // adds a pool to the ballot\n    function addPool(address p) public building admin {\n        poolSet.put(p);\n        addPoolToGroup(p, GROUP_ALL);\n    }\n\n    function checkElection() public constant returns (bool) {\n        return election != address(0) && election.ballotExists(this);\n    }\n\n    function checkPools() public constant returns (bool) {\n        // there must be at least one pool set\n        if (poolSet.size() == 0) {\n            return false;\n        }\n        for (uint256 i = 0; i<poolSet.size(); i++) {\n            // pool must reference this ballot\n            if (!RegistrationPool(poolSet.getAt(i)).ballotExists(this)) {\n                return false;\n            }\n            // pool must point to same election\n            if (RegistrationPool(poolSet.getAt(i)).election() != election) {\n                return false;\n            }\n            // election has the pool\n            if (!election.poolExists(poolSet.getAt(i))) {\n                return false;\n            }\n        }\n        return true;\n    }\n\n    function checkConfig() public constant returns (bool) {\n        return checkElection() && checkPools();\n    }\n\n    function getGroupCount() constant public returns (uint256) {\n        return groupSet.size();\n    }\n\n    function getGroup(uint256 index) constant public returns (bytes32) {\n        return groupSet.getAt(index);\n    }\n\n    function removeGroup(bytes32 group) public building admin {\n        groupSet.remove(group);\n        for (uint256 i = 0; i<poolSet.size(); i++) {\n            address p = poolSet.getAt(i);\n            poolGroupSet[p].remove(group);\n        }\n    }\n\n    function addGroup(bytes32 group) public building admin {\n        groupSet.put(group);\n    }\n\n    function getPoolGroupCount(address pool) constant public returns(uint256) {\n        return poolGroupSet[pool].size();\n    }\n\n    function getPoolGroupAt(address pool, uint256 index) constant public returns(bytes32) {\n        return poolGroupSet[pool].getAt(index);\n    }\n\n    function addPoolToGroup(address pool, bytes32 group) public building admin {\n        require(groupSet.contains(group));\n        require(poolSet.contains(pool));\n        groupPoolSet[group].put(pool);\n        poolGroupSet[pool].put(group);\n    }\n\n    function castVote(bytes32 voteId) public voting validPool {\n        require(!voterVoted[voteId]);\n        voterVoted[voteId] = true;\n        poolVoters[msg.sender].push(voteId);\n        BallotVote(msg.sender, voteId);\n    }\n}",
  "sourcePath": "/Users/slanders/netvote/elections/contracts/elections/Ballot.sol",
  "compiler": {
    "name": "solc",
    "version": "0.4.18+commit.9cf6e910.Emscripten.clang"
  },
  "schemaVersion": "1.0.1",
  "updatedAt": "2017-12-19T00:44:28.724Z"
}