{
  "contractName": "Ballot",
  "abi": [
    {
      "constant": true,
      "inputs": [
        {
          "name": "group",
          "type": "bytes32"
        }
      ],
      "name": "groupPoolCount",
      "outputs": [
        {
          "name": "",
          "type": "uint256"
        }
      ],
      "payable": false,
      "stateMutability": "view",
      "type": "function"
    },
    {
      "constant": true,
      "inputs": [],
      "name": "getGroupCount",
      "outputs": [
        {
          "name": "",
          "type": "uint256"
        }
      ],
      "payable": false,
      "stateMutability": "view",
      "type": "function"
    },
    {
      "constant": true,
      "inputs": [
        {
          "name": "index",
          "type": "uint256"
        }
      ],
      "name": "getPool",
      "outputs": [
        {
          "name": "",
          "type": "address"
        }
      ],
      "payable": false,
      "stateMutability": "view",
      "type": "function"
    },
    {
      "constant": false,
      "inputs": [],
      "name": "activate",
      "outputs": [],
      "payable": false,
      "stateMutability": "nonpayable",
      "type": "function"
    },
    {
      "constant": false,
      "inputs": [
        {
          "name": "addr",
          "type": "address"
        }
      ],
      "name": "removeAdmin",
      "outputs": [],
      "payable": false,
      "stateMutability": "nonpayable",
      "type": "function"
    },
    {
      "constant": true,
      "inputs": [
        {
          "name": "p",
          "type": "address"
        }
      ],
      "name": "poolExists",
      "outputs": [
        {
          "name": "",
          "type": "bool"
        }
      ],
      "payable": false,
      "stateMutability": "view",
      "type": "function"
    },
    {
      "constant": true,
      "inputs": [],
      "name": "electionPhase",
      "outputs": [
        {
          "name": "",
          "type": "uint8"
        }
      ],
      "payable": false,
      "stateMutability": "view",
      "type": "function"
    },
    {
      "constant": false,
      "inputs": [],
      "name": "abort",
      "outputs": [],
      "payable": false,
      "stateMutability": "nonpayable",
      "type": "function"
    },
    {
      "constant": false,
      "inputs": [
        {
          "name": "p",
          "type": "address"
        }
      ],
      "name": "removePool",
      "outputs": [],
      "payable": false,
      "stateMutability": "nonpayable",
      "type": "function"
    },
    {
      "constant": false,
      "inputs": [
        {
          "name": "group",
          "type": "bytes32"
        }
      ],
      "name": "removeGroup",
      "outputs": [],
      "payable": false,
      "stateMutability": "nonpayable",
      "type": "function"
    },
    {
      "constant": false,
      "inputs": [],
      "name": "close",
      "outputs": [],
      "payable": false,
      "stateMutability": "nonpayable",
      "type": "function"
    },
    {
      "constant": true,
      "inputs": [],
      "name": "election",
      "outputs": [
        {
          "name": "",
          "type": "address"
        }
      ],
      "payable": false,
      "stateMutability": "view",
      "type": "function"
    },
    {
      "constant": false,
      "inputs": [
        {
          "name": "voter",
          "type": "address"
        }
      ],
      "name": "castVote",
      "outputs": [],
      "payable": false,
      "stateMutability": "nonpayable",
      "type": "function"
    },
    {
      "constant": true,
      "inputs": [
        {
          "name": "pool",
          "type": "address"
        },
        {
          "name": "i",
          "type": "uint256"
        }
      ],
      "name": "getPoolVoter",
      "outputs": [
        {
          "name": "",
          "type": "address"
        }
      ],
      "payable": false,
      "stateMutability": "view",
      "type": "function"
    },
    {
      "constant": false,
      "inputs": [
        {
          "name": "addr",
          "type": "address"
        }
      ],
      "name": "addAdmin",
      "outputs": [],
      "payable": false,
      "stateMutability": "nonpayable",
      "type": "function"
    },
    {
      "constant": true,
      "inputs": [
        {
          "name": "group",
          "type": "bytes32"
        },
        {
          "name": "index",
          "type": "uint256"
        }
      ],
      "name": "getGroupPool",
      "outputs": [
        {
          "name": "",
          "type": "address"
        }
      ],
      "payable": false,
      "stateMutability": "view",
      "type": "function"
    },
    {
      "constant": true,
      "inputs": [
        {
          "name": "p",
          "type": "address"
        }
      ],
      "name": "getPoolIndex",
      "outputs": [
        {
          "name": "",
          "type": "uint256"
        }
      ],
      "payable": false,
      "stateMutability": "view",
      "type": "function"
    },
    {
      "constant": true,
      "inputs": [],
      "name": "owner",
      "outputs": [
        {
          "name": "",
          "type": "address"
        }
      ],
      "payable": false,
      "stateMutability": "view",
      "type": "function"
    },
    {
      "constant": true,
      "inputs": [],
      "name": "getPoolCount",
      "outputs": [
        {
          "name": "",
          "type": "uint256"
        }
      ],
      "payable": false,
      "stateMutability": "view",
      "type": "function"
    },
    {
      "constant": true,
      "inputs": [
        {
          "name": "pool",
          "type": "address"
        }
      ],
      "name": "getPoolVoterCount",
      "outputs": [
        {
          "name": "",
          "type": "uint256"
        }
      ],
      "payable": false,
      "stateMutability": "view",
      "type": "function"
    },
    {
      "constant": true,
      "inputs": [],
      "name": "isLocked",
      "outputs": [
        {
          "name": "",
          "type": "bool"
        }
      ],
      "payable": false,
      "stateMutability": "view",
      "type": "function"
    },
    {
      "constant": false,
      "inputs": [],
      "name": "unlock",
      "outputs": [],
      "payable": false,
      "stateMutability": "nonpayable",
      "type": "function"
    },
    {
      "constant": true,
      "inputs": [],
      "name": "metadataLocation",
      "outputs": [
        {
          "name": "",
          "type": "string"
        }
      ],
      "payable": false,
      "stateMutability": "view",
      "type": "function"
    },
    {
      "constant": true,
      "inputs": [],
      "name": "isClosed",
      "outputs": [
        {
          "name": "",
          "type": "bool"
        }
      ],
      "payable": false,
      "stateMutability": "view",
      "type": "function"
    },
    {
      "constant": true,
      "inputs": [
        {
          "name": "index",
          "type": "uint256"
        }
      ],
      "name": "getGroup",
      "outputs": [
        {
          "name": "",
          "type": "bytes32"
        }
      ],
      "payable": false,
      "stateMutability": "view",
      "type": "function"
    },
    {
      "constant": false,
      "inputs": [
        {
          "name": "p",
          "type": "address"
        }
      ],
      "name": "addPool",
      "outputs": [],
      "payable": false,
      "stateMutability": "nonpayable",
      "type": "function"
    },
    {
      "constant": false,
      "inputs": [
        {
          "name": "pool",
          "type": "address"
        },
        {
          "name": "group",
          "type": "bytes32"
        }
      ],
      "name": "addPoolToGroup",
      "outputs": [],
      "payable": false,
      "stateMutability": "nonpayable",
      "type": "function"
    },
    {
      "constant": false,
      "inputs": [
        {
          "name": "location",
          "type": "string"
        }
      ],
      "name": "setMetadataLocation",
      "outputs": [],
      "payable": false,
      "stateMutability": "nonpayable",
      "type": "function"
    },
    {
      "constant": true,
      "inputs": [],
      "name": "checkConfig",
      "outputs": [
        {
          "name": "",
          "type": "bool"
        }
      ],
      "payable": false,
      "stateMutability": "view",
      "type": "function"
    },
    {
      "constant": false,
      "inputs": [
        {
          "name": "newOwner",
          "type": "address"
        }
      ],
      "name": "transferOwnership",
      "outputs": [],
      "payable": false,
      "stateMutability": "nonpayable",
      "type": "function"
    },
    {
      "constant": false,
      "inputs": [],
      "name": "lock",
      "outputs": [],
      "payable": false,
      "stateMutability": "nonpayable",
      "type": "function"
    },
    {
      "constant": false,
      "inputs": [
        {
          "name": "group",
          "type": "bytes32"
        }
      ],
      "name": "addGroup",
      "outputs": [],
      "payable": false,
      "stateMutability": "nonpayable",
      "type": "function"
    },
    {
      "inputs": [
        {
          "name": "electionAddress",
          "type": "address"
        },
        {
          "name": "ownerAddress",
          "type": "address"
        },
        {
          "name": "location",
          "type": "string"
        }
      ],
      "payable": false,
      "stateMutability": "nonpayable",
      "type": "constructor"
    },
    {
      "anonymous": false,
      "inputs": [
        {
          "indexed": false,
          "name": "pool",
          "type": "address"
        },
        {
          "indexed": false,
          "name": "voter",
          "type": "address"
        }
      ],
      "name": "BallotVote",
      "type": "event"
    },
    {
      "anonymous": false,
      "inputs": [],
      "name": "Closed",
      "type": "event"
    },
    {
      "anonymous": false,
      "inputs": [],
      "name": "Activated",
      "type": "event"
    },
    {
      "anonymous": false,
      "inputs": [],
      "name": "Aborted",
      "type": "event"
    },
    {
      "anonymous": false,
      "inputs": [],
      "name": "Locked",
      "type": "event"
    },
    {
      "anonymous": false,
      "inputs": [],
      "name": "Unlocked",
      "type": "event"
    },
    {
      "anonymous": false,
      "inputs": [
        {
          "indexed": true,
          "name": "previousOwner",
          "type": "address"
        },
        {
          "indexed": true,
          "name": "newOwner",
          "type": "address"
        }
      ],
      "name": "OwnershipTransferred",
      "type": "event"
    }
  ],
  "bytecode": "0x60606040526002805461ffff1916905534156200001b57600080fd5b6040516200188c3803806200188c83398101604052808051919060200180519190602001805160008054600a8054600160a060020a0319908116600160a060020a038a81169190911790925591821633821617909116908616179055919091019050600b818051620000929291602001906200009c565b5050505062000141565b828054600181600116156101000203166002900490600052602060002090601f016020900481019282601f10620000df57805160ff19168380011785556200010f565b828001600101855582156200010f579182015b828111156200010f578251825591602001919060010190620000f2565b506200011d92915062000121565b5090565b6200013e91905b808211156200011d576000815560010162000128565b90565b61173b80620001516000396000f3006060604052361561017a5763ffffffff60e060020a600035041663027defc1811461017f57806306545a93146101a7578063068bcd8d146101ba5780630f15f4c0146101ec5780631785f53c146102015780631e1c6a0714610220578063265050b61461025357806335a063b41461028a5780633b7d09461461029d57806343273213146102bc57806343d726d6146102d25780634b1d3ede146102e557806353358fc4146102f857806368e3e6b61461031757806370480275146103395780637a4e367c1461035857806387063850146103715780638da5cb5b146103905780638eec5d70146103a3578063978daca7146103b6578063a4e2d634146103d5578063a69df4b5146103e8578063b86901af146103fb578063c2b6b58c14610485578063ceb6065414610498578063d914cd4b146104ae578063e5d3b258146104cd578063eefaf905146104ef578063f098fe4714610540578063f2fde38b14610553578063f83d08ba14610572578063fe2b699a14610585575b600080fd5b341561018a57600080fd5b61019560043561059b565b60405190815260200160405180910390f35b34156101b257600080fd5b610195610622565b34156101c557600080fd5b6101d060043561069c565b604051600160a060020a03909116815260200160405180910390f35b34156101f757600080fd5b6101ff6106fc565b005b341561020c57600080fd5b6101ff600160a060020a03600435166107c1565b341561022b57600080fd5b61023f600160a060020a0360043516610822565b604051901515815260200160405180910390f35b341561025e57600080fd5b61026661088b565b6040518082600381111561027657fe5b60ff16815260200191505060405180910390f35b341561029557600080fd5b6101ff610899565b34156102a857600080fd5b6101ff600160a060020a0360043516610916565b34156102c757600080fd5b6101ff600435610a01565b34156102dd57600080fd5b6101ff610acc565b34156102f057600080fd5b6101d0610b7e565b341561030357600080fd5b6101ff600160a060020a0360043516610b8d565b341561032257600080fd5b6101d0600160a060020a0360043516602435610d38565b341561034457600080fd5b6101ff600160a060020a0360043516610d78565b341561036357600080fd5b6101d0600435602435610ddf565b341561037c57600080fd5b610195600160a060020a0360043516610e6e565b341561039b57600080fd5b6101d0610ed7565b34156103ae57600080fd5b610195610ee6565b34156103c157600080fd5b610195600160a060020a0360043516610f40565b34156103e057600080fd5b61023f610f5b565b34156103f357600080fd5b6101ff610f64565b341561040657600080fd5b61040e610fdc565b60405160208082528190810183818151815260200191508051906020019080838360005b8381101561044a578082015183820152602001610432565b50505050905090810190601f1680156104775780820380516001836020036101000a031916815260200191505b509250505060405180910390f35b341561049057600080fd5b61023f61107a565b34156104a357600080fd5b610195600435611099565b34156104b957600080fd5b6101ff600160a060020a03600435166110f9565b34156104d857600080fd5b6101ff600160a060020a03600435166024356111cd565b34156104fa57600080fd5b6101ff60046024813581810190830135806020601f820181900481020160405190810160405281815292919060208401838380828437509496506113dc95505050505050565b341561054b57600080fd5b61023f611468565b341561055e57600080fd5b6101ff600160a060020a036004351661146d565b341561057d57600080fd5b6101ff611508565b341561059057600080fd5b6101ff600435611583565b60008181526009602052604080822073__AddressSet____________________________9163913aa6cd91908490516020015260405160e060020a63ffffffff8416028152600481019190915260240160206040518083038186803b151561060257600080fd5b6102c65a03f4151561061357600080fd5b50505060405180519392505050565b600073__Bytes32Set____________________________63364061116006836040516020015260405160e060020a63ffffffff8416028152600481019190915260240160206040518083038186803b151561067c57600080fd5b6102c65a03f4151561068d57600080fd5b50505060405180519150505b90565b600073__AddressSet____________________________635c2125a7600384846040516020015260405160e060020a63ffffffff85160281526004810192909252602482015260440160206040518083038186803b151561060257600080fd5b610704610f5b565b15801561072657506000600254610100900460ff16600381111561072457fe5b145b151561073157600080fd5b60005433600160a060020a03908116911614806107665750600160a060020a03331660009081526001602052604090205460ff165b151561077157600080fd5b610779611468565b151561078457600080fd5b6002805461ff0019166101001790557fed1cd0670ee0c0017f550451a038818c696d0b6a9d6ce5b369e44275573cf9b060405160405180910390a1565b60005433600160a060020a03908116911614806107f65750600160a060020a03331660009081526001602052604090205460ff165b151561080157600080fd5b600160a060020a03166000908152600160205260409020805460ff19169055565b600073__AddressSet____________________________63758241e0600384846040516020015260405160e060020a63ffffffff85160281526004810192909252600160a060020a0316602482015260440160206040518083038186803b151561060257600080fd5b600254610100900460ff1681565b60005433600160a060020a03908116911614806108ce5750600160a060020a03331660009081526001602052604090205460ff165b15156108d957600080fd5b6002805461ff0019166103001790557f72c874aeff0b183a56e2b79c71b46e1aed4dee5e09862134b8821ba2fddbf8bf60405160405180910390a1565b61091e610f5b565b15801561094057506000600254610100900460ff16600381111561093e57fe5b145b151561094b57600080fd5b60005433600160a060020a03908116911614806109805750600160a060020a03331660009081526001602052604090205460ff165b151561098b57600080fd5b73__AddressSet____________________________63e134066a60038360405160e060020a63ffffffff85160281526004810192909252600160a060020a0316602482015260440160006040518083038186803b15156109ea57600080fd5b6102c65a03f415156109fb57600080fd5b50505050565b610a09610f5b565b158015610a2b57506000600254610100900460ff166003811115610a2957fe5b145b1515610a3657600080fd5b60005433600160a060020a0390811691161480610a6b5750600160a060020a03331660009081526001602052604090205460ff165b1515610a7657600080fd5b73__Bytes32Set____________________________639e3084b060068360405160e060020a63ffffffff85160281526004810192909252602482015260440160006040518083038186803b15156109ea57600080fd5b610ad4610f5b565b158015610af657506001600254610100900460ff166003811115610af457fe5b145b1515610b0157600080fd5b60005433600160a060020a0390811691161480610b365750600160a060020a03331660009081526001602052604090205460ff165b1515610b4157600080fd5b6002805461ff0019166102001790557f1cdde67b72a90f19919ac732a437ac2f7a10fc128d28c2a6e525d89ce5cd9d3a60405160405180910390a1565b600a54600160a060020a031681565b610b95610f5b565b158015610bb757506001600254610100900460ff166003811115610bb557fe5b145b1515610bc257600080fd5b73__AddressSet____________________________63758241e060033360006040516020015260405160e060020a63ffffffff85160281526004810192909252600160a060020a0316602482015260440160206040518083038186803b1515610c2a57600080fd5b6102c65a03f41515610c3b57600080fd5b505050604051805190501515610c5057600080fd5b600160a060020a0381166000908152600c602052604090205460ff1615610c7657600080fd5b600160a060020a038082166000908152600c60209081526040808320805460ff19166001908117909155339094168352600d9091529020805490918101610cbd838261164e565b506000918252602090912001805473ffffffffffffffffffffffffffffffffffffffff1916600160a060020a0383161790557fdb12e452359c9a5d536e54b5b023b4aa1707b7007600c9143875732887b172cd3382604051600160a060020a039283168152911660208201526040908101905180910390a150565b600160a060020a0382166000908152600d60205260408120805483908110610d5c57fe5b600091825260209091200154600160a060020a03169392505050565b60005433600160a060020a0390811691161480610dad5750600160a060020a03331660009081526001602052604090205460ff165b1515610db857600080fd5b600160a060020a03166000908152600160208190526040909120805460ff19169091179055565b60008281526009602052604080822073__AddressSet____________________________91635c2125a7919085908590516020015260405160e060020a63ffffffff85160281526004810192909252602482015260440160206040518083038186803b1515610e4d57600080fd5b6102c65a03f41515610e5e57600080fd5b5050506040518051949350505050565b600073__AddressSet____________________________6318c40249600384846040516020015260405160e060020a63ffffffff85160281526004810192909252600160a060020a0316602482015260440160206040518083038186803b151561060257600080fd5b600054600160a060020a031681565b600073__AddressSet____________________________63913aa6cd6003836040516020015260405160e060020a63ffffffff8416028152600481019190915260240160206040518083038186803b151561067c57600080fd5b600160a060020a03166000908152600d602052604090205490565b60025460ff1690565b60005433600160a060020a0390811691161480610f995750600160a060020a03331660009081526001602052604090205460ff165b1515610fa457600080fd5b6002805460ff191690557f19aad37188a1d3921e29eb3c66acf43d81975e107cb650d58cca878627955fd660405160405180910390a1565b600b8054600181600116156101000203166002900480601f0160208091040260200160405190810160405280929190818152602001828054600181600116156101000203166002900480156110725780601f1061104757610100808354040283529160200191611072565b820191906000526020600020905b81548152906001019060200180831161105557829003601f168201915b505050505081565b600060028054610100900460ff16600381111561109357fe5b14905090565b600073__Bytes32Set____________________________639286e541600684846040516020015260405160e060020a63ffffffff85160281526004810192909252602482015260440160206040518083038186803b151561060257600080fd5b611101610f5b565b15801561112357506000600254610100900460ff16600381111561112157fe5b145b151561112e57600080fd5b60005433600160a060020a03908116911614806111635750600160a060020a03331660009081526001602052604090205460ff165b151561116e57600080fd5b73__AddressSet____________________________63f9802f8560038360405160e060020a63ffffffff85160281526004810192909252600160a060020a0316602482015260440160006040518083038186803b15156109ea57600080fd5b6111d5610f5b565b1580156111f757506000600254610100900460ff1660038111156111f557fe5b145b151561120257600080fd5b60005433600160a060020a03908116911614806112375750600160a060020a03331660009081526001602052604090205460ff165b151561124257600080fd5b73__Bytes32Set____________________________63932dd83960068360006040516020015260405160e060020a63ffffffff85160281526004810192909252602482015260440160206040518083038186803b15156112a157600080fd5b6102c65a03f415156112b257600080fd5b5050506040518051905015156112c757600080fd5b73__AddressSet____________________________63758241e060038460006040516020015260405160e060020a63ffffffff85160281526004810192909252600160a060020a0316602482015260440160206040518083038186803b151561132f57600080fd5b6102c65a03f4151561134057600080fd5b50505060405180519050151561135557600080fd5b6000818152600960205260409081902073__AddressSet____________________________9163f9802f85919085905160e060020a63ffffffff85160281526004810192909252600160a060020a0316602482015260440160006040518083038186803b15156113c457600080fd5b6102c65a03f415156113d557600080fd5b5050505050565b6113e4610f5b565b15801561140657506000600254610100900460ff16600381111561140457fe5b145b151561141157600080fd5b60005433600160a060020a03908116911614806114465750600160a060020a03331660009081526001602052604090205460ff165b151561145157600080fd5b600b818051611464929160200190611677565b5050565b600190565b60005433600160a060020a0390811691161461148857600080fd5b600160a060020a038116151561149d57600080fd5b600054600160a060020a0380831691167f8be0079c531659141344cd1fd0a4f28419497f9722a3daafe3b4186f6b6457e060405160405180910390a36000805473ffffffffffffffffffffffffffffffffffffffff1916600160a060020a0392909216919091179055565b60005433600160a060020a039081169116148061153d5750600160a060020a03331660009081526001602052604090205460ff165b151561154857600080fd5b6002805460ff191660011790557f0f2e5b6c72c6a4491efd919a9f9a409f324ef0708c11ee57d410c2cb06c0992b60405160405180910390a1565b61158b610f5b565b1580156115ad57506000600254610100900460ff1660038111156115ab57fe5b145b15156115b857600080fd5b60005433600160a060020a03908116911614806115ed5750600160a060020a03331660009081526001602052604090205460ff165b15156115f857600080fd5b73__Bytes32Set____________________________63fffd959260068360405160e060020a63ffffffff85160281526004810192909252602482015260440160006040518083038186803b15156109ea57600080fd5b815481835581811511611672576000838152602090206116729181019083016116f5565b505050565b828054600181600116156101000203166002900490600052602060002090601f016020900481019282601f106116b857805160ff19168380011785556116e5565b828001600101855582156116e5579182015b828111156116e55782518255916020019190600101906116ca565b506116f19291506116f5565b5090565b61069991905b808211156116f157600081556001016116fb5600a165627a7a7230582068a5e2063f5c941aa7c28343b81d4067c49b3fd107d29c36954fac690200f55b0029",
  "source": "// ------------------------------------------------------------------------------\n// This file is part of netvote.\n//\n// netvote is free software: you can redistribute it and/or modify\n// it under the terms of the GNU General Public License as published by\n// the Free Software Foundation, either version 3 of the License, or\n// (at your option) any later version.\n//\n// netvote is distributed in the hope that it will be useful,\n// but WITHOUT ANY WARRANTY; without even the implied warranty of\n// MERCHANTABILITY or FITNESS FOR A PARTICULAR PURPOSE.  See the\n// GNU General Public License for more details.\n//\n// You should have received a copy of the GNU General Public License\n// along with solidity.  If not, see <http://www.gnu.org/licenses/>\n//\n// (c) 2017 netvote contributors.\n//------------------------------------------------------------------------------\n\npragma solidity ^0.4.17;\n\nimport \"../links/PoolRegistry.sol\";\nimport \"../lib/Bytes32Set.sol\";\n\n\ncontract Ballot is PoolRegistry {\n    using Bytes32Set for Bytes32Set.SetData;\n\n    // events\n    event BallotVote(address pool, address voter);\n\n    // configuration\n    Bytes32Set.SetData groupSet;\n    mapping (bytes32 => AddressSet.SetData) groupPoolSet;\n    address public election;\n    string public metadataLocation;\n\n    // state\n    // map of voters to prevent duplicates\n    mapping (address => bool) voterVoted;\n\n    // pools to the list of voters\n    mapping (address => address[]) poolVoters;\n\n    function Ballot(address electionAddress, address ownerAddress, string location) public {\n        election = electionAddress;\n        owner = ownerAddress;\n        metadataLocation = location;\n    }\n\n    modifier validPool() {\n        require(poolSet.contains(msg.sender));\n        _;\n    }\n\n    function setMetadataLocation(string location) public building admin {\n        metadataLocation = location;\n    }\n\n    function groupPoolCount(bytes32 group) constant public returns (uint256) {\n        return groupPoolSet[group].size();\n    }\n\n    function getGroupPool(bytes32 group, uint256 index) constant public returns (address) {\n        return groupPoolSet[group].getAt(index);\n    }\n\n    function getPoolVoterCount(address pool) constant public returns(uint256) {\n        return poolVoters[pool].length;\n    }\n\n    // gets voter address by pool and index (for iteration)\n    function getPoolVoter(address pool, uint256 i) constant public returns(address) {\n        return poolVoters[pool][i];\n    }\n\n    function checkConfig() public constant returns (bool) {\n        //TODO: implement\n        return true;\n    }\n\n    function getGroupCount() constant public returns (uint256) {\n        return groupSet.size();\n    }\n\n    function getGroup(uint256 index) constant public returns (bytes32) {\n        return groupSet.getAt(index);\n    }\n\n    function removeGroup(bytes32 group) public building admin {\n        groupSet.remove(group);\n    }\n\n    function addGroup(bytes32 group) public building admin {\n        groupSet.put(group);\n    }\n\n    function addPoolToGroup(address pool, bytes32 group) public building admin {\n        require(groupSet.contains(group));\n        require(poolSet.contains(pool));\n        groupPoolSet[group].put(pool);\n    }\n\n    function castVote(address voter) public voting validPool {\n        require(!voterVoted[voter]);\n        voterVoted[voter] = true;\n        poolVoters[msg.sender].push(voter);\n        BallotVote(msg.sender, voter);\n    }\n}",
  "sourcePath": "/Users/slanders/netvote/elections/contracts/elections/Ballot.sol",
  "schemaVersion": "1.0.0",
  "updatedAt": "2017-12-04T16:50:28.450Z"
}