{
  "contractName": "Ballot",
  "abi": [
    {
      "constant": true,
      "inputs": [
        {
          "name": "group",
          "type": "bytes32"
        }
      ],
      "name": "groupPoolCount",
      "outputs": [
        {
          "name": "",
          "type": "uint256"
        }
      ],
      "payable": false,
      "stateMutability": "view",
      "type": "function"
    },
    {
      "constant": true,
      "inputs": [],
      "name": "getGroupCount",
      "outputs": [
        {
          "name": "",
          "type": "uint256"
        }
      ],
      "payable": false,
      "stateMutability": "view",
      "type": "function"
    },
    {
      "constant": true,
      "inputs": [
        {
          "name": "index",
          "type": "uint256"
        }
      ],
      "name": "getPool",
      "outputs": [
        {
          "name": "",
          "type": "address"
        }
      ],
      "payable": false,
      "stateMutability": "view",
      "type": "function"
    },
    {
      "constant": false,
      "inputs": [],
      "name": "activate",
      "outputs": [],
      "payable": false,
      "stateMutability": "nonpayable",
      "type": "function"
    },
    {
      "constant": false,
      "inputs": [
        {
          "name": "addr",
          "type": "address"
        }
      ],
      "name": "removeAdmin",
      "outputs": [],
      "payable": false,
      "stateMutability": "nonpayable",
      "type": "function"
    },
    {
      "constant": true,
      "inputs": [
        {
          "name": "p",
          "type": "address"
        }
      ],
      "name": "poolExists",
      "outputs": [
        {
          "name": "",
          "type": "bool"
        }
      ],
      "payable": false,
      "stateMutability": "view",
      "type": "function"
    },
    {
      "constant": true,
      "inputs": [],
      "name": "electionPhase",
      "outputs": [
        {
          "name": "",
          "type": "uint8"
        }
      ],
      "payable": false,
      "stateMutability": "view",
      "type": "function"
    },
    {
      "constant": false,
      "inputs": [],
      "name": "abort",
      "outputs": [],
      "payable": false,
      "stateMutability": "nonpayable",
      "type": "function"
    },
    {
      "constant": false,
      "inputs": [
        {
          "name": "p",
          "type": "address"
        }
      ],
      "name": "removePool",
      "outputs": [],
      "payable": false,
      "stateMutability": "nonpayable",
      "type": "function"
    },
    {
      "constant": false,
      "inputs": [
        {
          "name": "group",
          "type": "bytes32"
        }
      ],
      "name": "removeGroup",
      "outputs": [],
      "payable": false,
      "stateMutability": "nonpayable",
      "type": "function"
    },
    {
      "constant": false,
      "inputs": [],
      "name": "close",
      "outputs": [],
      "payable": false,
      "stateMutability": "nonpayable",
      "type": "function"
    },
    {
      "constant": true,
      "inputs": [],
      "name": "election",
      "outputs": [
        {
          "name": "",
          "type": "address"
        }
      ],
      "payable": false,
      "stateMutability": "view",
      "type": "function"
    },
    {
      "constant": false,
      "inputs": [
        {
          "name": "voter",
          "type": "address"
        }
      ],
      "name": "castVote",
      "outputs": [],
      "payable": false,
      "stateMutability": "nonpayable",
      "type": "function"
    },
    {
      "constant": true,
      "inputs": [
        {
          "name": "pool",
          "type": "address"
        },
        {
          "name": "index",
          "type": "uint256"
        }
      ],
      "name": "getPoolGroupAt",
      "outputs": [
        {
          "name": "",
          "type": "bytes32"
        }
      ],
      "payable": false,
      "stateMutability": "view",
      "type": "function"
    },
    {
      "constant": true,
      "inputs": [
        {
          "name": "pool",
          "type": "address"
        },
        {
          "name": "i",
          "type": "uint256"
        }
      ],
      "name": "getPoolVoter",
      "outputs": [
        {
          "name": "",
          "type": "address"
        }
      ],
      "payable": false,
      "stateMutability": "view",
      "type": "function"
    },
    {
      "constant": false,
      "inputs": [
        {
          "name": "addr",
          "type": "address"
        }
      ],
      "name": "addAdmin",
      "outputs": [],
      "payable": false,
      "stateMutability": "nonpayable",
      "type": "function"
    },
    {
      "constant": true,
      "inputs": [
        {
          "name": "group",
          "type": "bytes32"
        },
        {
          "name": "index",
          "type": "uint256"
        }
      ],
      "name": "getGroupPool",
      "outputs": [
        {
          "name": "",
          "type": "address"
        }
      ],
      "payable": false,
      "stateMutability": "view",
      "type": "function"
    },
    {
      "constant": true,
      "inputs": [
        {
          "name": "p",
          "type": "address"
        }
      ],
      "name": "getPoolIndex",
      "outputs": [
        {
          "name": "",
          "type": "uint256"
        }
      ],
      "payable": false,
      "stateMutability": "view",
      "type": "function"
    },
    {
      "constant": true,
      "inputs": [],
      "name": "owner",
      "outputs": [
        {
          "name": "",
          "type": "address"
        }
      ],
      "payable": false,
      "stateMutability": "view",
      "type": "function"
    },
    {
      "constant": true,
      "inputs": [],
      "name": "checkPools",
      "outputs": [
        {
          "name": "",
          "type": "bool"
        }
      ],
      "payable": false,
      "stateMutability": "view",
      "type": "function"
    },
    {
      "constant": true,
      "inputs": [],
      "name": "getPoolCount",
      "outputs": [
        {
          "name": "",
          "type": "uint256"
        }
      ],
      "payable": false,
      "stateMutability": "view",
      "type": "function"
    },
    {
      "constant": true,
      "inputs": [
        {
          "name": "pool",
          "type": "address"
        }
      ],
      "name": "getPoolVoterCount",
      "outputs": [
        {
          "name": "",
          "type": "uint256"
        }
      ],
      "payable": false,
      "stateMutability": "view",
      "type": "function"
    },
    {
      "constant": true,
      "inputs": [],
      "name": "isLocked",
      "outputs": [
        {
          "name": "",
          "type": "bool"
        }
      ],
      "payable": false,
      "stateMutability": "view",
      "type": "function"
    },
    {
      "constant": false,
      "inputs": [],
      "name": "unlock",
      "outputs": [],
      "payable": false,
      "stateMutability": "nonpayable",
      "type": "function"
    },
    {
      "constant": true,
      "inputs": [],
      "name": "metadataLocation",
      "outputs": [
        {
          "name": "",
          "type": "string"
        }
      ],
      "payable": false,
      "stateMutability": "view",
      "type": "function"
    },
    {
      "constant": true,
      "inputs": [],
      "name": "isClosed",
      "outputs": [
        {
          "name": "",
          "type": "bool"
        }
      ],
      "payable": false,
      "stateMutability": "view",
      "type": "function"
    },
    {
      "constant": true,
      "inputs": [
        {
          "name": "index",
          "type": "uint256"
        }
      ],
      "name": "getGroup",
      "outputs": [
        {
          "name": "",
          "type": "bytes32"
        }
      ],
      "payable": false,
      "stateMutability": "view",
      "type": "function"
    },
    {
      "constant": true,
      "inputs": [],
      "name": "checkElection",
      "outputs": [
        {
          "name": "",
          "type": "bool"
        }
      ],
      "payable": false,
      "stateMutability": "view",
      "type": "function"
    },
    {
      "constant": false,
      "inputs": [
        {
          "name": "p",
          "type": "address"
        }
      ],
      "name": "addPool",
      "outputs": [],
      "payable": false,
      "stateMutability": "nonpayable",
      "type": "function"
    },
    {
      "constant": false,
      "inputs": [
        {
          "name": "pool",
          "type": "address"
        },
        {
          "name": "group",
          "type": "bytes32"
        }
      ],
      "name": "addPoolToGroup",
      "outputs": [],
      "payable": false,
      "stateMutability": "nonpayable",
      "type": "function"
    },
    {
      "constant": true,
      "inputs": [
        {
          "name": "pool",
          "type": "address"
        }
      ],
      "name": "getPoolGroupCount",
      "outputs": [
        {
          "name": "",
          "type": "uint256"
        }
      ],
      "payable": false,
      "stateMutability": "view",
      "type": "function"
    },
    {
      "constant": false,
      "inputs": [
        {
          "name": "location",
          "type": "string"
        }
      ],
      "name": "setMetadataLocation",
      "outputs": [],
      "payable": false,
      "stateMutability": "nonpayable",
      "type": "function"
    },
    {
      "constant": true,
      "inputs": [],
      "name": "checkConfig",
      "outputs": [
        {
          "name": "",
          "type": "bool"
        }
      ],
      "payable": false,
      "stateMutability": "view",
      "type": "function"
    },
    {
      "constant": false,
      "inputs": [
        {
          "name": "newOwner",
          "type": "address"
        }
      ],
      "name": "transferOwnership",
      "outputs": [],
      "payable": false,
      "stateMutability": "nonpayable",
      "type": "function"
    },
    {
      "constant": false,
      "inputs": [],
      "name": "lock",
      "outputs": [],
      "payable": false,
      "stateMutability": "nonpayable",
      "type": "function"
    },
    {
      "constant": false,
      "inputs": [
        {
          "name": "group",
          "type": "bytes32"
        }
      ],
      "name": "addGroup",
      "outputs": [],
      "payable": false,
      "stateMutability": "nonpayable",
      "type": "function"
    },
    {
      "inputs": [
        {
          "name": "electionAddress",
          "type": "address"
        },
        {
          "name": "ownerAddress",
          "type": "address"
        },
        {
          "name": "location",
          "type": "string"
        }
      ],
      "payable": false,
      "stateMutability": "nonpayable",
      "type": "constructor"
    },
    {
      "anonymous": false,
      "inputs": [
        {
          "indexed": false,
          "name": "pool",
          "type": "address"
        },
        {
          "indexed": false,
          "name": "voter",
          "type": "address"
        }
      ],
      "name": "BallotVote",
      "type": "event"
    },
    {
      "anonymous": false,
      "inputs": [],
      "name": "Closed",
      "type": "event"
    },
    {
      "anonymous": false,
      "inputs": [],
      "name": "Activated",
      "type": "event"
    },
    {
      "anonymous": false,
      "inputs": [],
      "name": "Aborted",
      "type": "event"
    },
    {
      "anonymous": false,
      "inputs": [],
      "name": "Locked",
      "type": "event"
    },
    {
      "anonymous": false,
      "inputs": [],
      "name": "Unlocked",
      "type": "event"
    },
    {
      "anonymous": false,
      "inputs": [
        {
          "indexed": true,
          "name": "previousOwner",
          "type": "address"
        },
        {
          "indexed": true,
          "name": "newOwner",
          "type": "address"
        }
      ],
      "name": "OwnershipTransferred",
      "type": "event"
    }
  ],
  "bytecode": "0x60606040526000600260006101000a81548160ff0219169083151502179055506000600260016101000a81548160ff021916908360038111156200003f57fe5b021790555034156200005057600080fd5b604051620039b5380380620039b583398101604052808051906020019091908051906020019091908051820191905050336000806101000a81548173ffffffffffffffffffffffffffffffffffffffff021916908373ffffffffffffffffffffffffffffffffffffffff160217905550600073ffffffffffffffffffffffffffffffffffffffff168373ffffffffffffffffffffffffffffffffffffffff1614151515620000fd57600080fd5b82600b60006101000a81548173ffffffffffffffffffffffffffffffffffffffff021916908373ffffffffffffffffffffffffffffffffffffffff160217905550816000806101000a81548173ffffffffffffffffffffffffffffffffffffffff021916908373ffffffffffffffffffffffffffffffffffffffff16021790555080600c90805190602001906200019692919062000253565b50600673__Bytes32Set____________________________63fffd959290917f414c4c00000000000000000000000000000000000000000000000000000000006040518363ffffffff167c01000000000000000000000000000000000000000000000000000000000281526004018083815260200182600019166000191681526020019250505060006040518083038186803b15156200023557600080fd5b6102c65a03f415156200024757600080fd5b50505050505062000302565b828054600181600116156101000203166002900490600052602060002090601f016020900481019282601f106200029657805160ff1916838001178555620002c7565b82800160010185558215620002c7579182015b82811115620002c6578251825591602001919060010190620002a9565b5b509050620002d69190620002da565b5090565b620002ff91905b80821115620002fb576000816000905550600101620002e1565b5090565b90565b6136a380620003126000396000f3006060604052600436106101c2576000357c0100000000000000000000000000000000000000000000000000000000900463ffffffff168063027defc1146101c757806306545a9314610202578063068bcd8d1461022b5780630f15f4c01461028e5780631785f53c146102a35780631e1c6a07146102dc578063265050b61461032d57806335a063b4146103645780633b7d09461461037957806343273213146103b257806343d726d6146103d95780634b1d3ede146103ee57806353358fc414610443578063597c92f71461047c57806368e3e6b6146104da578063704802751461055c5780637a4e367c1461059557806387063850146106055780638da5cb5b146106525780638e3d89cb146106a75780638eec5d70146106d4578063978daca7146106fd578063a4e2d6341461074a578063a69df4b514610777578063b86901af1461078c578063c2b6b58c1461081a578063ceb6065414610847578063d1bdd4d314610886578063d914cd4b146108b3578063e5d3b258146108ec578063e5de025a14610932578063eefaf9051461097f578063f098fe47146109dc578063f2fde38b14610a09578063f83d08ba14610a42578063fe2b699a14610a57575b600080fd5b34156101d257600080fd5b6101ec600480803560001916906020019091905050610a7e565b6040518082815260200191505060405180910390f35b341561020d57600080fd5b610215610b31565b6040518082815260200191505060405180910390f35b341561023657600080fd5b61024c6004808035906020019091905050610bc9565b604051808273ffffffffffffffffffffffffffffffffffffffff1673ffffffffffffffffffffffffffffffffffffffff16815260200191505060405180910390f35b341561029957600080fd5b6102a1610c6b565b005b34156102ae57600080fd5b6102da600480803573ffffffffffffffffffffffffffffffffffffffff16906020019091905050610dc4565b005b34156102e757600080fd5b610313600480803573ffffffffffffffffffffffffffffffffffffffff16906020019091905050610ece565b604051808215151515815260200191505060405180910390f35b341561033857600080fd5b610340610f9c565b6040518082600381111561035057fe5b60ff16815260200191505060405180910390f35b341561036f57600080fd5b610377610faf565b005b341561038457600080fd5b6103b0600480803573ffffffffffffffffffffffffffffffffffffffff169060200190919050506110b0565b005b34156103bd57600080fd5b6103d760048080356000191690602001909190505061125c565b005b34156103e457600080fd5b6103ec6115fc565b005b34156103f957600080fd5b610401611741565b604051808273ffffffffffffffffffffffffffffffffffffffff1673ffffffffffffffffffffffffffffffffffffffff16815260200191505060405180910390f35b341561044e57600080fd5b61047a600480803573ffffffffffffffffffffffffffffffffffffffff16906020019091905050611767565b005b341561048757600080fd5b6104bc600480803573ffffffffffffffffffffffffffffffffffffffff16906020019091908035906020019091905050611a67565b60405180826000191660001916815260200191505060405180910390f35b34156104e557600080fd5b61051a600480803573ffffffffffffffffffffffffffffffffffffffff16906020019091908035906020019091905050611b47565b604051808273ffffffffffffffffffffffffffffffffffffffff1673ffffffffffffffffffffffffffffffffffffffff16815260200191505060405180910390f35b341561056757600080fd5b610593600480803573ffffffffffffffffffffffffffffffffffffffff16906020019091905050611bc9565b005b34156105a057600080fd5b6105c3600480803560001916906020019091908035906020019091905050611cd2565b604051808273ffffffffffffffffffffffffffffffffffffffff1673ffffffffffffffffffffffffffffffffffffffff16815260200191505060405180910390f35b341561061057600080fd5b61063c600480803573ffffffffffffffffffffffffffffffffffffffff16906020019091905050611d8e565b6040518082815260200191505060405180910390f35b341561065d57600080fd5b610665611e5c565b604051808273ffffffffffffffffffffffffffffffffffffffff1673ffffffffffffffffffffffffffffffffffffffff16815260200191505060405180910390f35b34156106b257600080fd5b6106ba611e81565b604051808215151515815260200191505060405180910390f35b34156106df57600080fd5b6106e7612443565b6040518082815260200191505060405180910390f35b341561070857600080fd5b610734600480803573ffffffffffffffffffffffffffffffffffffffff169060200190919050506124db565b6040518082815260200191505060405180910390f35b341561075557600080fd5b61075d612527565b604051808215151515815260200191505060405180910390f35b341561078257600080fd5b61078a61253e565b005b341561079757600080fd5b61079f612636565b6040518080602001828103825283818151815260200191508051906020019080838360005b838110156107df5780820151818401526020810190506107c4565b50505050905090810190601f16801561080c5780820380516001836020036101000a031916815260200191505b509250505060405180910390f35b341561082557600080fd5b61082d6126d4565b604051808215151515815260200191505060405180910390f35b341561085257600080fd5b6108686004808035906020019091905050612704565b60405180826000191660001916815260200191505060405180910390f35b341561089157600080fd5b6108996127a6565b604051808215151515815260200191505060405180910390f35b34156108be57600080fd5b6108ea600480803573ffffffffffffffffffffffffffffffffffffffff169060200190919050506128e7565b005b34156108f757600080fd5b610930600480803573ffffffffffffffffffffffffffffffffffffffff1690602001909190803560001916906020019091905050612a11565b005b341561093d57600080fd5b610969600480803573ffffffffffffffffffffffffffffffffffffffff16906020019091905050612e21565b6040518082815260200191505060405180910390f35b341561098a57600080fd5b6109da600480803590602001908201803590602001908080601f01602080910402602001604051908101604052809392919081815260200183838082843782019150505050505091905050612ef8565b005b34156109e757600080fd5b6109ef613006565b604051808215151515815260200191505060405180910390f35b3415610a1457600080fd5b610a40600480803573ffffffffffffffffffffffffffffffffffffffff16906020019091905050613025565b005b3415610a4d57600080fd5b610a5561317a565b005b3415610a6257600080fd5b610a7c600480803560001916906020019091905050613272565b005b600060096000836000191660001916815260200190815260200160002073__AddressSet____________________________63913aa6cd90916000604051602001526040518263ffffffff167c01000000000000000000000000000000000000000000000000000000000281526004018082815260200191505060206040518083038186803b1515610b0f57600080fd5b6102c65a03f41515610b2057600080fd5b505050604051805190509050919050565b6000600673__Bytes32Set____________________________633640611190916000604051602001526040518263ffffffff167c01000000000000000000000000000000000000000000000000000000000281526004018082815260200191505060206040518083038186803b1515610ba957600080fd5b6102c65a03f41515610bba57600080fd5b50505060405180519050905090565b6000600373__AddressSet____________________________635c2125a79091846000604051602001526040518363ffffffff167c0100000000000000000000000000000000000000000000000000000000028152600401808381526020018281526020019250505060206040518083038186803b1515610c4957600080fd5b6102c65a03f41515610c5a57600080fd5b505050604051805190509050919050565b610c73612527565b158015610ca5575060006003811115610c8857fe5b600260019054906101000a900460ff166003811115610ca357fe5b145b1515610cb057600080fd5b6000809054906101000a900473ffffffffffffffffffffffffffffffffffffffff1673ffffffffffffffffffffffffffffffffffffffff163373ffffffffffffffffffffffffffffffffffffffff161480610d545750600160003373ffffffffffffffffffffffffffffffffffffffff1673ffffffffffffffffffffffffffffffffffffffff16815260200190815260200160002060009054906101000a900460ff165b1515610d5f57600080fd5b610d67613006565b1515610d7257600080fd5b6001600260016101000a81548160ff02191690836003811115610d9157fe5b02179055507fed1cd0670ee0c0017f550451a038818c696d0b6a9d6ce5b369e44275573cf9b060405160405180910390a1565b6000809054906101000a900473ffffffffffffffffffffffffffffffffffffffff1673ffffffffffffffffffffffffffffffffffffffff163373ffffffffffffffffffffffffffffffffffffffff161480610e685750600160003373ffffffffffffffffffffffffffffffffffffffff1673ffffffffffffffffffffffffffffffffffffffff16815260200190815260200160002060009054906101000a900460ff165b1515610e7357600080fd5b6000600160008373ffffffffffffffffffffffffffffffffffffffff1673ffffffffffffffffffffffffffffffffffffffff16815260200190815260200160002060006101000a81548160ff02191690831515021790555050565b6000600373__AddressSet____________________________63758241e09091846000604051602001526040518363ffffffff167c0100000000000000000000000000000000000000000000000000000000028152600401808381526020018273ffffffffffffffffffffffffffffffffffffffff1673ffffffffffffffffffffffffffffffffffffffff1681526020019250505060206040518083038186803b1515610f7a57600080fd5b6102c65a03f41515610f8b57600080fd5b505050604051805190509050919050565b600260019054906101000a900460ff1681565b6000809054906101000a900473ffffffffffffffffffffffffffffffffffffffff1673ffffffffffffffffffffffffffffffffffffffff163373ffffffffffffffffffffffffffffffffffffffff1614806110535750600160003373ffffffffffffffffffffffffffffffffffffffff1673ffffffffffffffffffffffffffffffffffffffff16815260200190815260200160002060009054906101000a900460ff165b151561105e57600080fd5b6003600260016101000a81548160ff0219169083600381111561107d57fe5b02179055507f72c874aeff0b183a56e2b79c71b46e1aed4dee5e09862134b8821ba2fddbf8bf60405160405180910390a1565b6110b8612527565b1580156110ea5750600060038111156110cd57fe5b600260019054906101000a900460ff1660038111156110e857fe5b145b15156110f557600080fd5b6000809054906101000a900473ffffffffffffffffffffffffffffffffffffffff1673ffffffffffffffffffffffffffffffffffffffff163373ffffffffffffffffffffffffffffffffffffffff1614806111995750600160003373ffffffffffffffffffffffffffffffffffffffff1673ffffffffffffffffffffffffffffffffffffffff16815260200190815260200160002060009054906101000a900460ff165b15156111a457600080fd5b600373__AddressSet____________________________63e134066a9091836040518363ffffffff167c0100000000000000000000000000000000000000000000000000000000028152600401808381526020018273ffffffffffffffffffffffffffffffffffffffff1673ffffffffffffffffffffffffffffffffffffffff1681526020019250505060006040518083038186803b151561124557600080fd5b6102c65a03f4151561125657600080fd5b50505050565b600080611267612527565b15801561129957506000600381111561127c57fe5b600260019054906101000a900460ff16600381111561129757fe5b145b15156112a457600080fd5b6000809054906101000a900473ffffffffffffffffffffffffffffffffffffffff1673ffffffffffffffffffffffffffffffffffffffff163373ffffffffffffffffffffffffffffffffffffffff1614806113485750600160003373ffffffffffffffffffffffffffffffffffffffff1673ffffffffffffffffffffffffffffffffffffffff16815260200190815260200160002060009054906101000a900460ff165b151561135357600080fd5b600673__Bytes32Set____________________________639e3084b09091856040518363ffffffff167c01000000000000000000000000000000000000000000000000000000000281526004018083815260200182600019166000191681526020019250505060006040518083038186803b15156113d057600080fd5b6102c65a03f415156113e157600080fd5b505050600091505b600373__AddressSet____________________________63913aa6cd90916000604051602001526040518263ffffffff167c01000000000000000000000000000000000000000000000000000000000281526004018082815260200191505060206040518083038186803b151561145f57600080fd5b6102c65a03f4151561147057600080fd5b505050604051805190508210156115f757600373__AddressSet____________________________635c2125a79091846000604051602001526040518363ffffffff167c0100000000000000000000000000000000000000000000000000000000028152600401808381526020018281526020019250505060206040518083038186803b15156114ff57600080fd5b6102c65a03f4151561151057600080fd5b505050604051805190509050600a60008273ffffffffffffffffffffffffffffffffffffffff1673ffffffffffffffffffffffffffffffffffffffff16815260200190815260200160002073__Bytes32Set____________________________639e3084b09091856040518363ffffffff167c01000000000000000000000000000000000000000000000000000000000281526004018083815260200182600019166000191681526020019250505060006040518083038186803b15156115d657600080fd5b6102c65a03f415156115e757600080fd5b50505081806001019250506113e9565b505050565b611604612527565b15801561163657506001600381111561161957fe5b600260019054906101000a900460ff16600381111561163457fe5b145b151561164157600080fd5b6000809054906101000a900473ffffffffffffffffffffffffffffffffffffffff1673ffffffffffffffffffffffffffffffffffffffff163373ffffffffffffffffffffffffffffffffffffffff1614806116e55750600160003373ffffffffffffffffffffffffffffffffffffffff1673ffffffffffffffffffffffffffffffffffffffff16815260200190815260200160002060009054906101000a900460ff165b15156116f057600080fd5b60028060016101000a81548160ff0219169083600381111561170e57fe5b02179055507f1cdde67b72a90f19919ac732a437ac2f7a10fc128d28c2a6e525d89ce5cd9d3a60405160405180910390a1565b600b60009054906101000a900473ffffffffffffffffffffffffffffffffffffffff1681565b61176f612527565b1580156117a157506001600381111561178457fe5b600260019054906101000a900460ff16600381111561179f57fe5b145b15156117ac57600080fd5b600373__AddressSet____________________________63758241e09091336000604051602001526040518363ffffffff167c0100000000000000000000000000000000000000000000000000000000028152600401808381526020018273ffffffffffffffffffffffffffffffffffffffff1673ffffffffffffffffffffffffffffffffffffffff1681526020019250505060206040518083038186803b151561185657600080fd5b6102c65a03f4151561186757600080fd5b50505060405180519050151561187c57600080fd5b600d60008273ffffffffffffffffffffffffffffffffffffffff1673ffffffffffffffffffffffffffffffffffffffff16815260200190815260200160002060009054906101000a900460ff161515156118d557600080fd5b6001600d60008373ffffffffffffffffffffffffffffffffffffffff1673ffffffffffffffffffffffffffffffffffffffff16815260200190815260200160002060006101000a81548160ff021916908315150217905550600e60003373ffffffffffffffffffffffffffffffffffffffff1673ffffffffffffffffffffffffffffffffffffffff168152602001908152602001600020805480600101828161197e91906135a6565b9160005260206000209001600083909190916101000a81548173ffffffffffffffffffffffffffffffffffffffff021916908373ffffffffffffffffffffffffffffffffffffffff160217905550507fdb12e452359c9a5d536e54b5b023b4aa1707b7007600c9143875732887b172cd3382604051808373ffffffffffffffffffffffffffffffffffffffff1673ffffffffffffffffffffffffffffffffffffffff1681526020018273ffffffffffffffffffffffffffffffffffffffff1673ffffffffffffffffffffffffffffffffffffffff1681526020019250505060405180910390a150565b6000600a60008473ffffffffffffffffffffffffffffffffffffffff1673ffffffffffffffffffffffffffffffffffffffff16815260200190815260200160002073__Bytes32Set____________________________639286e5419091846000604051602001526040518363ffffffff167c0100000000000000000000000000000000000000000000000000000000028152600401808381526020018281526020019250505060206040518083038186803b1515611b2457600080fd5b6102c65a03f41515611b3557600080fd5b50505060405180519050905092915050565b6000600e60008473ffffffffffffffffffffffffffffffffffffffff1673ffffffffffffffffffffffffffffffffffffffff16815260200190815260200160002082815481101515611b9557fe5b906000526020600020900160009054906101000a900473ffffffffffffffffffffffffffffffffffffffff16905092915050565b6000809054906101000a900473ffffffffffffffffffffffffffffffffffffffff1673ffffffffffffffffffffffffffffffffffffffff163373ffffffffffffffffffffffffffffffffffffffff161480611c6d5750600160003373ffffffffffffffffffffffffffffffffffffffff1673ffffffffffffffffffffffffffffffffffffffff16815260200190815260200160002060009054906101000a900460ff165b1515611c7857600080fd5b60018060008373ffffffffffffffffffffffffffffffffffffffff1673ffffffffffffffffffffffffffffffffffffffff16815260200190815260200160002060006101000a81548160ff02191690831515021790555050565b600060096000846000191660001916815260200190815260200160002073__AddressSet____________________________635c2125a79091846000604051602001526040518363ffffffff167c0100000000000000000000000000000000000000000000000000000000028152600401808381526020018281526020019250505060206040518083038186803b1515611d6b57600080fd5b6102c65a03f41515611d7c57600080fd5b50505060405180519050905092915050565b6000600373__AddressSet____________________________6318c402499091846000604051602001526040518363ffffffff167c0100000000000000000000000000000000000000000000000000000000028152600401808381526020018273ffffffffffffffffffffffffffffffffffffffff1673ffffffffffffffffffffffffffffffffffffffff1681526020019250505060206040518083038186803b1515611e3a57600080fd5b6102c65a03f41515611e4b57600080fd5b505050604051805190509050919050565b6000809054906101000a900473ffffffffffffffffffffffffffffffffffffffff1681565b6000806000600373__AddressSet____________________________63913aa6cd90916000604051602001526040518263ffffffff167c01000000000000000000000000000000000000000000000000000000000281526004018082815260200191505060206040518083038186803b1515611efc57600080fd5b6102c65a03f41515611f0d57600080fd5b505050604051805190501415611f26576000915061243f565b600090505b600373__AddressSet____________________________63913aa6cd90916000604051602001526040518263ffffffff167c01000000000000000000000000000000000000000000000000000000000281526004018082815260200191505060206040518083038186803b1515611fa157600080fd5b6102c65a03f41515611fb257600080fd5b5050506040518051905081101561243a57600373__AddressSet____________________________635c2125a79091836000604051602001526040518363ffffffff167c0100000000000000000000000000000000000000000000000000000000028152600401808381526020018281526020019250505060206040518083038186803b151561204157600080fd5b6102c65a03f4151561205257600080fd5b5050506040518051905073ffffffffffffffffffffffffffffffffffffffff1663138b1fa0306000604051602001526040518263ffffffff167c0100000000000000000000000000000000000000000000000000000000028152600401808273ffffffffffffffffffffffffffffffffffffffff1673ffffffffffffffffffffffffffffffffffffffff168152602001915050602060405180830381600087803b15156120fe57600080fd5b6102c65a03f1151561210f57600080fd5b505050604051805190501515612128576000915061243f565b600b60009054906101000a900473ffffffffffffffffffffffffffffffffffffffff1673ffffffffffffffffffffffffffffffffffffffff16600373__AddressSet____________________________635c2125a79091846000604051602001526040518363ffffffff167c0100000000000000000000000000000000000000000000000000000000028152600401808381526020018281526020019250505060206040518083038186803b15156121df57600080fd5b6102c65a03f415156121f057600080fd5b5050506040518051905073ffffffffffffffffffffffffffffffffffffffff16634b1d3ede6000604051602001526040518163ffffffff167c0100000000000000000000000000000000000000000000000000000000028152600401602060405180830381600087803b151561226557600080fd5b6102c65a03f1151561227657600080fd5b5050506040518051905073ffffffffffffffffffffffffffffffffffffffff161415156122a6576000915061243f565b600b60009054906101000a900473ffffffffffffffffffffffffffffffffffffffff1673ffffffffffffffffffffffffffffffffffffffff16631e1c6a07600373__AddressSet____________________________635c2125a79091856000604051602001526040518363ffffffff167c0100000000000000000000000000000000000000000000000000000000028152600401808381526020018281526020019250505060206040518083038186803b151561236257600080fd5b6102c65a03f4151561237357600080fd5b505050604051805190506000604051602001526040518263ffffffff167c0100000000000000000000000000000000000000000000000000000000028152600401808273ffffffffffffffffffffffffffffffffffffffff1673ffffffffffffffffffffffffffffffffffffffff168152602001915050602060405180830381600087803b151561240357600080fd5b6102c65a03f1151561241457600080fd5b50505060405180519050151561242d576000915061243f565b8080600101915050611f2b565b600191505b5090565b6000600373__AddressSet____________________________63913aa6cd90916000604051602001526040518263ffffffff167c01000000000000000000000000000000000000000000000000000000000281526004018082815260200191505060206040518083038186803b15156124bb57600080fd5b6102c65a03f415156124cc57600080fd5b50505060405180519050905090565b6000600e60008373ffffffffffffffffffffffffffffffffffffffff1673ffffffffffffffffffffffffffffffffffffffff168152602001908152602001600020805490509050919050565b6000600260009054906101000a900460ff16905090565b6000809054906101000a900473ffffffffffffffffffffffffffffffffffffffff1673ffffffffffffffffffffffffffffffffffffffff163373ffffffffffffffffffffffffffffffffffffffff1614806125e25750600160003373ffffffffffffffffffffffffffffffffffffffff1673ffffffffffffffffffffffffffffffffffffffff16815260200190815260200160002060009054906101000a900460ff165b15156125ed57600080fd5b6000600260006101000a81548160ff0219169083151502179055507f19aad37188a1d3921e29eb3c66acf43d81975e107cb650d58cca878627955fd660405160405180910390a1565b600c8054600181600116156101000203166002900480601f0160208091040260200160405190810160405280929190818152602001828054600181600116156101000203166002900480156126cc5780601f106126a1576101008083540402835291602001916126cc565b820191906000526020600020905b8154815290600101906020018083116126af57829003601f168201915b505050505081565b6000600260038111156126e357fe5b600260019054906101000a900460ff1660038111156126fe57fe5b14905090565b6000600673__Bytes32Set____________________________639286e5419091846000604051602001526040518363ffffffff167c0100000000000000000000000000000000000000000000000000000000028152600401808381526020018281526020019250505060206040518083038186803b151561278457600080fd5b6102c65a03f4151561279557600080fd5b505050604051805190509050919050565b60008073ffffffffffffffffffffffffffffffffffffffff16600b60009054906101000a900473ffffffffffffffffffffffffffffffffffffffff1673ffffffffffffffffffffffffffffffffffffffff16141580156128e25750600b60009054906101000a900473ffffffffffffffffffffffffffffffffffffffff1673ffffffffffffffffffffffffffffffffffffffff1663138b1fa0306000604051602001526040518263ffffffff167c0100000000000000000000000000000000000000000000000000000000028152600401808273ffffffffffffffffffffffffffffffffffffffff1673ffffffffffffffffffffffffffffffffffffffff168152602001915050602060405180830381600087803b15156128c657600080fd5b6102c65a03f115156128d757600080fd5b505050604051805190505b905090565b6128ef612527565b15801561292157506000600381111561290457fe5b600260019054906101000a900460ff16600381111561291f57fe5b145b151561292c57600080fd5b6000809054906101000a900473ffffffffffffffffffffffffffffffffffffffff1673ffffffffffffffffffffffffffffffffffffffff163373ffffffffffffffffffffffffffffffffffffffff1614806129d05750600160003373ffffffffffffffffffffffffffffffffffffffff1673ffffffffffffffffffffffffffffffffffffffff16815260200190815260200160002060009054906101000a900460ff165b15156129db57600080fd5b6129e4816133fa565b612a0e817f414c4c0000000000000000000000000000000000000000000000000000000000612a11565b50565b612a19612527565b158015612a4b575060006003811115612a2e57fe5b600260019054906101000a900460ff166003811115612a4957fe5b145b1515612a5657600080fd5b6000809054906101000a900473ffffffffffffffffffffffffffffffffffffffff1673ffffffffffffffffffffffffffffffffffffffff163373ffffffffffffffffffffffffffffffffffffffff161480612afa5750600160003373ffffffffffffffffffffffffffffffffffffffff1673ffffffffffffffffffffffffffffffffffffffff16815260200190815260200160002060009054906101000a900460ff165b1515612b0557600080fd5b600673__Bytes32Set____________________________63932dd8399091836000604051602001526040518363ffffffff167c01000000000000000000000000000000000000000000000000000000000281526004018083815260200182600019166000191681526020019250505060206040518083038186803b1515612b8b57600080fd5b6102c65a03f41515612b9c57600080fd5b505050604051805190501515612bb157600080fd5b600373__AddressSet____________________________63758241e09091846000604051602001526040518363ffffffff167c0100000000000000000000000000000000000000000000000000000000028152600401808381526020018273ffffffffffffffffffffffffffffffffffffffff1673ffffffffffffffffffffffffffffffffffffffff1681526020019250505060206040518083038186803b1515612c5b57600080fd5b6102c65a03f41515612c6c57600080fd5b505050604051805190501515612c8157600080fd5b60096000826000191660001916815260200190815260200160002073__AddressSet____________________________63f9802f859091846040518363ffffffff167c0100000000000000000000000000000000000000000000000000000000028152600401808381526020018273ffffffffffffffffffffffffffffffffffffffff1673ffffffffffffffffffffffffffffffffffffffff1681526020019250505060006040518083038186803b1515612d3b57600080fd5b6102c65a03f41515612d4c57600080fd5b505050600a60008373ffffffffffffffffffffffffffffffffffffffff1673ffffffffffffffffffffffffffffffffffffffff16815260200190815260200160002073__Bytes32Set____________________________63fffd95929091836040518363ffffffff167c01000000000000000000000000000000000000000000000000000000000281526004018083815260200182600019166000191681526020019250505060006040518083038186803b1515612e0957600080fd5b6102c65a03f41515612e1a57600080fd5b5050505050565b6000600a60008373ffffffffffffffffffffffffffffffffffffffff1673ffffffffffffffffffffffffffffffffffffffff16815260200190815260200160002073__Bytes32Set____________________________633640611190916000604051602001526040518263ffffffff167c01000000000000000000000000000000000000000000000000000000000281526004018082815260200191505060206040518083038186803b1515612ed657600080fd5b6102c65a03f41515612ee757600080fd5b505050604051805190509050919050565b612f00612527565b158015612f32575060006003811115612f1557fe5b600260019054906101000a900460ff166003811115612f3057fe5b145b1515612f3d57600080fd5b6000809054906101000a900473ffffffffffffffffffffffffffffffffffffffff1673ffffffffffffffffffffffffffffffffffffffff163373ffffffffffffffffffffffffffffffffffffffff161480612fe15750600160003373ffffffffffffffffffffffffffffffffffffffff1673ffffffffffffffffffffffffffffffffffffffff16815260200190815260200160002060009054906101000a900460ff165b1515612fec57600080fd5b80600c90805190602001906130029291906135d2565b5050565b60006130106127a6565b8015613020575061301f611e81565b5b905090565b6000809054906101000a900473ffffffffffffffffffffffffffffffffffffffff1673ffffffffffffffffffffffffffffffffffffffff163373ffffffffffffffffffffffffffffffffffffffff1614151561308057600080fd5b600073ffffffffffffffffffffffffffffffffffffffff168173ffffffffffffffffffffffffffffffffffffffff16141515156130bc57600080fd5b8073ffffffffffffffffffffffffffffffffffffffff166000809054906101000a900473ffffffffffffffffffffffffffffffffffffffff1673ffffffffffffffffffffffffffffffffffffffff167f8be0079c531659141344cd1fd0a4f28419497f9722a3daafe3b4186f6b6457e060405160405180910390a3806000806101000a81548173ffffffffffffffffffffffffffffffffffffffff021916908373ffffffffffffffffffffffffffffffffffffffff16021790555050565b6000809054906101000a900473ffffffffffffffffffffffffffffffffffffffff1673ffffffffffffffffffffffffffffffffffffffff163373ffffffffffffffffffffffffffffffffffffffff16148061321e5750600160003373ffffffffffffffffffffffffffffffffffffffff1673ffffffffffffffffffffffffffffffffffffffff16815260200190815260200160002060009054906101000a900460ff165b151561322957600080fd5b6001600260006101000a81548160ff0219169083151502179055507f0f2e5b6c72c6a4491efd919a9f9a409f324ef0708c11ee57d410c2cb06c0992b60405160405180910390a1565b61327a612527565b1580156132ac57506000600381111561328f57fe5b600260019054906101000a900460ff1660038111156132aa57fe5b145b15156132b757600080fd5b6000809054906101000a900473ffffffffffffffffffffffffffffffffffffffff1673ffffffffffffffffffffffffffffffffffffffff163373ffffffffffffffffffffffffffffffffffffffff16148061335b5750600160003373ffffffffffffffffffffffffffffffffffffffff1673ffffffffffffffffffffffffffffffffffffffff16815260200190815260200160002060009054906101000a900460ff165b151561336657600080fd5b600673__Bytes32Set____________________________63fffd95929091836040518363ffffffff167c01000000000000000000000000000000000000000000000000000000000281526004018083815260200182600019166000191681526020019250505060006040518083038186803b15156133e357600080fd5b6102c65a03f415156133f457600080fd5b50505050565b613402612527565b15801561343457506000600381111561341757fe5b600260019054906101000a900460ff16600381111561343257fe5b145b151561343f57600080fd5b6000809054906101000a900473ffffffffffffffffffffffffffffffffffffffff1673ffffffffffffffffffffffffffffffffffffffff163373ffffffffffffffffffffffffffffffffffffffff1614806134e35750600160003373ffffffffffffffffffffffffffffffffffffffff1673ffffffffffffffffffffffffffffffffffffffff16815260200190815260200160002060009054906101000a900460ff165b15156134ee57600080fd5b600373__AddressSet____________________________63f9802f859091836040518363ffffffff167c0100000000000000000000000000000000000000000000000000000000028152600401808381526020018273ffffffffffffffffffffffffffffffffffffffff1673ffffffffffffffffffffffffffffffffffffffff1681526020019250505060006040518083038186803b151561358f57600080fd5b6102c65a03f415156135a057600080fd5b50505050565b8154818355818115116135cd578183600052602060002091820191016135cc9190613652565b5b505050565b828054600181600116156101000203166002900490600052602060002090601f016020900481019282601f1061361357805160ff1916838001178555613641565b82800160010185558215613641579182015b82811115613640578251825591602001919060010190613625565b5b50905061364e9190613652565b5090565b61367491905b80821115613670576000816000905550600101613658565b5090565b905600a165627a7a723058202a150859575ec7b1592c84817cd5454b7295d42072f3179da5a826b4040559c90029",
  "source": "// ------------------------------------------------------------------------------\n// This file is part of netvote.\n//\n// netvote is free software: you can redistribute it and/or modify\n// it under the terms of the GNU General Public License as published by\n// the Free Software Foundation, either version 3 of the License, or\n// (at your option) any later version.\n//\n// netvote is distributed in the hope that it will be useful,\n// but WITHOUT ANY WARRANTY; without even the implied warranty of\n// MERCHANTABILITY or FITNESS FOR A PARTICULAR PURPOSE.  See the\n// GNU General Public License for more details.\n//\n// You should have received a copy of the GNU General Public License\n// along with solidity.  If not, see <http://www.gnu.org/licenses/>\n//\n// (c) 2017 netvote contributors.\n//------------------------------------------------------------------------------\n\npragma solidity ^0.4.17;\n\nimport \"../links/PoolRegistry.sol\";\nimport \"../lib/Bytes32Set.sol\";\nimport \"./Election.sol\";\nimport \"./RegistrationPool.sol\";\n\n\ncontract Ballot is PoolRegistry {\n    using Bytes32Set for Bytes32Set.SetData;\n\n    // events\n    event BallotVote(address pool, address voter);\n\n    bytes32 constant GROUP_ALL = \"ALL\";\n\n    // configuration\n    Bytes32Set.SetData groupSet;\n    mapping (bytes32 => AddressSet.SetData) groupPoolSet;\n    mapping (address => Bytes32Set.SetData) poolGroupSet;\n\n    Election public election;\n    string public metadataLocation;\n\n    // state\n    // map of voters to prevent duplicates\n    mapping (address => bool) voterVoted;\n\n    // pools to the list of voters\n    mapping (address => address[]) poolVoters;\n\n    function Ballot(address electionAddress, address ownerAddress, string location) public {\n        require(electionAddress != address(0));\n        election = Election(electionAddress);\n        owner = ownerAddress;\n        metadataLocation = location;\n        groupSet.put(GROUP_ALL);\n    }\n\n    modifier validPool() {\n        require(poolSet.contains(msg.sender));\n        _;\n    }\n\n    function setMetadataLocation(string location) public building admin {\n        metadataLocation = location;\n    }\n\n    function groupPoolCount(bytes32 group) constant public returns (uint256) {\n        return groupPoolSet[group].size();\n    }\n\n    function getGroupPool(bytes32 group, uint256 index) constant public returns (address) {\n        return groupPoolSet[group].getAt(index);\n    }\n\n    function getPoolVoterCount(address pool) constant public returns(uint256) {\n        return poolVoters[pool].length;\n    }\n\n    // gets voter address by pool and index (for iteration)\n    function getPoolVoter(address pool, uint256 i) constant public returns(address) {\n        return poolVoters[pool][i];\n    }\n\n    function addPool(address p) public building admin {\n        super.addPool(p);\n        addPoolToGroup(p, GROUP_ALL);\n    }\n\n    function checkElection() public constant returns (bool) {\n        return election != address(0) && election.ballotExists(this);\n    }\n\n    function checkPools() public constant returns (bool) {\n        // there must be at least one pool set\n        if (poolSet.size() == 0) {\n            return false;\n        }\n        for (uint256 i = 0; i<poolSet.size(); i++) {\n            // pool must reference this ballot\n            if (!RegistrationPool(poolSet.getAt(i)).ballotExists(this)) {\n                return false;\n            }\n            // pool must point to same election\n            if (RegistrationPool(poolSet.getAt(i)).election() != election) {\n                return false;\n            }\n            // election has the pool\n            if (!election.poolExists(poolSet.getAt(i))) {\n                return false;\n            }\n            //TODO: check that pool has group assigned\n        }\n        return true;\n    }\n\n    function checkConfig() public constant returns (bool) {\n        return checkElection() && checkPools();\n    }\n\n    function getGroupCount() constant public returns (uint256) {\n        return groupSet.size();\n    }\n\n    function getGroup(uint256 index) constant public returns (bytes32) {\n        return groupSet.getAt(index);\n    }\n\n    function removeGroup(bytes32 group) public building admin {\n        groupSet.remove(group);\n        for (uint256 i = 0; i<poolSet.size(); i++) {\n            address p = poolSet.getAt(i);\n            poolGroupSet[p].remove(group);\n        }\n    }\n\n    function addGroup(bytes32 group) public building admin {\n        groupSet.put(group);\n    }\n\n    function getPoolGroupCount(address pool) constant public returns(uint256) {\n        return poolGroupSet[pool].size();\n    }\n\n    function getPoolGroupAt(address pool, uint256 index) constant public returns(bytes32) {\n        return poolGroupSet[pool].getAt(index);\n    }\n\n    function addPoolToGroup(address pool, bytes32 group) public building admin {\n        require(groupSet.contains(group));\n        require(poolSet.contains(pool));\n        groupPoolSet[group].put(pool);\n        poolGroupSet[pool].put(group);\n    }\n\n    function castVote(address voter) public voting validPool {\n        require(!voterVoted[voter]);\n        voterVoted[voter] = true;\n        poolVoters[msg.sender].push(voter);\n        BallotVote(msg.sender, voter);\n    }\n}",
  "sourcePath": "/Users/slanders/netvote/elections/contracts/elections/Ballot.sol",
  "compiler": {
    "name": "solc",
    "version": "0.4.18+commit.9cf6e910.Emscripten.clang"
  },
  "schemaVersion": "1.0.1",
  "updatedAt": "2017-12-06T17:19:54.731Z"
}