{
  "contractName": "Ballot",
  "abi": [
    {
      "constant": true,
      "inputs": [],
      "name": "getGroupCount",
      "outputs": [
        {
          "name": "",
          "type": "uint256"
        }
      ],
      "payable": false,
      "stateMutability": "view",
      "type": "function"
    },
    {
      "constant": true,
      "inputs": [
        {
          "name": "index",
          "type": "uint256"
        }
      ],
      "name": "getPool",
      "outputs": [
        {
          "name": "",
          "type": "address"
        }
      ],
      "payable": false,
      "stateMutability": "view",
      "type": "function"
    },
    {
      "constant": false,
      "inputs": [],
      "name": "activate",
      "outputs": [],
      "payable": false,
      "stateMutability": "nonpayable",
      "type": "function"
    },
    {
      "constant": false,
      "inputs": [
        {
          "name": "addr",
          "type": "address"
        }
      ],
      "name": "removeAdmin",
      "outputs": [],
      "payable": false,
      "stateMutability": "nonpayable",
      "type": "function"
    },
    {
      "constant": true,
      "inputs": [],
      "name": "electionPhase",
      "outputs": [
        {
          "name": "",
          "type": "uint8"
        }
      ],
      "payable": false,
      "stateMutability": "view",
      "type": "function"
    },
    {
      "constant": false,
      "inputs": [],
      "name": "abort",
      "outputs": [],
      "payable": false,
      "stateMutability": "nonpayable",
      "type": "function"
    },
    {
      "constant": false,
      "inputs": [
        {
          "name": "pool",
          "type": "address"
        }
      ],
      "name": "removePool",
      "outputs": [],
      "payable": false,
      "stateMutability": "nonpayable",
      "type": "function"
    },
    {
      "constant": false,
      "inputs": [],
      "name": "close",
      "outputs": [],
      "payable": false,
      "stateMutability": "nonpayable",
      "type": "function"
    },
    {
      "constant": true,
      "inputs": [],
      "name": "election",
      "outputs": [
        {
          "name": "",
          "type": "address"
        }
      ],
      "payable": false,
      "stateMutability": "view",
      "type": "function"
    },
    {
      "constant": false,
      "inputs": [
        {
          "name": "voter",
          "type": "address"
        }
      ],
      "name": "castVote",
      "outputs": [],
      "payable": false,
      "stateMutability": "nonpayable",
      "type": "function"
    },
    {
      "constant": false,
      "inputs": [
        {
          "name": "group",
          "type": "string"
        }
      ],
      "name": "removeGroup",
      "outputs": [],
      "payable": false,
      "stateMutability": "nonpayable",
      "type": "function"
    },
    {
      "constant": true,
      "inputs": [
        {
          "name": "pool",
          "type": "address"
        },
        {
          "name": "i",
          "type": "uint256"
        }
      ],
      "name": "getPoolVoter",
      "outputs": [
        {
          "name": "",
          "type": "address"
        }
      ],
      "payable": false,
      "stateMutability": "view",
      "type": "function"
    },
    {
      "constant": false,
      "inputs": [
        {
          "name": "addr",
          "type": "address"
        }
      ],
      "name": "addAdmin",
      "outputs": [],
      "payable": false,
      "stateMutability": "nonpayable",
      "type": "function"
    },
    {
      "constant": false,
      "inputs": [
        {
          "name": "pool",
          "type": "address"
        },
        {
          "name": "group",
          "type": "string"
        }
      ],
      "name": "addPoolToGroup",
      "outputs": [],
      "payable": false,
      "stateMutability": "nonpayable",
      "type": "function"
    },
    {
      "constant": true,
      "inputs": [],
      "name": "owner",
      "outputs": [
        {
          "name": "",
          "type": "address"
        }
      ],
      "payable": false,
      "stateMutability": "view",
      "type": "function"
    },
    {
      "constant": true,
      "inputs": [
        {
          "name": "",
          "type": "uint256"
        }
      ],
      "name": "groups",
      "outputs": [
        {
          "name": "",
          "type": "string"
        }
      ],
      "payable": false,
      "stateMutability": "view",
      "type": "function"
    },
    {
      "constant": true,
      "inputs": [
        {
          "name": "pool",
          "type": "address"
        }
      ],
      "name": "getPoolVoterCount",
      "outputs": [
        {
          "name": "",
          "type": "uint256"
        }
      ],
      "payable": false,
      "stateMutability": "view",
      "type": "function"
    },
    {
      "constant": true,
      "inputs": [
        {
          "name": "group",
          "type": "string"
        },
        {
          "name": "index",
          "type": "uint256"
        }
      ],
      "name": "getGroupPool",
      "outputs": [
        {
          "name": "",
          "type": "address"
        }
      ],
      "payable": false,
      "stateMutability": "view",
      "type": "function"
    },
    {
      "constant": true,
      "inputs": [],
      "name": "isLocked",
      "outputs": [
        {
          "name": "",
          "type": "bool"
        }
      ],
      "payable": false,
      "stateMutability": "view",
      "type": "function"
    },
    {
      "constant": false,
      "inputs": [],
      "name": "unlock",
      "outputs": [],
      "payable": false,
      "stateMutability": "nonpayable",
      "type": "function"
    },
    {
      "constant": true,
      "inputs": [
        {
          "name": "group",
          "type": "string"
        }
      ],
      "name": "groupPoolCount",
      "outputs": [
        {
          "name": "",
          "type": "uint256"
        }
      ],
      "payable": false,
      "stateMutability": "view",
      "type": "function"
    },
    {
      "constant": true,
      "inputs": [],
      "name": "metadataLocation",
      "outputs": [
        {
          "name": "",
          "type": "string"
        }
      ],
      "payable": false,
      "stateMutability": "view",
      "type": "function"
    },
    {
      "constant": false,
      "inputs": [
        {
          "name": "group",
          "type": "string"
        }
      ],
      "name": "addGroup",
      "outputs": [],
      "payable": false,
      "stateMutability": "nonpayable",
      "type": "function"
    },
    {
      "constant": true,
      "inputs": [],
      "name": "isClosed",
      "outputs": [
        {
          "name": "",
          "type": "bool"
        }
      ],
      "payable": false,
      "stateMutability": "view",
      "type": "function"
    },
    {
      "constant": true,
      "inputs": [
        {
          "name": "index",
          "type": "uint256"
        }
      ],
      "name": "getGroup",
      "outputs": [
        {
          "name": "",
          "type": "string"
        }
      ],
      "payable": false,
      "stateMutability": "view",
      "type": "function"
    },
    {
      "constant": false,
      "inputs": [
        {
          "name": "pool",
          "type": "address"
        }
      ],
      "name": "addPool",
      "outputs": [],
      "payable": false,
      "stateMutability": "nonpayable",
      "type": "function"
    },
    {
      "constant": false,
      "inputs": [
        {
          "name": "location",
          "type": "string"
        }
      ],
      "name": "setMetadataLocation",
      "outputs": [],
      "payable": false,
      "stateMutability": "nonpayable",
      "type": "function"
    },
    {
      "constant": false,
      "inputs": [
        {
          "name": "newOwner",
          "type": "address"
        }
      ],
      "name": "transferOwnership",
      "outputs": [],
      "payable": false,
      "stateMutability": "nonpayable",
      "type": "function"
    },
    {
      "constant": true,
      "inputs": [],
      "name": "poolCount",
      "outputs": [
        {
          "name": "",
          "type": "uint256"
        }
      ],
      "payable": false,
      "stateMutability": "view",
      "type": "function"
    },
    {
      "constant": false,
      "inputs": [],
      "name": "lock",
      "outputs": [],
      "payable": false,
      "stateMutability": "nonpayable",
      "type": "function"
    },
    {
      "inputs": [
        {
          "name": "electionAddress",
          "type": "address"
        },
        {
          "name": "ownerAddress",
          "type": "address"
        },
        {
          "name": "location",
          "type": "string"
        }
      ],
      "payable": false,
      "stateMutability": "nonpayable",
      "type": "constructor"
    },
    {
      "anonymous": false,
      "inputs": [
        {
          "indexed": false,
          "name": "pool",
          "type": "address"
        },
        {
          "indexed": false,
          "name": "voter",
          "type": "address"
        }
      ],
      "name": "BallotVote",
      "type": "event"
    },
    {
      "anonymous": false,
      "inputs": [],
      "name": "Closed",
      "type": "event"
    },
    {
      "anonymous": false,
      "inputs": [],
      "name": "Activated",
      "type": "event"
    },
    {
      "anonymous": false,
      "inputs": [],
      "name": "Aborted",
      "type": "event"
    },
    {
      "anonymous": false,
      "inputs": [],
      "name": "Locked",
      "type": "event"
    },
    {
      "anonymous": false,
      "inputs": [],
      "name": "Unlocked",
      "type": "event"
    },
    {
      "anonymous": false,
      "inputs": [
        {
          "indexed": true,
          "name": "previousOwner",
          "type": "address"
        },
        {
          "indexed": true,
          "name": "newOwner",
          "type": "address"
        }
      ],
      "name": "OwnershipTransferred",
      "type": "event"
    }
  ],
  "bytecode": "0x60606040526002805461ffff1916905534156200001b57600080fd5b60405162001f9838038062001f988339810160405280805191906020018051919060200180516000805460028054600160a060020a0389811662010000026201000060b060020a0319909216919091179091558681163391909116600160a060020a03199283161790911617905590910190506003818051620000a3929160200190620000ad565b5050505062000152565b828054600181600116156101000203166002900490600052602060002090601f016020900481019282601f10620000f057805160ff191683800117855562000120565b8280016001018555821562000120579182015b828111156200012057825182559160200191906001019062000103565b506200012e92915062000132565b5090565b6200014f91905b808211156200012e576000815560010162000139565b90565b611e3680620001626000396000f3006060604052361561017d5763ffffffff7c010000000000000000000000000000000000000000000000000000000060003504166306545a938114610182578063068bcd8d146101a75780630f15f4c0146101d95780631785f53c146101ee578063265050b61461020d57806335a063b4146102445780633b7d09461461025757806343d726d6146102765780634b1d3ede1461028957806353358fc41461029c5780636246b310146102bb57806368e3e6b61461030c578063704802751461032e5780637c44d63e1461034d5780638da5cb5b146103ac57806396324bd4146103bf578063978daca71461044c5780639f5fac491461046b578063a4e2d634146104be578063a69df4b5146104e5578063b310a07e146104f8578063b86901af14610549578063bf00eaef1461055c578063c2b6b58c146105ad578063ceb60654146105c0578063d914cd4b146105d6578063eefaf905146105f5578063f2fde38b14610646578063f525cb6814610665578063f83d08ba14610678575b600080fd5b341561018d57600080fd5b61019561068b565b60405190815260200160405180910390f35b34156101b257600080fd5b6101bd60043561069c565b604051600160a060020a03909116815260200160405180910390f35b34156101e457600080fd5b6101ec6106c8565b005b34156101f957600080fd5b6101ec600160a060020a036004351661077a565b341561021857600080fd5b6102206107db565b6040518082600381111561023057fe5b60ff16815260200191505060405180910390f35b341561024f57600080fd5b6101ec6107e9565b341561026257600080fd5b6101ec600160a060020a0360043516610866565b341561028157600080fd5b6101ec610957565b341561029457600080fd5b6101bd610a09565b34156102a757600080fd5b6101ec600160a060020a0360043516610a1e565b34156102c657600080fd5b6101ec60046024813581810190830135806020601f82018190048102016040519081016040528181529291906020840183838082843750949650610b6295505050505050565b341561031757600080fd5b6101bd600160a060020a0360043516602435610db0565b341561033957600080fd5b6101ec600160a060020a0360043516610df0565b341561035857600080fd5b6101ec60048035600160a060020a03169060446024803590810190830135806020601f82018190048102016040519081016040528181529291906020840183838082843750949650610e5795505050505050565b34156103b757600080fd5b6101bd611087565b34156103ca57600080fd5b6103d5600435611096565b60405160208082528190810183818151815260200191508051906020019080838360005b838110156104115780820151838201526020016103f9565b50505050905090810190601f16801561043e5780820380516001836020036101000a031916815260200191505b509250505060405180910390f35b341561045757600080fd5b610195600160a060020a0360043516611151565b341561047657600080fd5b6101bd60046024813581810190830135806020601f82018190048102016040519081016040528181529291906020840183838082843750949650509335935061116c92505050565b34156104c957600080fd5b6104d161119f565b604051901515815260200160405180910390f35b34156104f057600080fd5b6101ec6111a8565b341561050357600080fd5b61019560046024813581810190830135806020601f8201819004810201604051908101604052818152929190602084018383808284375094965061122095505050505050565b341561055457600080fd5b6103d561123e565b341561056757600080fd5b6101ec60046024813581810190830135806020601f820181900481020160405190810160405281815292919060208401838380828437509496506112a995505050505050565b34156105b857600080fd5b6104d16114aa565b34156105cb57600080fd5b6103d56004356114c9565b34156105e157600080fd5b6101ec600160a060020a03600435166114f4565b341561060057600080fd5b6101ec60046024813581810190830135806020601f8201819004810201604051908101604052818152929190602084018383808284375094965061161895505050505050565b341561065157600080fd5b6101ec600160a060020a03600435166116a4565b341561067057600080fd5b61019561173f565b341561068357600080fd5b6101ec611745565b60006106956117c0565b5190505b90565b6000600b828154811015156106ad57fe5b600091825260209091200154600160a060020a031692915050565b6106d061119f565b1580156106f257506000600254610100900460ff1660038111156106f057fe5b145b15156106fd57600080fd5b60005433600160a060020a03908116911614806107325750600160a060020a03331660009081526001602052604090205460ff165b151561073d57600080fd5b6002805461ff0019166101001790557fed1cd0670ee0c0017f550451a038818c696d0b6a9d6ce5b369e44275573cf9b060405160405180910390a1565b60005433600160a060020a03908116911614806107af5750600160a060020a03331660009081526001602052604090205460ff165b15156107ba57600080fd5b600160a060020a03166000908152600160205260409020805460ff19169055565b600254610100900460ff1681565b60005433600160a060020a039081169116148061081e5750600160a060020a03331660009081526001602052604090205460ff165b151561082957600080fd5b6002805461ff0019166103001790557f72c874aeff0b183a56e2b79c71b46e1aed4dee5e09862134b8821ba2fddbf8bf60405160405180910390a1565b61086e61119f565b15801561089057506000600254610100900460ff16600381111561088e57fe5b145b151561089b57600080fd5b60005433600160a060020a03908116911614806108d05750600160a060020a03331660009081526001602052604090205460ff165b15156108db57600080fd5b600160a060020a0381166000908152600560209081526040808320805460ff19169055600c909152902054600b8054909190811061091557fe5b60009182526020808320909101805473ffffffffffffffffffffffffffffffffffffffff19169055600160a060020a03929092168152600c9091526040812055565b61095f61119f565b15801561098157506001600254610100900460ff16600381111561097f57fe5b145b151561098c57600080fd5b60005433600160a060020a03908116911614806109c15750600160a060020a03331660009081526001602052604090205460ff165b15156109cc57600080fd5b6002805461ff0019166102001790557f1cdde67b72a90f19919ac732a437ac2f7a10fc128d28c2a6e525d89ce5cd9d3a60405160405180910390a1565b600254620100009004600160a060020a031681565b610a2661119f565b158015610a4857506001600254610100900460ff166003811115610a4657fe5b145b1515610a5357600080fd5b600160a060020a03331660009081526005602052604090205460ff161515610a7a57600080fd5b600160a060020a03811660009081526004602052604090205460ff1615610aa057600080fd5b600160a060020a038082166000908152600460209081526040808320805460ff1916600190811790915533909416835260069091529020805490918101610ae78382611ca9565b506000918252602090912001805473ffffffffffffffffffffffffffffffffffffffff1916600160a060020a0383161790557fdb12e452359c9a5d536e54b5b023b4aa1707b7007600c9143875732887b172cd3382604051600160a060020a039283168152911660208201526040908101905180910390a150565b610b6a61119f565b158015610b8c57506000600254610100900460ff166003811115610b8a57fe5b145b1515610b9757600080fd5b60005433600160a060020a0390811691161480610bcc5750600160a060020a03331660009081526001602052604090205460ff165b1515610bd757600080fd5b6008816040518082805190602001908083835b60208310610c095780518252601f199092019160209182019101610bea565b6001836020036101000a0380198251168184511680821785525050505050509050019150509081526020016040519081900390205460ff161515610c4c57600080fd5b6008816040518082805190602001908083835b60208310610c7e5780518252601f199092019160209182019101610c5f565b6001836020036101000a038019825116818451168082178552505050505050905001915050908152602001604051908190039020805460ff19169055600a6009826040518082805190602001908083835b60208310610cee5780518252601f199092019160209182019101610ccf565b6001836020036101000a0380198251168184511680821785525050505050509050019150509081526020016040519081900390205481548110610d2d57fe5b90600052602060002090016000610d449190611cd2565b6009816040518082805190602001908083835b60208310610d765780518252601f199092019160209182019101610d57565b6001836020036101000a03801982511681845116808217855250505050505090500191505090815260200160405180910390206000905550565b600160a060020a0382166000908152600660205260408120805483908110610dd457fe5b600091825260209091200154600160a060020a03169392505050565b60005433600160a060020a0390811691161480610e255750600160a060020a03331660009081526001602052604090205460ff165b1515610e3057600080fd5b600160a060020a03166000908152600160208190526040909120805460ff19169091179055565b610e5f61119f565b158015610e8157506000600254610100900460ff166003811115610e7f57fe5b145b1515610e8c57600080fd5b60005433600160a060020a0390811691161480610ec15750600160a060020a03331660009081526001602052604090205460ff165b1515610ecc57600080fd5b6008816040518082805190602001908083835b60208310610efe5780518252601f199092019160209182019101610edf565b6001836020036101000a0380198251168184511680821785525050505050509050019150509081526020016040519081900390205460ff161515610f4157600080fd5b600160a060020a03821660009081526005602052604090205460ff161515610f6857600080fd5b600160a060020a03821660009081526007602052604090819020908290518082805190602001908083835b60208310610fb25780518252601f199092019160209182019101610f93565b6001836020036101000a0380198251168184511680821785525050505050509050019150509081526020016040519081900390205460ff1615610ff457600080fd5b600160a060020a038216600090815260076020526040908190206001918390518082805190602001908083835b602083106110405780518252601f199092019160209182019101611021565b6001836020036101000a038019825116818451168082178552505050505050905001915050908152602001604051908190039020805460ff19169115159190911790555050565b600054600160a060020a031681565b600a8054829081106110a457fe5b90600052602060002090016000915090508054600181600116156101000203166002900480601f0160208091040260200160405190810160405280929190818152602001828054600181600116156101000203166002900480156111495780601f1061111e57610100808354040283529160200191611149565b820191906000526020600020905b81548152906001019060200180831161112c57829003601f168201915b505050505081565b600160a060020a031660009081526006602052604090205490565b6000611176611d19565b61117f84611a67565b905080838151811061118d57fe5b90602001906020020151949350505050565b60025460ff1690565b60005433600160a060020a03908116911614806111dd5750600160a060020a03331660009081526001602052604090205460ff165b15156111e857600080fd5b6002805460ff191690557f19aad37188a1d3921e29eb3c66acf43d81975e107cb650d58cca878627955fd660405160405180910390a1565b600061122a611d19565b61123383611a67565b905080519392505050565b60038054600181600116156101000203166002900480601f0160208091040260200160405190810160405280929190818152602001828054600181600116156101000203166002900480156111495780601f1061111e57610100808354040283529160200191611149565b6112b161119f565b1580156112d357506000600254610100900460ff1660038111156112d157fe5b145b15156112de57600080fd5b60005433600160a060020a03908116911614806113135750600160a060020a03331660009081526001602052604090205460ff165b151561131e57600080fd5b6008816040518082805190602001908083835b602083106113505780518252601f199092019160209182019101611331565b6001836020036101000a0380198251168184511680821785525050505050509050019150509081526020016040519081900390205460ff161561139257600080fd5b60016008826040518082805190602001908083835b602083106113c65780518252601f1990920191602091820191016113a7565b6001836020036101000a038019825116818451168082178552505050505050905001915050908152602001604051908190039020805460ff1916911515919091179055600a80546001810161141b8382611d2b565b6000928352602090922001828051611437929160200190611d4f565b5050600a54600019016009826040518082805190602001908083835b602083106114725780518252601f199092019160209182019101611453565b6001836020036101000a0380198251168184511680821785525050505050509050019150509081526020016040519081900390205550565b600060028054610100900460ff1660038111156114c357fe5b14905090565b6114d1611d19565b6114d96117c0565b82815181106114e457fe5b9060200190602002015192915050565b6114fc61119f565b15801561151e57506000600254610100900460ff16600381111561151c57fe5b145b151561152957600080fd5b60005433600160a060020a039081169116148061155e5750600160a060020a03331660009081526001602052604090205460ff165b151561156957600080fd5b600160a060020a03811660009081526005602052604090205460ff161561158f57600080fd5b600160a060020a0381166000908152600560205260409020805460ff19166001908117909155600b8054909181016115c78382611ca9565b5060009182526020808320919091018054600160a060020a0390941673ffffffffffffffffffffffffffffffffffffffff1990941684179055600b54928252600c9052604090206000199091019055565b61162061119f565b15801561164257506000600254610100900460ff16600381111561164057fe5b145b151561164d57600080fd5b60005433600160a060020a03908116911614806116825750600160a060020a03331660009081526001602052604090205460ff165b151561168d57600080fd5b60038180516116a0929160200190611d4f565b5050565b60005433600160a060020a039081169116146116bf57600080fd5b600160a060020a03811615156116d457600080fd5b600054600160a060020a0380831691167f8be0079c531659141344cd1fd0a4f28419497f9722a3daafe3b4186f6b6457e060405160405180910390a36000805473ffffffffffffffffffffffffffffffffffffffff1916600160a060020a0392909216919091179055565b600b5490565b60005433600160a060020a039081169116148061177a5750600160a060020a03331660009081526001602052604090205460ff165b151561178557600080fd5b6002805460ff191660011790557f0f2e5b6c72c6a4491efd919a9f9a409f324ef0708c11ee57d410c2cb06c0992b60405160405180910390a1565b6117c8611d19565b6117d0611d19565b6000806117db611d19565b600a5460009081906040518059106117f05750595b90808252806020026020018201604052801561182657816020015b611813611d19565b81526020019060019003908161180b5790505b50955060009450600093505b600a548410156119a9576008600a8581548110151561184d57fe5b906000526020600020900160405180828054600181600116156101000203166002900480156118b35780601f106118915761010080835404028352918201916118b3565b820191906000526020600020905b81548152906001019060200180831161189f575b505092835250506020016040519081900390205460ff161561199e57600a8054859081106118dd57fe5b90600052602060002090018054600181600116156101000203166002900480601f01602080910402602001604051908101604052809291908181526020018280546001816001161561010002031660029004801561197c5780601f106119515761010080835404028352916020019161197c565b820191906000526020600020905b81548152906001019060200180831161195f57829003601f168201915b505050505086858151811061198d57fe5b602090810290910101526001909401935b600190930192611832565b846040518059106119b75750595b9080825280602002602001820160405280156119ed57816020015b6119da611d19565b8152602001906001900390816119d25790505b50925060009150600090505b8551811015611a5c576000868281518110611a1057fe5b90602001906020020151511115611a5457858181518110611a2d57fe5b90602001906020020151838381518110611a4357fe5b602090810290910101526001909101905b6001016119f9565b509095945050505050565b611a6f611d19565b611a77611d19565b600080611a82611d19565b600b546000908190604051805910611a975750595b9080825280602002602001820160405250955060009450600093505b600b54841015611bfc5760056000600b86815481101515611ad057fe5b6000918252602080832090910154600160a060020a0316835282019290925260400190205460ff1615611bf15760076000600b86815481101515611b1057fe5b6000918252602080832090910154600160a060020a031683528201929092526040908101909120908990518082805190602001908083835b60208310611b675780518252601f199092019160209182019101611b48565b6001836020036101000a0380198251168184511680821785525050505050509050019150509081526020016040519081900390205460ff1615611bf157600b805485908110611bb257fe5b600091825260209091200154600160a060020a0316868581518110611bd357fe5b600160a060020a039092166020928302909101909101526001909401935b600190930192611ab3565b84604051805910611c0a5750595b9080825280602002602001820160405250925060009150600090505b8551811015611c9d576000868281518110611c3d57fe5b90602001906020020151600160a060020a031614611c9557858181518110611c6157fe5b90602001906020020151838381518110611c7757fe5b600160a060020a039092166020928302909101909101526001909101905b600101611c26565b50909695505050505050565b815481835581811511611ccd57600083815260209020611ccd918101908301611dcd565b505050565b50805460018160011615610100020316600290046000825580601f10611cf85750611d16565b601f016020900490600052602060002090810190611d169190611dcd565b50565b60206040519081016040526000815290565b815481835581811511611ccd57600083815260209020611ccd918101908301611de7565b828054600181600116156101000203166002900490600052602060002090601f016020900481019282601f10611d9057805160ff1916838001178555611dbd565b82800160010185558215611dbd579182015b82811115611dbd578251825591602001919060010190611da2565b50611dc9929150611dcd565b5090565b61069991905b80821115611dc95760008155600101611dd3565b61069991905b80821115611dc9576000611e018282611cd2565b50600101611ded5600a165627a7a723058204a8cae25175baf798921fe66788e30b3562379a40639e27f10e4ecd8799b61af0029",
  "source": "// ------------------------------------------------------------------------------\n// This file is part of netvote.\n//\n// netvote is free software: you can redistribute it and/or modify\n// it under the terms of the GNU General Public License as published by\n// the Free Software Foundation, either version 3 of the License, or\n// (at your option) any later version.\n//\n// netvote is distributed in the hope that it will be useful,\n// but WITHOUT ANY WARRANTY; without even the implied warranty of\n// MERCHANTABILITY or FITNESS FOR A PARTICULAR PURPOSE.  See the\n// GNU General Public License for more details.\n//\n// You should have received a copy of the GNU General Public License\n// along with solidity.  If not, see <http://www.gnu.org/licenses/>\n//\n// (c) 2017 netvote contributors.\n//------------------------------------------------------------------------------\n\npragma solidity ^0.4.17;\n\nimport \"../ElectionPhaseable.sol\";\n\n\ncontract Ballot is ElectionPhaseable {\n    address public election;\n    event BallotVote(address pool, address voter);\n\n    string public metadataLocation;\n\n    // map of voters to prevent duplicates\n    mapping (address => bool) voterVoted;\n\n    // map that helps determine whether a pool is authorized\n    mapping (address => bool) poolExists;\n\n    // pools to the list of voters\n    mapping (address => address[]) poolVoters;\n\n    // maps groups to pools to determine whehter the pool should be counted for group\n    mapping (address => mapping(string => bool)) poolGroupMapping;\n\n    // result groups for ballot (e.g., NY, District 6, etc...)\n    mapping (string => bool) internal groupExists;\n    mapping (string => uint256) internal groupIndex;\n    string[] public groups;\n\n    address[] internal poolList;\n    mapping (address => uint256) poolListIndex;\n\n    function Ballot(address electionAddress, address ownerAddress, string location) public {\n        election = electionAddress;\n        owner = ownerAddress;\n        metadataLocation = location;\n    }\n\n    modifier validPool() {\n        require(poolExists[msg.sender]);\n        _;\n    }\n\n    function setMetadataLocation(string location) public building admin {\n        metadataLocation = location;\n    }\n\n    function collectPoolsByGroup(string group) constant internal returns (address[]) {\n        address[] memory res = new address[](poolList.length);\n        uint256 count = 0;\n        for (uint256 i = 0; i<poolList.length; i++) {\n            if (poolExists[poolList[i]]) {\n                if (poolGroupMapping[poolList[i]][group]) {\n                    res[i] = poolList[i];\n                    count++;\n                }\n            }\n        }\n        address[] memory pruned = new address[](count);\n        uint256 index = 0;\n        for (uint256 j = 0; j<res.length; j++) {\n            if (res[j] != address(0)) {\n                pruned[index] = res[j];\n                index++;\n            }\n        }\n        return pruned;\n    }\n\n    function groupPoolCount(string group) constant public returns (uint256) {\n        address[] memory res = collectPoolsByGroup(group);\n        return res.length;\n    }\n\n    function getGroupPool(string group, uint256 index) constant public returns (address) {\n        address[] memory res = collectPoolsByGroup(group);\n        return res[index];\n    }\n\n    function poolCount() constant public returns (uint256) {\n        return poolList.length;\n    }\n\n    function getPool(uint256 index) constant public returns (address) {\n        return poolList[index];\n    }\n\n    function getPoolVoterCount(address pool) constant public returns(uint256) {\n        return poolVoters[pool].length;\n    }\n\n    // gets voter address by pool and index (for iteration)\n    function getPoolVoter(address pool, uint256 i) constant public returns(address) {\n        return poolVoters[pool][i];\n    }\n\n    // internal method for getting groups that have not been removed to make indexes work\n    function getPrunedGroups() constant internal returns (string[]) {\n        string[] memory res = new string[](groups.length);\n        uint256 count = 0;\n        for (uint256 i = 0; i<groups.length; i++) {\n            if (groupExists[groups[i]]) {\n                res[i] = groups[i];\n                count++;\n            }\n        }\n        string[] memory pruned = new string[](count);\n        uint256 index = 0;\n        for (uint256 j = 0; j<res.length; j++) {\n            if (bytes(res[j]).length > 0) {\n                pruned[index] = res[j];\n                index++;\n            }\n        }\n        return pruned;\n    }\n\n    function getGroupCount() constant public returns (uint256) {\n        return getPrunedGroups().length;\n    }\n\n    function getGroup(uint256 index) constant public returns (string) {\n        return getPrunedGroups()[index];\n    }\n\n    function removeGroup(string group) public building admin {\n        require(groupExists[group]);\n        delete groupExists[group];\n        delete groups[groupIndex[group]];\n        delete groupIndex[group];\n    }\n\n    function addGroup(string group) public building admin {\n        require(!groupExists[group]);\n        groupExists[group] = true;\n        groups.push(group);\n        groupIndex[group] = groups.length - 1;\n    }\n\n    function addPool(address pool) public building admin {\n        require(!poolExists[pool]);\n        poolExists[pool] = true;\n        poolList.push(pool);\n        poolListIndex[pool] = poolList.length - 1;\n    }\n\n    function removePool(address pool) public building admin {\n        delete poolExists[pool];\n        delete poolList[poolListIndex[pool]];\n        delete poolListIndex[pool];\n    }\n\n    function addPoolToGroup(address pool, string group) public building admin {\n        require(groupExists[group]);\n        require(poolExists[pool]);\n        require(!poolGroupMapping[pool][group]);\n        poolGroupMapping[pool][group] = true;\n    }\n\n    function castVote(address voter) public voting validPool {\n        require(!voterVoted[voter]);\n        voterVoted[voter] = true;\n        poolVoters[msg.sender].push(voter);\n        BallotVote(msg.sender, voter);\n    }\n}",
  "sourcePath": "/Users/slanders/netvote/elections/contracts/elections/Ballot.sol",
  "schemaVersion": "1.0.0",
  "updatedAt": "2017-11-27T21:41:59.008Z"
}