{
  "contractName": "BaseElection",
  "abi": [
    {
      "constant": false,
      "inputs": [],
      "name": "activate",
      "outputs": [],
      "payable": false,
      "stateMutability": "nonpayable",
      "type": "function"
    },
    {
      "constant": false,
      "inputs": [
        {
          "name": "addr",
          "type": "address"
        }
      ],
      "name": "removeAdmin",
      "outputs": [],
      "payable": false,
      "stateMutability": "nonpayable",
      "type": "function"
    },
    {
      "constant": true,
      "inputs": [
        {
          "name": "addr",
          "type": "address"
        }
      ],
      "name": "isAdmin",
      "outputs": [
        {
          "name": "",
          "type": "bool"
        }
      ],
      "payable": false,
      "stateMutability": "view",
      "type": "function"
    },
    {
      "constant": true,
      "inputs": [],
      "name": "electionPhase",
      "outputs": [
        {
          "name": "",
          "type": "uint8"
        }
      ],
      "payable": false,
      "stateMutability": "view",
      "type": "function"
    },
    {
      "constant": false,
      "inputs": [],
      "name": "abort",
      "outputs": [],
      "payable": false,
      "stateMutability": "nonpayable",
      "type": "function"
    },
    {
      "constant": false,
      "inputs": [],
      "name": "close",
      "outputs": [],
      "payable": false,
      "stateMutability": "nonpayable",
      "type": "function"
    },
    {
      "constant": true,
      "inputs": [],
      "name": "electionType",
      "outputs": [
        {
          "name": "",
          "type": "string"
        }
      ],
      "payable": false,
      "stateMutability": "view",
      "type": "function"
    },
    {
      "constant": true,
      "inputs": [],
      "name": "privateKey",
      "outputs": [
        {
          "name": "",
          "type": "string"
        }
      ],
      "payable": false,
      "stateMutability": "view",
      "type": "function"
    },
    {
      "constant": false,
      "inputs": [],
      "name": "removeSelf",
      "outputs": [],
      "payable": false,
      "stateMutability": "nonpayable",
      "type": "function"
    },
    {
      "constant": true,
      "inputs": [],
      "name": "publicKey",
      "outputs": [
        {
          "name": "",
          "type": "string"
        }
      ],
      "payable": false,
      "stateMutability": "view",
      "type": "function"
    },
    {
      "constant": false,
      "inputs": [
        {
          "name": "key",
          "type": "string"
        }
      ],
      "name": "setPublicKey",
      "outputs": [],
      "payable": false,
      "stateMutability": "nonpayable",
      "type": "function"
    },
    {
      "constant": false,
      "inputs": [
        {
          "name": "addr",
          "type": "address"
        }
      ],
      "name": "addAdmin",
      "outputs": [],
      "payable": false,
      "stateMutability": "nonpayable",
      "type": "function"
    },
    {
      "constant": true,
      "inputs": [],
      "name": "owner",
      "outputs": [
        {
          "name": "",
          "type": "address"
        }
      ],
      "payable": false,
      "stateMutability": "view",
      "type": "function"
    },
    {
      "constant": true,
      "inputs": [],
      "name": "isLocked",
      "outputs": [
        {
          "name": "",
          "type": "bool"
        }
      ],
      "payable": false,
      "stateMutability": "view",
      "type": "function"
    },
    {
      "constant": false,
      "inputs": [],
      "name": "unlock",
      "outputs": [],
      "payable": false,
      "stateMutability": "nonpayable",
      "type": "function"
    },
    {
      "constant": true,
      "inputs": [],
      "name": "allowVoteUpdates",
      "outputs": [
        {
          "name": "",
          "type": "bool"
        }
      ],
      "payable": false,
      "stateMutability": "view",
      "type": "function"
    },
    {
      "constant": true,
      "inputs": [],
      "name": "isClosed",
      "outputs": [
        {
          "name": "",
          "type": "bool"
        }
      ],
      "payable": false,
      "stateMutability": "view",
      "type": "function"
    },
    {
      "constant": false,
      "inputs": [],
      "name": "deductVote",
      "outputs": [],
      "payable": false,
      "stateMutability": "nonpayable",
      "type": "function"
    },
    {
      "constant": false,
      "inputs": [
        {
          "name": "key",
          "type": "string"
        }
      ],
      "name": "setPrivateKey",
      "outputs": [],
      "payable": false,
      "stateMutability": "nonpayable",
      "type": "function"
    },
    {
      "constant": true,
      "inputs": [],
      "name": "checkConfig",
      "outputs": [
        {
          "name": "",
          "type": "bool"
        }
      ],
      "payable": false,
      "stateMutability": "view",
      "type": "function"
    },
    {
      "constant": false,
      "inputs": [
        {
          "name": "newOwner",
          "type": "address"
        }
      ],
      "name": "transferOwnership",
      "outputs": [],
      "payable": false,
      "stateMutability": "nonpayable",
      "type": "function"
    },
    {
      "constant": false,
      "inputs": [],
      "name": "lock",
      "outputs": [],
      "payable": false,
      "stateMutability": "nonpayable",
      "type": "function"
    },
    {
      "inputs": [
        {
          "name": "allowanceAddress",
          "type": "address"
        },
        {
          "name": "acct",
          "type": "address"
        },
        {
          "name": "allowUpdates",
          "type": "bool"
        },
        {
          "name": "revealer",
          "type": "address"
        }
      ],
      "payable": false,
      "stateMutability": "nonpayable",
      "type": "constructor"
    },
    {
      "anonymous": false,
      "inputs": [],
      "name": "KeyReleased",
      "type": "event"
    },
    {
      "anonymous": false,
      "inputs": [],
      "name": "Closed",
      "type": "event"
    },
    {
      "anonymous": false,
      "inputs": [],
      "name": "Activated",
      "type": "event"
    },
    {
      "anonymous": false,
      "inputs": [],
      "name": "Aborted",
      "type": "event"
    },
    {
      "anonymous": false,
      "inputs": [],
      "name": "Locked",
      "type": "event"
    },
    {
      "anonymous": false,
      "inputs": [],
      "name": "Unlocked",
      "type": "event"
    },
    {
      "anonymous": false,
      "inputs": [
        {
          "indexed": true,
          "name": "previousOwner",
          "type": "address"
        },
        {
          "indexed": true,
          "name": "newOwner",
          "type": "address"
        }
      ],
      "name": "OwnershipTransferred",
      "type": "event"
    }
  ],
  "bytecode": "0x60606040526000600260006101000a81548160ff0219169083151502179055506000600260016101000a81548160ff0219169083600381111561003e57fe5b02179055506000600560006101000a81548160ff021916908315150217905550341561006957600080fd5b6040516080806115748339810160405280805190602001909190805190602001909190805190602001909190805190602001909190505080336000806101000a81548173ffffffffffffffffffffffffffffffffffffffff021916908373ffffffffffffffffffffffffffffffffffffffff160217905550806002806101000a81548173ffffffffffffffffffffffffffffffffffffffff021916908373ffffffffffffffffffffffffffffffffffffffff1602179055505083600560016101000a81548173ffffffffffffffffffffffffffffffffffffffff021916908373ffffffffffffffffffffffffffffffffffffffff16021790555082600660006101000a81548173ffffffffffffffffffffffffffffffffffffffff021916908373ffffffffffffffffffffffffffffffffffffffff16021790555081600660146101000a81548160ff021916908315150217905550505050506113a3806101d16000396000f300606060405260043610610128576000357c0100000000000000000000000000000000000000000000000000000000900463ffffffff1680630f15f4c01461012d5780631785f53c1461014257806324d7806c1461017b578063265050b6146101cc57806335a063b41461020357806343d726d6146102185780634885c72a1461022d57806349da5a0f146102bb5780635e898dac1461034957806363ffab311461035e5780636f6fc077146103ec57806370480275146104495780638da5cb5b14610482578063a4e2d634146104d7578063a69df4b514610504578063bf41bf3614610519578063c2b6b58c14610546578063de61a73214610573578063e0d4f01714610588578063f098fe47146105e5578063f2fde38b14610612578063f83d08ba1461064b575b600080fd5b341561013857600080fd5b610140610660565b005b341561014d57600080fd5b610179600480803573ffffffffffffffffffffffffffffffffffffffff1690602001909190505061071e565b005b341561018657600080fd5b6101b2600480803573ffffffffffffffffffffffffffffffffffffffff169060200190919050506107d4565b604051808215151515815260200191505060405180910390f35b34156101d757600080fd5b6101df6108b9565b604051808260038111156101ef57fe5b60ff16815260200191505060405180910390f35b341561020e57600080fd5b6102166108cc565b005b341561022357600080fd5b61022b610932565b005b341561023857600080fd5b6102406109dc565b6040518080602001828103825283818151815260200191508051906020019080838360005b83811015610280578082015181840152602081019050610265565b50505050905090810190601f1680156102ad5780820380516001836020036101000a031916815260200191505b509250505060405180910390f35b34156102c657600080fd5b6102ce610a7a565b6040518080602001828103825283818151815260200191508051906020019080838360005b8381101561030e5780820151818401526020810190506102f3565b50505050905090810190601f16801561033b5780820380516001836020036101000a031916815260200191505b509250505060405180910390f35b341561035457600080fd5b61035c610b18565b005b341561036957600080fd5b610371610b86565b6040518080602001828103825283818151815260200191508051906020019080838360005b838110156103b1578082015181840152602081019050610396565b50505050905090810190601f1680156103de5780820380516001836020036101000a031916815260200191505b509250505060405180910390f35b34156103f757600080fd5b610447600480803590602001908201803590602001908080601f01602080910402602001604051908101604052809392919081815260200183838082843782019150505050505091905050610c24565b005b341561045457600080fd5b610480600480803573ffffffffffffffffffffffffffffffffffffffff16906020019091905050610cde565b005b341561048d57600080fd5b610495610d93565b604051808273ffffffffffffffffffffffffffffffffffffffff1673ffffffffffffffffffffffffffffffffffffffff16815260200191505060405180910390f35b34156104e257600080fd5b6104ea610db8565b604051808215151515815260200191505060405180910390f35b341561050f57600080fd5b610517610dcf565b005b341561052457600080fd5b61052c610e47565b604051808215151515815260200191505060405180910390f35b341561055157600080fd5b610559610e5a565b604051808215151515815260200191505060405180910390f35b341561057e57600080fd5b610586610e8a565b005b341561059357600080fd5b6105e3600480803590602001908201803590602001908080601f01602080910402602001604051908101604052809392919081815260200183838082843782019150505050505091905050611015565b005b34156105f057600080fd5b6105f86110fb565b604051808215151515815260200191505060405180910390f35b341561061d57600080fd5b610649600480803573ffffffffffffffffffffffffffffffffffffffff16906020019091905050611104565b005b341561065657600080fd5b61065e611259565b005b610668610db8565b15801561069a57506000600381111561067d57fe5b600260019054906101000a900460ff16600381111561069857fe5b145b15156106a557600080fd5b6106ae336107d4565b15156106b957600080fd5b6106c16110fb565b15156106cc57600080fd5b6001600260016101000a81548160ff021916908360038111156106eb57fe5b02179055507fed1cd0670ee0c0017f550451a038818c696d0b6a9d6ce5b369e44275573cf9b060405160405180910390a1565b6000809054906101000a900473ffffffffffffffffffffffffffffffffffffffff1673ffffffffffffffffffffffffffffffffffffffff163373ffffffffffffffffffffffffffffffffffffffff1614151561077957600080fd5b6000600160008373ffffffffffffffffffffffffffffffffffffffff1673ffffffffffffffffffffffffffffffffffffffff16815260200190815260200160002060006101000a81548160ff02191690831515021790555050565b60008073ffffffffffffffffffffffffffffffffffffffff168273ffffffffffffffffffffffffffffffffffffffff16141580156108b257506000809054906101000a900473ffffffffffffffffffffffffffffffffffffffff1673ffffffffffffffffffffffffffffffffffffffff168273ffffffffffffffffffffffffffffffffffffffff1614806108b15750600160008373ffffffffffffffffffffffffffffffffffffffff1673ffffffffffffffffffffffffffffffffffffffff16815260200190815260200160002060009054906101000a900460ff165b5b9050919050565b600260019054906101000a900460ff1681565b6108d5336107d4565b15156108e057600080fd5b6003600260016101000a81548160ff021916908360038111156108ff57fe5b02179055507f72c874aeff0b183a56e2b79c71b46e1aed4dee5e09862134b8821ba2fddbf8bf60405160405180910390a1565b61093a610db8565b15801561096c57506001600381111561094f57fe5b600260019054906101000a900460ff16600381111561096a57fe5b145b151561097757600080fd5b610980336107d4565b151561098b57600080fd5b60028060016101000a81548160ff021916908360038111156109a957fe5b02179055507f1cdde67b72a90f19919ac732a437ac2f7a10fc128d28c2a6e525d89ce5cd9d3a60405160405180910390a1565b60078054600181600116156101000203166002900480601f016020809104026020016040519081016040528092919081815260200182805460018160011615610100020316600290048015610a725780601f10610a4757610100808354040283529160200191610a72565b820191906000526020600020905b815481529060010190602001808311610a5557829003601f168201915b505050505081565b60048054600181600116156101000203166002900480601f016020809104026020016040519081016040528092919081815260200182805460018160011615610100020316600290048015610b105780601f10610ae557610100808354040283529160200191610b10565b820191906000526020600020905b815481529060010190602001808311610af357829003601f168201915b505050505081565b610b21336107d4565b1515610b2c57600080fd5b6000600160003373ffffffffffffffffffffffffffffffffffffffff1673ffffffffffffffffffffffffffffffffffffffff16815260200190815260200160002060006101000a81548160ff021916908315150217905550565b60038054600181600116156101000203166002900480601f016020809104026020016040519081016040528092919081815260200182805460018160011615610100020316600290048015610c1c5780601f10610bf157610100808354040283529160200191610c1c565b820191906000526020600020905b815481529060010190602001808311610bff57829003601f168201915b505050505081565b610c2c610db8565b158015610c5e575060006003811115610c4157fe5b600260019054906101000a900460ff166003811115610c5c57fe5b145b1515610c6957600080fd5b6002809054906101000a900473ffffffffffffffffffffffffffffffffffffffff1673ffffffffffffffffffffffffffffffffffffffff163373ffffffffffffffffffffffffffffffffffffffff16141515610cc457600080fd5b8060039080519060200190610cda9291906112d2565b5050565b6000809054906101000a900473ffffffffffffffffffffffffffffffffffffffff1673ffffffffffffffffffffffffffffffffffffffff163373ffffffffffffffffffffffffffffffffffffffff16141515610d3957600080fd5b60018060008373ffffffffffffffffffffffffffffffffffffffff1673ffffffffffffffffffffffffffffffffffffffff16815260200190815260200160002060006101000a81548160ff02191690831515021790555050565b6000809054906101000a900473ffffffffffffffffffffffffffffffffffffffff1681565b6000600260009054906101000a900460ff16905090565b610dd8336107d4565b1515610de357600080fd5b600260009054906101000a900460ff161515610dfe57600080fd5b6000600260006101000a81548160ff0219169083151502179055507f19aad37188a1d3921e29eb3c66acf43d81975e107cb650d58cca878627955fd660405160405180910390a1565b600660149054906101000a900460ff1681565b600060026003811115610e6957fe5b600260019054906101000a900460ff166003811115610e8457fe5b14905090565b610e92610db8565b158015610ec4575060016003811115610ea757fe5b600260019054906101000a900460ff166003811115610ec257fe5b145b1515610ecf57600080fd5b600560009054906101000a900460ff16151515610eeb57600080fd5b6001600560006101000a81548160ff021916908315150217905550600560019054906101000a900473ffffffffffffffffffffffffffffffffffffffff1673ffffffffffffffffffffffffffffffffffffffff1663dff6797c600660009054906101000a900473ffffffffffffffffffffffffffffffffffffffff166040518263ffffffff167c0100000000000000000000000000000000000000000000000000000000028152600401808273ffffffffffffffffffffffffffffffffffffffff1673ffffffffffffffffffffffffffffffffffffffff168152602001915050600060405180830381600087803b1515610fe457600080fd5b6102c65a03f11515610ff557600080fd5b5050506000600560006101000a81548160ff021916908315150217905550565b61101d610db8565b15801561104f57506002600381111561103257fe5b600260019054906101000a900460ff16600381111561104d57fe5b145b151561105a57600080fd5b6002809054906101000a900473ffffffffffffffffffffffffffffffffffffffff1673ffffffffffffffffffffffffffffffffffffffff163373ffffffffffffffffffffffffffffffffffffffff161415156110b557600080fd5b80600490805190602001906110cb9291906112d2565b507ff9d8c4f7f692590eaf6d41d6160024ffe0ce509fa752efcf47543eb851869cfb60405160405180910390a150565b60006001905090565b6000809054906101000a900473ffffffffffffffffffffffffffffffffffffffff1673ffffffffffffffffffffffffffffffffffffffff163373ffffffffffffffffffffffffffffffffffffffff1614151561115f57600080fd5b600073ffffffffffffffffffffffffffffffffffffffff168173ffffffffffffffffffffffffffffffffffffffff161415151561119b57600080fd5b8073ffffffffffffffffffffffffffffffffffffffff166000809054906101000a900473ffffffffffffffffffffffffffffffffffffffff1673ffffffffffffffffffffffffffffffffffffffff167f8be0079c531659141344cd1fd0a4f28419497f9722a3daafe3b4186f6b6457e060405160405180910390a3806000806101000a81548173ffffffffffffffffffffffffffffffffffffffff021916908373ffffffffffffffffffffffffffffffffffffffff16021790555050565b611262336107d4565b151561126d57600080fd5b600260009054906101000a900460ff1615151561128957600080fd5b6001600260006101000a81548160ff0219169083151502179055507f0f2e5b6c72c6a4491efd919a9f9a409f324ef0708c11ee57d410c2cb06c0992b60405160405180910390a1565b828054600181600116156101000203166002900490600052602060002090601f016020900481019282601f1061131357805160ff1916838001178555611341565b82800160010185558215611341579182015b82811115611340578251825591602001919060010190611325565b5b50905061134e9190611352565b5090565b61137491905b80821115611370576000816000905550600101611358565b5090565b905600a165627a7a723058208a87336591ef12687cb9fb1b49d4fce699c24735bc64b5b964b75b45bd097d750029",
  "source": "// ------------------------------------------------------------------------------\n// This file is part of netvote.\n//\n// netvote is free software: you can redistribute it and/or modify\n// it under the terms of the GNU General Public License as published by\n// the Free Software Foundation, either version 3 of the License, or\n// (at your option) any later version.\n//\n// netvote is distributed in the hope that it will be useful,\n// but WITHOUT ANY WARRANTY; without even the implied warranty of\n// MERCHANTABILITY or FITNESS FOR A PARTICULAR PURPOSE.  See the\n// GNU General Public License for more details.\n//\n// You should have received a copy of the GNU General Public License\n// along with solidity.  If not, see <http://www.gnu.org/licenses/>\n//\n// (c) 2017 netvote contributors.\n//------------------------------------------------------------------------------\n\npragma solidity ^0.4.17;\n\nimport \"./VoteAllowance.sol\";\nimport \"./links/BallotRegistry.sol\";\nimport \"./links/PoolRegistry.sol\";\nimport \"../encryption/KeyHolder.sol\";\nimport \"zeppelin-solidity/contracts/ReentrancyGuard.sol\";\n\n\n/**\n * @title BaseElection\n * @dev A base contract that transacts vote allowance and allows a key to be released\n */\ncontract BaseElection is KeyHolder, ReentrancyGuard {\n\n    VoteAllowance allowance;\n    address allowanceAccount;\n    bool public allowVoteUpdates;\n    string public electionType;\n\n    function BaseElection(\n        address allowanceAddress,\n        address acct,\n        bool allowUpdates,\n        address revealer) KeyHolder(revealer) public\n    {\n        allowance = VoteAllowance(allowanceAddress);\n        allowanceAccount = acct;\n        allowVoteUpdates = allowUpdates;\n    }\n\n    function deductVote() public voting nonReentrant {\n        allowance.deduct(allowanceAccount);\n    }\n}",
  "sourcePath": "/Users/slanders/netvote/elections-solidity/contracts/elections/BaseElection.sol",
  "compiler": {
    "name": "solc",
    "version": "0.4.18+commit.9cf6e910.Emscripten.clang"
  },
  "schemaVersion": "1.0.1",
  "updatedAt": "2018-01-02T21:49:53.403Z"
}