{
  "contractName": "BasePool",
  "abi": [
    {
      "constant": false,
      "inputs": [],
      "name": "activate",
      "outputs": [],
      "payable": false,
      "stateMutability": "nonpayable",
      "type": "function"
    },
    {
      "constant": true,
      "inputs": [],
      "name": "gateway",
      "outputs": [
        {
          "name": "",
          "type": "address"
        }
      ],
      "payable": false,
      "stateMutability": "view",
      "type": "function"
    },
    {
      "constant": true,
      "inputs": [
        {
          "name": "b",
          "type": "address"
        }
      ],
      "name": "ballotExists",
      "outputs": [
        {
          "name": "",
          "type": "bool"
        }
      ],
      "payable": false,
      "stateMutability": "view",
      "type": "function"
    },
    {
      "constant": false,
      "inputs": [
        {
          "name": "addr",
          "type": "address"
        }
      ],
      "name": "removeAdmin",
      "outputs": [],
      "payable": false,
      "stateMutability": "nonpayable",
      "type": "function"
    },
    {
      "constant": true,
      "inputs": [
        {
          "name": "addr",
          "type": "address"
        }
      ],
      "name": "isAdmin",
      "outputs": [
        {
          "name": "",
          "type": "bool"
        }
      ],
      "payable": false,
      "stateMutability": "view",
      "type": "function"
    },
    {
      "constant": true,
      "inputs": [],
      "name": "electionPhase",
      "outputs": [
        {
          "name": "",
          "type": "uint8"
        }
      ],
      "payable": false,
      "stateMutability": "view",
      "type": "function"
    },
    {
      "constant": true,
      "inputs": [
        {
          "name": "",
          "type": "bytes32"
        }
      ],
      "name": "votes",
      "outputs": [
        {
          "name": "",
          "type": "string"
        }
      ],
      "payable": false,
      "stateMutability": "view",
      "type": "function"
    },
    {
      "constant": false,
      "inputs": [],
      "name": "abort",
      "outputs": [],
      "payable": false,
      "stateMutability": "nonpayable",
      "type": "function"
    },
    {
      "constant": false,
      "inputs": [
        {
          "name": "voteId",
          "type": "bytes32"
        },
        {
          "name": "vote",
          "type": "string"
        }
      ],
      "name": "updateVote",
      "outputs": [],
      "payable": false,
      "stateMutability": "nonpayable",
      "type": "function"
    },
    {
      "constant": false,
      "inputs": [],
      "name": "close",
      "outputs": [],
      "payable": false,
      "stateMutability": "nonpayable",
      "type": "function"
    },
    {
      "constant": true,
      "inputs": [],
      "name": "election",
      "outputs": [
        {
          "name": "",
          "type": "address"
        }
      ],
      "payable": false,
      "stateMutability": "view",
      "type": "function"
    },
    {
      "constant": false,
      "inputs": [],
      "name": "removeSelf",
      "outputs": [],
      "payable": false,
      "stateMutability": "nonpayable",
      "type": "function"
    },
    {
      "constant": false,
      "inputs": [
        {
          "name": "addr",
          "type": "address"
        }
      ],
      "name": "addAdmin",
      "outputs": [],
      "payable": false,
      "stateMutability": "nonpayable",
      "type": "function"
    },
    {
      "constant": true,
      "inputs": [],
      "name": "owner",
      "outputs": [
        {
          "name": "",
          "type": "address"
        }
      ],
      "payable": false,
      "stateMutability": "view",
      "type": "function"
    },
    {
      "constant": true,
      "inputs": [
        {
          "name": "index",
          "type": "uint256"
        }
      ],
      "name": "getVoteAt",
      "outputs": [
        {
          "name": "",
          "type": "string"
        }
      ],
      "payable": false,
      "stateMutability": "view",
      "type": "function"
    },
    {
      "constant": true,
      "inputs": [],
      "name": "isLocked",
      "outputs": [
        {
          "name": "",
          "type": "bool"
        }
      ],
      "payable": false,
      "stateMutability": "view",
      "type": "function"
    },
    {
      "constant": false,
      "inputs": [],
      "name": "unlock",
      "outputs": [],
      "payable": false,
      "stateMutability": "nonpayable",
      "type": "function"
    },
    {
      "constant": true,
      "inputs": [],
      "name": "getBallotCount",
      "outputs": [
        {
          "name": "",
          "type": "uint256"
        }
      ],
      "payable": false,
      "stateMutability": "view",
      "type": "function"
    },
    {
      "constant": true,
      "inputs": [],
      "name": "isClosed",
      "outputs": [
        {
          "name": "",
          "type": "bool"
        }
      ],
      "payable": false,
      "stateMutability": "view",
      "type": "function"
    },
    {
      "constant": false,
      "inputs": [
        {
          "name": "voteId",
          "type": "bytes32"
        },
        {
          "name": "vote",
          "type": "string"
        }
      ],
      "name": "castVote",
      "outputs": [],
      "payable": false,
      "stateMutability": "nonpayable",
      "type": "function"
    },
    {
      "constant": false,
      "inputs": [
        {
          "name": "b",
          "type": "address"
        }
      ],
      "name": "removeBallot",
      "outputs": [],
      "payable": false,
      "stateMutability": "nonpayable",
      "type": "function"
    },
    {
      "constant": true,
      "inputs": [
        {
          "name": "b",
          "type": "address"
        }
      ],
      "name": "getBallotIndex",
      "outputs": [
        {
          "name": "",
          "type": "uint256"
        }
      ],
      "payable": false,
      "stateMutability": "view",
      "type": "function"
    },
    {
      "constant": true,
      "inputs": [],
      "name": "getVoteCount",
      "outputs": [
        {
          "name": "",
          "type": "uint256"
        }
      ],
      "payable": false,
      "stateMutability": "view",
      "type": "function"
    },
    {
      "constant": true,
      "inputs": [],
      "name": "checkConfig",
      "outputs": [
        {
          "name": "",
          "type": "bool"
        }
      ],
      "payable": false,
      "stateMutability": "view",
      "type": "function"
    },
    {
      "constant": false,
      "inputs": [
        {
          "name": "newOwner",
          "type": "address"
        }
      ],
      "name": "transferOwnership",
      "outputs": [],
      "payable": false,
      "stateMutability": "nonpayable",
      "type": "function"
    },
    {
      "constant": false,
      "inputs": [],
      "name": "lock",
      "outputs": [],
      "payable": false,
      "stateMutability": "nonpayable",
      "type": "function"
    },
    {
      "constant": false,
      "inputs": [
        {
          "name": "b",
          "type": "address"
        }
      ],
      "name": "addBallot",
      "outputs": [],
      "payable": false,
      "stateMutability": "nonpayable",
      "type": "function"
    },
    {
      "constant": true,
      "inputs": [
        {
          "name": "index",
          "type": "uint256"
        }
      ],
      "name": "getBallot",
      "outputs": [
        {
          "name": "",
          "type": "address"
        }
      ],
      "payable": false,
      "stateMutability": "view",
      "type": "function"
    },
    {
      "inputs": [
        {
          "name": "el",
          "type": "address"
        },
        {
          "name": "gw",
          "type": "address"
        }
      ],
      "payable": false,
      "stateMutability": "nonpayable",
      "type": "constructor"
    },
    {
      "anonymous": false,
      "inputs": [
        {
          "indexed": false,
          "name": "voteId",
          "type": "bytes32"
        }
      ],
      "name": "Vote",
      "type": "event"
    },
    {
      "anonymous": false,
      "inputs": [
        {
          "indexed": false,
          "name": "voteId",
          "type": "bytes32"
        }
      ],
      "name": "UpdateVote",
      "type": "event"
    },
    {
      "anonymous": false,
      "inputs": [],
      "name": "Closed",
      "type": "event"
    },
    {
      "anonymous": false,
      "inputs": [],
      "name": "Activated",
      "type": "event"
    },
    {
      "anonymous": false,
      "inputs": [],
      "name": "Aborted",
      "type": "event"
    },
    {
      "anonymous": false,
      "inputs": [],
      "name": "Locked",
      "type": "event"
    },
    {
      "anonymous": false,
      "inputs": [],
      "name": "Unlocked",
      "type": "event"
    },
    {
      "anonymous": false,
      "inputs": [
        {
          "indexed": true,
          "name": "previousOwner",
          "type": "address"
        },
        {
          "indexed": true,
          "name": "newOwner",
          "type": "address"
        }
      ],
      "name": "OwnershipTransferred",
      "type": "event"
    }
  ],
  "bytecode": "0x60606040526000600260006101000a81548160ff0219169083151502179055506000600260016101000a81548160ff0219169083600381111561003e57fe5b0217905550341561004e57600080fd5b604051604080611fbd83398101604052808051906020019091908051906020019091905050336000806101000a81548173ffffffffffffffffffffffffffffffffffffffff021916908373ffffffffffffffffffffffffffffffffffffffff160217905550600073ffffffffffffffffffffffffffffffffffffffff168273ffffffffffffffffffffffffffffffffffffffff161415801561011d5750600073ffffffffffffffffffffffffffffffffffffffff168173ffffffffffffffffffffffffffffffffffffffff1614155b151561012857600080fd5b81600960006101000a81548173ffffffffffffffffffffffffffffffffffffffff021916908373ffffffffffffffffffffffffffffffffffffffff16021790555080600b60006101000a81548173ffffffffffffffffffffffffffffffffffffffff021916908373ffffffffffffffffffffffffffffffffffffffff1602179055505050611e02806101bb6000396000f30060606040526004361061016a576000357c0100000000000000000000000000000000000000000000000000000000900463ffffffff1680630f15f4c01461016f578063116191b614610184578063138b1fa0146101d95780631785f53c1461022a57806324d7806c14610263578063265050b6146102b45780632b38cd96146102eb57806335a063b41461038b578063431b1335146103a057806343d726d61461040a5780634b1d3ede1461041f5780635e898dac1461047457806370480275146104895780638da5cb5b146104c25780639cc8f2b314610517578063a4e2d634146105b3578063a69df4b5146105e0578063b4741495146105f5578063c2b6b58c1461061e578063cac1e34e1461064b578063d71c6772146106b5578063db30eafb146106ee578063e7b3387c1461073b578063f098fe4714610764578063f2fde38b14610791578063f83d08ba146107ca578063f8c74afa146107df578063f9d5ee7514610818575b600080fd5b341561017a57600080fd5b61018261087b565b005b341561018f57600080fd5b610197610939565b604051808273ffffffffffffffffffffffffffffffffffffffff1673ffffffffffffffffffffffffffffffffffffffff16815260200191505060405180910390f35b34156101e457600080fd5b610210600480803573ffffffffffffffffffffffffffffffffffffffff1690602001909190505061095f565b604051808215151515815260200191505060405180910390f35b341561023557600080fd5b610261600480803573ffffffffffffffffffffffffffffffffffffffff16906020019091905050610a2d565b005b341561026e57600080fd5b61029a600480803573ffffffffffffffffffffffffffffffffffffffff16906020019091905050610ae3565b604051808215151515815260200191505060405180910390f35b34156102bf57600080fd5b6102c7610bc8565b604051808260038111156102d757fe5b60ff16815260200191505060405180910390f35b34156102f657600080fd5b610310600480803560001916906020019091905050610bdb565b6040518080602001828103825283818151815260200191508051906020019080838360005b83811015610350578082015181840152602081019050610335565b50505050905090810190601f16801561037d5780820380516001836020036101000a031916815260200191505b509250505060405180910390f35b341561039657600080fd5b61039e610c8b565b005b34156103ab57600080fd5b61040860048080356000191690602001909190803590602001908201803590602001908080601f01602080910402602001604051908101604052809392919081815260200183838082843782019150505050505091905050610cf1565b005b341561041557600080fd5b61041d610f65565b005b341561042a57600080fd5b61043261100f565b604051808273ffffffffffffffffffffffffffffffffffffffff1673ffffffffffffffffffffffffffffffffffffffff16815260200191505060405180910390f35b341561047f57600080fd5b610487611035565b005b341561049457600080fd5b6104c0600480803573ffffffffffffffffffffffffffffffffffffffff169060200190919050506110a3565b005b34156104cd57600080fd5b6104d5611158565b604051808273ffffffffffffffffffffffffffffffffffffffff1673ffffffffffffffffffffffffffffffffffffffff16815260200191505060405180910390f35b341561052257600080fd5b610538600480803590602001909190505061117d565b6040518080602001828103825283818151815260200191508051906020019080838360005b8381101561057857808201518184015260208101905061055d565b50505050905090810190601f1680156105a55780820380516001836020036101000a031916815260200191505b509250505060405180910390f35b34156105be57600080fd5b6105c66112d8565b604051808215151515815260200191505060405180910390f35b34156105eb57600080fd5b6105f36112ef565b005b341561060057600080fd5b610608611367565b6040518082815260200191505060405180910390f35b341561062957600080fd5b6106316113ff565b604051808215151515815260200191505060405180910390f35b341561065657600080fd5b6106b360048080356000191690602001909190803590602001908201803590602001908080601f0160208091040260200160405190810160405280939291908181526020018383808284378201915050505050509190505061142f565b005b34156106c057600080fd5b6106ec600480803573ffffffffffffffffffffffffffffffffffffffff1690602001909190505061171c565b005b34156106f957600080fd5b610725600480803573ffffffffffffffffffffffffffffffffffffffff1690602001909190505061182d565b6040518082815260200191505060405180910390f35b341561074657600080fd5b61074e6118fb565b6040518082815260200191505060405180910390f35b341561076f57600080fd5b610777611993565b604051808215151515815260200191505060405180910390f35b341561079c57600080fd5b6107c8600480803573ffffffffffffffffffffffffffffffffffffffff1690602001909190505061199c565b005b34156107d557600080fd5b6107dd611af1565b005b34156107ea57600080fd5b610816600480803573ffffffffffffffffffffffffffffffffffffffff16906020019091905050611b6a565b005b341561082357600080fd5b6108396004808035906020019091905050611c7b565b604051808273ffffffffffffffffffffffffffffffffffffffff1673ffffffffffffffffffffffffffffffffffffffff16815260200191505060405180910390f35b6108836112d8565b1580156108b557506000600381111561089857fe5b600260019054906101000a900460ff1660038111156108b357fe5b145b15156108c057600080fd5b6108c933610ae3565b15156108d457600080fd5b6108dc611993565b15156108e757600080fd5b6001600260016101000a81548160ff0219169083600381111561090657fe5b02179055507fed1cd0670ee0c0017f550451a038818c696d0b6a9d6ce5b369e44275573cf9b060405160405180910390a1565b600b60009054906101000a900473ffffffffffffffffffffffffffffffffffffffff1681565b6000600373__AddressSet____________________________63758241e09091846000604051602001526040518363ffffffff167c0100000000000000000000000000000000000000000000000000000000028152600401808381526020018273ffffffffffffffffffffffffffffffffffffffff1673ffffffffffffffffffffffffffffffffffffffff1681526020019250505060206040518083038186803b1515610a0b57600080fd5b6102c65a03f41515610a1c57600080fd5b505050604051805190509050919050565b6000809054906101000a900473ffffffffffffffffffffffffffffffffffffffff1673ffffffffffffffffffffffffffffffffffffffff163373ffffffffffffffffffffffffffffffffffffffff16141515610a8857600080fd5b6000600160008373ffffffffffffffffffffffffffffffffffffffff1673ffffffffffffffffffffffffffffffffffffffff16815260200190815260200160002060006101000a81548160ff02191690831515021790555050565b60008073ffffffffffffffffffffffffffffffffffffffff168273ffffffffffffffffffffffffffffffffffffffff1614158015610bc157506000809054906101000a900473ffffffffffffffffffffffffffffffffffffffff1673ffffffffffffffffffffffffffffffffffffffff168273ffffffffffffffffffffffffffffffffffffffff161480610bc05750600160008373ffffffffffffffffffffffffffffffffffffffff1673ffffffffffffffffffffffffffffffffffffffff16815260200190815260200160002060009054906101000a900460ff165b5b9050919050565b600260019054906101000a900460ff1681565b600a6020528060005260406000206000915090508054600181600116156101000203166002900480601f016020809104026020016040519081016040528092919081815260200182805460018160011615610100020316600290048015610c835780601f10610c5857610100808354040283529160200191610c83565b820191906000526020600020905b815481529060010190602001808311610c6657829003601f168201915b505050505081565b610c9433610ae3565b1515610c9f57600080fd5b6003600260016101000a81548160ff02191690836003811115610cbe57fe5b02179055507f72c874aeff0b183a56e2b79c71b46e1aed4dee5e09862134b8821ba2fddbf8bf60405160405180910390a1565b610cf96112d8565b158015610d2b575060016003811115610d0e57fe5b600260019054906101000a900460ff166003811115610d2957fe5b145b1515610d3657600080fd5b600b60009054906101000a900473ffffffffffffffffffffffffffffffffffffffff1673ffffffffffffffffffffffffffffffffffffffff163373ffffffffffffffffffffffffffffffffffffffff16141515610d9257600080fd5b600960009054906101000a900473ffffffffffffffffffffffffffffffffffffffff1673ffffffffffffffffffffffffffffffffffffffff1663bf41bf366000604051602001526040518163ffffffff167c0100000000000000000000000000000000000000000000000000000000028152600401602060405180830381600087803b1515610e2057600080fd5b6102c65a03f11515610e3157600080fd5b505050604051805190501515610e4657600080fd5b600673__Bytes32Set____________________________63932dd8399091846000604051602001526040518363ffffffff167c01000000000000000000000000000000000000000000000000000000000281526004018083815260200182600019166000191681526020019250505060206040518083038186803b1515610ecc57600080fd5b6102c65a03f41515610edd57600080fd5b505050604051805190501515610ef257600080fd5b80600a600084600019166000191681526020019081526020016000209080519060200190610f21929190611d1d565b507fb76baefd7e249e81a2c6ab2dd1692b4629b993e50c0f341cd9410ca6b0f3392e8260405180826000191660001916815260200191505060405180910390a15050565b610f6d6112d8565b158015610f9f575060016003811115610f8257fe5b600260019054906101000a900460ff166003811115610f9d57fe5b145b1515610faa57600080fd5b610fb333610ae3565b1515610fbe57600080fd5b60028060016101000a81548160ff02191690836003811115610fdc57fe5b02179055507f1cdde67b72a90f19919ac732a437ac2f7a10fc128d28c2a6e525d89ce5cd9d3a60405160405180910390a1565b600960009054906101000a900473ffffffffffffffffffffffffffffffffffffffff1681565b61103e33610ae3565b151561104957600080fd5b6000600160003373ffffffffffffffffffffffffffffffffffffffff1673ffffffffffffffffffffffffffffffffffffffff16815260200190815260200160002060006101000a81548160ff021916908315150217905550565b6000809054906101000a900473ffffffffffffffffffffffffffffffffffffffff1673ffffffffffffffffffffffffffffffffffffffff163373ffffffffffffffffffffffffffffffffffffffff161415156110fe57600080fd5b60018060008373ffffffffffffffffffffffffffffffffffffffff1673ffffffffffffffffffffffffffffffffffffffff16815260200190815260200160002060006101000a81548160ff02191690831515021790555050565b6000809054906101000a900473ffffffffffffffffffffffffffffffffffffffff1681565b611185611d9d565b600a6000600673__Bytes32Set____________________________639286e5419091866000604051602001526040518363ffffffff167c0100000000000000000000000000000000000000000000000000000000028152600401808381526020018281526020019250505060206040518083038186803b151561120757600080fd5b6102c65a03f4151561121857600080fd5b50505060405180519050600019166000191681526020019081526020016000208054600181600116156101000203166002900480601f0160208091040260200160405190810160405280929190818152602001828054600181600116156101000203166002900480156112cc5780601f106112a1576101008083540402835291602001916112cc565b820191906000526020600020905b8154815290600101906020018083116112af57829003601f168201915b50505050509050919050565b6000600260009054906101000a900460ff16905090565b6112f833610ae3565b151561130357600080fd5b600260009054906101000a900460ff16151561131e57600080fd5b6000600260006101000a81548160ff0219169083151502179055507f19aad37188a1d3921e29eb3c66acf43d81975e107cb650d58cca878627955fd660405160405180910390a1565b6000600373__AddressSet____________________________63913aa6cd90916000604051602001526040518263ffffffff167c01000000000000000000000000000000000000000000000000000000000281526004018082815260200191505060206040518083038186803b15156113df57600080fd5b6102c65a03f415156113f057600080fd5b50505060405180519050905090565b60006002600381111561140e57fe5b600260019054906101000a900460ff16600381111561142957fe5b14905090565b6114376112d8565b15801561146957506001600381111561144c57fe5b600260019054906101000a900460ff16600381111561146757fe5b145b151561147457600080fd5b600b60009054906101000a900473ffffffffffffffffffffffffffffffffffffffff1673ffffffffffffffffffffffffffffffffffffffff163373ffffffffffffffffffffffffffffffffffffffff161415156114d057600080fd5b81600673__Bytes32Set____________________________63932dd8399091836000604051602001526040518363ffffffff167c01000000000000000000000000000000000000000000000000000000000281526004018083815260200182600019166000191681526020019250505060206040518083038186803b151561155757600080fd5b6102c65a03f4151561156857600080fd5b5050506040518051905015151561157e57600080fd5b600673__Bytes32Set____________________________63fffd95929091856040518363ffffffff167c01000000000000000000000000000000000000000000000000000000000281526004018083815260200182600019166000191681526020019250505060006040518083038186803b15156115fb57600080fd5b6102c65a03f4151561160c57600080fd5b50505081600a60008560001916600019168152602001908152602001600020908051906020019061163e929190611d1d565b50600960009054906101000a900473ffffffffffffffffffffffffffffffffffffffff1673ffffffffffffffffffffffffffffffffffffffff1663de61a7326040518163ffffffff167c0100000000000000000000000000000000000000000000000000000000028152600401600060405180830381600087803b15156116c457600080fd5b6102c65a03f115156116d557600080fd5b5050507fe071651fdb9485bc1f9dbd3312c8a999c04ad7a5fef33ee1036e1fc709c4da4f8360405180826000191660001916815260200191505060405180910390a1505050565b6117246112d8565b15801561175657506000600381111561173957fe5b600260019054906101000a900460ff16600381111561175457fe5b145b151561176157600080fd5b61176a33610ae3565b151561177557600080fd5b600373__AddressSet____________________________63e134066a9091836040518363ffffffff167c0100000000000000000000000000000000000000000000000000000000028152600401808381526020018273ffffffffffffffffffffffffffffffffffffffff1673ffffffffffffffffffffffffffffffffffffffff1681526020019250505060006040518083038186803b151561181657600080fd5b6102c65a03f4151561182757600080fd5b50505050565b6000600373__AddressSet____________________________6318c402499091846000604051602001526040518363ffffffff167c0100000000000000000000000000000000000000000000000000000000028152600401808381526020018273ffffffffffffffffffffffffffffffffffffffff1673ffffffffffffffffffffffffffffffffffffffff1681526020019250505060206040518083038186803b15156118d957600080fd5b6102c65a03f415156118ea57600080fd5b505050604051805190509050919050565b6000600673__Bytes32Set____________________________633640611190916000604051602001526040518263ffffffff167c01000000000000000000000000000000000000000000000000000000000281526004018082815260200191505060206040518083038186803b151561197357600080fd5b6102c65a03f4151561198457600080fd5b50505060405180519050905090565b60006001905090565b6000809054906101000a900473ffffffffffffffffffffffffffffffffffffffff1673ffffffffffffffffffffffffffffffffffffffff163373ffffffffffffffffffffffffffffffffffffffff161415156119f757600080fd5b600073ffffffffffffffffffffffffffffffffffffffff168173ffffffffffffffffffffffffffffffffffffffff1614151515611a3357600080fd5b8073ffffffffffffffffffffffffffffffffffffffff166000809054906101000a900473ffffffffffffffffffffffffffffffffffffffff1673ffffffffffffffffffffffffffffffffffffffff167f8be0079c531659141344cd1fd0a4f28419497f9722a3daafe3b4186f6b6457e060405160405180910390a3806000806101000a81548173ffffffffffffffffffffffffffffffffffffffff021916908373ffffffffffffffffffffffffffffffffffffffff16021790555050565b611afa33610ae3565b1515611b0557600080fd5b600260009054906101000a900460ff16151515611b2157600080fd5b6001600260006101000a81548160ff0219169083151502179055507f0f2e5b6c72c6a4491efd919a9f9a409f324ef0708c11ee57d410c2cb06c0992b60405160405180910390a1565b611b726112d8565b158015611ba4575060006003811115611b8757fe5b600260019054906101000a900460ff166003811115611ba257fe5b145b1515611baf57600080fd5b611bb833610ae3565b1515611bc357600080fd5b600373__AddressSet____________________________63f9802f859091836040518363ffffffff167c0100000000000000000000000000000000000000000000000000000000028152600401808381526020018273ffffffffffffffffffffffffffffffffffffffff1673ffffffffffffffffffffffffffffffffffffffff1681526020019250505060006040518083038186803b1515611c6457600080fd5b6102c65a03f41515611c7557600080fd5b50505050565b6000600373__AddressSet____________________________635c2125a79091846000604051602001526040518363ffffffff167c0100000000000000000000000000000000000000000000000000000000028152600401808381526020018281526020019250505060206040518083038186803b1515611cfb57600080fd5b6102c65a03f41515611d0c57600080fd5b505050604051805190509050919050565b828054600181600116156101000203166002900490600052602060002090601f016020900481019282601f10611d5e57805160ff1916838001178555611d8c565b82800160010185558215611d8c579182015b82811115611d8b578251825591602001919060010190611d70565b5b509050611d999190611db1565b5090565b602060405190810160405280600081525090565b611dd391905b80821115611dcf576000816000905550600101611db7565b5090565b905600a165627a7a72305820824845a435e4f668bf567478f08d6e0ff8debfcf5cb39a0fd397ad48745c321d0029",
  "source": "// ------------------------------------------------------------------------------\n// This file is part of netvote.\n//\n// netvote is free software: you can redistribute it and/or modify\n// it under the terms of the GNU General Public License as published by\n// the Free Software Foundation, either version 3 of the License, or\n// (at your option) any later version.\n//\n// netvote is distributed in the hope that it will be useful,\n// but WITHOUT ANY WARRANTY; without even the implied warranty of\n// MERCHANTABILITY or FITNESS FOR A PARTICULAR PURPOSE.  See the\n// GNU General Public License for more details.\n//\n// You should have received a copy of the GNU General Public License\n// along with solidity.  If not, see <http://www.gnu.org/licenses/>\n//\n// (c) 2017 netvote contributors.\n//------------------------------------------------------------------------------\n\npragma solidity ^0.4.17;\n\nimport \"./BaseElection.sol\";\nimport \"./links/BallotRegistry.sol\";\nimport \"../lib/Bytes32Set.sol\";\n\n\n/**\n * @title BasePool\n * @dev A base contract receives and stores votes from a gateway address.\n * This maps a set of ballots for the purposes of ballot iteration.\n */\ncontract BasePool is BallotRegistry {\n    using Bytes32Set for Bytes32Set.SetData;\n\n    Bytes32Set.SetData voteIdSet;\n\n    address public election;\n\n    // events\n    event Vote(bytes32 voteId);\n    event UpdateVote(bytes32 voteId);\n\n    // voteId to vote map\n    mapping (bytes32 => string) public votes;\n\n    address public gateway;\n\n    function BasePool(address el, address gw) public {\n        require(el != address(0) && gw != address(0));\n        election = el;\n        gateway = gw;\n    }\n\n    modifier onlyGateway() {\n        require(msg.sender == gateway);\n        _;\n    }\n\n    // avoids allowing a duplicate vote\n    modifier notDuplicate(bytes32 voteId) {\n        require(!voteIdSet.contains(voteId));\n        _;\n    }\n\n    // checks election to see if updates to votes are allowed\n    modifier updatesAllowed() {\n        require(BaseElection(election).allowVoteUpdates());\n        _;\n    }\n\n    // returns number of voteIds voted (for iteration of votes)\n    function getVoteCount() public constant returns (uint256) {\n        return voteIdSet.size();\n    }\n\n    // returns number of voteIds voted (for iteration of votes)\n    function getVoteAt(uint256 index) public constant returns (string) {\n        return votes[voteIdSet.getAt(index)];\n    }\n\n    // store vote\n    function castVote(bytes32 voteId, string vote) public voting onlyGateway notDuplicate(voteId) {\n        voteIdSet.put(voteId);\n        votes[voteId] = vote;\n        BaseElection(election).deductVote();\n        Vote(voteId);\n    }\n\n    // voter can update their vote if election allows it\n    function updateVote(bytes32 voteId, string vote) public voting onlyGateway updatesAllowed {\n        require(voteIdSet.contains(voteId));\n        votes[voteId] = vote;\n        UpdateVote(voteId);\n    }\n}",
  "sourcePath": "/Users/slanders/netvote/elections-solidity/contracts/elections/BasePool.sol",
  "compiler": {
    "name": "solc",
    "version": "0.4.18+commit.9cf6e910.Emscripten.clang"
  },
  "schemaVersion": "1.0.1",
  "updatedAt": "2018-01-02T21:49:53.404Z"
}