{
  "contractName": "BasicElection",
  "abi": [
    {
      "constant": false,
      "inputs": [],
      "name": "activate",
      "outputs": [],
      "payable": false,
      "stateMutability": "nonpayable",
      "type": "function"
    },
    {
      "constant": true,
      "inputs": [],
      "name": "gateway",
      "outputs": [
        {
          "name": "",
          "type": "address"
        }
      ],
      "payable": false,
      "stateMutability": "view",
      "type": "function"
    },
    {
      "constant": true,
      "inputs": [
        {
          "name": "b",
          "type": "address"
        }
      ],
      "name": "ballotExists",
      "outputs": [
        {
          "name": "",
          "type": "bool"
        }
      ],
      "payable": false,
      "stateMutability": "view",
      "type": "function"
    },
    {
      "constant": false,
      "inputs": [
        {
          "name": "addr",
          "type": "address"
        }
      ],
      "name": "removeAdmin",
      "outputs": [],
      "payable": false,
      "stateMutability": "nonpayable",
      "type": "function"
    },
    {
      "constant": true,
      "inputs": [
        {
          "name": "addr",
          "type": "address"
        }
      ],
      "name": "isAdmin",
      "outputs": [
        {
          "name": "",
          "type": "bool"
        }
      ],
      "payable": false,
      "stateMutability": "view",
      "type": "function"
    },
    {
      "constant": true,
      "inputs": [],
      "name": "electionPhase",
      "outputs": [
        {
          "name": "",
          "type": "uint8"
        }
      ],
      "payable": false,
      "stateMutability": "view",
      "type": "function"
    },
    {
      "constant": true,
      "inputs": [
        {
          "name": "",
          "type": "bytes32"
        }
      ],
      "name": "votes",
      "outputs": [
        {
          "name": "",
          "type": "string"
        }
      ],
      "payable": false,
      "stateMutability": "view",
      "type": "function"
    },
    {
      "constant": false,
      "inputs": [],
      "name": "abort",
      "outputs": [],
      "payable": false,
      "stateMutability": "nonpayable",
      "type": "function"
    },
    {
      "constant": false,
      "inputs": [
        {
          "name": "voteId",
          "type": "bytes32"
        },
        {
          "name": "vote",
          "type": "string"
        }
      ],
      "name": "updateVote",
      "outputs": [],
      "payable": false,
      "stateMutability": "nonpayable",
      "type": "function"
    },
    {
      "constant": false,
      "inputs": [],
      "name": "close",
      "outputs": [],
      "payable": false,
      "stateMutability": "nonpayable",
      "type": "function"
    },
    {
      "constant": true,
      "inputs": [],
      "name": "electionType",
      "outputs": [
        {
          "name": "",
          "type": "string"
        }
      ],
      "payable": false,
      "stateMutability": "view",
      "type": "function"
    },
    {
      "constant": true,
      "inputs": [],
      "name": "privateKey",
      "outputs": [
        {
          "name": "",
          "type": "string"
        }
      ],
      "payable": false,
      "stateMutability": "view",
      "type": "function"
    },
    {
      "constant": true,
      "inputs": [],
      "name": "election",
      "outputs": [
        {
          "name": "",
          "type": "address"
        }
      ],
      "payable": false,
      "stateMutability": "view",
      "type": "function"
    },
    {
      "constant": false,
      "inputs": [],
      "name": "removeSelf",
      "outputs": [],
      "payable": false,
      "stateMutability": "nonpayable",
      "type": "function"
    },
    {
      "constant": true,
      "inputs": [],
      "name": "publicKey",
      "outputs": [
        {
          "name": "",
          "type": "string"
        }
      ],
      "payable": false,
      "stateMutability": "view",
      "type": "function"
    },
    {
      "constant": false,
      "inputs": [
        {
          "name": "key",
          "type": "string"
        }
      ],
      "name": "setPublicKey",
      "outputs": [],
      "payable": false,
      "stateMutability": "nonpayable",
      "type": "function"
    },
    {
      "constant": false,
      "inputs": [
        {
          "name": "addr",
          "type": "address"
        }
      ],
      "name": "addAdmin",
      "outputs": [],
      "payable": false,
      "stateMutability": "nonpayable",
      "type": "function"
    },
    {
      "constant": true,
      "inputs": [],
      "name": "owner",
      "outputs": [
        {
          "name": "",
          "type": "address"
        }
      ],
      "payable": false,
      "stateMutability": "view",
      "type": "function"
    },
    {
      "constant": true,
      "inputs": [
        {
          "name": "index",
          "type": "uint256"
        }
      ],
      "name": "getVoteAt",
      "outputs": [
        {
          "name": "",
          "type": "string"
        }
      ],
      "payable": false,
      "stateMutability": "view",
      "type": "function"
    },
    {
      "constant": true,
      "inputs": [],
      "name": "isLocked",
      "outputs": [
        {
          "name": "",
          "type": "bool"
        }
      ],
      "payable": false,
      "stateMutability": "view",
      "type": "function"
    },
    {
      "constant": false,
      "inputs": [],
      "name": "unlock",
      "outputs": [],
      "payable": false,
      "stateMutability": "nonpayable",
      "type": "function"
    },
    {
      "constant": true,
      "inputs": [],
      "name": "getBallotCount",
      "outputs": [
        {
          "name": "",
          "type": "uint256"
        }
      ],
      "payable": false,
      "stateMutability": "view",
      "type": "function"
    },
    {
      "constant": true,
      "inputs": [],
      "name": "metadataLocation",
      "outputs": [
        {
          "name": "",
          "type": "string"
        }
      ],
      "payable": false,
      "stateMutability": "view",
      "type": "function"
    },
    {
      "constant": true,
      "inputs": [],
      "name": "allowVoteUpdates",
      "outputs": [
        {
          "name": "",
          "type": "bool"
        }
      ],
      "payable": false,
      "stateMutability": "view",
      "type": "function"
    },
    {
      "constant": true,
      "inputs": [],
      "name": "isClosed",
      "outputs": [
        {
          "name": "",
          "type": "bool"
        }
      ],
      "payable": false,
      "stateMutability": "view",
      "type": "function"
    },
    {
      "constant": false,
      "inputs": [
        {
          "name": "voteId",
          "type": "bytes32"
        },
        {
          "name": "vote",
          "type": "string"
        }
      ],
      "name": "castVote",
      "outputs": [],
      "payable": false,
      "stateMutability": "nonpayable",
      "type": "function"
    },
    {
      "constant": false,
      "inputs": [
        {
          "name": "b",
          "type": "address"
        }
      ],
      "name": "removeBallot",
      "outputs": [],
      "payable": false,
      "stateMutability": "nonpayable",
      "type": "function"
    },
    {
      "constant": true,
      "inputs": [
        {
          "name": "b",
          "type": "address"
        }
      ],
      "name": "getBallotIndex",
      "outputs": [
        {
          "name": "",
          "type": "uint256"
        }
      ],
      "payable": false,
      "stateMutability": "view",
      "type": "function"
    },
    {
      "constant": false,
      "inputs": [],
      "name": "deductVote",
      "outputs": [],
      "payable": false,
      "stateMutability": "nonpayable",
      "type": "function"
    },
    {
      "constant": false,
      "inputs": [
        {
          "name": "key",
          "type": "string"
        }
      ],
      "name": "setPrivateKey",
      "outputs": [],
      "payable": false,
      "stateMutability": "nonpayable",
      "type": "function"
    },
    {
      "constant": true,
      "inputs": [],
      "name": "getVoteCount",
      "outputs": [
        {
          "name": "",
          "type": "uint256"
        }
      ],
      "payable": false,
      "stateMutability": "view",
      "type": "function"
    },
    {
      "constant": true,
      "inputs": [],
      "name": "checkConfig",
      "outputs": [
        {
          "name": "",
          "type": "bool"
        }
      ],
      "payable": false,
      "stateMutability": "view",
      "type": "function"
    },
    {
      "constant": false,
      "inputs": [
        {
          "name": "newOwner",
          "type": "address"
        }
      ],
      "name": "transferOwnership",
      "outputs": [],
      "payable": false,
      "stateMutability": "nonpayable",
      "type": "function"
    },
    {
      "constant": false,
      "inputs": [],
      "name": "lock",
      "outputs": [],
      "payable": false,
      "stateMutability": "nonpayable",
      "type": "function"
    },
    {
      "constant": false,
      "inputs": [
        {
          "name": "b",
          "type": "address"
        }
      ],
      "name": "addBallot",
      "outputs": [],
      "payable": false,
      "stateMutability": "nonpayable",
      "type": "function"
    },
    {
      "constant": true,
      "inputs": [
        {
          "name": "index",
          "type": "uint256"
        }
      ],
      "name": "getBallot",
      "outputs": [
        {
          "name": "",
          "type": "address"
        }
      ],
      "payable": false,
      "stateMutability": "view",
      "type": "function"
    },
    {
      "inputs": [
        {
          "name": "allowanceAddress",
          "type": "address"
        },
        {
          "name": "ownerOfAllowance",
          "type": "address"
        },
        {
          "name": "allowUpdates",
          "type": "bool"
        },
        {
          "name": "revealerAddress",
          "type": "address"
        },
        {
          "name": "location",
          "type": "string"
        },
        {
          "name": "gatewayAddress",
          "type": "address"
        },
        {
          "name": "autoActivate",
          "type": "bool"
        }
      ],
      "payable": false,
      "stateMutability": "nonpayable",
      "type": "constructor"
    },
    {
      "anonymous": false,
      "inputs": [],
      "name": "KeyReleased",
      "type": "event"
    },
    {
      "anonymous": false,
      "inputs": [
        {
          "indexed": false,
          "name": "voteId",
          "type": "bytes32"
        }
      ],
      "name": "Vote",
      "type": "event"
    },
    {
      "anonymous": false,
      "inputs": [
        {
          "indexed": false,
          "name": "voteId",
          "type": "bytes32"
        }
      ],
      "name": "UpdateVote",
      "type": "event"
    },
    {
      "anonymous": false,
      "inputs": [],
      "name": "Closed",
      "type": "event"
    },
    {
      "anonymous": false,
      "inputs": [],
      "name": "Activated",
      "type": "event"
    },
    {
      "anonymous": false,
      "inputs": [],
      "name": "Aborted",
      "type": "event"
    },
    {
      "anonymous": false,
      "inputs": [],
      "name": "Locked",
      "type": "event"
    },
    {
      "anonymous": false,
      "inputs": [],
      "name": "Unlocked",
      "type": "event"
    },
    {
      "anonymous": false,
      "inputs": [
        {
          "indexed": true,
          "name": "previousOwner",
          "type": "address"
        },
        {
          "indexed": true,
          "name": "newOwner",
          "type": "address"
        }
      ],
      "name": "OwnershipTransferred",
      "type": "event"
    }
  ],
  "bytecode": "0x60606040526000600260006101000a81548160ff0219169083151502179055506000600260016101000a81548160ff021916908360038111156200003f57fe5b02179055506000601060006101000a81548160ff02191690831515021790555034156200006b57600080fd5b60405162002f5138038062002f5183398101604052808051906020019091908051906020019091908051906020019091908051906020019091908051820191906020018051906020019091908051906020019091905050868686868033883089336000806101000a81548173ffffffffffffffffffffffffffffffffffffffff021916908373ffffffffffffffffffffffffffffffffffffffff160217905550600073ffffffffffffffffffffffffffffffffffffffff168273ffffffffffffffffffffffffffffffffffffffff1614158015620001765750600073ffffffffffffffffffffffffffffffffffffffff168173ffffffffffffffffffffffffffffffffffffffff1614155b15156200018257600080fd5b81600960006101000a81548173ffffffffffffffffffffffffffffffffffffffff021916908373ffffffffffffffffffffffffffffffffffffffff16021790555080600b60006101000a81548173ffffffffffffffffffffffffffffffffffffffff021916908373ffffffffffffffffffffffffffffffffffffffff160217905550505060018060008473ffffffffffffffffffffffffffffffffffffffff1673ffffffffffffffffffffffffffffffffffffffff16815260200190815260200160002060006101000a81548160ff02191690831515021790555080600c9080519060200190620002759291906200074c565b50505080600d60006101000a81548173ffffffffffffffffffffffffffffffffffffffff021916908373ffffffffffffffffffffffffffffffffffffffff1602179055505083601060016101000a81548173ffffffffffffffffffffffffffffffffffffffff021916908373ffffffffffffffffffffffffffffffffffffffff16021790555082601160006101000a81548173ffffffffffffffffffffffffffffffffffffffff021916908373ffffffffffffffffffffffffffffffffffffffff16021790555081601160146101000a81548160ff021916908315150217905550505050506040805190810160405280600581526020017f424153494300000000000000000000000000000000000000000000000000000081525060129080519060200190620003a79291906200074c565b50620003c730620003fa64010000000002620024ae176401000000009004565b8015620003ed57620003ec6200053e6401000000000262000c07176401000000009004565b5b50505050505050620007fb565b620004186200064564010000000002620018f9176401000000009004565b1580156200044d5750600060038111156200042f57fe5b600260019054906101000a900460ff1660038111156200044b57fe5b145b15156200045957600080fd5b62000478336200065c6401000000000262000e6f176401000000009004565b15156200048457600080fd5b600373__AddressSet____________________________63f9802f859091836040518363ffffffff167c0100000000000000000000000000000000000000000000000000000000028152600401808381526020018273ffffffffffffffffffffffffffffffffffffffff1673ffffffffffffffffffffffffffffffffffffffff1681526020019250505060006040518083038186803b15156200052657600080fd5b6102c65a03f415156200053857600080fd5b50505050565b6200055c6200064564010000000002620018f9176401000000009004565b158015620005915750600060038111156200057357fe5b600260019054906101000a900460ff1660038111156200058f57fe5b145b15156200059d57600080fd5b620005bc336200065c6401000000000262000e6f176401000000009004565b1515620005c857600080fd5b620005e66200074364010000000002620022d7176401000000009004565b1515620005f257600080fd5b6001600260016101000a81548160ff021916908360038111156200061257fe5b02179055507fed1cd0670ee0c0017f550451a038818c696d0b6a9d6ce5b369e44275573cf9b060405160405180910390a1565b6000600260009054906101000a900460ff16905090565b60008073ffffffffffffffffffffffffffffffffffffffff168273ffffffffffffffffffffffffffffffffffffffff16141580156200073c57506000809054906101000a900473ffffffffffffffffffffffffffffffffffffffff1673ffffffffffffffffffffffffffffffffffffffff168273ffffffffffffffffffffffffffffffffffffffff1614806200073b5750600160008373ffffffffffffffffffffffffffffffffffffffff1673ffffffffffffffffffffffffffffffffffffffff16815260200190815260200160002060009054906101000a900460ff165b5b9050919050565b60006001905090565b828054600181600116156101000203166002900490600052602060002090601f016020900481019282601f106200078f57805160ff1916838001178555620007c0565b82800160010185558215620007c0579182015b82811115620007bf578251825591602001919060010190620007a2565b5b509050620007cf9190620007d3565b5090565b620007f891905b80821115620007f4576000816000905550600101620007da565b5090565b90565b612746806200080b6000396000f3006060604052600436106101c2576000357c0100000000000000000000000000000000000000000000000000000000900463ffffffff1680630f15f4c0146101c7578063116191b6146101dc578063138b1fa0146102315780631785f53c1461028257806324d7806c146102bb578063265050b61461030c5780632b38cd961461034357806335a063b4146103e3578063431b1335146103f857806343d726d6146104625780634885c72a1461047757806349da5a0f146105055780634b1d3ede146105935780635e898dac146105e857806363ffab31146105fd5780636f6fc0771461068b57806370480275146106e85780638da5cb5b146107215780639cc8f2b314610776578063a4e2d63414610812578063a69df4b51461083f578063b474149514610854578063b86901af1461087d578063bf41bf361461090b578063c2b6b58c14610938578063cac1e34e14610965578063d71c6772146109cf578063db30eafb14610a08578063de61a73214610a55578063e0d4f01714610a6a578063e7b3387c14610ac7578063f098fe4714610af0578063f2fde38b14610b1d578063f83d08ba14610b56578063f8c74afa14610b6b578063f9d5ee7514610ba4575b600080fd5b34156101d257600080fd5b6101da610c07565b005b34156101e757600080fd5b6101ef610cc5565b604051808273ffffffffffffffffffffffffffffffffffffffff1673ffffffffffffffffffffffffffffffffffffffff16815260200191505060405180910390f35b341561023c57600080fd5b610268600480803573ffffffffffffffffffffffffffffffffffffffff16906020019091905050610ceb565b604051808215151515815260200191505060405180910390f35b341561028d57600080fd5b6102b9600480803573ffffffffffffffffffffffffffffffffffffffff16906020019091905050610db9565b005b34156102c657600080fd5b6102f2600480803573ffffffffffffffffffffffffffffffffffffffff16906020019091905050610e6f565b604051808215151515815260200191505060405180910390f35b341561031757600080fd5b61031f610f54565b6040518082600381111561032f57fe5b60ff16815260200191505060405180910390f35b341561034e57600080fd5b610368600480803560001916906020019091905050610f67565b6040518080602001828103825283818151815260200191508051906020019080838360005b838110156103a857808201518184015260208101905061038d565b50505050905090810190601f1680156103d55780820380516001836020036101000a031916815260200191505b509250505060405180910390f35b34156103ee57600080fd5b6103f6611017565b005b341561040357600080fd5b61046060048080356000191690602001909190803590602001908201803590602001908080601f0160208091040260200160405190810160405280939291908181526020018383808284378201915050505050509190505061107d565b005b341561046d57600080fd5b6104756112f1565b005b341561048257600080fd5b61048a61139b565b6040518080602001828103825283818151815260200191508051906020019080838360005b838110156104ca5780820151818401526020810190506104af565b50505050905090810190601f1680156104f75780820380516001836020036101000a031916815260200191505b509250505060405180910390f35b341561051057600080fd5b610518611439565b6040518080602001828103825283818151815260200191508051906020019080838360005b8381101561055857808201518184015260208101905061053d565b50505050905090810190601f1680156105855780820380516001836020036101000a031916815260200191505b509250505060405180910390f35b341561059e57600080fd5b6105a66114d7565b604051808273ffffffffffffffffffffffffffffffffffffffff1673ffffffffffffffffffffffffffffffffffffffff16815260200191505060405180910390f35b34156105f357600080fd5b6105fb6114fd565b005b341561060857600080fd5b61061061156b565b6040518080602001828103825283818151815260200191508051906020019080838360005b83811015610650578082015181840152602081019050610635565b50505050905090810190601f16801561067d5780820380516001836020036101000a031916815260200191505b509250505060405180910390f35b341561069657600080fd5b6106e6600480803590602001908201803590602001908080601f01602080910402602001604051908101604052809392919081815260200183838082843782019150505050505091905050611609565b005b34156106f357600080fd5b61071f600480803573ffffffffffffffffffffffffffffffffffffffff169060200190919050506116c4565b005b341561072c57600080fd5b610734611779565b604051808273ffffffffffffffffffffffffffffffffffffffff1673ffffffffffffffffffffffffffffffffffffffff16815260200191505060405180910390f35b341561078157600080fd5b610797600480803590602001909190505061179e565b6040518080602001828103825283818151815260200191508051906020019080838360005b838110156107d75780820151818401526020810190506107bc565b50505050905090810190601f1680156108045780820380516001836020036101000a031916815260200191505b509250505060405180910390f35b341561081d57600080fd5b6108256118f9565b604051808215151515815260200191505060405180910390f35b341561084a57600080fd5b610852611910565b005b341561085f57600080fd5b610867611988565b6040518082815260200191505060405180910390f35b341561088857600080fd5b610890611a20565b6040518080602001828103825283818151815260200191508051906020019080838360005b838110156108d05780820151818401526020810190506108b5565b50505050905090810190601f1680156108fd5780820380516001836020036101000a031916815260200191505b509250505060405180910390f35b341561091657600080fd5b61091e611abe565b604051808215151515815260200191505060405180910390f35b341561094357600080fd5b61094b611ad1565b604051808215151515815260200191505060405180910390f35b341561097057600080fd5b6109cd60048080356000191690602001909190803590602001908201803590602001908080601f01602080910402602001604051908101604052809392919081815260200183838082843782019150505050505091905050611b01565b005b34156109da57600080fd5b610a06600480803573ffffffffffffffffffffffffffffffffffffffff16906020019091905050611dee565b005b3415610a1357600080fd5b610a3f600480803573ffffffffffffffffffffffffffffffffffffffff16906020019091905050611eff565b6040518082815260200191505060405180910390f35b3415610a6057600080fd5b610a68611fcd565b005b3415610a7557600080fd5b610ac5600480803590602001908201803590602001908080601f01602080910402602001604051908101604052809392919081815260200183838082843782019150505050505091905050612158565b005b3415610ad257600080fd5b610ada61223f565b6040518082815260200191505060405180910390f35b3415610afb57600080fd5b610b036122d7565b604051808215151515815260200191505060405180910390f35b3415610b2857600080fd5b610b54600480803573ffffffffffffffffffffffffffffffffffffffff169060200190919050506122e0565b005b3415610b6157600080fd5b610b69612435565b005b3415610b7657600080fd5b610ba2600480803573ffffffffffffffffffffffffffffffffffffffff169060200190919050506124ae565b005b3415610baf57600080fd5b610bc560048080359060200190919050506125bf565b604051808273ffffffffffffffffffffffffffffffffffffffff1673ffffffffffffffffffffffffffffffffffffffff16815260200191505060405180910390f35b610c0f6118f9565b158015610c41575060006003811115610c2457fe5b600260019054906101000a900460ff166003811115610c3f57fe5b145b1515610c4c57600080fd5b610c5533610e6f565b1515610c6057600080fd5b610c686122d7565b1515610c7357600080fd5b6001600260016101000a81548160ff02191690836003811115610c9257fe5b02179055507fed1cd0670ee0c0017f550451a038818c696d0b6a9d6ce5b369e44275573cf9b060405160405180910390a1565b600b60009054906101000a900473ffffffffffffffffffffffffffffffffffffffff1681565b6000600373__AddressSet____________________________63758241e09091846000604051602001526040518363ffffffff167c0100000000000000000000000000000000000000000000000000000000028152600401808381526020018273ffffffffffffffffffffffffffffffffffffffff1673ffffffffffffffffffffffffffffffffffffffff1681526020019250505060206040518083038186803b1515610d9757600080fd5b6102c65a03f41515610da857600080fd5b505050604051805190509050919050565b6000809054906101000a900473ffffffffffffffffffffffffffffffffffffffff1673ffffffffffffffffffffffffffffffffffffffff163373ffffffffffffffffffffffffffffffffffffffff16141515610e1457600080fd5b6000600160008373ffffffffffffffffffffffffffffffffffffffff1673ffffffffffffffffffffffffffffffffffffffff16815260200190815260200160002060006101000a81548160ff02191690831515021790555050565b60008073ffffffffffffffffffffffffffffffffffffffff168273ffffffffffffffffffffffffffffffffffffffff1614158015610f4d57506000809054906101000a900473ffffffffffffffffffffffffffffffffffffffff1673ffffffffffffffffffffffffffffffffffffffff168273ffffffffffffffffffffffffffffffffffffffff161480610f4c5750600160008373ffffffffffffffffffffffffffffffffffffffff1673ffffffffffffffffffffffffffffffffffffffff16815260200190815260200160002060009054906101000a900460ff165b5b9050919050565b600260019054906101000a900460ff1681565b600a6020528060005260406000206000915090508054600181600116156101000203166002900480601f01602080910402602001604051908101604052809291908181526020018280546001816001161561010002031660029004801561100f5780601f10610fe45761010080835404028352916020019161100f565b820191906000526020600020905b815481529060010190602001808311610ff257829003601f168201915b505050505081565b61102033610e6f565b151561102b57600080fd5b6003600260016101000a81548160ff0219169083600381111561104a57fe5b02179055507f72c874aeff0b183a56e2b79c71b46e1aed4dee5e09862134b8821ba2fddbf8bf60405160405180910390a1565b6110856118f9565b1580156110b757506001600381111561109a57fe5b600260019054906101000a900460ff1660038111156110b557fe5b145b15156110c257600080fd5b600b60009054906101000a900473ffffffffffffffffffffffffffffffffffffffff1673ffffffffffffffffffffffffffffffffffffffff163373ffffffffffffffffffffffffffffffffffffffff1614151561111e57600080fd5b600960009054906101000a900473ffffffffffffffffffffffffffffffffffffffff1673ffffffffffffffffffffffffffffffffffffffff1663bf41bf366000604051602001526040518163ffffffff167c0100000000000000000000000000000000000000000000000000000000028152600401602060405180830381600087803b15156111ac57600080fd5b6102c65a03f115156111bd57600080fd5b5050506040518051905015156111d257600080fd5b600673__Bytes32Set____________________________63932dd8399091846000604051602001526040518363ffffffff167c01000000000000000000000000000000000000000000000000000000000281526004018083815260200182600019166000191681526020019250505060206040518083038186803b151561125857600080fd5b6102c65a03f4151561126957600080fd5b50505060405180519050151561127e57600080fd5b80600a6000846000191660001916815260200190815260200160002090805190602001906112ad929190612661565b507fb76baefd7e249e81a2c6ab2dd1692b4629b993e50c0f341cd9410ca6b0f3392e8260405180826000191660001916815260200191505060405180910390a15050565b6112f96118f9565b15801561132b57506001600381111561130e57fe5b600260019054906101000a900460ff16600381111561132957fe5b145b151561133657600080fd5b61133f33610e6f565b151561134a57600080fd5b60028060016101000a81548160ff0219169083600381111561136857fe5b02179055507f1cdde67b72a90f19919ac732a437ac2f7a10fc128d28c2a6e525d89ce5cd9d3a60405160405180910390a1565b60128054600181600116156101000203166002900480601f0160208091040260200160405190810160405280929190818152602001828054600181600116156101000203166002900480156114315780601f1061140657610100808354040283529160200191611431565b820191906000526020600020905b81548152906001019060200180831161141457829003601f168201915b505050505081565b600f8054600181600116156101000203166002900480601f0160208091040260200160405190810160405280929190818152602001828054600181600116156101000203166002900480156114cf5780601f106114a4576101008083540402835291602001916114cf565b820191906000526020600020905b8154815290600101906020018083116114b257829003601f168201915b505050505081565b600960009054906101000a900473ffffffffffffffffffffffffffffffffffffffff1681565b61150633610e6f565b151561151157600080fd5b6000600160003373ffffffffffffffffffffffffffffffffffffffff1673ffffffffffffffffffffffffffffffffffffffff16815260200190815260200160002060006101000a81548160ff021916908315150217905550565b600e8054600181600116156101000203166002900480601f0160208091040260200160405190810160405280929190818152602001828054600181600116156101000203166002900480156116015780601f106115d657610100808354040283529160200191611601565b820191906000526020600020905b8154815290600101906020018083116115e457829003601f168201915b505050505081565b6116116118f9565b15801561164357506000600381111561162657fe5b600260019054906101000a900460ff16600381111561164157fe5b145b151561164e57600080fd5b600d60009054906101000a900473ffffffffffffffffffffffffffffffffffffffff1673ffffffffffffffffffffffffffffffffffffffff163373ffffffffffffffffffffffffffffffffffffffff161415156116aa57600080fd5b80600e90805190602001906116c0929190612661565b5050565b6000809054906101000a900473ffffffffffffffffffffffffffffffffffffffff1673ffffffffffffffffffffffffffffffffffffffff163373ffffffffffffffffffffffffffffffffffffffff1614151561171f57600080fd5b60018060008373ffffffffffffffffffffffffffffffffffffffff1673ffffffffffffffffffffffffffffffffffffffff16815260200190815260200160002060006101000a81548160ff02191690831515021790555050565b6000809054906101000a900473ffffffffffffffffffffffffffffffffffffffff1681565b6117a66126e1565b600a6000600673__Bytes32Set____________________________639286e5419091866000604051602001526040518363ffffffff167c0100000000000000000000000000000000000000000000000000000000028152600401808381526020018281526020019250505060206040518083038186803b151561182857600080fd5b6102c65a03f4151561183957600080fd5b50505060405180519050600019166000191681526020019081526020016000208054600181600116156101000203166002900480601f0160208091040260200160405190810160405280929190818152602001828054600181600116156101000203166002900480156118ed5780601f106118c2576101008083540402835291602001916118ed565b820191906000526020600020905b8154815290600101906020018083116118d057829003601f168201915b50505050509050919050565b6000600260009054906101000a900460ff16905090565b61191933610e6f565b151561192457600080fd5b600260009054906101000a900460ff16151561193f57600080fd5b6000600260006101000a81548160ff0219169083151502179055507f19aad37188a1d3921e29eb3c66acf43d81975e107cb650d58cca878627955fd660405160405180910390a1565b6000600373__AddressSet____________________________63913aa6cd90916000604051602001526040518263ffffffff167c01000000000000000000000000000000000000000000000000000000000281526004018082815260200191505060206040518083038186803b1515611a0057600080fd5b6102c65a03f41515611a1157600080fd5b50505060405180519050905090565b600c8054600181600116156101000203166002900480601f016020809104026020016040519081016040528092919081815260200182805460018160011615610100020316600290048015611ab65780601f10611a8b57610100808354040283529160200191611ab6565b820191906000526020600020905b815481529060010190602001808311611a9957829003601f168201915b505050505081565b601160149054906101000a900460ff1681565b600060026003811115611ae057fe5b600260019054906101000a900460ff166003811115611afb57fe5b14905090565b611b096118f9565b158015611b3b575060016003811115611b1e57fe5b600260019054906101000a900460ff166003811115611b3957fe5b145b1515611b4657600080fd5b600b60009054906101000a900473ffffffffffffffffffffffffffffffffffffffff1673ffffffffffffffffffffffffffffffffffffffff163373ffffffffffffffffffffffffffffffffffffffff16141515611ba257600080fd5b81600673__Bytes32Set____________________________63932dd8399091836000604051602001526040518363ffffffff167c01000000000000000000000000000000000000000000000000000000000281526004018083815260200182600019166000191681526020019250505060206040518083038186803b1515611c2957600080fd5b6102c65a03f41515611c3a57600080fd5b50505060405180519050151515611c5057600080fd5b600673__Bytes32Set____________________________63fffd95929091856040518363ffffffff167c01000000000000000000000000000000000000000000000000000000000281526004018083815260200182600019166000191681526020019250505060006040518083038186803b1515611ccd57600080fd5b6102c65a03f41515611cde57600080fd5b50505081600a600085600019166000191681526020019081526020016000209080519060200190611d10929190612661565b50600960009054906101000a900473ffffffffffffffffffffffffffffffffffffffff1673ffffffffffffffffffffffffffffffffffffffff1663de61a7326040518163ffffffff167c0100000000000000000000000000000000000000000000000000000000028152600401600060405180830381600087803b1515611d9657600080fd5b6102c65a03f11515611da757600080fd5b5050507fe071651fdb9485bc1f9dbd3312c8a999c04ad7a5fef33ee1036e1fc709c4da4f8360405180826000191660001916815260200191505060405180910390a1505050565b611df66118f9565b158015611e28575060006003811115611e0b57fe5b600260019054906101000a900460ff166003811115611e2657fe5b145b1515611e3357600080fd5b611e3c33610e6f565b1515611e4757600080fd5b600373__AddressSet____________________________63e134066a9091836040518363ffffffff167c0100000000000000000000000000000000000000000000000000000000028152600401808381526020018273ffffffffffffffffffffffffffffffffffffffff1673ffffffffffffffffffffffffffffffffffffffff1681526020019250505060006040518083038186803b1515611ee857600080fd5b6102c65a03f41515611ef957600080fd5b50505050565b6000600373__AddressSet____________________________6318c402499091846000604051602001526040518363ffffffff167c0100000000000000000000000000000000000000000000000000000000028152600401808381526020018273ffffffffffffffffffffffffffffffffffffffff1673ffffffffffffffffffffffffffffffffffffffff1681526020019250505060206040518083038186803b1515611fab57600080fd5b6102c65a03f41515611fbc57600080fd5b505050604051805190509050919050565b611fd56118f9565b158015612007575060016003811115611fea57fe5b600260019054906101000a900460ff16600381111561200557fe5b145b151561201257600080fd5b601060009054906101000a900460ff1615151561202e57600080fd5b6001601060006101000a81548160ff021916908315150217905550601060019054906101000a900473ffffffffffffffffffffffffffffffffffffffff1673ffffffffffffffffffffffffffffffffffffffff1663dff6797c601160009054906101000a900473ffffffffffffffffffffffffffffffffffffffff166040518263ffffffff167c0100000000000000000000000000000000000000000000000000000000028152600401808273ffffffffffffffffffffffffffffffffffffffff1673ffffffffffffffffffffffffffffffffffffffff168152602001915050600060405180830381600087803b151561212757600080fd5b6102c65a03f1151561213857600080fd5b5050506000601060006101000a81548160ff021916908315150217905550565b6121606118f9565b15801561219257506002600381111561217557fe5b600260019054906101000a900460ff16600381111561219057fe5b145b151561219d57600080fd5b600d60009054906101000a900473ffffffffffffffffffffffffffffffffffffffff1673ffffffffffffffffffffffffffffffffffffffff163373ffffffffffffffffffffffffffffffffffffffff161415156121f957600080fd5b80600f908051906020019061220f929190612661565b507ff9d8c4f7f692590eaf6d41d6160024ffe0ce509fa752efcf47543eb851869cfb60405160405180910390a150565b6000600673__Bytes32Set____________________________633640611190916000604051602001526040518263ffffffff167c01000000000000000000000000000000000000000000000000000000000281526004018082815260200191505060206040518083038186803b15156122b757600080fd5b6102c65a03f415156122c857600080fd5b50505060405180519050905090565b60006001905090565b6000809054906101000a900473ffffffffffffffffffffffffffffffffffffffff1673ffffffffffffffffffffffffffffffffffffffff163373ffffffffffffffffffffffffffffffffffffffff1614151561233b57600080fd5b600073ffffffffffffffffffffffffffffffffffffffff168173ffffffffffffffffffffffffffffffffffffffff161415151561237757600080fd5b8073ffffffffffffffffffffffffffffffffffffffff166000809054906101000a900473ffffffffffffffffffffffffffffffffffffffff1673ffffffffffffffffffffffffffffffffffffffff167f8be0079c531659141344cd1fd0a4f28419497f9722a3daafe3b4186f6b6457e060405160405180910390a3806000806101000a81548173ffffffffffffffffffffffffffffffffffffffff021916908373ffffffffffffffffffffffffffffffffffffffff16021790555050565b61243e33610e6f565b151561244957600080fd5b600260009054906101000a900460ff1615151561246557600080fd5b6001600260006101000a81548160ff0219169083151502179055507f0f2e5b6c72c6a4491efd919a9f9a409f324ef0708c11ee57d410c2cb06c0992b60405160405180910390a1565b6124b66118f9565b1580156124e85750600060038111156124cb57fe5b600260019054906101000a900460ff1660038111156124e657fe5b145b15156124f357600080fd5b6124fc33610e6f565b151561250757600080fd5b600373__AddressSet____________________________63f9802f859091836040518363ffffffff167c0100000000000000000000000000000000000000000000000000000000028152600401808381526020018273ffffffffffffffffffffffffffffffffffffffff1673ffffffffffffffffffffffffffffffffffffffff1681526020019250505060006040518083038186803b15156125a857600080fd5b6102c65a03f415156125b957600080fd5b50505050565b6000600373__AddressSet____________________________635c2125a79091846000604051602001526040518363ffffffff167c0100000000000000000000000000000000000000000000000000000000028152600401808381526020018281526020019250505060206040518083038186803b151561263f57600080fd5b6102c65a03f4151561265057600080fd5b505050604051805190509050919050565b828054600181600116156101000203166002900490600052602060002090601f016020900481019282601f106126a257805160ff19168380011785556126d0565b828001600101855582156126d0579182015b828111156126cf5782518255916020019190600101906126b4565b5b5090506126dd91906126f5565b5090565b602060405190810160405280600081525090565b61271791905b808211156127135760008160009055506001016126fb565b5090565b905600a165627a7a7230582098b8d16d357029a3d36f581cd68dc6f55d2e0ef7b4c8b4aecc8004930016d0d10029",
  "source": "// ------------------------------------------------------------------------------\n// This file is part of netvote.\n//\n// netvote is free software: you can redistribute it and/or modify\n// it under the terms of the GNU General Public License as published by\n// the Free Software Foundation, either version 3 of the License, or\n// (at your option) any later version.\n//\n// netvote is distributed in the hope that it will be useful,\n// but WITHOUT ANY WARRANTY; without even the implied warranty of\n// MERCHANTABILITY or FITNESS FOR A PARTICULAR PURPOSE.  See the\n// GNU General Public License for more details.\n//\n// You should have received a copy of the GNU General Public License\n// along with solidity.  If not, see <http://www.gnu.org/licenses/>\n//\n// (c) 2017 netvote contributors.\n//------------------------------------------------------------------------------\n\npragma solidity ^0.4.17;\n\nimport \"../BaseElection.sol\";\nimport \"../BaseBallot.sol\";\nimport \"../BasePool.sol\";\n\n\n/**\n * @title BasicElection\n * @dev Basic all-in-one election\n * Includes 1 pool, 1 ballot, 1 election, and no result groupings\n */\ncontract BasicElection is BasePool, BaseBallot, BaseElection {\n\n    /**\n      * @dev Constructor for creating a BasicElection\n      * @param allowanceAddress The address of global allowance contract.\n      * @param ownerOfAllowance The owner of the Vote Allowance to deduct from.\n      * @param allowUpdates Whether to allow Voters to update their vote.\n      * @param revealerAddress The address of the Key Revealer that will post the Key.\n      * @param location The location reference for the ballot metadata (e.g., IPFS Reference)\n      * @param gatewayAddress The address of the Vote Gateway that will submit votes.\n      * @param autoActivate Automatically activate this election to allow votes\n      */\n    function BasicElection(\n        address allowanceAddress,\n        address ownerOfAllowance,\n        bool allowUpdates,\n        address revealerAddress,\n        string location,\n        address gatewayAddress,\n        bool autoActivate) BaseElection(allowanceAddress, ownerOfAllowance, allowUpdates, revealerAddress) BaseBallot(msg.sender, location) BasePool(this, gatewayAddress) public\n    {\n        electionType = \"BASIC\";\n        //pool lists this so it will comply with tally api contract (like tiered election)\n        addBallot(this);\n        if (autoActivate) {\n            activate();\n        }\n    }\n\n}",
  "sourcePath": "/Users/slanders/netvote/elections-solidity/contracts/elections/basic/BasicElection.sol",
  "compiler": {
    "name": "solc",
    "version": "0.4.18+commit.9cf6e910.Emscripten.clang"
  },
  "schemaVersion": "1.0.1",
  "updatedAt": "2018-01-02T21:50:06.442Z"
}