{
  "contractName": "Bytes32Set",
  "abi": [
    {
      "constant": true,
      "inputs": [
        {
          "name": "self",
          "type": "Bytes32Set.SetData storage"
        }
      ],
      "name": "size",
      "outputs": [
        {
          "name": "",
          "type": "uint256"
        }
      ],
      "payable": false,
      "stateMutability": "view",
      "type": "function"
    },
    {
      "constant": true,
      "inputs": [
        {
          "name": "self",
          "type": "Bytes32Set.SetData storage"
        },
        {
          "name": "index",
          "type": "uint256"
        }
      ],
      "name": "getAt",
      "outputs": [
        {
          "name": "",
          "type": "bytes32"
        }
      ],
      "payable": false,
      "stateMutability": "view",
      "type": "function"
    },
    {
      "constant": true,
      "inputs": [
        {
          "name": "self",
          "type": "Bytes32Set.SetData storage"
        },
        {
          "name": "b",
          "type": "bytes32"
        }
      ],
      "name": "contains",
      "outputs": [
        {
          "name": "",
          "type": "bool"
        }
      ],
      "payable": false,
      "stateMutability": "view",
      "type": "function"
    },
    {
      "constant": false,
      "inputs": [
        {
          "name": "self",
          "type": "Bytes32Set.SetData storage"
        },
        {
          "name": "b",
          "type": "bytes32"
        }
      ],
      "name": "remove",
      "outputs": [],
      "payable": false,
      "stateMutability": "nonpayable",
      "type": "function"
    },
    {
      "constant": true,
      "inputs": [
        {
          "name": "self",
          "type": "Bytes32Set.SetData storage"
        },
        {
          "name": "b",
          "type": "bytes32"
        }
      ],
      "name": "indexOf",
      "outputs": [
        {
          "name": "",
          "type": "uint256"
        }
      ],
      "payable": false,
      "stateMutability": "view",
      "type": "function"
    },
    {
      "constant": false,
      "inputs": [
        {
          "name": "self",
          "type": "Bytes32Set.SetData storage"
        },
        {
          "name": "b",
          "type": "bytes32"
        }
      ],
      "name": "put",
      "outputs": [],
      "payable": false,
      "stateMutability": "nonpayable",
      "type": "function"
    }
  ],
  "bytecode": "0x6060604052341561000f57600080fd5b6104f28061001e6000396000f300606060405260043610610078576000357c0100000000000000000000000000000000000000000000000000000000900463ffffffff168063364061111461007d5780639286e541146100a9578063932dd839146100e65780639e3084b014610123578063c461489314610148578063fffd959214610181575b600080fd5b61009360048080359060200190919050506101a6565b6040518082815260200191505060405180910390f35b6100c860048080359060200190919080359060200190919050506101b7565b60405180826000191660001916815260200191505060405180910390f35b6101096004808035906020019091908035600019169060200190919050506101de565b604051808215151515815260200191505060405180910390f35b610146600480803590602001909190803560001916906020019091905050610213565b005b61016b600480803590602001909190803560001916906020019091905050610358565b6040518082815260200191505060405180910390f35b6101a4600480803590602001909190803560001916906020019091905050610380565b005b600081600201805490509050919050565b600082600201828154811015156101ca57fe5b906000526020600020900154905092915050565b6000826000016000836000191660001916815260200190815260200160002060009054906101000a900460ff16905092915050565b600080836000016000846000191660001916815260200190815260200160002060009054906101000a900460ff16156103525783600101600084600019166000191681526020019081526020016000205491506001610271856101a6565b038210156102eb57836002016001610288866101a6565b0381548110151561029557fe5b90600052602060002090015490508084600201838154811015156102b557fe5b90600052602060002090018160001916905550818460010160008360001916600019168152602001908152602001600020819055505b836002018054809190600190036103029190610449565b50836000016000846000191660001916815260200190815260200160002060006101000a81549060ff02191690558360010160008460001916600019168152602001908152602001600020600090555b50505050565b6000826001016000836000191660001916815260200190815260200160002054905092915050565b816000016000826000191660001916815260200190815260200160002060009054906101000a900460ff161515610445576001826000016000836000191660001916815260200190815260200160002060006101000a81548160ff0219169083151502179055508160020180548060010182816103fd9190610475565b91600052602060002090016000839091909150906000191690555060018260020180549050038260010160008360001916600019168152602001908152602001600020819055505b5050565b8154818355818115116104705781836000526020600020918201910161046f91906104a1565b5b505050565b81548183558181151161049c5781836000526020600020918201910161049b91906104a1565b5b505050565b6104c391905b808211156104bf5760008160009055506001016104a7565b5090565b905600a165627a7a72305820059a74a7f8f318bc4ae73c92fae764fce50fab03128e6c6da29f0cccf7e3580e0029",
  "source": "// ------------------------------------------------------------------------------\n// This file is part of netvote.\n//\n// netvote is free software: you can redistribute it and/or modify\n// it under the terms of the GNU General Public License as published by\n// the Free Software Foundation, either version 3 of the License, or\n// (at your option) any later version.\n//\n// netvote is distributed in the hope that it will be useful,\n// but WITHOUT ANY WARRANTY; without even the implied warranty of\n// MERCHANTABILITY or FITNESS FOR A PARTICULAR PURPOSE.  See the\n// GNU General Public License for more details.\n//\n// You should have received a copy of the GNU General Public License\n// along with solidity.  If not, see <http://www.gnu.org/licenses/>\n//\n// (c) 2017 netvote contributors.\n//------------------------------------------------------------------------------\n\npragma solidity ^0.4.17;\n\n\nlibrary Bytes32Set {\n\n    struct SetData {\n        mapping(bytes32 => bool) entryExists;\n        mapping(bytes32 => uint256) entryIndex;\n        bytes32[] entries;\n    }\n\n    function indexOf(SetData storage self, bytes32 b) public constant returns (uint256) {\n        return self.entryIndex[b];\n    }\n\n    function getAt(SetData storage self, uint256 index) public constant returns (bytes32) {\n        return self.entries[index];\n    }\n\n    function contains(SetData storage self, bytes32 b) public constant returns (bool) {\n        return self.entryExists[b];\n    }\n\n    function size(SetData storage self) public constant returns (uint256) {\n        return self.entries.length;\n    }\n\n    function put(SetData storage self, bytes32 b) public {\n        if (!self.entryExists[b]) {\n            self.entryExists[b] = true;\n            self.entries.push(b);\n            self.entryIndex[b] = self.entries.length - 1;\n        }\n    }\n\n    function remove(SetData storage self, bytes32 b) public {\n        if (self.entryExists[b]) {\n            uint256 index = self.entryIndex[b];\n            // if not last entry, copy last entry into b's slot\n            if (index < size(self) - 1) {\n                bytes32 lastEntry = self.entries[size(self)-1];\n                self.entries[index] = lastEntry;\n                self.entryIndex[lastEntry] = index;\n            }\n            // resize array\n            self.entries.length--;\n            delete self.entryExists[b];\n            delete self.entryIndex[b];\n        }\n    }\n}",
  "sourcePath": "/Users/slanders/netvote/elections/contracts/lib/Bytes32Set.sol",
  "compiler": {
    "name": "solc",
    "version": "0.4.18+commit.9cf6e910.Emscripten.clang"
  },
  "schemaVersion": "1.0.1",
  "updatedAt": "2017-12-07T21:05:57.441Z"
}