{
  "contractName": "Bytes32Set",
  "abi": [
    {
      "constant": true,
      "inputs": [
        {
          "name": "self",
          "type": "Bytes32Set.SetData storage"
        }
      ],
      "name": "size",
      "outputs": [
        {
          "name": "",
          "type": "uint256"
        }
      ],
      "payable": false,
      "stateMutability": "view",
      "type": "function"
    },
    {
      "constant": true,
      "inputs": [
        {
          "name": "self",
          "type": "Bytes32Set.SetData storage"
        },
        {
          "name": "index",
          "type": "uint256"
        }
      ],
      "name": "getAt",
      "outputs": [
        {
          "name": "",
          "type": "bytes32"
        }
      ],
      "payable": false,
      "stateMutability": "view",
      "type": "function"
    },
    {
      "constant": true,
      "inputs": [
        {
          "name": "self",
          "type": "Bytes32Set.SetData storage"
        },
        {
          "name": "b",
          "type": "bytes32"
        }
      ],
      "name": "contains",
      "outputs": [
        {
          "name": "",
          "type": "bool"
        }
      ],
      "payable": false,
      "stateMutability": "view",
      "type": "function"
    },
    {
      "constant": false,
      "inputs": [
        {
          "name": "self",
          "type": "Bytes32Set.SetData storage"
        },
        {
          "name": "b",
          "type": "bytes32"
        }
      ],
      "name": "remove",
      "outputs": [],
      "payable": false,
      "stateMutability": "nonpayable",
      "type": "function"
    },
    {
      "constant": true,
      "inputs": [
        {
          "name": "self",
          "type": "Bytes32Set.SetData storage"
        },
        {
          "name": "b",
          "type": "bytes32"
        }
      ],
      "name": "indexOf",
      "outputs": [
        {
          "name": "",
          "type": "uint256"
        }
      ],
      "payable": false,
      "stateMutability": "view",
      "type": "function"
    },
    {
      "constant": false,
      "inputs": [
        {
          "name": "self",
          "type": "Bytes32Set.SetData storage"
        },
        {
          "name": "b",
          "type": "bytes32"
        }
      ],
      "name": "put",
      "outputs": [],
      "payable": false,
      "stateMutability": "nonpayable",
      "type": "function"
    }
  ],
  "bytecode": "0x6060604052341561000f57600080fd5b61031a8061001e6000396000f300606060405236156100755763ffffffff7c010000000000000000000000000000000000000000000000000000000060003504166336406111811461007a5780639286e54114610097578063932dd839146100a55780639e3084b0146100c7578063c4614893146100d7578063fffd9592146100e5575b600080fd5b6100856004356100f3565b60405190815260200160405180910390f35b6100856004356024356100fa565b6100b3600435602435610121565b604051901515815260200160405180910390f35b6100d5600435602435610137565b005b610085600435602435610213565b6100d5600435602435610229565b6002015490565b6000826002018281548110151561010d57fe5b906000526020600020900154905092915050565b6000908152602091909152604090205460ff1690565b600081815260208390526040812054819060ff161561020d5760008381526001808601602052604090912054925061016e856100f3565b038210156101d557836002016001610185866100f3565b0381548110151561019257fe5b90600052602060002090015490508084600201838154811015156101b257fe5b600091825260208083209091019290925582815260018601909152604090208290555b600284018054906101ea9060001983016102a4565b50600083815260208581526040808320805460ff19169055600187019091528120555b50505050565b6000908152600191909101602052604090205490565b60008181526020839052604090205460ff1615156102a0576000818152602083905260409020805460ff191660019081179091556002830180549091810161027183826102a4565b506000918252602080832091909101839055600284015483835260018501909152604090912060001990910190555b5050565b8154818355818115116102c8576000838152602090206102c89181019083016102cd565b505050565b6102eb91905b808211156102e757600081556001016102d3565b5090565b905600a165627a7a723058203e8cff30d0777ccfc13b86786efd8e7be7eb04fcf10904ff3449c719042f79530029",
  "source": "// ------------------------------------------------------------------------------\n// This file is part of netvote.\n//\n// netvote is free software: you can redistribute it and/or modify\n// it under the terms of the GNU General Public License as published by\n// the Free Software Foundation, either version 3 of the License, or\n// (at your option) any later version.\n//\n// netvote is distributed in the hope that it will be useful,\n// but WITHOUT ANY WARRANTY; without even the implied warranty of\n// MERCHANTABILITY or FITNESS FOR A PARTICULAR PURPOSE.  See the\n// GNU General Public License for more details.\n//\n// You should have received a copy of the GNU General Public License\n// along with solidity.  If not, see <http://www.gnu.org/licenses/>\n//\n// (c) 2017 netvote contributors.\n//------------------------------------------------------------------------------\n\npragma solidity ^0.4.17;\n\n\nlibrary Bytes32Set {\n\n    struct SetData {\n        mapping(bytes32 => bool) entryExists;\n        mapping(bytes32 => uint256) entryIndex;\n        bytes32[] entries;\n    }\n\n    function indexOf(SetData storage self, bytes32 b) public constant returns (uint256) {\n        return self.entryIndex[b];\n    }\n\n    function getAt(SetData storage self, uint256 index) public constant returns (bytes32) {\n        return self.entries[index];\n    }\n\n    function contains(SetData storage self, bytes32 b) public constant returns (bool) {\n        return self.entryExists[b];\n    }\n\n    function size(SetData storage self) public constant returns (uint256) {\n        return self.entries.length;\n    }\n\n    function put(SetData storage self, bytes32 b) public {\n        if (!self.entryExists[b]) {\n            self.entryExists[b] = true;\n            self.entries.push(b);\n            self.entryIndex[b] = self.entries.length - 1;\n        }\n    }\n\n    function remove(SetData storage self, bytes32 b) public {\n        if (self.entryExists[b]) {\n            uint256 index = self.entryIndex[b];\n            // if not last entry, copy last entry into b's slot\n            if (index < size(self) - 1) {\n                bytes32 lastEntry = self.entries[size(self)-1];\n                self.entries[index] = lastEntry;\n                self.entryIndex[lastEntry] = index;\n            }\n            // resize array\n            self.entries.length--;\n            delete self.entryExists[b];\n            delete self.entryIndex[b];\n        }\n    }\n}",
  "sourcePath": "/Users/slanders/netvote/elections/contracts/lib/Bytes32Set.sol",
  "schemaVersion": "1.0.0",
  "updatedAt": "2017-12-04T16:50:28.445Z"
}