{
  "contractName": "Election",
  "abi": [
    {
      "constant": false,
      "inputs": [],
      "name": "activate",
      "outputs": [],
      "payable": false,
      "stateMutability": "nonpayable",
      "type": "function"
    },
    {
      "constant": false,
      "inputs": [],
      "name": "castVote",
      "outputs": [],
      "payable": false,
      "stateMutability": "nonpayable",
      "type": "function"
    },
    {
      "constant": false,
      "inputs": [
        {
          "name": "addr",
          "type": "address"
        }
      ],
      "name": "removeAdmin",
      "outputs": [],
      "payable": false,
      "stateMutability": "nonpayable",
      "type": "function"
    },
    {
      "constant": true,
      "inputs": [],
      "name": "electionPhase",
      "outputs": [
        {
          "name": "",
          "type": "uint8"
        }
      ],
      "payable": false,
      "stateMutability": "view",
      "type": "function"
    },
    {
      "constant": false,
      "inputs": [],
      "name": "abort",
      "outputs": [],
      "payable": false,
      "stateMutability": "nonpayable",
      "type": "function"
    },
    {
      "constant": false,
      "inputs": [
        {
          "name": "p",
          "type": "address"
        }
      ],
      "name": "removePool",
      "outputs": [],
      "payable": false,
      "stateMutability": "nonpayable",
      "type": "function"
    },
    {
      "constant": false,
      "inputs": [],
      "name": "close",
      "outputs": [],
      "payable": false,
      "stateMutability": "nonpayable",
      "type": "function"
    },
    {
      "constant": true,
      "inputs": [],
      "name": "privateKey",
      "outputs": [
        {
          "name": "",
          "type": "string"
        }
      ],
      "payable": false,
      "stateMutability": "view",
      "type": "function"
    },
    {
      "constant": true,
      "inputs": [],
      "name": "publicKey",
      "outputs": [
        {
          "name": "",
          "type": "string"
        }
      ],
      "payable": false,
      "stateMutability": "view",
      "type": "function"
    },
    {
      "constant": false,
      "inputs": [
        {
          "name": "key",
          "type": "string"
        }
      ],
      "name": "setPublicKey",
      "outputs": [],
      "payable": false,
      "stateMutability": "nonpayable",
      "type": "function"
    },
    {
      "constant": false,
      "inputs": [
        {
          "name": "addr",
          "type": "address"
        }
      ],
      "name": "addAdmin",
      "outputs": [],
      "payable": false,
      "stateMutability": "nonpayable",
      "type": "function"
    },
    {
      "constant": true,
      "inputs": [],
      "name": "owner",
      "outputs": [
        {
          "name": "",
          "type": "address"
        }
      ],
      "payable": false,
      "stateMutability": "view",
      "type": "function"
    },
    {
      "constant": true,
      "inputs": [],
      "name": "isLocked",
      "outputs": [
        {
          "name": "",
          "type": "bool"
        }
      ],
      "payable": false,
      "stateMutability": "view",
      "type": "function"
    },
    {
      "constant": false,
      "inputs": [],
      "name": "unlock",
      "outputs": [],
      "payable": false,
      "stateMutability": "nonpayable",
      "type": "function"
    },
    {
      "constant": true,
      "inputs": [],
      "name": "allowVoteUpdates",
      "outputs": [
        {
          "name": "",
          "type": "bool"
        }
      ],
      "payable": false,
      "stateMutability": "view",
      "type": "function"
    },
    {
      "constant": true,
      "inputs": [],
      "name": "isClosed",
      "outputs": [
        {
          "name": "",
          "type": "bool"
        }
      ],
      "payable": false,
      "stateMutability": "view",
      "type": "function"
    },
    {
      "constant": false,
      "inputs": [
        {
          "name": "p",
          "type": "address"
        }
      ],
      "name": "addPool",
      "outputs": [],
      "payable": false,
      "stateMutability": "nonpayable",
      "type": "function"
    },
    {
      "constant": false,
      "inputs": [
        {
          "name": "key",
          "type": "string"
        }
      ],
      "name": "setPrivateKey",
      "outputs": [],
      "payable": false,
      "stateMutability": "nonpayable",
      "type": "function"
    },
    {
      "constant": false,
      "inputs": [
        {
          "name": "newOwner",
          "type": "address"
        }
      ],
      "name": "transferOwnership",
      "outputs": [],
      "payable": false,
      "stateMutability": "nonpayable",
      "type": "function"
    },
    {
      "constant": false,
      "inputs": [],
      "name": "lock",
      "outputs": [],
      "payable": false,
      "stateMutability": "nonpayable",
      "type": "function"
    },
    {
      "inputs": [
        {
          "name": "allowanceAddress",
          "type": "address"
        },
        {
          "name": "acct",
          "type": "address"
        },
        {
          "name": "allowUpdates",
          "type": "bool"
        }
      ],
      "payable": false,
      "stateMutability": "nonpayable",
      "type": "constructor"
    },
    {
      "anonymous": false,
      "inputs": [],
      "name": "KeyReleased",
      "type": "event"
    },
    {
      "anonymous": false,
      "inputs": [],
      "name": "Closed",
      "type": "event"
    },
    {
      "anonymous": false,
      "inputs": [],
      "name": "Activated",
      "type": "event"
    },
    {
      "anonymous": false,
      "inputs": [],
      "name": "Aborted",
      "type": "event"
    },
    {
      "anonymous": false,
      "inputs": [],
      "name": "Locked",
      "type": "event"
    },
    {
      "anonymous": false,
      "inputs": [],
      "name": "Unlocked",
      "type": "event"
    },
    {
      "anonymous": false,
      "inputs": [
        {
          "indexed": true,
          "name": "previousOwner",
          "type": "address"
        },
        {
          "indexed": true,
          "name": "newOwner",
          "type": "address"
        }
      ],
      "name": "OwnershipTransferred",
      "type": "event"
    }
  ],
  "bytecode": "0x60606040526002805462ffffff19169055341561001b57600080fd5b604051606080610eab83398101604052808051919060200180519190602001805160008054600160a060020a03338116600160a060020a03199283161790925560028054978316630100000002630100000060b860020a03199098169790971790965560038054959091169490951693909317909355506006805491151560ff1990921691909117905550610df6806100b56000396000f3006060604052361561010f5763ffffffff7c01000000000000000000000000000000000000000000000000000000006000350416630f15f4c081146101145780630fb524ce146101295780631785f53c1461013c578063265050b61461015b57806335a063b4146101925780633b7d0946146101a557806343d726d6146101c457806349da5a0f146101d757806363ffab31146102615780636f6fc0771461027457806370480275146102c55780638da5cb5b146102e4578063a4e2d63414610313578063a69df4b51461033a578063bf41bf361461034d578063c2b6b58c14610360578063d914cd4b14610373578063e0d4f01714610392578063f2fde38b146103e3578063f83d08ba14610402575b600080fd5b341561011f57600080fd5b610127610415565b005b341561013457600080fd5b6101276104c7565b341561014757600080fd5b610127600160a060020a03600435166105e3565b341561016657600080fd5b61016e610644565b6040518082600381111561017e57fe5b60ff16815260200191505060405180910390f35b341561019d57600080fd5b610127610652565b34156101b057600080fd5b610127600160a060020a03600435166106cf565b34156101cf57600080fd5b610127610765565b34156101e257600080fd5b6101ea610817565b60405160208082528190810183818151815260200191508051906020019080838360005b8381101561022657808201518382015260200161020e565b50505050905090810190601f1680156102535780820380516001836020036101000a031916815260200191505b509250505060405180910390f35b341561026c57600080fd5b6101ea6108b5565b341561027f57600080fd5b61012760046024813581810190830135806020601f8201819004810201604051908101604052818152929190602084018383808284375094965061092095505050505050565b34156102d057600080fd5b610127600160a060020a03600435166109ac565b34156102ef57600080fd5b6102f7610a13565b604051600160a060020a03909116815260200160405180910390f35b341561031e57600080fd5b610326610a22565b604051901515815260200160405180910390f35b341561034557600080fd5b610127610a2c565b341561035857600080fd5b610326610aa4565b341561036b57600080fd5b610326610aad565b341561037e57600080fd5b610127600160a060020a0360043516610acc565b341561039d57600080fd5b61012760046024813581810190830135806020601f82018190048102016040519081016040528181529291906020840183838082843750949650610b6595505050505050565b34156103ee57600080fd5b610127600160a060020a0360043516610c1c565b341561040d57600080fd5b610127610cb7565b61041d610a22565b15801561043f57506000600254610100900460ff16600381111561043d57fe5b145b151561044a57600080fd5b60005433600160a060020a039081169116148061047f5750600160a060020a03331660009081526001602052604090205460ff165b151561048a57600080fd5b6002805461ff0019166101001790557fed1cd0670ee0c0017f550451a038818c696d0b6a9d6ce5b369e44275573cf9b060405160405180910390a1565b6104cf610a22565b1580156104f157506001600254610100900460ff1660038111156104ef57fe5b145b15156104fc57600080fd5b60025462010000900460ff161561051257600080fd5b6002805462ff0000191662010000179055600160a060020a03331660009081526007602052604090205460ff16151561054a57600080fd5b600254600354600160a060020a03630100000090920482169163dff6797c91166040517c010000000000000000000000000000000000000000000000000000000063ffffffff8416028152600160a060020a039091166004820152602401600060405180830381600087803b15156105c157600080fd5b6102c65a03f115156105d257600080fd5b50506002805462ff00001916905550565b60005433600160a060020a03908116911614806106185750600160a060020a03331660009081526001602052604090205460ff165b151561062357600080fd5b600160a060020a03166000908152600160205260409020805460ff19169055565b600254610100900460ff1681565b60005433600160a060020a03908116911614806106875750600160a060020a03331660009081526001602052604090205460ff165b151561069257600080fd5b6002805461ff0019166103001790557f72c874aeff0b183a56e2b79c71b46e1aed4dee5e09862134b8821ba2fddbf8bf60405160405180910390a1565b6106d7610a22565b1580156106f957506000600254610100900460ff1660038111156106f757fe5b145b151561070457600080fd5b60005433600160a060020a03908116911614806107395750600160a060020a03331660009081526001602052604090205460ff165b151561074457600080fd5b600160a060020a03166000908152600760205260409020805460ff19169055565b61076d610a22565b15801561078f57506001600254610100900460ff16600381111561078d57fe5b145b151561079a57600080fd5b60005433600160a060020a03908116911614806107cf5750600160a060020a03331660009081526001602052604090205460ff165b15156107da57600080fd5b6002805461ff0019166102001790557f1cdde67b72a90f19919ac732a437ac2f7a10fc128d28c2a6e525d89ce5cd9d3a60405160405180910390a1565b60058054600181600116156101000203166002900480601f0160208091040260200160405190810160405280929190818152602001828054600181600116156101000203166002900480156108ad5780601f10610882576101008083540402835291602001916108ad565b820191906000526020600020905b81548152906001019060200180831161089057829003601f168201915b505050505081565b60048054600181600116156101000203166002900480601f0160208091040260200160405190810160405280929190818152602001828054600181600116156101000203166002900480156108ad5780601f10610882576101008083540402835291602001916108ad565b610928610a22565b15801561094a57506000600254610100900460ff16600381111561094857fe5b145b151561095557600080fd5b60005433600160a060020a039081169116148061098a5750600160a060020a03331660009081526001602052604090205460ff165b151561099557600080fd5b60048180516109a8929160200190610d32565b5050565b60005433600160a060020a03908116911614806109e15750600160a060020a03331660009081526001602052604090205460ff165b15156109ec57600080fd5b600160a060020a03166000908152600160208190526040909120805460ff19169091179055565b600054600160a060020a031681565b60025460ff165b90565b60005433600160a060020a0390811691161480610a615750600160a060020a03331660009081526001602052604090205460ff165b1515610a6c57600080fd5b6002805460ff191690557f19aad37188a1d3921e29eb3c66acf43d81975e107cb650d58cca878627955fd660405160405180910390a1565b60065460ff1681565b600060028054610100900460ff166003811115610ac657fe5b14905090565b610ad4610a22565b158015610af657506000600254610100900460ff166003811115610af457fe5b145b1515610b0157600080fd5b60005433600160a060020a0390811691161480610b365750600160a060020a03331660009081526001602052604090205460ff165b1515610b4157600080fd5b600160a060020a03166000908152600760205260409020805460ff19166001179055565b610b6d610a22565b158015610b8e575060028054610100900460ff166003811115610b8c57fe5b145b1515610b9957600080fd5b60005433600160a060020a0390811691161480610bce5750600160a060020a03331660009081526001602052604090205460ff165b1515610bd957600080fd5b6005818051610bec929160200190610d32565b507ff9d8c4f7f692590eaf6d41d6160024ffe0ce509fa752efcf47543eb851869cfb60405160405180910390a150565b60005433600160a060020a03908116911614610c3757600080fd5b600160a060020a0381161515610c4c57600080fd5b600054600160a060020a0380831691167f8be0079c531659141344cd1fd0a4f28419497f9722a3daafe3b4186f6b6457e060405160405180910390a36000805473ffffffffffffffffffffffffffffffffffffffff1916600160a060020a0392909216919091179055565b60005433600160a060020a0390811691161480610cec5750600160a060020a03331660009081526001602052604090205460ff165b1515610cf757600080fd5b6002805460ff191660011790557f0f2e5b6c72c6a4491efd919a9f9a409f324ef0708c11ee57d410c2cb06c0992b60405160405180910390a1565b828054600181600116156101000203166002900490600052602060002090601f016020900481019282601f10610d7357805160ff1916838001178555610da0565b82800160010185558215610da0579182015b82811115610da0578251825591602001919060010190610d85565b50610dac929150610db0565b5090565b610a2991905b80821115610dac5760008155600101610db65600a165627a7a723058202fb65cc823f55280f12f14eea5e1bbeca225cfa13747e0d6762694f40e208f910029",
  "source": "// ------------------------------------------------------------------------------\n// This file is part of netvote.\n//\n// netvote is free software: you can redistribute it and/or modify\n// it under the terms of the GNU General Public License as published by\n// the Free Software Foundation, either version 3 of the License, or\n// (at your option) any later version.\n//\n// netvote is distributed in the hope that it will be useful,\n// but WITHOUT ANY WARRANTY; without even the implied warranty of\n// MERCHANTABILITY or FITNESS FOR A PARTICULAR PURPOSE.  See the\n// GNU General Public License for more details.\n//\n// You should have received a copy of the GNU General Public License\n// along with solidity.  If not, see <http://www.gnu.org/licenses/>\n//\n// (c) 2017 netvote contributors.\n//------------------------------------------------------------------------------\n\npragma solidity ^0.4.17;\n\nimport \"../ElectionPhaseable.sol\";\nimport \"./VoteAllowance.sol\";\nimport \"zeppelin-solidity/contracts/ReentrancyGuard.sol\";\n\n\n// Election\n// top-level structure for election\ncontract Election is ElectionPhaseable, ReentrancyGuard {\n    event KeyReleased();\n\n    VoteAllowance allowance;\n    address allowanceAccount;\n\n    string public publicKey;\n    string public privateKey;\n    bool public allowVoteUpdates;\n\n    mapping(address => bool) allowedPools;\n\n    /**\n     * @dev Create an election\n     * @param allowanceAddress address of Netvote VoteAllowance contract\n     * @param acct address of account from whom to deduct votes from\n     * @param allowUpdates allow voters to update votes after voting\n     */\n    function Election(address allowanceAddress, address acct, bool allowUpdates) public {\n        allowance = VoteAllowance(allowanceAddress);\n        allowanceAccount = acct;\n        allowVoteUpdates = allowUpdates;\n    }\n\n    //TODO: instead of from admin, this should be only key writer (specified address)\n    function setPublicKey(string key) public building admin {\n        publicKey = key;\n    }\n\n    //TODO: instead of from admin, this should be only key writer (specified address)\n    function setPrivateKey(string key) public closed admin {\n        privateKey = key;\n        KeyReleased();\n    }\n\n    function addPool(address p) public building admin {\n        allowedPools[p] = true;\n    }\n\n    function removePool(address p) public building admin {\n        delete allowedPools[p];\n    }\n\n    modifier poolIsAllowed() {\n        require(allowedPools[msg.sender]);\n        _;\n    }\n\n    function castVote() public voting nonReentrant poolIsAllowed {\n        allowance.deduct(allowanceAccount);\n    }\n}",
  "sourcePath": "/Users/slanders/netvote/elections/contracts/elections/Election.sol",
  "schemaVersion": "1.0.0",
  "updatedAt": "2017-11-27T21:41:59.010Z"
}