{
  "contractName": "ElectionPhaseable",
  "abi": [
    {
      "constant": false,
      "inputs": [],
      "name": "activate",
      "outputs": [],
      "payable": false,
      "stateMutability": "nonpayable",
      "type": "function"
    },
    {
      "constant": false,
      "inputs": [
        {
          "name": "addr",
          "type": "address"
        }
      ],
      "name": "removeAdmin",
      "outputs": [],
      "payable": false,
      "stateMutability": "nonpayable",
      "type": "function"
    },
    {
      "constant": true,
      "inputs": [],
      "name": "electionPhase",
      "outputs": [
        {
          "name": "",
          "type": "uint8"
        }
      ],
      "payable": false,
      "stateMutability": "view",
      "type": "function"
    },
    {
      "constant": false,
      "inputs": [],
      "name": "abort",
      "outputs": [],
      "payable": false,
      "stateMutability": "nonpayable",
      "type": "function"
    },
    {
      "constant": false,
      "inputs": [],
      "name": "close",
      "outputs": [],
      "payable": false,
      "stateMutability": "nonpayable",
      "type": "function"
    },
    {
      "constant": false,
      "inputs": [
        {
          "name": "addr",
          "type": "address"
        }
      ],
      "name": "addAdmin",
      "outputs": [],
      "payable": false,
      "stateMutability": "nonpayable",
      "type": "function"
    },
    {
      "constant": true,
      "inputs": [],
      "name": "owner",
      "outputs": [
        {
          "name": "",
          "type": "address"
        }
      ],
      "payable": false,
      "stateMutability": "view",
      "type": "function"
    },
    {
      "constant": true,
      "inputs": [],
      "name": "isLocked",
      "outputs": [
        {
          "name": "",
          "type": "bool"
        }
      ],
      "payable": false,
      "stateMutability": "view",
      "type": "function"
    },
    {
      "constant": false,
      "inputs": [],
      "name": "unlock",
      "outputs": [],
      "payable": false,
      "stateMutability": "nonpayable",
      "type": "function"
    },
    {
      "constant": true,
      "inputs": [],
      "name": "isClosed",
      "outputs": [
        {
          "name": "",
          "type": "bool"
        }
      ],
      "payable": false,
      "stateMutability": "view",
      "type": "function"
    },
    {
      "constant": false,
      "inputs": [
        {
          "name": "newOwner",
          "type": "address"
        }
      ],
      "name": "transferOwnership",
      "outputs": [],
      "payable": false,
      "stateMutability": "nonpayable",
      "type": "function"
    },
    {
      "constant": false,
      "inputs": [],
      "name": "lock",
      "outputs": [],
      "payable": false,
      "stateMutability": "nonpayable",
      "type": "function"
    },
    {
      "anonymous": false,
      "inputs": [],
      "name": "Closed",
      "type": "event"
    },
    {
      "anonymous": false,
      "inputs": [],
      "name": "Activated",
      "type": "event"
    },
    {
      "anonymous": false,
      "inputs": [],
      "name": "Aborted",
      "type": "event"
    },
    {
      "anonymous": false,
      "inputs": [],
      "name": "Locked",
      "type": "event"
    },
    {
      "anonymous": false,
      "inputs": [],
      "name": "Unlocked",
      "type": "event"
    },
    {
      "anonymous": false,
      "inputs": [
        {
          "indexed": true,
          "name": "previousOwner",
          "type": "address"
        },
        {
          "indexed": true,
          "name": "newOwner",
          "type": "address"
        }
      ],
      "name": "OwnershipTransferred",
      "type": "event"
    }
  ],
  "bytecode": "0x60606040526002805461ffff1916905560008054600160a060020a03191633600160a060020a03161781556106c290819061003a90396000f300606060405236156100b75763ffffffff7c01000000000000000000000000000000000000000000000000000000006000350416630f15f4c081146100bc5780631785f53c146100d1578063265050b6146100f057806335a063b41461012757806343d726d61461013a578063704802751461014d5780638da5cb5b1461016c578063a4e2d6341461019b578063a69df4b5146101c2578063c2b6b58c146101d5578063f2fde38b146101e8578063f83d08ba14610207575b600080fd5b34156100c757600080fd5b6100cf61021a565b005b34156100dc57600080fd5b6100cf600160a060020a03600435166102cc565b34156100fb57600080fd5b61010361032d565b6040518082600381111561011357fe5b60ff16815260200191505060405180910390f35b341561013257600080fd5b6100cf61033b565b341561014557600080fd5b6100cf6103b8565b341561015857600080fd5b6100cf600160a060020a036004351661046a565b341561017757600080fd5b61017f6104d1565b604051600160a060020a03909116815260200160405180910390f35b34156101a657600080fd5b6101ae6104e0565b604051901515815260200160405180910390f35b34156101cd57600080fd5b6100cf6104e9565b34156101e057600080fd5b6101ae610561565b34156101f357600080fd5b6100cf600160a060020a0360043516610580565b341561021257600080fd5b6100cf61061b565b6102226104e0565b15801561024457506000600254610100900460ff16600381111561024257fe5b145b151561024f57600080fd5b60005433600160a060020a03908116911614806102845750600160a060020a03331660009081526001602052604090205460ff165b151561028f57600080fd5b6002805461ff0019166101001790557fed1cd0670ee0c0017f550451a038818c696d0b6a9d6ce5b369e44275573cf9b060405160405180910390a1565b60005433600160a060020a03908116911614806103015750600160a060020a03331660009081526001602052604090205460ff165b151561030c57600080fd5b600160a060020a03166000908152600160205260409020805460ff19169055565b600254610100900460ff1681565b60005433600160a060020a03908116911614806103705750600160a060020a03331660009081526001602052604090205460ff165b151561037b57600080fd5b6002805461ff0019166103001790557f72c874aeff0b183a56e2b79c71b46e1aed4dee5e09862134b8821ba2fddbf8bf60405160405180910390a1565b6103c06104e0565b1580156103e257506001600254610100900460ff1660038111156103e057fe5b145b15156103ed57600080fd5b60005433600160a060020a03908116911614806104225750600160a060020a03331660009081526001602052604090205460ff165b151561042d57600080fd5b6002805461ff0019166102001790557f1cdde67b72a90f19919ac732a437ac2f7a10fc128d28c2a6e525d89ce5cd9d3a60405160405180910390a1565b60005433600160a060020a039081169116148061049f5750600160a060020a03331660009081526001602052604090205460ff165b15156104aa57600080fd5b600160a060020a03166000908152600160208190526040909120805460ff19169091179055565b600054600160a060020a031681565b60025460ff1690565b60005433600160a060020a039081169116148061051e5750600160a060020a03331660009081526001602052604090205460ff165b151561052957600080fd5b6002805460ff191690557f19aad37188a1d3921e29eb3c66acf43d81975e107cb650d58cca878627955fd660405160405180910390a1565b600060028054610100900460ff16600381111561057a57fe5b14905090565b60005433600160a060020a0390811691161461059b57600080fd5b600160a060020a03811615156105b057600080fd5b600054600160a060020a0380831691167f8be0079c531659141344cd1fd0a4f28419497f9722a3daafe3b4186f6b6457e060405160405180910390a36000805473ffffffffffffffffffffffffffffffffffffffff1916600160a060020a0392909216919091179055565b60005433600160a060020a03908116911614806106505750600160a060020a03331660009081526001602052604090205460ff165b151561065b57600080fd5b6002805460ff191660011790557f0f2e5b6c72c6a4491efd919a9f9a409f324ef0708c11ee57d410c2cb06c0992b60405160405180910390a15600a165627a7a723058200330e591442ed4a078110aba72d9c9dc1b6d3e754db1126e4a6f8bac918e18190029",
  "source": "// ------------------------------------------------------------------------------\n// This file is part of netvote.\n//\n// netvote is free software: you can redistribute it and/or modify\n// it under the terms of the GNU General Public License as published by\n// the Free Software Foundation, either version 3 of the License, or\n// (at your option) any later version.\n//\n// netvote is distributed in the hope that it will be useful,\n// but WITHOUT ANY WARRANTY; without even the implied warranty of\n// MERCHANTABILITY or FITNESS FOR A PARTICULAR PURPOSE.  See the\n// GNU General Public License for more details.\n//\n// You should have received a copy of the GNU General Public License\n// along with solidity.  If not, see <http://www.gnu.org/licenses/>\n//\n// (c) 2017 netvote contributors.\n//------------------------------------------------------------------------------\n\npragma solidity ^0.4.17;\n\nimport \"./Lockable.sol\";\n\n\n// ElectionPhaseable\n// state machine for transitioning election components between modes\ncontract ElectionPhaseable is Lockable {\n    event Closed();\n    event Activated();\n    event Aborted();\n\n    ElectionPhase public electionPhase = ElectionPhase.Building;\n\n    enum ElectionPhase {\n        Building,\n        Voting,\n        Closed,\n        Aborted\n    }\n\n    modifier building() {\n        require(!isLocked() && electionPhase == ElectionPhase.Building);\n        _;\n    }\n\n    modifier voting() {\n        require(!isLocked() && electionPhase == ElectionPhase.Voting);\n        _;\n    }\n\n    modifier closed() {\n        require(!isLocked() && electionPhase == ElectionPhase.Closed);\n        _;\n    }\n\n    modifier aborted() {\n        require(electionPhase == ElectionPhase.Aborted);\n        _;\n    }\n\n    function isClosed() public constant returns (bool) {\n        return electionPhase == ElectionPhase.Closed;\n    }\n\n    function activate() public building admin {\n        electionPhase = ElectionPhase.Voting;\n        Activated();\n    }\n\n    function close() public voting admin {\n        electionPhase = ElectionPhase.Closed;\n        Closed();\n    }\n\n    function abort() public admin {\n        electionPhase = ElectionPhase.Aborted;\n        Aborted();\n    }\n}",
  "sourcePath": "/Users/slanders/netvote/elections/contracts/ElectionPhaseable.sol",
  "schemaVersion": "1.0.0",
  "updatedAt": "2017-11-27T21:41:59.007Z"
}