{
  "contractName": "Election",
  "abi": [
    {
      "constant": true,
      "inputs": [
        {
          "name": "index",
          "type": "uint256"
        }
      ],
      "name": "getPool",
      "outputs": [
        {
          "name": "",
          "type": "address"
        }
      ],
      "payable": false,
      "stateMutability": "view",
      "type": "function"
    },
    {
      "constant": false,
      "inputs": [],
      "name": "activate",
      "outputs": [],
      "payable": false,
      "stateMutability": "nonpayable",
      "type": "function"
    },
    {
      "constant": false,
      "inputs": [],
      "name": "castVote",
      "outputs": [],
      "payable": false,
      "stateMutability": "nonpayable",
      "type": "function"
    },
    {
      "constant": true,
      "inputs": [
        {
          "name": "b",
          "type": "address"
        }
      ],
      "name": "ballotExists",
      "outputs": [
        {
          "name": "",
          "type": "bool"
        }
      ],
      "payable": false,
      "stateMutability": "view",
      "type": "function"
    },
    {
      "constant": false,
      "inputs": [
        {
          "name": "addr",
          "type": "address"
        }
      ],
      "name": "removeAdmin",
      "outputs": [],
      "payable": false,
      "stateMutability": "nonpayable",
      "type": "function"
    },
    {
      "constant": true,
      "inputs": [
        {
          "name": "p",
          "type": "address"
        }
      ],
      "name": "poolExists",
      "outputs": [
        {
          "name": "",
          "type": "bool"
        }
      ],
      "payable": false,
      "stateMutability": "view",
      "type": "function"
    },
    {
      "constant": true,
      "inputs": [],
      "name": "electionPhase",
      "outputs": [
        {
          "name": "",
          "type": "uint8"
        }
      ],
      "payable": false,
      "stateMutability": "view",
      "type": "function"
    },
    {
      "constant": false,
      "inputs": [],
      "name": "abort",
      "outputs": [],
      "payable": false,
      "stateMutability": "nonpayable",
      "type": "function"
    },
    {
      "constant": false,
      "inputs": [
        {
          "name": "p",
          "type": "address"
        }
      ],
      "name": "removePool",
      "outputs": [],
      "payable": false,
      "stateMutability": "nonpayable",
      "type": "function"
    },
    {
      "constant": false,
      "inputs": [],
      "name": "close",
      "outputs": [],
      "payable": false,
      "stateMutability": "nonpayable",
      "type": "function"
    },
    {
      "constant": true,
      "inputs": [],
      "name": "privateKey",
      "outputs": [
        {
          "name": "",
          "type": "string"
        }
      ],
      "payable": false,
      "stateMutability": "view",
      "type": "function"
    },
    {
      "constant": true,
      "inputs": [],
      "name": "publicKey",
      "outputs": [
        {
          "name": "",
          "type": "string"
        }
      ],
      "payable": false,
      "stateMutability": "view",
      "type": "function"
    },
    {
      "constant": false,
      "inputs": [
        {
          "name": "key",
          "type": "string"
        }
      ],
      "name": "setPublicKey",
      "outputs": [],
      "payable": false,
      "stateMutability": "nonpayable",
      "type": "function"
    },
    {
      "constant": false,
      "inputs": [
        {
          "name": "addr",
          "type": "address"
        }
      ],
      "name": "addAdmin",
      "outputs": [],
      "payable": false,
      "stateMutability": "nonpayable",
      "type": "function"
    },
    {
      "constant": true,
      "inputs": [
        {
          "name": "p",
          "type": "address"
        }
      ],
      "name": "getPoolIndex",
      "outputs": [
        {
          "name": "",
          "type": "uint256"
        }
      ],
      "payable": false,
      "stateMutability": "view",
      "type": "function"
    },
    {
      "constant": true,
      "inputs": [],
      "name": "owner",
      "outputs": [
        {
          "name": "",
          "type": "address"
        }
      ],
      "payable": false,
      "stateMutability": "view",
      "type": "function"
    },
    {
      "constant": true,
      "inputs": [],
      "name": "getPoolCount",
      "outputs": [
        {
          "name": "",
          "type": "uint256"
        }
      ],
      "payable": false,
      "stateMutability": "view",
      "type": "function"
    },
    {
      "constant": true,
      "inputs": [],
      "name": "isLocked",
      "outputs": [
        {
          "name": "",
          "type": "bool"
        }
      ],
      "payable": false,
      "stateMutability": "view",
      "type": "function"
    },
    {
      "constant": false,
      "inputs": [],
      "name": "unlock",
      "outputs": [],
      "payable": false,
      "stateMutability": "nonpayable",
      "type": "function"
    },
    {
      "constant": true,
      "inputs": [],
      "name": "getBallotCount",
      "outputs": [
        {
          "name": "",
          "type": "uint256"
        }
      ],
      "payable": false,
      "stateMutability": "view",
      "type": "function"
    },
    {
      "constant": true,
      "inputs": [],
      "name": "allowVoteUpdates",
      "outputs": [
        {
          "name": "",
          "type": "bool"
        }
      ],
      "payable": false,
      "stateMutability": "view",
      "type": "function"
    },
    {
      "constant": true,
      "inputs": [],
      "name": "isClosed",
      "outputs": [
        {
          "name": "",
          "type": "bool"
        }
      ],
      "payable": false,
      "stateMutability": "view",
      "type": "function"
    },
    {
      "constant": false,
      "inputs": [
        {
          "name": "b",
          "type": "address"
        }
      ],
      "name": "removeBallot",
      "outputs": [],
      "payable": false,
      "stateMutability": "nonpayable",
      "type": "function"
    },
    {
      "constant": false,
      "inputs": [
        {
          "name": "p",
          "type": "address"
        }
      ],
      "name": "addPool",
      "outputs": [],
      "payable": false,
      "stateMutability": "nonpayable",
      "type": "function"
    },
    {
      "constant": true,
      "inputs": [
        {
          "name": "b",
          "type": "address"
        }
      ],
      "name": "getBallotIndex",
      "outputs": [
        {
          "name": "",
          "type": "uint256"
        }
      ],
      "payable": false,
      "stateMutability": "view",
      "type": "function"
    },
    {
      "constant": false,
      "inputs": [
        {
          "name": "key",
          "type": "string"
        }
      ],
      "name": "setPrivateKey",
      "outputs": [],
      "payable": false,
      "stateMutability": "nonpayable",
      "type": "function"
    },
    {
      "constant": true,
      "inputs": [],
      "name": "checkConfig",
      "outputs": [
        {
          "name": "",
          "type": "bool"
        }
      ],
      "payable": false,
      "stateMutability": "view",
      "type": "function"
    },
    {
      "constant": false,
      "inputs": [
        {
          "name": "newOwner",
          "type": "address"
        }
      ],
      "name": "transferOwnership",
      "outputs": [],
      "payable": false,
      "stateMutability": "nonpayable",
      "type": "function"
    },
    {
      "constant": false,
      "inputs": [],
      "name": "lock",
      "outputs": [],
      "payable": false,
      "stateMutability": "nonpayable",
      "type": "function"
    },
    {
      "constant": false,
      "inputs": [
        {
          "name": "b",
          "type": "address"
        }
      ],
      "name": "addBallot",
      "outputs": [],
      "payable": false,
      "stateMutability": "nonpayable",
      "type": "function"
    },
    {
      "constant": true,
      "inputs": [
        {
          "name": "index",
          "type": "uint256"
        }
      ],
      "name": "getBallot",
      "outputs": [
        {
          "name": "",
          "type": "address"
        }
      ],
      "payable": false,
      "stateMutability": "view",
      "type": "function"
    },
    {
      "inputs": [
        {
          "name": "allowanceAddress",
          "type": "address"
        },
        {
          "name": "acct",
          "type": "address"
        },
        {
          "name": "allowUpdates",
          "type": "bool"
        }
      ],
      "payable": false,
      "stateMutability": "nonpayable",
      "type": "constructor"
    },
    {
      "anonymous": false,
      "inputs": [],
      "name": "KeyReleased",
      "type": "event"
    },
    {
      "anonymous": false,
      "inputs": [],
      "name": "Closed",
      "type": "event"
    },
    {
      "anonymous": false,
      "inputs": [],
      "name": "Activated",
      "type": "event"
    },
    {
      "anonymous": false,
      "inputs": [],
      "name": "Aborted",
      "type": "event"
    },
    {
      "anonymous": false,
      "inputs": [],
      "name": "Locked",
      "type": "event"
    },
    {
      "anonymous": false,
      "inputs": [],
      "name": "Unlocked",
      "type": "event"
    },
    {
      "anonymous": false,
      "inputs": [
        {
          "indexed": true,
          "name": "previousOwner",
          "type": "address"
        },
        {
          "indexed": true,
          "name": "newOwner",
          "type": "address"
        }
      ],
      "name": "OwnershipTransferred",
      "type": "event"
    }
  ],
  "bytecode": "0x60606040526000600260006101000a81548160ff0219169083151502179055506000600260016101000a81548160ff0219169083600381111561003e57fe5b02179055506000600960006101000a81548160ff021916908315150217905550341561006957600080fd5b60405160608061272a83398101604052808051906020019091908051906020019091908051906020019091905050336000806101000a81548173ffffffffffffffffffffffffffffffffffffffff021916908373ffffffffffffffffffffffffffffffffffffffff16021790555082600960016101000a81548173ffffffffffffffffffffffffffffffffffffffff021916908373ffffffffffffffffffffffffffffffffffffffff16021790555081600a60006101000a81548173ffffffffffffffffffffffffffffffffffffffff021916908373ffffffffffffffffffffffffffffffffffffffff16021790555080600d60006101000a81548160ff0219169083151502179055505050506125a5806101856000396000f30060606040526004361061018b576000357c0100000000000000000000000000000000000000000000000000000000900463ffffffff168063068bcd8d146101905780630f15f4c0146101f35780630fb524ce14610208578063138b1fa01461021d5780631785f53c1461026e5780631e1c6a07146102a7578063265050b6146102f857806335a063b41461032f5780633b7d09461461034457806343d726d61461037d57806349da5a0f1461039257806363ffab31146104205780636f6fc077146104ae578063704802751461050b57806387063850146105445780638da5cb5b146105915780638eec5d70146105e6578063a4e2d6341461060f578063a69df4b51461063c578063b474149514610651578063bf41bf361461067a578063c2b6b58c146106a7578063d71c6772146106d4578063d914cd4b1461070d578063db30eafb14610746578063e0d4f01714610793578063f098fe47146107f0578063f2fde38b1461081d578063f83d08ba14610856578063f8c74afa1461086b578063f9d5ee75146108a4575b600080fd5b341561019b57600080fd5b6101b16004808035906020019091905050610907565b604051808273ffffffffffffffffffffffffffffffffffffffff1673ffffffffffffffffffffffffffffffffffffffff16815260200191505060405180910390f35b34156101fe57600080fd5b6102066109a9565b005b341561021357600080fd5b61021b610b02565b005b341561022857600080fd5b610254600480803573ffffffffffffffffffffffffffffffffffffffff16906020019091905050610d5d565b604051808215151515815260200191505060405180910390f35b341561027957600080fd5b6102a5600480803573ffffffffffffffffffffffffffffffffffffffff16906020019091905050610e2b565b005b34156102b257600080fd5b6102de600480803573ffffffffffffffffffffffffffffffffffffffff16906020019091905050610f35565b604051808215151515815260200191505060405180910390f35b341561030357600080fd5b61030b611003565b6040518082600381111561031b57fe5b60ff16815260200191505060405180910390f35b341561033a57600080fd5b610342611016565b005b341561034f57600080fd5b61037b600480803573ffffffffffffffffffffffffffffffffffffffff16906020019091905050611117565b005b341561038857600080fd5b6103906112c3565b005b341561039d57600080fd5b6103a5611408565b6040518080602001828103825283818151815260200191508051906020019080838360005b838110156103e55780820151818401526020810190506103ca565b50505050905090810190601f1680156104125780820380516001836020036101000a031916815260200191505b509250505060405180910390f35b341561042b57600080fd5b6104336114a6565b6040518080602001828103825283818151815260200191508051906020019080838360005b83811015610473578082015181840152602081019050610458565b50505050905090810190601f1680156104a05780820380516001836020036101000a031916815260200191505b509250505060405180910390f35b34156104b957600080fd5b610509600480803590602001908201803590602001908080601f01602080910402602001604051908101604052809392919081815260200183838082843782019150505050505091905050611544565b005b341561051657600080fd5b610542600480803573ffffffffffffffffffffffffffffffffffffffff16906020019091905050611652565b005b341561054f57600080fd5b61057b600480803573ffffffffffffffffffffffffffffffffffffffff1690602001909190505061175b565b6040518082815260200191505060405180910390f35b341561059c57600080fd5b6105a4611829565b604051808273ffffffffffffffffffffffffffffffffffffffff1673ffffffffffffffffffffffffffffffffffffffff16815260200191505060405180910390f35b34156105f157600080fd5b6105f961184e565b6040518082815260200191505060405180910390f35b341561061a57600080fd5b6106226118e6565b604051808215151515815260200191505060405180910390f35b341561064757600080fd5b61064f6118fd565b005b341561065c57600080fd5b6106646119f5565b6040518082815260200191505060405180910390f35b341561068557600080fd5b61068d611a8d565b604051808215151515815260200191505060405180910390f35b34156106b257600080fd5b6106ba611aa0565b604051808215151515815260200191505060405180910390f35b34156106df57600080fd5b61070b600480803573ffffffffffffffffffffffffffffffffffffffff16906020019091905050611ad0565b005b341561071857600080fd5b610744600480803573ffffffffffffffffffffffffffffffffffffffff16906020019091905050611c7c565b005b341561075157600080fd5b61077d600480803573ffffffffffffffffffffffffffffffffffffffff16906020019091905050611e28565b6040518082815260200191505060405180910390f35b341561079e57600080fd5b6107ee600480803590602001908201803590602001908080601f01602080910402602001604051908101604052809392919081815260200183838082843782019150505050505091905050611ef6565b005b34156107fb57600080fd5b610803612030565b604051808215151515815260200191505060405180910390f35b341561082857600080fd5b610854600480803573ffffffffffffffffffffffffffffffffffffffff16906020019091905050612039565b005b341561086157600080fd5b61086961218e565b005b341561087657600080fd5b6108a2600480803573ffffffffffffffffffffffffffffffffffffffff16906020019091905050612286565b005b34156108af57600080fd5b6108c56004808035906020019091905050612432565b604051808273ffffffffffffffffffffffffffffffffffffffff1673ffffffffffffffffffffffffffffffffffffffff16815260200191505060405180910390f35b6000600673__AddressSet____________________________635c2125a79091846000604051602001526040518363ffffffff167c0100000000000000000000000000000000000000000000000000000000028152600401808381526020018281526020019250505060206040518083038186803b151561098757600080fd5b6102c65a03f4151561099857600080fd5b505050604051805190509050919050565b6109b16118e6565b1580156109e35750600060038111156109c657fe5b600260019054906101000a900460ff1660038111156109e157fe5b145b15156109ee57600080fd5b6000809054906101000a900473ffffffffffffffffffffffffffffffffffffffff1673ffffffffffffffffffffffffffffffffffffffff163373ffffffffffffffffffffffffffffffffffffffff161480610a925750600160003373ffffffffffffffffffffffffffffffffffffffff1673ffffffffffffffffffffffffffffffffffffffff16815260200190815260200160002060009054906101000a900460ff165b1515610a9d57600080fd5b610aa5612030565b1515610ab057600080fd5b6001600260016101000a81548160ff02191690836003811115610acf57fe5b02179055507fed1cd0670ee0c0017f550451a038818c696d0b6a9d6ce5b369e44275573cf9b060405160405180910390a1565b610b0a6118e6565b158015610b3c575060016003811115610b1f57fe5b600260019054906101000a900460ff166003811115610b3a57fe5b145b1515610b4757600080fd5b600960009054906101000a900460ff16151515610b6357600080fd5b6001600960006101000a81548160ff021916908315150217905550600673__AddressSet____________________________63758241e09091336000604051602001526040518363ffffffff167c0100000000000000000000000000000000000000000000000000000000028152600401808381526020018273ffffffffffffffffffffffffffffffffffffffff1673ffffffffffffffffffffffffffffffffffffffff1681526020019250505060206040518083038186803b1515610c2857600080fd5b6102c65a03f41515610c3957600080fd5b505050604051805190501515610c4e57600080fd5b600960019054906101000a900473ffffffffffffffffffffffffffffffffffffffff1673ffffffffffffffffffffffffffffffffffffffff1663dff6797c600a60009054906101000a900473ffffffffffffffffffffffffffffffffffffffff166040518263ffffffff167c0100000000000000000000000000000000000000000000000000000000028152600401808273ffffffffffffffffffffffffffffffffffffffff1673ffffffffffffffffffffffffffffffffffffffff168152602001915050600060405180830381600087803b1515610d2c57600080fd5b6102c65a03f11515610d3d57600080fd5b5050506000600960006101000a81548160ff021916908315150217905550565b6000600373__AddressSet____________________________63758241e09091846000604051602001526040518363ffffffff167c0100000000000000000000000000000000000000000000000000000000028152600401808381526020018273ffffffffffffffffffffffffffffffffffffffff1673ffffffffffffffffffffffffffffffffffffffff1681526020019250505060206040518083038186803b1515610e0957600080fd5b6102c65a03f41515610e1a57600080fd5b505050604051805190509050919050565b6000809054906101000a900473ffffffffffffffffffffffffffffffffffffffff1673ffffffffffffffffffffffffffffffffffffffff163373ffffffffffffffffffffffffffffffffffffffff161480610ecf5750600160003373ffffffffffffffffffffffffffffffffffffffff1673ffffffffffffffffffffffffffffffffffffffff16815260200190815260200160002060009054906101000a900460ff165b1515610eda57600080fd5b6000600160008373ffffffffffffffffffffffffffffffffffffffff1673ffffffffffffffffffffffffffffffffffffffff16815260200190815260200160002060006101000a81548160ff02191690831515021790555050565b6000600673__AddressSet____________________________63758241e09091846000604051602001526040518363ffffffff167c0100000000000000000000000000000000000000000000000000000000028152600401808381526020018273ffffffffffffffffffffffffffffffffffffffff1673ffffffffffffffffffffffffffffffffffffffff1681526020019250505060206040518083038186803b1515610fe157600080fd5b6102c65a03f41515610ff257600080fd5b505050604051805190509050919050565b600260019054906101000a900460ff1681565b6000809054906101000a900473ffffffffffffffffffffffffffffffffffffffff1673ffffffffffffffffffffffffffffffffffffffff163373ffffffffffffffffffffffffffffffffffffffff1614806110ba5750600160003373ffffffffffffffffffffffffffffffffffffffff1673ffffffffffffffffffffffffffffffffffffffff16815260200190815260200160002060009054906101000a900460ff165b15156110c557600080fd5b6003600260016101000a81548160ff021916908360038111156110e457fe5b02179055507f72c874aeff0b183a56e2b79c71b46e1aed4dee5e09862134b8821ba2fddbf8bf60405160405180910390a1565b61111f6118e6565b15801561115157506000600381111561113457fe5b600260019054906101000a900460ff16600381111561114f57fe5b145b151561115c57600080fd5b6000809054906101000a900473ffffffffffffffffffffffffffffffffffffffff1673ffffffffffffffffffffffffffffffffffffffff163373ffffffffffffffffffffffffffffffffffffffff1614806112005750600160003373ffffffffffffffffffffffffffffffffffffffff1673ffffffffffffffffffffffffffffffffffffffff16815260200190815260200160002060009054906101000a900460ff165b151561120b57600080fd5b600673__AddressSet____________________________63e134066a9091836040518363ffffffff167c0100000000000000000000000000000000000000000000000000000000028152600401808381526020018273ffffffffffffffffffffffffffffffffffffffff1673ffffffffffffffffffffffffffffffffffffffff1681526020019250505060006040518083038186803b15156112ac57600080fd5b6102c65a03f415156112bd57600080fd5b50505050565b6112cb6118e6565b1580156112fd5750600160038111156112e057fe5b600260019054906101000a900460ff1660038111156112fb57fe5b145b151561130857600080fd5b6000809054906101000a900473ffffffffffffffffffffffffffffffffffffffff1673ffffffffffffffffffffffffffffffffffffffff163373ffffffffffffffffffffffffffffffffffffffff1614806113ac5750600160003373ffffffffffffffffffffffffffffffffffffffff1673ffffffffffffffffffffffffffffffffffffffff16815260200190815260200160002060009054906101000a900460ff165b15156113b757600080fd5b60028060016101000a81548160ff021916908360038111156113d557fe5b02179055507f1cdde67b72a90f19919ac732a437ac2f7a10fc128d28c2a6e525d89ce5cd9d3a60405160405180910390a1565b600c8054600181600116156101000203166002900480601f01602080910402602001604051908101604052809291908181526020018280546001816001161561010002031660029004801561149e5780601f106114735761010080835404028352916020019161149e565b820191906000526020600020905b81548152906001019060200180831161148157829003601f168201915b505050505081565b600b8054600181600116156101000203166002900480601f01602080910402602001604051908101604052809291908181526020018280546001816001161561010002031660029004801561153c5780601f106115115761010080835404028352916020019161153c565b820191906000526020600020905b81548152906001019060200180831161151f57829003601f168201915b505050505081565b61154c6118e6565b15801561157e57506000600381111561156157fe5b600260019054906101000a900460ff16600381111561157c57fe5b145b151561158957600080fd5b6000809054906101000a900473ffffffffffffffffffffffffffffffffffffffff1673ffffffffffffffffffffffffffffffffffffffff163373ffffffffffffffffffffffffffffffffffffffff16148061162d5750600160003373ffffffffffffffffffffffffffffffffffffffff1673ffffffffffffffffffffffffffffffffffffffff16815260200190815260200160002060009054906101000a900460ff165b151561163857600080fd5b80600b908051906020019061164e9291906124d4565b5050565b6000809054906101000a900473ffffffffffffffffffffffffffffffffffffffff1673ffffffffffffffffffffffffffffffffffffffff163373ffffffffffffffffffffffffffffffffffffffff1614806116f65750600160003373ffffffffffffffffffffffffffffffffffffffff1673ffffffffffffffffffffffffffffffffffffffff16815260200190815260200160002060009054906101000a900460ff165b151561170157600080fd5b60018060008373ffffffffffffffffffffffffffffffffffffffff1673ffffffffffffffffffffffffffffffffffffffff16815260200190815260200160002060006101000a81548160ff02191690831515021790555050565b6000600673__AddressSet____________________________6318c402499091846000604051602001526040518363ffffffff167c0100000000000000000000000000000000000000000000000000000000028152600401808381526020018273ffffffffffffffffffffffffffffffffffffffff1673ffffffffffffffffffffffffffffffffffffffff1681526020019250505060206040518083038186803b151561180757600080fd5b6102c65a03f4151561181857600080fd5b505050604051805190509050919050565b6000809054906101000a900473ffffffffffffffffffffffffffffffffffffffff1681565b6000600673__AddressSet____________________________63913aa6cd90916000604051602001526040518263ffffffff167c01000000000000000000000000000000000000000000000000000000000281526004018082815260200191505060206040518083038186803b15156118c657600080fd5b6102c65a03f415156118d757600080fd5b50505060405180519050905090565b6000600260009054906101000a900460ff16905090565b6000809054906101000a900473ffffffffffffffffffffffffffffffffffffffff1673ffffffffffffffffffffffffffffffffffffffff163373ffffffffffffffffffffffffffffffffffffffff1614806119a15750600160003373ffffffffffffffffffffffffffffffffffffffff1673ffffffffffffffffffffffffffffffffffffffff16815260200190815260200160002060009054906101000a900460ff165b15156119ac57600080fd5b6000600260006101000a81548160ff0219169083151502179055507f19aad37188a1d3921e29eb3c66acf43d81975e107cb650d58cca878627955fd660405160405180910390a1565b6000600373__AddressSet____________________________63913aa6cd90916000604051602001526040518263ffffffff167c01000000000000000000000000000000000000000000000000000000000281526004018082815260200191505060206040518083038186803b1515611a6d57600080fd5b6102c65a03f41515611a7e57600080fd5b50505060405180519050905090565b600d60009054906101000a900460ff1681565b600060026003811115611aaf57fe5b600260019054906101000a900460ff166003811115611aca57fe5b14905090565b611ad86118e6565b158015611b0a575060006003811115611aed57fe5b600260019054906101000a900460ff166003811115611b0857fe5b145b1515611b1557600080fd5b6000809054906101000a900473ffffffffffffffffffffffffffffffffffffffff1673ffffffffffffffffffffffffffffffffffffffff163373ffffffffffffffffffffffffffffffffffffffff161480611bb95750600160003373ffffffffffffffffffffffffffffffffffffffff1673ffffffffffffffffffffffffffffffffffffffff16815260200190815260200160002060009054906101000a900460ff165b1515611bc457600080fd5b600373__AddressSet____________________________63e134066a9091836040518363ffffffff167c0100000000000000000000000000000000000000000000000000000000028152600401808381526020018273ffffffffffffffffffffffffffffffffffffffff1673ffffffffffffffffffffffffffffffffffffffff1681526020019250505060006040518083038186803b1515611c6557600080fd5b6102c65a03f41515611c7657600080fd5b50505050565b611c846118e6565b158015611cb6575060006003811115611c9957fe5b600260019054906101000a900460ff166003811115611cb457fe5b145b1515611cc157600080fd5b6000809054906101000a900473ffffffffffffffffffffffffffffffffffffffff1673ffffffffffffffffffffffffffffffffffffffff163373ffffffffffffffffffffffffffffffffffffffff161480611d655750600160003373ffffffffffffffffffffffffffffffffffffffff1673ffffffffffffffffffffffffffffffffffffffff16815260200190815260200160002060009054906101000a900460ff165b1515611d7057600080fd5b600673__AddressSet____________________________63f9802f859091836040518363ffffffff167c0100000000000000000000000000000000000000000000000000000000028152600401808381526020018273ffffffffffffffffffffffffffffffffffffffff1673ffffffffffffffffffffffffffffffffffffffff1681526020019250505060006040518083038186803b1515611e1157600080fd5b6102c65a03f41515611e2257600080fd5b50505050565b6000600373__AddressSet____________________________6318c402499091846000604051602001526040518363ffffffff167c0100000000000000000000000000000000000000000000000000000000028152600401808381526020018273ffffffffffffffffffffffffffffffffffffffff1673ffffffffffffffffffffffffffffffffffffffff1681526020019250505060206040518083038186803b1515611ed457600080fd5b6102c65a03f41515611ee557600080fd5b505050604051805190509050919050565b611efe6118e6565b158015611f30575060026003811115611f1357fe5b600260019054906101000a900460ff166003811115611f2e57fe5b145b1515611f3b57600080fd5b6000809054906101000a900473ffffffffffffffffffffffffffffffffffffffff1673ffffffffffffffffffffffffffffffffffffffff163373ffffffffffffffffffffffffffffffffffffffff161480611fdf5750600160003373ffffffffffffffffffffffffffffffffffffffff1673ffffffffffffffffffffffffffffffffffffffff16815260200190815260200160002060009054906101000a900460ff165b1515611fea57600080fd5b80600c90805190602001906120009291906124d4565b507ff9d8c4f7f692590eaf6d41d6160024ffe0ce509fa752efcf47543eb851869cfb60405160405180910390a150565b60006001905090565b6000809054906101000a900473ffffffffffffffffffffffffffffffffffffffff1673ffffffffffffffffffffffffffffffffffffffff163373ffffffffffffffffffffffffffffffffffffffff1614151561209457600080fd5b600073ffffffffffffffffffffffffffffffffffffffff168173ffffffffffffffffffffffffffffffffffffffff16141515156120d057600080fd5b8073ffffffffffffffffffffffffffffffffffffffff166000809054906101000a900473ffffffffffffffffffffffffffffffffffffffff1673ffffffffffffffffffffffffffffffffffffffff167f8be0079c531659141344cd1fd0a4f28419497f9722a3daafe3b4186f6b6457e060405160405180910390a3806000806101000a81548173ffffffffffffffffffffffffffffffffffffffff021916908373ffffffffffffffffffffffffffffffffffffffff16021790555050565b6000809054906101000a900473ffffffffffffffffffffffffffffffffffffffff1673ffffffffffffffffffffffffffffffffffffffff163373ffffffffffffffffffffffffffffffffffffffff1614806122325750600160003373ffffffffffffffffffffffffffffffffffffffff1673ffffffffffffffffffffffffffffffffffffffff16815260200190815260200160002060009054906101000a900460ff165b151561223d57600080fd5b6001600260006101000a81548160ff0219169083151502179055507f0f2e5b6c72c6a4491efd919a9f9a409f324ef0708c11ee57d410c2cb06c0992b60405160405180910390a1565b61228e6118e6565b1580156122c05750600060038111156122a357fe5b600260019054906101000a900460ff1660038111156122be57fe5b145b15156122cb57600080fd5b6000809054906101000a900473ffffffffffffffffffffffffffffffffffffffff1673ffffffffffffffffffffffffffffffffffffffff163373ffffffffffffffffffffffffffffffffffffffff16148061236f5750600160003373ffffffffffffffffffffffffffffffffffffffff1673ffffffffffffffffffffffffffffffffffffffff16815260200190815260200160002060009054906101000a900460ff165b151561237a57600080fd5b600373__AddressSet____________________________63f9802f859091836040518363ffffffff167c0100000000000000000000000000000000000000000000000000000000028152600401808381526020018273ffffffffffffffffffffffffffffffffffffffff1673ffffffffffffffffffffffffffffffffffffffff1681526020019250505060006040518083038186803b151561241b57600080fd5b6102c65a03f4151561242c57600080fd5b50505050565b6000600373__AddressSet____________________________635c2125a79091846000604051602001526040518363ffffffff167c0100000000000000000000000000000000000000000000000000000000028152600401808381526020018281526020019250505060206040518083038186803b15156124b257600080fd5b6102c65a03f415156124c357600080fd5b505050604051805190509050919050565b828054600181600116156101000203166002900490600052602060002090601f016020900481019282601f1061251557805160ff1916838001178555612543565b82800160010185558215612543579182015b82811115612542578251825591602001919060010190612527565b5b5090506125509190612554565b5090565b61257691905b8082111561257257600081600090555060010161255a565b5090565b905600a165627a7a72305820c5ac9b1d60426cae163ac4d7b3aeb5dd0b2fcf5ae1b7b33bfa0f0853826777c70029",
  "source": "// ------------------------------------------------------------------------------\n// This file is part of netvote.\n//\n// netvote is free software: you can redistribute it and/or modify\n// it under the terms of the GNU General Public License as published by\n// the Free Software Foundation, either version 3 of the License, or\n// (at your option) any later version.\n//\n// netvote is distributed in the hope that it will be useful,\n// but WITHOUT ANY WARRANTY; without even the implied warranty of\n// MERCHANTABILITY or FITNESS FOR A PARTICULAR PURPOSE.  See the\n// GNU General Public License for more details.\n//\n// You should have received a copy of the GNU General Public License\n// along with solidity.  If not, see <http://www.gnu.org/licenses/>\n//\n// (c) 2017 netvote contributors.\n//------------------------------------------------------------------------------\n\npragma solidity ^0.4.17;\n\nimport \"./VoteAllowance.sol\";\nimport \"../links/BallotRegistry.sol\";\nimport \"../links/PoolRegistry.sol\";\nimport \"zeppelin-solidity/contracts/ReentrancyGuard.sol\";\n\n\n// Election\n// top-level structure for election\ncontract Election is BallotRegistry, PoolRegistry, ReentrancyGuard {\n\n    event KeyReleased();\n\n    VoteAllowance allowance;\n    address allowanceAccount;\n\n    string public publicKey;\n    string public privateKey;\n    bool public allowVoteUpdates;\n\n    /**\n     * @dev Create an election\n     * @param allowanceAddress address of Netvote VoteAllowance contract\n     * @param acct address of account from whom to deduct votes from\n     * @param allowUpdates allow voters to update votes after voting\n     */\n    function Election(address allowanceAddress, address acct, bool allowUpdates) public {\n        allowance = VoteAllowance(allowanceAddress);\n        allowanceAccount = acct;\n        allowVoteUpdates = allowUpdates;\n    }\n\n    function checkConfig() public constant returns (bool) {\n        //TODO: implement\n        return true;\n    }\n\n    //TODO: instead of from admin, this should be only key writer (specified address)\n    function setPublicKey(string key) public building admin {\n        publicKey = key;\n    }\n\n    //TODO: instead of from admin, this should be only key writer (specified address)\n    function setPrivateKey(string key) public closed admin {\n        privateKey = key;\n        KeyReleased();\n    }\n\n    modifier poolIsAllowed() {\n        require(poolSet.contains(msg.sender));\n        _;\n    }\n\n    function castVote() public voting nonReentrant poolIsAllowed {\n        allowance.deduct(allowanceAccount);\n    }\n}",
  "sourcePath": "/Users/slanders/netvote/elections/contracts/elections/Election.sol",
  "compiler": {
    "name": "solc",
    "version": "0.4.18+commit.9cf6e910.Emscripten.clang"
  },
  "schemaVersion": "1.0.1",
  "updatedAt": "2017-12-06T17:19:54.719Z"
}