{
  "contractName": "Election",
  "abi": [
    {
      "constant": true,
      "inputs": [
        {
          "name": "index",
          "type": "uint256"
        }
      ],
      "name": "getPool",
      "outputs": [
        {
          "name": "",
          "type": "address"
        }
      ],
      "payable": false,
      "stateMutability": "view",
      "type": "function"
    },
    {
      "constant": false,
      "inputs": [],
      "name": "activate",
      "outputs": [],
      "payable": false,
      "stateMutability": "nonpayable",
      "type": "function"
    },
    {
      "constant": false,
      "inputs": [],
      "name": "castVote",
      "outputs": [],
      "payable": false,
      "stateMutability": "nonpayable",
      "type": "function"
    },
    {
      "constant": true,
      "inputs": [
        {
          "name": "b",
          "type": "address"
        }
      ],
      "name": "ballotExists",
      "outputs": [
        {
          "name": "",
          "type": "bool"
        }
      ],
      "payable": false,
      "stateMutability": "view",
      "type": "function"
    },
    {
      "constant": false,
      "inputs": [
        {
          "name": "addr",
          "type": "address"
        }
      ],
      "name": "removeAdmin",
      "outputs": [],
      "payable": false,
      "stateMutability": "nonpayable",
      "type": "function"
    },
    {
      "constant": true,
      "inputs": [
        {
          "name": "p",
          "type": "address"
        }
      ],
      "name": "poolExists",
      "outputs": [
        {
          "name": "",
          "type": "bool"
        }
      ],
      "payable": false,
      "stateMutability": "view",
      "type": "function"
    },
    {
      "constant": true,
      "inputs": [],
      "name": "electionPhase",
      "outputs": [
        {
          "name": "",
          "type": "uint8"
        }
      ],
      "payable": false,
      "stateMutability": "view",
      "type": "function"
    },
    {
      "constant": false,
      "inputs": [],
      "name": "abort",
      "outputs": [],
      "payable": false,
      "stateMutability": "nonpayable",
      "type": "function"
    },
    {
      "constant": false,
      "inputs": [
        {
          "name": "p",
          "type": "address"
        }
      ],
      "name": "removePool",
      "outputs": [],
      "payable": false,
      "stateMutability": "nonpayable",
      "type": "function"
    },
    {
      "constant": false,
      "inputs": [],
      "name": "close",
      "outputs": [],
      "payable": false,
      "stateMutability": "nonpayable",
      "type": "function"
    },
    {
      "constant": true,
      "inputs": [],
      "name": "privateKey",
      "outputs": [
        {
          "name": "",
          "type": "string"
        }
      ],
      "payable": false,
      "stateMutability": "view",
      "type": "function"
    },
    {
      "constant": true,
      "inputs": [],
      "name": "publicKey",
      "outputs": [
        {
          "name": "",
          "type": "string"
        }
      ],
      "payable": false,
      "stateMutability": "view",
      "type": "function"
    },
    {
      "constant": false,
      "inputs": [
        {
          "name": "key",
          "type": "string"
        }
      ],
      "name": "setPublicKey",
      "outputs": [],
      "payable": false,
      "stateMutability": "nonpayable",
      "type": "function"
    },
    {
      "constant": false,
      "inputs": [
        {
          "name": "addr",
          "type": "address"
        }
      ],
      "name": "addAdmin",
      "outputs": [],
      "payable": false,
      "stateMutability": "nonpayable",
      "type": "function"
    },
    {
      "constant": true,
      "inputs": [
        {
          "name": "p",
          "type": "address"
        }
      ],
      "name": "getPoolIndex",
      "outputs": [
        {
          "name": "",
          "type": "uint256"
        }
      ],
      "payable": false,
      "stateMutability": "view",
      "type": "function"
    },
    {
      "constant": true,
      "inputs": [],
      "name": "owner",
      "outputs": [
        {
          "name": "",
          "type": "address"
        }
      ],
      "payable": false,
      "stateMutability": "view",
      "type": "function"
    },
    {
      "constant": true,
      "inputs": [],
      "name": "getPoolCount",
      "outputs": [
        {
          "name": "",
          "type": "uint256"
        }
      ],
      "payable": false,
      "stateMutability": "view",
      "type": "function"
    },
    {
      "constant": true,
      "inputs": [],
      "name": "isLocked",
      "outputs": [
        {
          "name": "",
          "type": "bool"
        }
      ],
      "payable": false,
      "stateMutability": "view",
      "type": "function"
    },
    {
      "constant": false,
      "inputs": [],
      "name": "unlock",
      "outputs": [],
      "payable": false,
      "stateMutability": "nonpayable",
      "type": "function"
    },
    {
      "constant": true,
      "inputs": [],
      "name": "getBallotCount",
      "outputs": [
        {
          "name": "",
          "type": "uint256"
        }
      ],
      "payable": false,
      "stateMutability": "view",
      "type": "function"
    },
    {
      "constant": true,
      "inputs": [],
      "name": "allowVoteUpdates",
      "outputs": [
        {
          "name": "",
          "type": "bool"
        }
      ],
      "payable": false,
      "stateMutability": "view",
      "type": "function"
    },
    {
      "constant": true,
      "inputs": [],
      "name": "isClosed",
      "outputs": [
        {
          "name": "",
          "type": "bool"
        }
      ],
      "payable": false,
      "stateMutability": "view",
      "type": "function"
    },
    {
      "constant": false,
      "inputs": [
        {
          "name": "b",
          "type": "address"
        }
      ],
      "name": "removeBallot",
      "outputs": [],
      "payable": false,
      "stateMutability": "nonpayable",
      "type": "function"
    },
    {
      "constant": false,
      "inputs": [
        {
          "name": "p",
          "type": "address"
        }
      ],
      "name": "addPool",
      "outputs": [],
      "payable": false,
      "stateMutability": "nonpayable",
      "type": "function"
    },
    {
      "constant": true,
      "inputs": [
        {
          "name": "b",
          "type": "address"
        }
      ],
      "name": "getBallotIndex",
      "outputs": [
        {
          "name": "",
          "type": "uint256"
        }
      ],
      "payable": false,
      "stateMutability": "view",
      "type": "function"
    },
    {
      "constant": false,
      "inputs": [
        {
          "name": "key",
          "type": "string"
        }
      ],
      "name": "setPrivateKey",
      "outputs": [],
      "payable": false,
      "stateMutability": "nonpayable",
      "type": "function"
    },
    {
      "constant": true,
      "inputs": [],
      "name": "checkConfig",
      "outputs": [
        {
          "name": "",
          "type": "bool"
        }
      ],
      "payable": false,
      "stateMutability": "view",
      "type": "function"
    },
    {
      "constant": false,
      "inputs": [
        {
          "name": "newOwner",
          "type": "address"
        }
      ],
      "name": "transferOwnership",
      "outputs": [],
      "payable": false,
      "stateMutability": "nonpayable",
      "type": "function"
    },
    {
      "constant": false,
      "inputs": [],
      "name": "lock",
      "outputs": [],
      "payable": false,
      "stateMutability": "nonpayable",
      "type": "function"
    },
    {
      "constant": false,
      "inputs": [
        {
          "name": "b",
          "type": "address"
        }
      ],
      "name": "addBallot",
      "outputs": [],
      "payable": false,
      "stateMutability": "nonpayable",
      "type": "function"
    },
    {
      "constant": true,
      "inputs": [
        {
          "name": "index",
          "type": "uint256"
        }
      ],
      "name": "getBallot",
      "outputs": [
        {
          "name": "",
          "type": "address"
        }
      ],
      "payable": false,
      "stateMutability": "view",
      "type": "function"
    },
    {
      "inputs": [
        {
          "name": "allowanceAddress",
          "type": "address"
        },
        {
          "name": "acct",
          "type": "address"
        },
        {
          "name": "allowUpdates",
          "type": "bool"
        }
      ],
      "payable": false,
      "stateMutability": "nonpayable",
      "type": "constructor"
    },
    {
      "anonymous": false,
      "inputs": [],
      "name": "KeyReleased",
      "type": "event"
    },
    {
      "anonymous": false,
      "inputs": [],
      "name": "Closed",
      "type": "event"
    },
    {
      "anonymous": false,
      "inputs": [],
      "name": "Activated",
      "type": "event"
    },
    {
      "anonymous": false,
      "inputs": [],
      "name": "Aborted",
      "type": "event"
    },
    {
      "anonymous": false,
      "inputs": [],
      "name": "Locked",
      "type": "event"
    },
    {
      "anonymous": false,
      "inputs": [],
      "name": "Unlocked",
      "type": "event"
    },
    {
      "anonymous": false,
      "inputs": [
        {
          "indexed": true,
          "name": "previousOwner",
          "type": "address"
        },
        {
          "indexed": true,
          "name": "newOwner",
          "type": "address"
        }
      ],
      "name": "OwnershipTransferred",
      "type": "event"
    }
  ],
  "bytecode": "0x60606040526002805461ffff191690556009805460ff19169055341561002457600080fd5b60405160608061162883398101604052808051919060200180519190602001805160008054600160a060020a03338116600160a060020a031992831617909255600980549783166101000261010060a860020a031990981697909717909655600a805495909116949095169390931790935550600d805491151560ff199092169190911790555061156e806100ba6000396000f3006060604052361561016f5763ffffffff60e060020a600035041663068bcd8d81146101745780630f15f4c0146101a65780630fb524ce146101bb578063138b1fa0146101ce5780631785f53c146102015780631e1c6a0714610220578063265050b61461023f57806335a063b4146102765780633b7d09461461028957806343d726d6146102a857806349da5a0f146102bb57806363ffab31146103455780636f6fc0771461035857806370480275146103a957806387063850146103c85780638da5cb5b146103f95780638eec5d701461040c578063a4e2d6341461041f578063a69df4b514610432578063b474149514610445578063bf41bf3614610458578063c2b6b58c1461046b578063d71c67721461047e578063d914cd4b1461049d578063db30eafb146104bc578063e0d4f017146104db578063f098fe471461052c578063f2fde38b1461053f578063f83d08ba1461055e578063f8c74afa14610571578063f9d5ee7514610590575b600080fd5b341561017f57600080fd5b61018a6004356105a6565b604051600160a060020a03909116815260200160405180910390f35b34156101b157600080fd5b6101b9610626565b005b34156101c657600080fd5b6101b96106eb565b34156101d957600080fd5b6101ed600160a060020a0360043516610847565b604051901515815260200160405180910390f35b341561020c57600080fd5b6101b9600160a060020a03600435166108b0565b341561022b57600080fd5b6101ed600160a060020a0360043516610911565b341561024a57600080fd5b61025261097a565b6040518082600381111561026257fe5b60ff16815260200191505060405180910390f35b341561028157600080fd5b6101b9610988565b341561029457600080fd5b6101b9600160a060020a0360043516610a05565b34156102b357600080fd5b6101b9610af0565b34156102c657600080fd5b6102ce610ba2565b60405160208082528190810183818151815260200191508051906020019080838360005b8381101561030a5780820151838201526020016102f2565b50505050905090810190601f1680156103375780820380516001836020036101000a031916815260200191505b509250505060405180910390f35b341561035057600080fd5b6102ce610c40565b341561036357600080fd5b6101b960046024813581810190830135806020601f82018190048102016040519081016040528181529291906020840183838082843750949650610cab95505050505050565b34156103b457600080fd5b6101b9600160a060020a0360043516610d37565b34156103d357600080fd5b6103e7600160a060020a0360043516610d9e565b60405190815260200160405180910390f35b341561040457600080fd5b61018a610e07565b341561041757600080fd5b6103e7610e16565b341561042a57600080fd5b6101ed610e90565b341561043d57600080fd5b6101b9610e99565b341561045057600080fd5b6103e7610f11565b341561046357600080fd5b6101ed610f6b565b341561047657600080fd5b6101ed610f74565b341561048957600080fd5b6101b9600160a060020a0360043516610f93565b34156104a857600080fd5b6101b9600160a060020a0360043516611067565b34156104c757600080fd5b6103e7600160a060020a036004351661113b565b34156104e657600080fd5b6101b960046024813581810190830135806020601f820181900481020160405190810160405281815292919060208401838380828437509496506111a495505050505050565b341561053757600080fd5b6101ed61125b565b341561054a57600080fd5b6101b9600160a060020a0360043516611260565b341561056957600080fd5b6101b96112fb565b341561057c57600080fd5b6101b9600160a060020a0360043516611376565b341561059b57600080fd5b61018a60043561144a565b600073__AddressSet____________________________635c2125a7600684846040516020015260405160e060020a63ffffffff85160281526004810192909252602482015260440160206040518083038186803b151561060657600080fd5b6102c65a03f4151561061757600080fd5b50505060405180519392505050565b61062e610e90565b15801561065057506000600254610100900460ff16600381111561064e57fe5b145b151561065b57600080fd5b60005433600160a060020a03908116911614806106905750600160a060020a03331660009081526001602052604090205460ff165b151561069b57600080fd5b6106a361125b565b15156106ae57600080fd5b6002805461ff0019166101001790557fed1cd0670ee0c0017f550451a038818c696d0b6a9d6ce5b369e44275573cf9b060405160405180910390a1565b6106f3610e90565b15801561071557506001600254610100900460ff16600381111561071357fe5b145b151561072057600080fd5b60095460ff161561073057600080fd5b6009805460ff1916600117905573__AddressSet____________________________63758241e060063360006040516020015260405160e060020a63ffffffff85160281526004810192909252600160a060020a0316602482015260440160206040518083038186803b15156107a557600080fd5b6102c65a03f415156107b657600080fd5b5050506040518051905015156107cb57600080fd5b600954600a54600160a060020a0361010090920482169163dff6797c911660405160e060020a63ffffffff8416028152600160a060020a039091166004820152602401600060405180830381600087803b151561082757600080fd5b6102c65a03f1151561083857600080fd5b50506009805460ff1916905550565b600073__AddressSet____________________________63758241e0600384846040516020015260405160e060020a63ffffffff85160281526004810192909252600160a060020a0316602482015260440160206040518083038186803b151561060657600080fd5b60005433600160a060020a03908116911614806108e55750600160a060020a03331660009081526001602052604090205460ff165b15156108f057600080fd5b600160a060020a03166000908152600160205260409020805460ff19169055565b600073__AddressSet____________________________63758241e0600684846040516020015260405160e060020a63ffffffff85160281526004810192909252600160a060020a0316602482015260440160206040518083038186803b151561060657600080fd5b600254610100900460ff1681565b60005433600160a060020a03908116911614806109bd5750600160a060020a03331660009081526001602052604090205460ff165b15156109c857600080fd5b6002805461ff0019166103001790557f72c874aeff0b183a56e2b79c71b46e1aed4dee5e09862134b8821ba2fddbf8bf60405160405180910390a1565b610a0d610e90565b158015610a2f57506000600254610100900460ff166003811115610a2d57fe5b145b1515610a3a57600080fd5b60005433600160a060020a0390811691161480610a6f5750600160a060020a03331660009081526001602052604090205460ff165b1515610a7a57600080fd5b73__AddressSet____________________________63e134066a60068360405160e060020a63ffffffff85160281526004810192909252600160a060020a0316602482015260440160006040518083038186803b1515610ad957600080fd5b6102c65a03f41515610aea57600080fd5b50505050565b610af8610e90565b158015610b1a57506001600254610100900460ff166003811115610b1857fe5b145b1515610b2557600080fd5b60005433600160a060020a0390811691161480610b5a5750600160a060020a03331660009081526001602052604090205460ff165b1515610b6557600080fd5b6002805461ff0019166102001790557f1cdde67b72a90f19919ac732a437ac2f7a10fc128d28c2a6e525d89ce5cd9d3a60405160405180910390a1565b600c8054600181600116156101000203166002900480601f016020809104026020016040519081016040528092919081815260200182805460018160011615610100020316600290048015610c385780601f10610c0d57610100808354040283529160200191610c38565b820191906000526020600020905b815481529060010190602001808311610c1b57829003601f168201915b505050505081565b600b8054600181600116156101000203166002900480601f016020809104026020016040519081016040528092919081815260200182805460018160011615610100020316600290048015610c385780601f10610c0d57610100808354040283529160200191610c38565b610cb3610e90565b158015610cd557506000600254610100900460ff166003811115610cd357fe5b145b1515610ce057600080fd5b60005433600160a060020a0390811691161480610d155750600160a060020a03331660009081526001602052604090205460ff165b1515610d2057600080fd5b600b818051610d339291602001906114aa565b5050565b60005433600160a060020a0390811691161480610d6c5750600160a060020a03331660009081526001602052604090205460ff165b1515610d7757600080fd5b600160a060020a03166000908152600160208190526040909120805460ff19169091179055565b600073__AddressSet____________________________6318c40249600684846040516020015260405160e060020a63ffffffff85160281526004810192909252600160a060020a0316602482015260440160206040518083038186803b151561060657600080fd5b600054600160a060020a031681565b600073__AddressSet____________________________63913aa6cd6006836040516020015260405160e060020a63ffffffff8416028152600481019190915260240160206040518083038186803b1515610e7057600080fd5b6102c65a03f41515610e8157600080fd5b50505060405180519150505b90565b60025460ff1690565b60005433600160a060020a0390811691161480610ece5750600160a060020a03331660009081526001602052604090205460ff165b1515610ed957600080fd5b6002805460ff191690557f19aad37188a1d3921e29eb3c66acf43d81975e107cb650d58cca878627955fd660405160405180910390a1565b600073__AddressSet____________________________63913aa6cd6003836040516020015260405160e060020a63ffffffff8416028152600481019190915260240160206040518083038186803b1515610e7057600080fd5b600d5460ff1681565b600060028054610100900460ff166003811115610f8d57fe5b14905090565b610f9b610e90565b158015610fbd57506000600254610100900460ff166003811115610fbb57fe5b145b1515610fc857600080fd5b60005433600160a060020a0390811691161480610ffd5750600160a060020a03331660009081526001602052604090205460ff165b151561100857600080fd5b73__AddressSet____________________________63e134066a60038360405160e060020a63ffffffff85160281526004810192909252600160a060020a0316602482015260440160006040518083038186803b1515610ad957600080fd5b61106f610e90565b15801561109157506000600254610100900460ff16600381111561108f57fe5b145b151561109c57600080fd5b60005433600160a060020a03908116911614806110d15750600160a060020a03331660009081526001602052604090205460ff165b15156110dc57600080fd5b73__AddressSet____________________________63f9802f8560068360405160e060020a63ffffffff85160281526004810192909252600160a060020a0316602482015260440160006040518083038186803b1515610ad957600080fd5b600073__AddressSet____________________________6318c40249600384846040516020015260405160e060020a63ffffffff85160281526004810192909252600160a060020a0316602482015260440160206040518083038186803b151561060657600080fd5b6111ac610e90565b1580156111cd575060028054610100900460ff1660038111156111cb57fe5b145b15156111d857600080fd5b60005433600160a060020a039081169116148061120d5750600160a060020a03331660009081526001602052604090205460ff165b151561121857600080fd5b600c81805161122b9291602001906114aa565b507ff9d8c4f7f692590eaf6d41d6160024ffe0ce509fa752efcf47543eb851869cfb60405160405180910390a150565b600190565b60005433600160a060020a0390811691161461127b57600080fd5b600160a060020a038116151561129057600080fd5b600054600160a060020a0380831691167f8be0079c531659141344cd1fd0a4f28419497f9722a3daafe3b4186f6b6457e060405160405180910390a36000805473ffffffffffffffffffffffffffffffffffffffff1916600160a060020a0392909216919091179055565b60005433600160a060020a03908116911614806113305750600160a060020a03331660009081526001602052604090205460ff165b151561133b57600080fd5b6002805460ff191660011790557f0f2e5b6c72c6a4491efd919a9f9a409f324ef0708c11ee57d410c2cb06c0992b60405160405180910390a1565b61137e610e90565b1580156113a057506000600254610100900460ff16600381111561139e57fe5b145b15156113ab57600080fd5b60005433600160a060020a03908116911614806113e05750600160a060020a03331660009081526001602052604090205460ff165b15156113eb57600080fd5b73__AddressSet____________________________63f9802f8560038360405160e060020a63ffffffff85160281526004810192909252600160a060020a0316602482015260440160006040518083038186803b1515610ad957600080fd5b600073__AddressSet____________________________635c2125a7600384846040516020015260405160e060020a63ffffffff85160281526004810192909252602482015260440160206040518083038186803b151561060657600080fd5b828054600181600116156101000203166002900490600052602060002090601f016020900481019282601f106114eb57805160ff1916838001178555611518565b82800160010185558215611518579182015b828111156115185782518255916020019190600101906114fd565b50611524929150611528565b5090565b610e8d91905b80821115611524576000815560010161152e5600a165627a7a72305820a8c188f775ca4ca6db35c25ac2c74911aa66120c548536558942c9c54995f32a0029",
  "source": "// ------------------------------------------------------------------------------\n// This file is part of netvote.\n//\n// netvote is free software: you can redistribute it and/or modify\n// it under the terms of the GNU General Public License as published by\n// the Free Software Foundation, either version 3 of the License, or\n// (at your option) any later version.\n//\n// netvote is distributed in the hope that it will be useful,\n// but WITHOUT ANY WARRANTY; without even the implied warranty of\n// MERCHANTABILITY or FITNESS FOR A PARTICULAR PURPOSE.  See the\n// GNU General Public License for more details.\n//\n// You should have received a copy of the GNU General Public License\n// along with solidity.  If not, see <http://www.gnu.org/licenses/>\n//\n// (c) 2017 netvote contributors.\n//------------------------------------------------------------------------------\n\npragma solidity ^0.4.17;\n\nimport \"./VoteAllowance.sol\";\nimport \"../links/BallotRegistry.sol\";\nimport \"../links/PoolRegistry.sol\";\nimport \"zeppelin-solidity/contracts/ReentrancyGuard.sol\";\n\n\n// Election\n// top-level structure for election\ncontract Election is BallotRegistry, PoolRegistry, ReentrancyGuard {\n\n    event KeyReleased();\n\n    VoteAllowance allowance;\n    address allowanceAccount;\n\n    string public publicKey;\n    string public privateKey;\n    bool public allowVoteUpdates;\n\n    /**\n     * @dev Create an election\n     * @param allowanceAddress address of Netvote VoteAllowance contract\n     * @param acct address of account from whom to deduct votes from\n     * @param allowUpdates allow voters to update votes after voting\n     */\n    function Election(address allowanceAddress, address acct, bool allowUpdates) public {\n        allowance = VoteAllowance(allowanceAddress);\n        allowanceAccount = acct;\n        allowVoteUpdates = allowUpdates;\n    }\n\n    function checkConfig() public constant returns (bool) {\n        //TODO: implement\n        return true;\n    }\n\n    //TODO: instead of from admin, this should be only key writer (specified address)\n    function setPublicKey(string key) public building admin {\n        publicKey = key;\n    }\n\n    //TODO: instead of from admin, this should be only key writer (specified address)\n    function setPrivateKey(string key) public closed admin {\n        privateKey = key;\n        KeyReleased();\n    }\n\n    modifier poolIsAllowed() {\n        require(poolSet.contains(msg.sender));\n        _;\n    }\n\n    function castVote() public voting nonReentrant poolIsAllowed {\n        allowance.deduct(allowanceAccount);\n    }\n}",
  "sourcePath": "/Users/slanders/netvote/elections/contracts/elections/Election.sol",
  "schemaVersion": "1.0.0",
  "updatedAt": "2017-12-04T16:50:28.446Z"
}