{
  "contractName": "ElectionPhaseable",
  "abi": [
    {
      "constant": false,
      "inputs": [],
      "name": "activate",
      "outputs": [],
      "payable": false,
      "stateMutability": "nonpayable",
      "type": "function"
    },
    {
      "constant": false,
      "inputs": [
        {
          "name": "addr",
          "type": "address"
        }
      ],
      "name": "removeAdmin",
      "outputs": [],
      "payable": false,
      "stateMutability": "nonpayable",
      "type": "function"
    },
    {
      "constant": true,
      "inputs": [
        {
          "name": "addr",
          "type": "address"
        }
      ],
      "name": "isAdmin",
      "outputs": [
        {
          "name": "",
          "type": "bool"
        }
      ],
      "payable": false,
      "stateMutability": "view",
      "type": "function"
    },
    {
      "constant": true,
      "inputs": [],
      "name": "electionPhase",
      "outputs": [
        {
          "name": "",
          "type": "uint8"
        }
      ],
      "payable": false,
      "stateMutability": "view",
      "type": "function"
    },
    {
      "constant": false,
      "inputs": [],
      "name": "abort",
      "outputs": [],
      "payable": false,
      "stateMutability": "nonpayable",
      "type": "function"
    },
    {
      "constant": false,
      "inputs": [],
      "name": "close",
      "outputs": [],
      "payable": false,
      "stateMutability": "nonpayable",
      "type": "function"
    },
    {
      "constant": false,
      "inputs": [],
      "name": "removeSelf",
      "outputs": [],
      "payable": false,
      "stateMutability": "nonpayable",
      "type": "function"
    },
    {
      "constant": false,
      "inputs": [
        {
          "name": "addr",
          "type": "address"
        }
      ],
      "name": "addAdmin",
      "outputs": [],
      "payable": false,
      "stateMutability": "nonpayable",
      "type": "function"
    },
    {
      "constant": true,
      "inputs": [],
      "name": "owner",
      "outputs": [
        {
          "name": "",
          "type": "address"
        }
      ],
      "payable": false,
      "stateMutability": "view",
      "type": "function"
    },
    {
      "constant": true,
      "inputs": [],
      "name": "isLocked",
      "outputs": [
        {
          "name": "",
          "type": "bool"
        }
      ],
      "payable": false,
      "stateMutability": "view",
      "type": "function"
    },
    {
      "constant": false,
      "inputs": [],
      "name": "unlock",
      "outputs": [],
      "payable": false,
      "stateMutability": "nonpayable",
      "type": "function"
    },
    {
      "constant": true,
      "inputs": [],
      "name": "isClosed",
      "outputs": [
        {
          "name": "",
          "type": "bool"
        }
      ],
      "payable": false,
      "stateMutability": "view",
      "type": "function"
    },
    {
      "constant": true,
      "inputs": [],
      "name": "checkConfig",
      "outputs": [
        {
          "name": "",
          "type": "bool"
        }
      ],
      "payable": false,
      "stateMutability": "view",
      "type": "function"
    },
    {
      "constant": false,
      "inputs": [
        {
          "name": "newOwner",
          "type": "address"
        }
      ],
      "name": "transferOwnership",
      "outputs": [],
      "payable": false,
      "stateMutability": "nonpayable",
      "type": "function"
    },
    {
      "constant": false,
      "inputs": [],
      "name": "lock",
      "outputs": [],
      "payable": false,
      "stateMutability": "nonpayable",
      "type": "function"
    },
    {
      "anonymous": false,
      "inputs": [],
      "name": "Closed",
      "type": "event"
    },
    {
      "anonymous": false,
      "inputs": [],
      "name": "Activated",
      "type": "event"
    },
    {
      "anonymous": false,
      "inputs": [],
      "name": "Aborted",
      "type": "event"
    },
    {
      "anonymous": false,
      "inputs": [],
      "name": "Locked",
      "type": "event"
    },
    {
      "anonymous": false,
      "inputs": [],
      "name": "Unlocked",
      "type": "event"
    },
    {
      "anonymous": false,
      "inputs": [
        {
          "indexed": true,
          "name": "previousOwner",
          "type": "address"
        },
        {
          "indexed": true,
          "name": "newOwner",
          "type": "address"
        }
      ],
      "name": "OwnershipTransferred",
      "type": "event"
    }
  ],
  "bytecode": "0x60606040526000600260006101000a81548160ff0219169083151502179055506000600260016101000a81548160ff0219169083600381111561003e57fe5b0217905550336000806101000a81548173ffffffffffffffffffffffffffffffffffffffff021916908373ffffffffffffffffffffffffffffffffffffffff160217905550610af3806100926000396000f3006060604052600436106100db576000357c0100000000000000000000000000000000000000000000000000000000900463ffffffff1680630f15f4c0146100e05780631785f53c146100f557806324d7806c1461012e578063265050b61461017f57806335a063b4146101b657806343d726d6146101cb5780635e898dac146101e057806370480275146101f55780638da5cb5b1461022e578063a4e2d63414610283578063a69df4b5146102b0578063c2b6b58c146102c5578063f098fe47146102f2578063f2fde38b1461031f578063f83d08ba14610358575b600080fd5b34156100eb57600080fd5b6100f361036d565b005b341561010057600080fd5b61012c600480803573ffffffffffffffffffffffffffffffffffffffff1690602001909190505061042b565b005b341561013957600080fd5b610165600480803573ffffffffffffffffffffffffffffffffffffffff169060200190919050506104e1565b604051808215151515815260200191505060405180910390f35b341561018a57600080fd5b6101926105c6565b604051808260038111156101a257fe5b60ff16815260200191505060405180910390f35b34156101c157600080fd5b6101c96105d9565b005b34156101d657600080fd5b6101de61063f565b005b34156101eb57600080fd5b6101f36106e9565b005b341561020057600080fd5b61022c600480803573ffffffffffffffffffffffffffffffffffffffff16906020019091905050610757565b005b341561023957600080fd5b61024161080c565b604051808273ffffffffffffffffffffffffffffffffffffffff1673ffffffffffffffffffffffffffffffffffffffff16815260200191505060405180910390f35b341561028e57600080fd5b610296610831565b604051808215151515815260200191505060405180910390f35b34156102bb57600080fd5b6102c3610848565b005b34156102d057600080fd5b6102d86108c0565b604051808215151515815260200191505060405180910390f35b34156102fd57600080fd5b6103056108f0565b604051808215151515815260200191505060405180910390f35b341561032a57600080fd5b610356600480803573ffffffffffffffffffffffffffffffffffffffff169060200190919050506108f9565b005b341561036357600080fd5b61036b610a4e565b005b610375610831565b1580156103a757506000600381111561038a57fe5b600260019054906101000a900460ff1660038111156103a557fe5b145b15156103b257600080fd5b6103bb336104e1565b15156103c657600080fd5b6103ce6108f0565b15156103d957600080fd5b6001600260016101000a81548160ff021916908360038111156103f857fe5b02179055507fed1cd0670ee0c0017f550451a038818c696d0b6a9d6ce5b369e44275573cf9b060405160405180910390a1565b6000809054906101000a900473ffffffffffffffffffffffffffffffffffffffff1673ffffffffffffffffffffffffffffffffffffffff163373ffffffffffffffffffffffffffffffffffffffff1614151561048657600080fd5b6000600160008373ffffffffffffffffffffffffffffffffffffffff1673ffffffffffffffffffffffffffffffffffffffff16815260200190815260200160002060006101000a81548160ff02191690831515021790555050565b60008073ffffffffffffffffffffffffffffffffffffffff168273ffffffffffffffffffffffffffffffffffffffff16141580156105bf57506000809054906101000a900473ffffffffffffffffffffffffffffffffffffffff1673ffffffffffffffffffffffffffffffffffffffff168273ffffffffffffffffffffffffffffffffffffffff1614806105be5750600160008373ffffffffffffffffffffffffffffffffffffffff1673ffffffffffffffffffffffffffffffffffffffff16815260200190815260200160002060009054906101000a900460ff165b5b9050919050565b600260019054906101000a900460ff1681565b6105e2336104e1565b15156105ed57600080fd5b6003600260016101000a81548160ff0219169083600381111561060c57fe5b02179055507f72c874aeff0b183a56e2b79c71b46e1aed4dee5e09862134b8821ba2fddbf8bf60405160405180910390a1565b610647610831565b15801561067957506001600381111561065c57fe5b600260019054906101000a900460ff16600381111561067757fe5b145b151561068457600080fd5b61068d336104e1565b151561069857600080fd5b60028060016101000a81548160ff021916908360038111156106b657fe5b02179055507f1cdde67b72a90f19919ac732a437ac2f7a10fc128d28c2a6e525d89ce5cd9d3a60405160405180910390a1565b6106f2336104e1565b15156106fd57600080fd5b6000600160003373ffffffffffffffffffffffffffffffffffffffff1673ffffffffffffffffffffffffffffffffffffffff16815260200190815260200160002060006101000a81548160ff021916908315150217905550565b6000809054906101000a900473ffffffffffffffffffffffffffffffffffffffff1673ffffffffffffffffffffffffffffffffffffffff163373ffffffffffffffffffffffffffffffffffffffff161415156107b257600080fd5b60018060008373ffffffffffffffffffffffffffffffffffffffff1673ffffffffffffffffffffffffffffffffffffffff16815260200190815260200160002060006101000a81548160ff02191690831515021790555050565b6000809054906101000a900473ffffffffffffffffffffffffffffffffffffffff1681565b6000600260009054906101000a900460ff16905090565b610851336104e1565b151561085c57600080fd5b600260009054906101000a900460ff16151561087757600080fd5b6000600260006101000a81548160ff0219169083151502179055507f19aad37188a1d3921e29eb3c66acf43d81975e107cb650d58cca878627955fd660405160405180910390a1565b6000600260038111156108cf57fe5b600260019054906101000a900460ff1660038111156108ea57fe5b14905090565b60006001905090565b6000809054906101000a900473ffffffffffffffffffffffffffffffffffffffff1673ffffffffffffffffffffffffffffffffffffffff163373ffffffffffffffffffffffffffffffffffffffff1614151561095457600080fd5b600073ffffffffffffffffffffffffffffffffffffffff168173ffffffffffffffffffffffffffffffffffffffff161415151561099057600080fd5b8073ffffffffffffffffffffffffffffffffffffffff166000809054906101000a900473ffffffffffffffffffffffffffffffffffffffff1673ffffffffffffffffffffffffffffffffffffffff167f8be0079c531659141344cd1fd0a4f28419497f9722a3daafe3b4186f6b6457e060405160405180910390a3806000806101000a81548173ffffffffffffffffffffffffffffffffffffffff021916908373ffffffffffffffffffffffffffffffffffffffff16021790555050565b610a57336104e1565b1515610a6257600080fd5b600260009054906101000a900460ff16151515610a7e57600080fd5b6001600260006101000a81548160ff0219169083151502179055507f0f2e5b6c72c6a4491efd919a9f9a409f324ef0708c11ee57d410c2cb06c0992b60405160405180910390a15600a165627a7a72305820fc59d209ceec00a385aeeb8f6028aae9e3b45bb4f8fd9a5bdf7103269abe18560029",
  "source": "// ------------------------------------------------------------------------------\n// This file is part of netvote.\n//\n// netvote is free software: you can redistribute it and/or modify\n// it under the terms of the GNU General Public License as published by\n// the Free Software Foundation, either version 3 of the License, or\n// (at your option) any later version.\n//\n// netvote is distributed in the hope that it will be useful,\n// but WITHOUT ANY WARRANTY; without even the implied warranty of\n// MERCHANTABILITY or FITNESS FOR A PARTICULAR PURPOSE.  See the\n// GNU General Public License for more details.\n//\n// You should have received a copy of the GNU General Public License\n// along with solidity.  If not, see <http://www.gnu.org/licenses/>\n//\n// (c) 2017 netvote contributors.\n//------------------------------------------------------------------------------\n\npragma solidity ^0.4.17;\n\nimport \"./Lockable.sol\";\n\n\n/**\n * @title ElectionPhaseable\n * @dev State machine for election contracts.\n * Building = while building the election\n * Voting = votes are coming in (no changes allowed)\n * Closed = votes may no longer arrive\n * Aborted = admin determined there was a problem and all activities must stop\n */\ncontract ElectionPhaseable is Lockable {\n    event Closed();\n    event Activated();\n    event Aborted();\n\n    ElectionPhase public electionPhase = ElectionPhase.Building;\n\n    enum ElectionPhase {\n        Building,\n        Voting,\n        Closed,\n        Aborted\n    }\n\n    modifier building() {\n        require(!isLocked() && electionPhase == ElectionPhase.Building);\n        _;\n    }\n\n    modifier voting() {\n        require(!isLocked() && electionPhase == ElectionPhase.Voting);\n        _;\n    }\n\n    modifier closed() {\n        require(!isLocked() && electionPhase == ElectionPhase.Closed);\n        _;\n    }\n\n    function isClosed() public constant returns (bool) {\n        return electionPhase == ElectionPhase.Closed;\n    }\n\n    function checkConfig() public constant returns (bool) {\n        //override in other contracts if there are verifications pre-activation\n        return true;\n    }\n\n    function activate() public building admin {\n        require(checkConfig());\n        electionPhase = ElectionPhase.Voting;\n        Activated();\n    }\n\n    function close() public voting admin {\n        electionPhase = ElectionPhase.Closed;\n        Closed();\n    }\n\n    function abort() public admin {\n        electionPhase = ElectionPhase.Aborted;\n        Aborted();\n    }\n}",
  "sourcePath": "/Users/slanders/netvote/elections-solidity/contracts/state/ElectionPhaseable.sol",
  "compiler": {
    "name": "solc",
    "version": "0.4.18+commit.9cf6e910.Emscripten.clang"
  },
  "schemaVersion": "1.0.1",
  "updatedAt": "2018-01-02T21:49:53.408Z"
}