{
  "contractName": "Lockable",
  "abi": [
    {
      "constant": false,
      "inputs": [
        {
          "name": "addr",
          "type": "address"
        }
      ],
      "name": "removeAdmin",
      "outputs": [],
      "payable": false,
      "stateMutability": "nonpayable",
      "type": "function"
    },
    {
      "constant": false,
      "inputs": [
        {
          "name": "addr",
          "type": "address"
        }
      ],
      "name": "addAdmin",
      "outputs": [],
      "payable": false,
      "stateMutability": "nonpayable",
      "type": "function"
    },
    {
      "constant": true,
      "inputs": [],
      "name": "owner",
      "outputs": [
        {
          "name": "",
          "type": "address"
        }
      ],
      "payable": false,
      "stateMutability": "view",
      "type": "function"
    },
    {
      "constant": true,
      "inputs": [],
      "name": "isLocked",
      "outputs": [
        {
          "name": "",
          "type": "bool"
        }
      ],
      "payable": false,
      "stateMutability": "view",
      "type": "function"
    },
    {
      "constant": false,
      "inputs": [],
      "name": "unlock",
      "outputs": [],
      "payable": false,
      "stateMutability": "nonpayable",
      "type": "function"
    },
    {
      "constant": false,
      "inputs": [
        {
          "name": "newOwner",
          "type": "address"
        }
      ],
      "name": "transferOwnership",
      "outputs": [],
      "payable": false,
      "stateMutability": "nonpayable",
      "type": "function"
    },
    {
      "constant": false,
      "inputs": [],
      "name": "lock",
      "outputs": [],
      "payable": false,
      "stateMutability": "nonpayable",
      "type": "function"
    },
    {
      "anonymous": false,
      "inputs": [],
      "name": "Locked",
      "type": "event"
    },
    {
      "anonymous": false,
      "inputs": [],
      "name": "Unlocked",
      "type": "event"
    },
    {
      "anonymous": false,
      "inputs": [
        {
          "indexed": true,
          "name": "previousOwner",
          "type": "address"
        },
        {
          "indexed": true,
          "name": "newOwner",
          "type": "address"
        }
      ],
      "name": "OwnershipTransferred",
      "type": "event"
    }
  ],
  "bytecode": "0x60606040526002805460ff1916905560008054600160a060020a033316600160a060020a03199091161790556103fa8061003a6000396000f300606060405236156100805763ffffffff7c01000000000000000000000000000000000000000000000000000000006000350416631785f53c811461008557806370480275146100a65780638da5cb5b146100c5578063a4e2d634146100f4578063a69df4b51461011b578063f2fde38b1461012e578063f83d08ba1461014d575b600080fd5b341561009057600080fd5b6100a4600160a060020a0360043516610160565b005b34156100b157600080fd5b6100a4600160a060020a03600435166101c1565b34156100d057600080fd5b6100d8610228565b604051600160a060020a03909116815260200160405180910390f35b34156100ff57600080fd5b610107610237565b604051901515815260200160405180910390f35b341561012657600080fd5b6100a4610240565b341561013957600080fd5b6100a4600160a060020a03600435166102b8565b341561015857600080fd5b6100a4610353565b60005433600160a060020a03908116911614806101955750600160a060020a03331660009081526001602052604090205460ff165b15156101a057600080fd5b600160a060020a03166000908152600160205260409020805460ff19169055565b60005433600160a060020a03908116911614806101f65750600160a060020a03331660009081526001602052604090205460ff165b151561020157600080fd5b600160a060020a03166000908152600160208190526040909120805460ff19169091179055565b600054600160a060020a031681565b60025460ff1690565b60005433600160a060020a03908116911614806102755750600160a060020a03331660009081526001602052604090205460ff165b151561028057600080fd5b6002805460ff191690557f19aad37188a1d3921e29eb3c66acf43d81975e107cb650d58cca878627955fd660405160405180910390a1565b60005433600160a060020a039081169116146102d357600080fd5b600160a060020a03811615156102e857600080fd5b600054600160a060020a0380831691167f8be0079c531659141344cd1fd0a4f28419497f9722a3daafe3b4186f6b6457e060405160405180910390a36000805473ffffffffffffffffffffffffffffffffffffffff1916600160a060020a0392909216919091179055565b60005433600160a060020a03908116911614806103885750600160a060020a03331660009081526001602052604090205460ff165b151561039357600080fd5b6002805460ff191660011790557f0f2e5b6c72c6a4491efd919a9f9a409f324ef0708c11ee57d410c2cb06c0992b60405160405180910390a15600a165627a7a723058207e4c51a3f8725786b53bfc91772fda3e23ad8d4bb62a51f5afcf06a34f2bd84f0029",
  "source": "// ------------------------------------------------------------------------------\n// This file is part of netvote.\n//\n// netvote is free software: you can redistribute it and/or modify\n// it under the terms of the GNU General Public License as published by\n// the Free Software Foundation, either version 3 of the License, or\n// (at your option) any later version.\n//\n// netvote is distributed in the hope that it will be useful,\n// but WITHOUT ANY WARRANTY; without even the implied warranty of\n// MERCHANTABILITY or FITNESS FOR A PARTICULAR PURPOSE.  See the\n// GNU General Public License for more details.\n//\n// You should have received a copy of the GNU General Public License\n// along with solidity.  If not, see <http://www.gnu.org/licenses/>\n//\n// (c) 2017 netvote contributors.\n//------------------------------------------------------------------------------\n\npragma solidity ^0.4.17;\n\nimport \"../auth/Adminable.sol\";\n\n\n// Lockable\n// a global failsafe that allows an owner of a contract to temporarily lock the contract\ncontract Lockable is Adminable {\n    event Locked();\n    event Unlocked();\n\n    bool lockState = false;\n\n    modifier locked() {\n        require(lockState);\n        _;\n    }\n\n    modifier unlocked() {\n        require(!lockState);\n        _;\n    }\n\n    function isLocked() public constant returns (bool) {\n        return lockState;\n    }\n\n    function lock() public admin {\n        lockState = true;\n        Locked();\n    }\n\n    function unlock() public admin {\n        lockState = false;\n        Unlocked();\n    }\n}",
  "sourcePath": "/Users/slanders/netvote/elections/contracts/state/Lockable.sol",
  "schemaVersion": "1.0.0",
  "updatedAt": "2017-12-04T16:50:26.001Z"
}