{
  "contractName": "RegistrationPool",
  "abi": [
    {
      "constant": false,
      "inputs": [],
      "name": "activate",
      "outputs": [],
      "payable": false,
      "stateMutability": "nonpayable",
      "type": "function"
    },
    {
      "constant": true,
      "inputs": [
        {
          "name": "b",
          "type": "address"
        }
      ],
      "name": "ballotExists",
      "outputs": [
        {
          "name": "",
          "type": "bool"
        }
      ],
      "payable": false,
      "stateMutability": "view",
      "type": "function"
    },
    {
      "constant": false,
      "inputs": [
        {
          "name": "addr",
          "type": "address"
        }
      ],
      "name": "removeAdmin",
      "outputs": [],
      "payable": false,
      "stateMutability": "nonpayable",
      "type": "function"
    },
    {
      "constant": true,
      "inputs": [],
      "name": "electionPhase",
      "outputs": [
        {
          "name": "",
          "type": "uint8"
        }
      ],
      "payable": false,
      "stateMutability": "view",
      "type": "function"
    },
    {
      "constant": false,
      "inputs": [
        {
          "name": "v",
          "type": "address"
        }
      ],
      "name": "unregister",
      "outputs": [],
      "payable": false,
      "stateMutability": "nonpayable",
      "type": "function"
    },
    {
      "constant": false,
      "inputs": [],
      "name": "abort",
      "outputs": [],
      "payable": false,
      "stateMutability": "nonpayable",
      "type": "function"
    },
    {
      "constant": true,
      "inputs": [],
      "name": "checkBallots",
      "outputs": [
        {
          "name": "",
          "type": "bool"
        }
      ],
      "payable": false,
      "stateMutability": "view",
      "type": "function"
    },
    {
      "constant": false,
      "inputs": [],
      "name": "close",
      "outputs": [],
      "payable": false,
      "stateMutability": "nonpayable",
      "type": "function"
    },
    {
      "constant": false,
      "inputs": [
        {
          "name": "v",
          "type": "address"
        }
      ],
      "name": "register",
      "outputs": [],
      "payable": false,
      "stateMutability": "nonpayable",
      "type": "function"
    },
    {
      "constant": true,
      "inputs": [],
      "name": "election",
      "outputs": [
        {
          "name": "",
          "type": "address"
        }
      ],
      "payable": false,
      "stateMutability": "view",
      "type": "function"
    },
    {
      "constant": false,
      "inputs": [
        {
          "name": "addr",
          "type": "address"
        }
      ],
      "name": "addAdmin",
      "outputs": [],
      "payable": false,
      "stateMutability": "nonpayable",
      "type": "function"
    },
    {
      "constant": true,
      "inputs": [],
      "name": "owner",
      "outputs": [
        {
          "name": "",
          "type": "address"
        }
      ],
      "payable": false,
      "stateMutability": "view",
      "type": "function"
    },
    {
      "constant": false,
      "inputs": [
        {
          "name": "vote",
          "type": "string"
        }
      ],
      "name": "updateVote",
      "outputs": [],
      "payable": false,
      "stateMutability": "nonpayable",
      "type": "function"
    },
    {
      "constant": false,
      "inputs": [
        {
          "name": "vote",
          "type": "string"
        }
      ],
      "name": "castVote",
      "outputs": [],
      "payable": false,
      "stateMutability": "nonpayable",
      "type": "function"
    },
    {
      "constant": true,
      "inputs": [],
      "name": "isLocked",
      "outputs": [
        {
          "name": "",
          "type": "bool"
        }
      ],
      "payable": false,
      "stateMutability": "view",
      "type": "function"
    },
    {
      "constant": false,
      "inputs": [],
      "name": "unlock",
      "outputs": [],
      "payable": false,
      "stateMutability": "nonpayable",
      "type": "function"
    },
    {
      "constant": true,
      "inputs": [],
      "name": "getBallotCount",
      "outputs": [
        {
          "name": "",
          "type": "uint256"
        }
      ],
      "payable": false,
      "stateMutability": "view",
      "type": "function"
    },
    {
      "constant": true,
      "inputs": [],
      "name": "isClosed",
      "outputs": [
        {
          "name": "",
          "type": "bool"
        }
      ],
      "payable": false,
      "stateMutability": "view",
      "type": "function"
    },
    {
      "constant": true,
      "inputs": [],
      "name": "checkElection",
      "outputs": [
        {
          "name": "",
          "type": "bool"
        }
      ],
      "payable": false,
      "stateMutability": "view",
      "type": "function"
    },
    {
      "constant": false,
      "inputs": [
        {
          "name": "b",
          "type": "address"
        }
      ],
      "name": "removeBallot",
      "outputs": [],
      "payable": false,
      "stateMutability": "nonpayable",
      "type": "function"
    },
    {
      "constant": true,
      "inputs": [
        {
          "name": "",
          "type": "address"
        }
      ],
      "name": "votes",
      "outputs": [
        {
          "name": "",
          "type": "string"
        }
      ],
      "payable": false,
      "stateMutability": "view",
      "type": "function"
    },
    {
      "constant": true,
      "inputs": [
        {
          "name": "b",
          "type": "address"
        }
      ],
      "name": "getBallotIndex",
      "outputs": [
        {
          "name": "",
          "type": "uint256"
        }
      ],
      "payable": false,
      "stateMutability": "view",
      "type": "function"
    },
    {
      "constant": true,
      "inputs": [],
      "name": "checkConfig",
      "outputs": [
        {
          "name": "",
          "type": "bool"
        }
      ],
      "payable": false,
      "stateMutability": "view",
      "type": "function"
    },
    {
      "constant": false,
      "inputs": [
        {
          "name": "newOwner",
          "type": "address"
        }
      ],
      "name": "transferOwnership",
      "outputs": [],
      "payable": false,
      "stateMutability": "nonpayable",
      "type": "function"
    },
    {
      "constant": false,
      "inputs": [],
      "name": "lock",
      "outputs": [],
      "payable": false,
      "stateMutability": "nonpayable",
      "type": "function"
    },
    {
      "constant": false,
      "inputs": [
        {
          "name": "b",
          "type": "address"
        }
      ],
      "name": "addBallot",
      "outputs": [],
      "payable": false,
      "stateMutability": "nonpayable",
      "type": "function"
    },
    {
      "constant": true,
      "inputs": [
        {
          "name": "index",
          "type": "uint256"
        }
      ],
      "name": "getBallot",
      "outputs": [
        {
          "name": "",
          "type": "address"
        }
      ],
      "payable": false,
      "stateMutability": "view",
      "type": "function"
    },
    {
      "inputs": [
        {
          "name": "el",
          "type": "address"
        },
        {
          "name": "reg",
          "type": "address"
        }
      ],
      "payable": false,
      "stateMutability": "nonpayable",
      "type": "constructor"
    },
    {
      "anonymous": false,
      "inputs": [
        {
          "indexed": false,
          "name": "voter",
          "type": "address"
        }
      ],
      "name": "Vote",
      "type": "event"
    },
    {
      "anonymous": false,
      "inputs": [
        {
          "indexed": false,
          "name": "voter",
          "type": "address"
        }
      ],
      "name": "UpdateVote",
      "type": "event"
    },
    {
      "anonymous": false,
      "inputs": [
        {
          "indexed": false,
          "name": "voter",
          "type": "address"
        }
      ],
      "name": "RegisterVoter",
      "type": "event"
    },
    {
      "anonymous": false,
      "inputs": [
        {
          "indexed": false,
          "name": "voter",
          "type": "address"
        }
      ],
      "name": "UnregisterVoter",
      "type": "event"
    },
    {
      "anonymous": false,
      "inputs": [],
      "name": "Closed",
      "type": "event"
    },
    {
      "anonymous": false,
      "inputs": [],
      "name": "Activated",
      "type": "event"
    },
    {
      "anonymous": false,
      "inputs": [],
      "name": "Aborted",
      "type": "event"
    },
    {
      "anonymous": false,
      "inputs": [],
      "name": "Locked",
      "type": "event"
    },
    {
      "anonymous": false,
      "inputs": [],
      "name": "Unlocked",
      "type": "event"
    },
    {
      "anonymous": false,
      "inputs": [
        {
          "indexed": true,
          "name": "previousOwner",
          "type": "address"
        },
        {
          "indexed": true,
          "name": "newOwner",
          "type": "address"
        }
      ],
      "name": "OwnershipTransferred",
      "type": "event"
    }
  ],
  "bytecode": "0x60606040526000600260006101000a81548160ff0219169083151502179055506000600260016101000a81548160ff0219169083600381111561003e57fe5b0217905550341561004e57600080fd5b604051604080612e2483398101604052808051906020019091908051906020019091905050336000806101000a81548173ffffffffffffffffffffffffffffffffffffffff021916908373ffffffffffffffffffffffffffffffffffffffff16021790555081600660006101000a81548173ffffffffffffffffffffffffffffffffffffffff021916908373ffffffffffffffffffffffffffffffffffffffff16021790555080600b60006101000a81548173ffffffffffffffffffffffffffffffffffffffff021916908373ffffffffffffffffffffffffffffffffffffffff1602179055505050612cde806101466000396000f30060606040526004361061015f576000357c0100000000000000000000000000000000000000000000000000000000900463ffffffff1680630f15f4c014610164578063138b1fa0146101795780631785f53c146101ca578063265050b6146102035780632ec2c2461461023a57806335a063b4146102735780633abfb2e91461028857806343d726d6146102b55780634420e486146102ca5780634b1d3ede1461030357806370480275146103585780638da5cb5b1461039157806392642c4b146103e65780639cc2d99314610443578063a4e2d634146104a0578063a69df4b5146104cd578063b4741495146104e2578063c2b6b58c1461050b578063d1bdd4d314610538578063d71c677214610565578063d8bff5a51461059e578063db30eafb14610650578063f098fe471461069d578063f2fde38b146106ca578063f83d08ba14610703578063f8c74afa14610718578063f9d5ee7514610751575b600080fd5b341561016f57600080fd5b6101776107b4565b005b341561018457600080fd5b6101b0600480803573ffffffffffffffffffffffffffffffffffffffff16906020019091905050610a5a565b604051808215151515815260200191505060405180910390f35b34156101d557600080fd5b610201600480803573ffffffffffffffffffffffffffffffffffffffff16906020019091905050610b28565b005b341561020e57600080fd5b610216610c32565b6040518082600381111561022657fe5b60ff16815260200191505060405180910390f35b341561024557600080fd5b610271600480803573ffffffffffffffffffffffffffffffffffffffff16906020019091905050610c45565b005b341561027e57600080fd5b610286610e57565b005b341561029357600080fd5b61029b610f58565b604051808215151515815260200191505060405180910390f35b34156102c057600080fd5b6102c861121a565b005b34156102d557600080fd5b610301600480803573ffffffffffffffffffffffffffffffffffffffff1690602001909190505061135f565b005b341561030e57600080fd5b6103166114d2565b604051808273ffffffffffffffffffffffffffffffffffffffff1673ffffffffffffffffffffffffffffffffffffffff16815260200191505060405180910390f35b341561036357600080fd5b61038f600480803573ffffffffffffffffffffffffffffffffffffffff169060200190919050506114f8565b005b341561039c57600080fd5b6103a4611601565b604051808273ffffffffffffffffffffffffffffffffffffffff1673ffffffffffffffffffffffffffffffffffffffff16815260200191505060405180910390f35b34156103f157600080fd5b610441600480803590602001908201803590602001908080601f01602080910402602001604051908101604052809392919081815260200183838082843782019150505050505091905050611626565b005b341561044e57600080fd5b61049e600480803590602001908201803590602001908080601f01602080910402602001604051908101604052809392919081815260200183838082843782019150505050505091905050611831565b005b34156104ab57600080fd5b6104b3611bdc565b604051808215151515815260200191505060405180910390f35b34156104d857600080fd5b6104e0611bf3565b005b34156104ed57600080fd5b6104f5611ceb565b6040518082815260200191505060405180910390f35b341561051657600080fd5b61051e611d83565b604051808215151515815260200191505060405180910390f35b341561054357600080fd5b61054b611db3565b604051808215151515815260200191505060405180910390f35b341561057057600080fd5b61059c600480803573ffffffffffffffffffffffffffffffffffffffff169060200190919050506122a4565b005b34156105a957600080fd5b6105d5600480803573ffffffffffffffffffffffffffffffffffffffff16906020019091905050612450565b6040518080602001828103825283818151815260200191508051906020019080838360005b838110156106155780820151818401526020810190506105fa565b50505050905090810190601f1680156106425780820380516001836020036101000a031916815260200191505b509250505060405180910390f35b341561065b57600080fd5b610687600480803573ffffffffffffffffffffffffffffffffffffffff16906020019091905050612500565b6040518082815260200191505060405180910390f35b34156106a857600080fd5b6106b06125ce565b604051808215151515815260200191505060405180910390f35b34156106d557600080fd5b610701600480803573ffffffffffffffffffffffffffffffffffffffff169060200190919050506125ed565b005b341561070e57600080fd5b610716612742565b005b341561072357600080fd5b61074f600480803573ffffffffffffffffffffffffffffffffffffffff1690602001909190505061283a565b005b341561075c57600080fd5b61077260048080359060200190919050506129e6565b604051808273ffffffffffffffffffffffffffffffffffffffff1673ffffffffffffffffffffffffffffffffffffffff16815260200191505060405180910390f35b60006107be611bdc565b1580156107f05750600060038111156107d357fe5b600260019054906101000a900460ff1660038111156107ee57fe5b145b15156107fb57600080fd5b6000809054906101000a900473ffffffffffffffffffffffffffffffffffffffff1673ffffffffffffffffffffffffffffffffffffffff163373ffffffffffffffffffffffffffffffffffffffff16148061089f5750600160003373ffffffffffffffffffffffffffffffffffffffff1673ffffffffffffffffffffffffffffffffffffffff16815260200190815260200160002060009054906101000a900460ff165b15156108aa57600080fd5b600090505b600373__AddressSet____________________________63913aa6cd90916000604051602001526040518263ffffffff167c01000000000000000000000000000000000000000000000000000000000281526004018082815260200191505060206040518083038186803b151561092557600080fd5b6102c65a03f4151561093657600080fd5b50505060405180519050811015610a4f57600a805480600101828161095b9190612be1565b91600052602060002090016000600373__AddressSet____________________________635c2125a79091866000604051602001526040518363ffffffff167c0100000000000000000000000000000000000000000000000000000000028152600401808381526020018281526020019250505060206040518083038186803b15156109e657600080fd5b6102c65a03f415156109f757600080fd5b50505060405180519050909190916101000a81548173ffffffffffffffffffffffffffffffffffffffff021916908373ffffffffffffffffffffffffffffffffffffffff1602179055505080806001019150506108af565b610a57612a88565b50565b6000600373__AddressSet____________________________63758241e09091846000604051602001526040518363ffffffff167c0100000000000000000000000000000000000000000000000000000000028152600401808381526020018273ffffffffffffffffffffffffffffffffffffffff1673ffffffffffffffffffffffffffffffffffffffff1681526020019250505060206040518083038186803b1515610b0657600080fd5b6102c65a03f41515610b1757600080fd5b505050604051805190509050919050565b6000809054906101000a900473ffffffffffffffffffffffffffffffffffffffff1673ffffffffffffffffffffffffffffffffffffffff163373ffffffffffffffffffffffffffffffffffffffff161480610bcc5750600160003373ffffffffffffffffffffffffffffffffffffffff1673ffffffffffffffffffffffffffffffffffffffff16815260200190815260200160002060009054906101000a900460ff165b1515610bd757600080fd5b6000600160008373ffffffffffffffffffffffffffffffffffffffff1673ffffffffffffffffffffffffffffffffffffffff16815260200190815260200160002060006101000a81548160ff02191690831515021790555050565b600260019054906101000a900460ff1681565b6000809054906101000a900473ffffffffffffffffffffffffffffffffffffffff1673ffffffffffffffffffffffffffffffffffffffff163373ffffffffffffffffffffffffffffffffffffffff161480610ce95750600160003373ffffffffffffffffffffffffffffffffffffffff1673ffffffffffffffffffffffffffffffffffffffff16815260200190815260200160002060009054906101000a900460ff165b1515610cf457600080fd5b600960008273ffffffffffffffffffffffffffffffffffffffff1673ffffffffffffffffffffffffffffffffffffffff16815260200190815260200160002060009054906101000a900460ff168015610d975750600860008273ffffffffffffffffffffffffffffffffffffffff1673ffffffffffffffffffffffffffffffffffffffff16815260200190815260200160002060009054906101000a900460ff16155b1515610da257600080fd5b600960008273ffffffffffffffffffffffffffffffffffffffff1673ffffffffffffffffffffffffffffffffffffffff16815260200190815260200160002060006101000a81549060ff02191690557f4578b342355f8db2b56526115fcc8d0254c12796bfd1055a4eead24cea1764cc81604051808273ffffffffffffffffffffffffffffffffffffffff1673ffffffffffffffffffffffffffffffffffffffff16815260200191505060405180910390a150565b6000809054906101000a900473ffffffffffffffffffffffffffffffffffffffff1673ffffffffffffffffffffffffffffffffffffffff163373ffffffffffffffffffffffffffffffffffffffff161480610efb5750600160003373ffffffffffffffffffffffffffffffffffffffff1673ffffffffffffffffffffffffffffffffffffffff16815260200190815260200160002060009054906101000a900460ff165b1515610f0657600080fd5b6003600260016101000a81548160ff02191690836003811115610f2557fe5b02179055507f72c874aeff0b183a56e2b79c71b46e1aed4dee5e09862134b8821ba2fddbf8bf60405160405180910390a1565b600080600080600373__AddressSet____________________________63913aa6cd90916000604051602001526040518263ffffffff167c01000000000000000000000000000000000000000000000000000000000281526004018082815260200191505060206040518083038186803b1515610fd457600080fd5b6102c65a03f41515610fe557600080fd5b505050604051805190501415610ffe5760009250611215565b600091505b600373__AddressSet____________________________63913aa6cd90916000604051602001526040518263ffffffff167c01000000000000000000000000000000000000000000000000000000000281526004018082815260200191505060206040518083038186803b151561107957600080fd5b6102c65a03f4151561108a57600080fd5b5050506040518051905082101561121057600373__AddressSet____________________________635c2125a79091846000604051602001526040518363ffffffff167c0100000000000000000000000000000000000000000000000000000000028152600401808381526020018281526020019250505060206040518083038186803b151561111957600080fd5b6102c65a03f4151561112a57600080fd5b5050506040518051905090508073ffffffffffffffffffffffffffffffffffffffff16631e1c6a07306000604051602001526040518263ffffffff167c0100000000000000000000000000000000000000000000000000000000028152600401808273ffffffffffffffffffffffffffffffffffffffff1673ffffffffffffffffffffffffffffffffffffffff168152602001915050602060405180830381600087803b15156111d957600080fd5b6102c65a03f115156111ea57600080fd5b5050506040518051905015156112035760009250611215565b8180600101925050611003565b600192505b505090565b611222611bdc565b15801561125457506001600381111561123757fe5b600260019054906101000a900460ff16600381111561125257fe5b145b151561125f57600080fd5b6000809054906101000a900473ffffffffffffffffffffffffffffffffffffffff1673ffffffffffffffffffffffffffffffffffffffff163373ffffffffffffffffffffffffffffffffffffffff1614806113035750600160003373ffffffffffffffffffffffffffffffffffffffff1673ffffffffffffffffffffffffffffffffffffffff16815260200190815260200160002060009054906101000a900460ff165b151561130e57600080fd5b60028060016101000a81548160ff0219169083600381111561132c57fe5b02179055507f1cdde67b72a90f19919ac732a437ac2f7a10fc128d28c2a6e525d89ce5cd9d3a60405160405180910390a1565b600b60009054906101000a900473ffffffffffffffffffffffffffffffffffffffff1673ffffffffffffffffffffffffffffffffffffffff163373ffffffffffffffffffffffffffffffffffffffff161415156113bb57600080fd5b600960008273ffffffffffffffffffffffffffffffffffffffff1673ffffffffffffffffffffffffffffffffffffffff16815260200190815260200160002060009054906101000a900460ff1615151561141457600080fd5b6001600960008373ffffffffffffffffffffffffffffffffffffffff1673ffffffffffffffffffffffffffffffffffffffff16815260200190815260200160002060006101000a81548160ff0219169083151502179055507f15fe6f1bc57ee784ec1d747d150facfe23b3d8f21303f37b9c99ff8d2389c82681604051808273ffffffffffffffffffffffffffffffffffffffff1673ffffffffffffffffffffffffffffffffffffffff16815260200191505060405180910390a150565b600660009054906101000a900473ffffffffffffffffffffffffffffffffffffffff1681565b6000809054906101000a900473ffffffffffffffffffffffffffffffffffffffff1673ffffffffffffffffffffffffffffffffffffffff163373ffffffffffffffffffffffffffffffffffffffff16148061159c5750600160003373ffffffffffffffffffffffffffffffffffffffff1673ffffffffffffffffffffffffffffffffffffffff16815260200190815260200160002060009054906101000a900460ff165b15156115a757600080fd5b60018060008373ffffffffffffffffffffffffffffffffffffffff1673ffffffffffffffffffffffffffffffffffffffff16815260200190815260200160002060006101000a81548160ff02191690831515021790555050565b6000809054906101000a900473ffffffffffffffffffffffffffffffffffffffff1681565b61162e611bdc565b15801561166057506001600381111561164357fe5b600260019054906101000a900460ff16600381111561165e57fe5b145b151561166b57600080fd5b600660009054906101000a900473ffffffffffffffffffffffffffffffffffffffff1673ffffffffffffffffffffffffffffffffffffffff1663bf41bf366000604051602001526040518163ffffffff167c0100000000000000000000000000000000000000000000000000000000028152600401602060405180830381600087803b15156116f957600080fd5b6102c65a03f1151561170a57600080fd5b50505060405180519050151561171f57600080fd5b600860003373ffffffffffffffffffffffffffffffffffffffff1673ffffffffffffffffffffffffffffffffffffffff16815260200190815260200160002060009054906101000a900460ff16151561177757600080fd5b80600760003373ffffffffffffffffffffffffffffffffffffffff1673ffffffffffffffffffffffffffffffffffffffff16815260200190815260200160002090805190602001906117ca929190612c0d565b507f207900c36507982d6ee9c85ba6680c12f516a7948d0a974ecdeb36225372511b33604051808273ffffffffffffffffffffffffffffffffffffffff1673ffffffffffffffffffffffffffffffffffffffff16815260200191505060405180910390a150565b600061183b611bdc565b15801561186d57506001600381111561185057fe5b600260019054906101000a900460ff16600381111561186b57fe5b145b151561187857600080fd5b600860003373ffffffffffffffffffffffffffffffffffffffff1673ffffffffffffffffffffffffffffffffffffffff16815260200190815260200160002060009054906101000a900460ff161515156118d157600080fd5b6001600860003373ffffffffffffffffffffffffffffffffffffffff1673ffffffffffffffffffffffffffffffffffffffff16815260200190815260200160002060006101000a81548160ff021916908315150217905550600960003373ffffffffffffffffffffffffffffffffffffffff1673ffffffffffffffffffffffffffffffffffffffff16815260200190815260200160002060009054906101000a900460ff16151561198157600080fd5b81600760003373ffffffffffffffffffffffffffffffffffffffff1673ffffffffffffffffffffffffffffffffffffffff16815260200190815260200160002090805190602001906119d4929190612c0d565b50600090505b600a80549050811015611adc57600a818154811015156119f657fe5b906000526020600020900160009054906101000a900473ffffffffffffffffffffffffffffffffffffffff1673ffffffffffffffffffffffffffffffffffffffff166353358fc4336040518263ffffffff167c0100000000000000000000000000000000000000000000000000000000028152600401808273ffffffffffffffffffffffffffffffffffffffff1673ffffffffffffffffffffffffffffffffffffffff168152602001915050600060405180830381600087803b1515611abb57600080fd5b6102c65a03f11515611acc57600080fd5b50505080806001019150506119da565b600660009054906101000a900473ffffffffffffffffffffffffffffffffffffffff1673ffffffffffffffffffffffffffffffffffffffff16630fb524ce6040518163ffffffff167c0100000000000000000000000000000000000000000000000000000000028152600401600060405180830381600087803b1515611b6157600080fd5b6102c65a03f11515611b7257600080fd5b5050507ff5b08346e1e6b0b55d07ce94e81fcb198d47fbbecfea3b9a476f454c86761ec433604051808273ffffffffffffffffffffffffffffffffffffffff1673ffffffffffffffffffffffffffffffffffffffff16815260200191505060405180910390a15050565b6000600260009054906101000a900460ff16905090565b6000809054906101000a900473ffffffffffffffffffffffffffffffffffffffff1673ffffffffffffffffffffffffffffffffffffffff163373ffffffffffffffffffffffffffffffffffffffff161480611c975750600160003373ffffffffffffffffffffffffffffffffffffffff1673ffffffffffffffffffffffffffffffffffffffff16815260200190815260200160002060009054906101000a900460ff165b1515611ca257600080fd5b6000600260006101000a81548160ff0219169083151502179055507f19aad37188a1d3921e29eb3c66acf43d81975e107cb650d58cca878627955fd660405160405180910390a1565b6000600373__AddressSet____________________________63913aa6cd90916000604051602001526040518263ffffffff167c01000000000000000000000000000000000000000000000000000000000281526004018082815260200191505060206040518083038186803b1515611d6357600080fd5b6102c65a03f41515611d7457600080fd5b50505060405180519050905090565b600060026003811115611d9257fe5b600260019054906101000a900460ff166003811115611dad57fe5b14905090565b600080600073ffffffffffffffffffffffffffffffffffffffff16600660009054906101000a900473ffffffffffffffffffffffffffffffffffffffff1673ffffffffffffffffffffffffffffffffffffffff161415611e1657600091506122a0565b600660009054906101000a900473ffffffffffffffffffffffffffffffffffffffff1673ffffffffffffffffffffffffffffffffffffffff16631e1c6a07306000604051602001526040518263ffffffff167c0100000000000000000000000000000000000000000000000000000000028152600401808273ffffffffffffffffffffffffffffffffffffffff1673ffffffffffffffffffffffffffffffffffffffff168152602001915050602060405180830381600087803b1515611edb57600080fd5b6102c65a03f11515611eec57600080fd5b505050604051805190501515611f0557600091506122a0565b600090505b600373__AddressSet____________________________63913aa6cd90916000604051602001526040518263ffffffff167c01000000000000000000000000000000000000000000000000000000000281526004018082815260200191505060206040518083038186803b1515611f8057600080fd5b6102c65a03f41515611f9157600080fd5b5050506040518051905081101561229b57600373__AddressSet____________________________635c2125a79091836000604051602001526040518363ffffffff167c0100000000000000000000000000000000000000000000000000000000028152600401808381526020018281526020019250505060206040518083038186803b151561202057600080fd5b6102c65a03f4151561203157600080fd5b5050506040518051905073ffffffffffffffffffffffffffffffffffffffff16631e1c6a07306000604051602001526040518263ffffffff167c0100000000000000000000000000000000000000000000000000000000028152600401808273ffffffffffffffffffffffffffffffffffffffff1673ffffffffffffffffffffffffffffffffffffffff168152602001915050602060405180830381600087803b15156120dd57600080fd5b6102c65a03f115156120ee57600080fd5b50505060405180519050151561210757600091506122a0565b600660009054906101000a900473ffffffffffffffffffffffffffffffffffffffff1673ffffffffffffffffffffffffffffffffffffffff1663138b1fa0600373__AddressSet____________________________635c2125a79091856000604051602001526040518363ffffffff167c0100000000000000000000000000000000000000000000000000000000028152600401808381526020018281526020019250505060206040518083038186803b15156121c357600080fd5b6102c65a03f415156121d457600080fd5b505050604051805190506000604051602001526040518263ffffffff167c0100000000000000000000000000000000000000000000000000000000028152600401808273ffffffffffffffffffffffffffffffffffffffff1673ffffffffffffffffffffffffffffffffffffffff168152602001915050602060405180830381600087803b151561226457600080fd5b6102c65a03f1151561227557600080fd5b50505060405180519050151561228e57600091506122a0565b8080600101915050611f0a565b600191505b5090565b6122ac611bdc565b1580156122de5750600060038111156122c157fe5b600260019054906101000a900460ff1660038111156122dc57fe5b145b15156122e957600080fd5b6000809054906101000a900473ffffffffffffffffffffffffffffffffffffffff1673ffffffffffffffffffffffffffffffffffffffff163373ffffffffffffffffffffffffffffffffffffffff16148061238d5750600160003373ffffffffffffffffffffffffffffffffffffffff1673ffffffffffffffffffffffffffffffffffffffff16815260200190815260200160002060009054906101000a900460ff165b151561239857600080fd5b600373__AddressSet____________________________63e134066a9091836040518363ffffffff167c0100000000000000000000000000000000000000000000000000000000028152600401808381526020018273ffffffffffffffffffffffffffffffffffffffff1673ffffffffffffffffffffffffffffffffffffffff1681526020019250505060006040518083038186803b151561243957600080fd5b6102c65a03f4151561244a57600080fd5b50505050565b60076020528060005260406000206000915090508054600181600116156101000203166002900480601f0160208091040260200160405190810160405280929190818152602001828054600181600116156101000203166002900480156124f85780601f106124cd576101008083540402835291602001916124f8565b820191906000526020600020905b8154815290600101906020018083116124db57829003601f168201915b505050505081565b6000600373__AddressSet____________________________6318c402499091846000604051602001526040518363ffffffff167c0100000000000000000000000000000000000000000000000000000000028152600401808381526020018273ffffffffffffffffffffffffffffffffffffffff1673ffffffffffffffffffffffffffffffffffffffff1681526020019250505060206040518083038186803b15156125ac57600080fd5b6102c65a03f415156125bd57600080fd5b505050604051805190509050919050565b60006125d8611db3565b80156125e857506125e7610f58565b5b905090565b6000809054906101000a900473ffffffffffffffffffffffffffffffffffffffff1673ffffffffffffffffffffffffffffffffffffffff163373ffffffffffffffffffffffffffffffffffffffff1614151561264857600080fd5b600073ffffffffffffffffffffffffffffffffffffffff168173ffffffffffffffffffffffffffffffffffffffff161415151561268457600080fd5b8073ffffffffffffffffffffffffffffffffffffffff166000809054906101000a900473ffffffffffffffffffffffffffffffffffffffff1673ffffffffffffffffffffffffffffffffffffffff167f8be0079c531659141344cd1fd0a4f28419497f9722a3daafe3b4186f6b6457e060405160405180910390a3806000806101000a81548173ffffffffffffffffffffffffffffffffffffffff021916908373ffffffffffffffffffffffffffffffffffffffff16021790555050565b6000809054906101000a900473ffffffffffffffffffffffffffffffffffffffff1673ffffffffffffffffffffffffffffffffffffffff163373ffffffffffffffffffffffffffffffffffffffff1614806127e65750600160003373ffffffffffffffffffffffffffffffffffffffff1673ffffffffffffffffffffffffffffffffffffffff16815260200190815260200160002060009054906101000a900460ff165b15156127f157600080fd5b6001600260006101000a81548160ff0219169083151502179055507f0f2e5b6c72c6a4491efd919a9f9a409f324ef0708c11ee57d410c2cb06c0992b60405160405180910390a1565b612842611bdc565b15801561287457506000600381111561285757fe5b600260019054906101000a900460ff16600381111561287257fe5b145b151561287f57600080fd5b6000809054906101000a900473ffffffffffffffffffffffffffffffffffffffff1673ffffffffffffffffffffffffffffffffffffffff163373ffffffffffffffffffffffffffffffffffffffff1614806129235750600160003373ffffffffffffffffffffffffffffffffffffffff1673ffffffffffffffffffffffffffffffffffffffff16815260200190815260200160002060009054906101000a900460ff165b151561292e57600080fd5b600373__AddressSet____________________________63f9802f859091836040518363ffffffff167c0100000000000000000000000000000000000000000000000000000000028152600401808381526020018273ffffffffffffffffffffffffffffffffffffffff1673ffffffffffffffffffffffffffffffffffffffff1681526020019250505060006040518083038186803b15156129cf57600080fd5b6102c65a03f415156129e057600080fd5b50505050565b6000600373__AddressSet____________________________635c2125a79091846000604051602001526040518363ffffffff167c0100000000000000000000000000000000000000000000000000000000028152600401808381526020018281526020019250505060206040518083038186803b1515612a6657600080fd5b6102c65a03f41515612a7757600080fd5b505050604051805190509050919050565b612a90611bdc565b158015612ac2575060006003811115612aa557fe5b600260019054906101000a900460ff166003811115612ac057fe5b145b1515612acd57600080fd5b6000809054906101000a900473ffffffffffffffffffffffffffffffffffffffff1673ffffffffffffffffffffffffffffffffffffffff163373ffffffffffffffffffffffffffffffffffffffff161480612b715750600160003373ffffffffffffffffffffffffffffffffffffffff1673ffffffffffffffffffffffffffffffffffffffff16815260200190815260200160002060009054906101000a900460ff165b1515612b7c57600080fd5b612b846125ce565b1515612b8f57600080fd5b6001600260016101000a81548160ff02191690836003811115612bae57fe5b02179055507fed1cd0670ee0c0017f550451a038818c696d0b6a9d6ce5b369e44275573cf9b060405160405180910390a1565b815481835581811511612c0857818360005260206000209182019101612c079190612c8d565b5b505050565b828054600181600116156101000203166002900490600052602060002090601f016020900481019282601f10612c4e57805160ff1916838001178555612c7c565b82800160010185558215612c7c579182015b82811115612c7b578251825591602001919060010190612c60565b5b509050612c899190612c8d565b5090565b612caf91905b80821115612cab576000816000905550600101612c93565b5090565b905600a165627a7a723058204ef63ed4e4d4e39ae1d9a05d1ee8e7fa48a8765d85a2adc2408829050c30e32e0029",
  "source": "// ------------------------------------------------------------------------------\n// This file is part of netvote.\n//\n// netvote is free software: you can redistribute it and/or modify\n// it under the terms of the GNU General Public License as published by\n// the Free Software Foundation, either version 3 of the License, or\n// (at your option) any later version.\n//\n// netvote is distributed in the hope that it will be useful,\n// but WITHOUT ANY WARRANTY; without even the implied warranty of\n// MERCHANTABILITY or FITNESS FOR A PARTICULAR PURPOSE.  See the\n// GNU General Public License for more details.\n//\n// You should have received a copy of the GNU General Public License\n// along with solidity.  If not, see <http://www.gnu.org/licenses/>\n//\n// (c) 2017 netvote contributors.\n//------------------------------------------------------------------------------\n\npragma solidity ^0.4.17;\n\nimport \"./Election.sol\";\nimport \"./Ballot.sol\";\nimport \"../links/BallotRegistry.sol\";\n\n\ncontract RegistrationPool is BallotRegistry {\n    Election public election;\n\n    // events\n    event Vote(address voter);\n    event UpdateVote(address voter);\n    event RegisterVoter(address voter);\n    event UnregisterVoter(address voter);\n\n    // vote for each voter\n    mapping (address => string) public votes;\n\n    // map to prevent duplicate votes\n    mapping (address => bool) voterVoted;\n\n    // map to record whether voter is registered\n    mapping (address => bool) registeredVoters;\n\n    address[] ballots;\n\n    address registrar;\n\n    function RegistrationPool(address el, address reg) public {\n        election = Election(el);\n        registrar = reg;\n    }\n\n    modifier onlyRegistrar() {\n        require(msg.sender == registrar);\n        _;\n    }\n\n    modifier registeredVoter() {\n        require(registeredVoters[msg.sender]);\n        _;\n    }\n\n    // register a voter\n    function register(address v) public onlyRegistrar {\n        require(!registeredVoters[v]);\n        registeredVoters[v] = true;\n        RegisterVoter(v);\n    }\n\n    // returns true if pool can vote on all configured ballots\n    function checkBallots() public constant returns (bool) {\n        // ballots are configured\n        if ( ballotSet.size() == 0) {\n            return false;\n        }\n        // all ballots have this pool\n        for (uint256 i = 0; i<ballotSet.size(); i++) {\n            Ballot ballot = Ballot(ballotSet.getAt(i));\n            if (!ballot.poolExists(this)) {\n                return false;\n            }\n        }\n        return true;\n    }\n\n    // returns true if pool can vote on election\n    function checkElection() public constant returns (bool) {\n        if (election == address(0)) {\n            return false;\n        }\n        if (!election.poolExists(this)) {\n            return false;\n        }\n        for (uint256 i = 0; i<ballotSet.size(); i++) {\n            if (!Ballot(ballotSet.getAt(i)).poolExists(this)) {\n                return false;\n            }\n            if (!election.ballotExists(ballotSet.getAt(i))) {\n                return false;\n            }\n        }\n        return true;\n    }\n\n    // returns true if pool can vote on election\n    function checkConfig() public constant returns (bool) {\n        return checkElection() && checkBallots();\n    }\n\n    // activates pool\n    function activate() public building admin {\n        for (uint256 i = 0; i<ballotSet.size(); i++) {\n            ballots.push(ballotSet.getAt(i));\n        }\n        super.activate();\n    }\n\n    // only can be unregistered if not already voted\n    function unregister(address v) public admin {\n        require(registeredVoters[v] && !voterVoted[v]);\n        delete registeredVoters[v];\n        UnregisterVoter(v);\n    }\n\n    // avoids allowing a duplicate vote\n    modifier notDuplicate() {\n        require(!voterVoted[msg.sender]);\n        voterVoted[msg.sender] = true;\n        _;\n    }\n\n    // checks election to see if updates to votes are allowed\n    modifier updatesAllowed() {\n        require(election.allowVoteUpdates());\n        _;\n    }\n\n    // for each ballot, cast vote for sender, store vote to pool\n    function castVote(string vote) public voting notDuplicate registeredVoter {\n        votes[msg.sender] = vote;\n        for (uint256 i = 0; i<ballots.length; i++) {\n            Ballot(ballots[i]).castVote(msg.sender);\n        }\n        election.castVote();\n        Vote(msg.sender);\n    }\n\n    // voter can update their vote if election allows it\n    function updateVote(string vote) public voting updatesAllowed {\n        require(voterVoted[msg.sender]);\n        votes[msg.sender] = vote;\n        UpdateVote(msg.sender);\n    }\n}",
  "sourcePath": "/Users/slanders/netvote/elections/contracts/elections/RegistrationPool.sol",
  "compiler": {
    "name": "solc",
    "version": "0.4.18+commit.9cf6e910.Emscripten.clang"
  },
  "schemaVersion": "1.0.1",
  "updatedAt": "2017-12-07T21:05:57.491Z"
}