{
  "contractName": "RegistrationPool",
  "abi": [
    {
      "constant": false,
      "inputs": [],
      "name": "activate",
      "outputs": [],
      "payable": false,
      "stateMutability": "nonpayable",
      "type": "function"
    },
    {
      "constant": true,
      "inputs": [],
      "name": "gateway",
      "outputs": [
        {
          "name": "",
          "type": "address"
        }
      ],
      "payable": false,
      "stateMutability": "view",
      "type": "function"
    },
    {
      "constant": true,
      "inputs": [
        {
          "name": "b",
          "type": "address"
        }
      ],
      "name": "ballotExists",
      "outputs": [
        {
          "name": "",
          "type": "bool"
        }
      ],
      "payable": false,
      "stateMutability": "view",
      "type": "function"
    },
    {
      "constant": false,
      "inputs": [
        {
          "name": "addr",
          "type": "address"
        }
      ],
      "name": "removeAdmin",
      "outputs": [],
      "payable": false,
      "stateMutability": "nonpayable",
      "type": "function"
    },
    {
      "constant": true,
      "inputs": [],
      "name": "electionPhase",
      "outputs": [
        {
          "name": "",
          "type": "uint8"
        }
      ],
      "payable": false,
      "stateMutability": "view",
      "type": "function"
    },
    {
      "constant": true,
      "inputs": [
        {
          "name": "",
          "type": "bytes32"
        }
      ],
      "name": "votes",
      "outputs": [
        {
          "name": "",
          "type": "string"
        }
      ],
      "payable": false,
      "stateMutability": "view",
      "type": "function"
    },
    {
      "constant": false,
      "inputs": [],
      "name": "abort",
      "outputs": [],
      "payable": false,
      "stateMutability": "nonpayable",
      "type": "function"
    },
    {
      "constant": true,
      "inputs": [],
      "name": "checkBallots",
      "outputs": [
        {
          "name": "",
          "type": "bool"
        }
      ],
      "payable": false,
      "stateMutability": "view",
      "type": "function"
    },
    {
      "constant": false,
      "inputs": [
        {
          "name": "voteId",
          "type": "bytes32"
        },
        {
          "name": "vote",
          "type": "string"
        }
      ],
      "name": "updateVote",
      "outputs": [],
      "payable": false,
      "stateMutability": "nonpayable",
      "type": "function"
    },
    {
      "constant": false,
      "inputs": [],
      "name": "close",
      "outputs": [],
      "payable": false,
      "stateMutability": "nonpayable",
      "type": "function"
    },
    {
      "constant": true,
      "inputs": [],
      "name": "election",
      "outputs": [
        {
          "name": "",
          "type": "address"
        }
      ],
      "payable": false,
      "stateMutability": "view",
      "type": "function"
    },
    {
      "constant": false,
      "inputs": [
        {
          "name": "addr",
          "type": "address"
        }
      ],
      "name": "addAdmin",
      "outputs": [],
      "payable": false,
      "stateMutability": "nonpayable",
      "type": "function"
    },
    {
      "constant": true,
      "inputs": [],
      "name": "owner",
      "outputs": [
        {
          "name": "",
          "type": "address"
        }
      ],
      "payable": false,
      "stateMutability": "view",
      "type": "function"
    },
    {
      "constant": true,
      "inputs": [],
      "name": "isLocked",
      "outputs": [
        {
          "name": "",
          "type": "bool"
        }
      ],
      "payable": false,
      "stateMutability": "view",
      "type": "function"
    },
    {
      "constant": false,
      "inputs": [],
      "name": "unlock",
      "outputs": [],
      "payable": false,
      "stateMutability": "nonpayable",
      "type": "function"
    },
    {
      "constant": true,
      "inputs": [],
      "name": "getBallotCount",
      "outputs": [
        {
          "name": "",
          "type": "uint256"
        }
      ],
      "payable": false,
      "stateMutability": "view",
      "type": "function"
    },
    {
      "constant": true,
      "inputs": [],
      "name": "isClosed",
      "outputs": [
        {
          "name": "",
          "type": "bool"
        }
      ],
      "payable": false,
      "stateMutability": "view",
      "type": "function"
    },
    {
      "constant": false,
      "inputs": [
        {
          "name": "voteId",
          "type": "bytes32"
        },
        {
          "name": "vote",
          "type": "string"
        }
      ],
      "name": "castVote",
      "outputs": [],
      "payable": false,
      "stateMutability": "nonpayable",
      "type": "function"
    },
    {
      "constant": true,
      "inputs": [],
      "name": "checkElection",
      "outputs": [
        {
          "name": "",
          "type": "bool"
        }
      ],
      "payable": false,
      "stateMutability": "view",
      "type": "function"
    },
    {
      "constant": false,
      "inputs": [
        {
          "name": "b",
          "type": "address"
        }
      ],
      "name": "removeBallot",
      "outputs": [],
      "payable": false,
      "stateMutability": "nonpayable",
      "type": "function"
    },
    {
      "constant": true,
      "inputs": [
        {
          "name": "b",
          "type": "address"
        }
      ],
      "name": "getBallotIndex",
      "outputs": [
        {
          "name": "",
          "type": "uint256"
        }
      ],
      "payable": false,
      "stateMutability": "view",
      "type": "function"
    },
    {
      "constant": true,
      "inputs": [],
      "name": "checkConfig",
      "outputs": [
        {
          "name": "",
          "type": "bool"
        }
      ],
      "payable": false,
      "stateMutability": "view",
      "type": "function"
    },
    {
      "constant": false,
      "inputs": [
        {
          "name": "newOwner",
          "type": "address"
        }
      ],
      "name": "transferOwnership",
      "outputs": [],
      "payable": false,
      "stateMutability": "nonpayable",
      "type": "function"
    },
    {
      "constant": false,
      "inputs": [],
      "name": "lock",
      "outputs": [],
      "payable": false,
      "stateMutability": "nonpayable",
      "type": "function"
    },
    {
      "constant": false,
      "inputs": [
        {
          "name": "b",
          "type": "address"
        }
      ],
      "name": "addBallot",
      "outputs": [],
      "payable": false,
      "stateMutability": "nonpayable",
      "type": "function"
    },
    {
      "constant": true,
      "inputs": [
        {
          "name": "index",
          "type": "uint256"
        }
      ],
      "name": "getBallot",
      "outputs": [
        {
          "name": "",
          "type": "address"
        }
      ],
      "payable": false,
      "stateMutability": "view",
      "type": "function"
    },
    {
      "inputs": [
        {
          "name": "el",
          "type": "address"
        },
        {
          "name": "gw",
          "type": "address"
        }
      ],
      "payable": false,
      "stateMutability": "nonpayable",
      "type": "constructor"
    },
    {
      "anonymous": false,
      "inputs": [
        {
          "indexed": false,
          "name": "voteId",
          "type": "bytes32"
        }
      ],
      "name": "Vote",
      "type": "event"
    },
    {
      "anonymous": false,
      "inputs": [
        {
          "indexed": false,
          "name": "voteId",
          "type": "bytes32"
        }
      ],
      "name": "UpdateVote",
      "type": "event"
    },
    {
      "anonymous": false,
      "inputs": [],
      "name": "Closed",
      "type": "event"
    },
    {
      "anonymous": false,
      "inputs": [],
      "name": "Activated",
      "type": "event"
    },
    {
      "anonymous": false,
      "inputs": [],
      "name": "Aborted",
      "type": "event"
    },
    {
      "anonymous": false,
      "inputs": [],
      "name": "Locked",
      "type": "event"
    },
    {
      "anonymous": false,
      "inputs": [],
      "name": "Unlocked",
      "type": "event"
    },
    {
      "anonymous": false,
      "inputs": [
        {
          "indexed": true,
          "name": "previousOwner",
          "type": "address"
        },
        {
          "indexed": true,
          "name": "newOwner",
          "type": "address"
        }
      ],
      "name": "OwnershipTransferred",
      "type": "event"
    }
  ],
  "bytecode": "0x60606040526000600260006101000a81548160ff0219169083151502179055506000600260016101000a81548160ff0219169083600381111561003e57fe5b0217905550341561004e57600080fd5b6040516040806129e983398101604052808051906020019091908051906020019091905050336000806101000a81548173ffffffffffffffffffffffffffffffffffffffff021916908373ffffffffffffffffffffffffffffffffffffffff16021790555081600660006101000a81548173ffffffffffffffffffffffffffffffffffffffff021916908373ffffffffffffffffffffffffffffffffffffffff16021790555080600a60006101000a81548173ffffffffffffffffffffffffffffffffffffffff021916908373ffffffffffffffffffffffffffffffffffffffff16021790555050506128a3806101466000396000f300606060405260043610610154576000357c0100000000000000000000000000000000000000000000000000000000900463ffffffff1680630f15f4c014610159578063116191b61461016e578063138b1fa0146101c35780631785f53c14610214578063265050b61461024d5780632b38cd961461028457806335a063b4146103245780633abfb2e914610339578063431b13351461036657806343d726d6146103d05780634b1d3ede146103e5578063704802751461043a5780638da5cb5b14610473578063a4e2d634146104c8578063a69df4b5146104f5578063b47414951461050a578063c2b6b58c14610533578063cac1e34e14610560578063d1bdd4d3146105ca578063d71c6772146105f7578063db30eafb14610630578063f098fe471461067d578063f2fde38b146106aa578063f83d08ba146106e3578063f8c74afa146106f8578063f9d5ee7514610731575b600080fd5b341561016457600080fd5b61016c610794565b005b341561017957600080fd5b610181610a3a565b604051808273ffffffffffffffffffffffffffffffffffffffff1673ffffffffffffffffffffffffffffffffffffffff16815260200191505060405180910390f35b34156101ce57600080fd5b6101fa600480803573ffffffffffffffffffffffffffffffffffffffff16906020019091905050610a60565b604051808215151515815260200191505060405180910390f35b341561021f57600080fd5b61024b600480803573ffffffffffffffffffffffffffffffffffffffff16906020019091905050610b2e565b005b341561025857600080fd5b610260610c38565b6040518082600381111561027057fe5b60ff16815260200191505060405180910390f35b341561028f57600080fd5b6102a9600480803560001916906020019091905050610c4b565b6040518080602001828103825283818151815260200191508051906020019080838360005b838110156102e95780820151818401526020810190506102ce565b50505050905090810190601f1680156103165780820380516001836020036101000a031916815260200191505b509250505060405180910390f35b341561032f57600080fd5b610337610cfb565b005b341561034457600080fd5b61034c610dfc565b604051808215151515815260200191505060405180910390f35b341561037157600080fd5b6103ce60048080356000191690602001909190803590602001908201803590602001908080601f016020809104026020016040519081016040528093929190818152602001838380828437820191505050505050919050506110be565b005b34156103db57600080fd5b6103e36112ba565b005b34156103f057600080fd5b6103f86113ff565b604051808273ffffffffffffffffffffffffffffffffffffffff1673ffffffffffffffffffffffffffffffffffffffff16815260200191505060405180910390f35b341561044557600080fd5b610471600480803573ffffffffffffffffffffffffffffffffffffffff16906020019091905050611425565b005b341561047e57600080fd5b61048661152e565b604051808273ffffffffffffffffffffffffffffffffffffffff1673ffffffffffffffffffffffffffffffffffffffff16815260200191505060405180910390f35b34156104d357600080fd5b6104db611553565b604051808215151515815260200191505060405180910390f35b341561050057600080fd5b61050861156a565b005b341561051557600080fd5b61051d611662565b6040518082815260200191505060405180910390f35b341561053e57600080fd5b6105466116fa565b604051808215151515815260200191505060405180910390f35b341561056b57600080fd5b6105c860048080356000191690602001909190803590602001908201803590602001908080601f0160208091040260200160405190810160405280939291908181526020018383808284378201915050505050509190505061172a565b005b34156105d557600080fd5b6105dd611a28565b604051808215151515815260200191505060405180910390f35b341561060257600080fd5b61062e600480803573ffffffffffffffffffffffffffffffffffffffff16906020019091905050611f19565b005b341561063b57600080fd5b610667600480803573ffffffffffffffffffffffffffffffffffffffff169060200190919050506120c5565b6040518082815260200191505060405180910390f35b341561068857600080fd5b610690612193565b604051808215151515815260200191505060405180910390f35b34156106b557600080fd5b6106e1600480803573ffffffffffffffffffffffffffffffffffffffff169060200190919050506121b2565b005b34156106ee57600080fd5b6106f6612307565b005b341561070357600080fd5b61072f600480803573ffffffffffffffffffffffffffffffffffffffff169060200190919050506123ff565b005b341561073c57600080fd5b61075260048080359060200190919050506125ab565b604051808273ffffffffffffffffffffffffffffffffffffffff1673ffffffffffffffffffffffffffffffffffffffff16815260200191505060405180910390f35b600061079e611553565b1580156107d05750600060038111156107b357fe5b600260019054906101000a900460ff1660038111156107ce57fe5b145b15156107db57600080fd5b6000809054906101000a900473ffffffffffffffffffffffffffffffffffffffff1673ffffffffffffffffffffffffffffffffffffffff163373ffffffffffffffffffffffffffffffffffffffff16148061087f5750600160003373ffffffffffffffffffffffffffffffffffffffff1673ffffffffffffffffffffffffffffffffffffffff16815260200190815260200160002060009054906101000a900460ff165b151561088a57600080fd5b600090505b600373__AddressSet____________________________63913aa6cd90916000604051602001526040518263ffffffff167c01000000000000000000000000000000000000000000000000000000000281526004018082815260200191505060206040518083038186803b151561090557600080fd5b6102c65a03f4151561091657600080fd5b50505060405180519050811015610a2f576009805480600101828161093b91906127a6565b91600052602060002090016000600373__AddressSet____________________________635c2125a79091866000604051602001526040518363ffffffff167c0100000000000000000000000000000000000000000000000000000000028152600401808381526020018281526020019250505060206040518083038186803b15156109c657600080fd5b6102c65a03f415156109d757600080fd5b50505060405180519050909190916101000a81548173ffffffffffffffffffffffffffffffffffffffff021916908373ffffffffffffffffffffffffffffffffffffffff16021790555050808060010191505061088f565b610a3761264d565b50565b600a60009054906101000a900473ffffffffffffffffffffffffffffffffffffffff1681565b6000600373__AddressSet____________________________63758241e09091846000604051602001526040518363ffffffff167c0100000000000000000000000000000000000000000000000000000000028152600401808381526020018273ffffffffffffffffffffffffffffffffffffffff1673ffffffffffffffffffffffffffffffffffffffff1681526020019250505060206040518083038186803b1515610b0c57600080fd5b6102c65a03f41515610b1d57600080fd5b505050604051805190509050919050565b6000809054906101000a900473ffffffffffffffffffffffffffffffffffffffff1673ffffffffffffffffffffffffffffffffffffffff163373ffffffffffffffffffffffffffffffffffffffff161480610bd25750600160003373ffffffffffffffffffffffffffffffffffffffff1673ffffffffffffffffffffffffffffffffffffffff16815260200190815260200160002060009054906101000a900460ff165b1515610bdd57600080fd5b6000600160008373ffffffffffffffffffffffffffffffffffffffff1673ffffffffffffffffffffffffffffffffffffffff16815260200190815260200160002060006101000a81548160ff02191690831515021790555050565b600260019054906101000a900460ff1681565b60076020528060005260406000206000915090508054600181600116156101000203166002900480601f016020809104026020016040519081016040528092919081815260200182805460018160011615610100020316600290048015610cf35780601f10610cc857610100808354040283529160200191610cf3565b820191906000526020600020905b815481529060010190602001808311610cd657829003601f168201915b505050505081565b6000809054906101000a900473ffffffffffffffffffffffffffffffffffffffff1673ffffffffffffffffffffffffffffffffffffffff163373ffffffffffffffffffffffffffffffffffffffff161480610d9f5750600160003373ffffffffffffffffffffffffffffffffffffffff1673ffffffffffffffffffffffffffffffffffffffff16815260200190815260200160002060009054906101000a900460ff165b1515610daa57600080fd5b6003600260016101000a81548160ff02191690836003811115610dc957fe5b02179055507f72c874aeff0b183a56e2b79c71b46e1aed4dee5e09862134b8821ba2fddbf8bf60405160405180910390a1565b600080600080600373__AddressSet____________________________63913aa6cd90916000604051602001526040518263ffffffff167c01000000000000000000000000000000000000000000000000000000000281526004018082815260200191505060206040518083038186803b1515610e7857600080fd5b6102c65a03f41515610e8957600080fd5b505050604051805190501415610ea257600092506110b9565b600091505b600373__AddressSet____________________________63913aa6cd90916000604051602001526040518263ffffffff167c01000000000000000000000000000000000000000000000000000000000281526004018082815260200191505060206040518083038186803b1515610f1d57600080fd5b6102c65a03f41515610f2e57600080fd5b505050604051805190508210156110b457600373__AddressSet____________________________635c2125a79091846000604051602001526040518363ffffffff167c0100000000000000000000000000000000000000000000000000000000028152600401808381526020018281526020019250505060206040518083038186803b1515610fbd57600080fd5b6102c65a03f41515610fce57600080fd5b5050506040518051905090508073ffffffffffffffffffffffffffffffffffffffff16631e1c6a07306000604051602001526040518263ffffffff167c0100000000000000000000000000000000000000000000000000000000028152600401808273ffffffffffffffffffffffffffffffffffffffff1673ffffffffffffffffffffffffffffffffffffffff168152602001915050602060405180830381600087803b151561107d57600080fd5b6102c65a03f1151561108e57600080fd5b5050506040518051905015156110a757600092506110b9565b8180600101925050610ea7565b600192505b505090565b6110c6611553565b1580156110f85750600160038111156110db57fe5b600260019054906101000a900460ff1660038111156110f657fe5b145b151561110357600080fd5b600660009054906101000a900473ffffffffffffffffffffffffffffffffffffffff1673ffffffffffffffffffffffffffffffffffffffff1663bf41bf366000604051602001526040518163ffffffff167c0100000000000000000000000000000000000000000000000000000000028152600401602060405180830381600087803b151561119157600080fd5b6102c65a03f115156111a257600080fd5b5050506040518051905015156111b757600080fd5b600a60009054906101000a900473ffffffffffffffffffffffffffffffffffffffff1673ffffffffffffffffffffffffffffffffffffffff163373ffffffffffffffffffffffffffffffffffffffff1614151561121357600080fd5b60086000836000191660001916815260200190815260200160002060009054906101000a900460ff16151561124757600080fd5b8060076000846000191660001916815260200190815260200160002090805190602001906112769291906127d2565b507fb76baefd7e249e81a2c6ab2dd1692b4629b993e50c0f341cd9410ca6b0f3392e8260405180826000191660001916815260200191505060405180910390a15050565b6112c2611553565b1580156112f45750600160038111156112d757fe5b600260019054906101000a900460ff1660038111156112f257fe5b145b15156112ff57600080fd5b6000809054906101000a900473ffffffffffffffffffffffffffffffffffffffff1673ffffffffffffffffffffffffffffffffffffffff163373ffffffffffffffffffffffffffffffffffffffff1614806113a35750600160003373ffffffffffffffffffffffffffffffffffffffff1673ffffffffffffffffffffffffffffffffffffffff16815260200190815260200160002060009054906101000a900460ff165b15156113ae57600080fd5b60028060016101000a81548160ff021916908360038111156113cc57fe5b02179055507f1cdde67b72a90f19919ac732a437ac2f7a10fc128d28c2a6e525d89ce5cd9d3a60405160405180910390a1565b600660009054906101000a900473ffffffffffffffffffffffffffffffffffffffff1681565b6000809054906101000a900473ffffffffffffffffffffffffffffffffffffffff1673ffffffffffffffffffffffffffffffffffffffff163373ffffffffffffffffffffffffffffffffffffffff1614806114c95750600160003373ffffffffffffffffffffffffffffffffffffffff1673ffffffffffffffffffffffffffffffffffffffff16815260200190815260200160002060009054906101000a900460ff165b15156114d457600080fd5b60018060008373ffffffffffffffffffffffffffffffffffffffff1673ffffffffffffffffffffffffffffffffffffffff16815260200190815260200160002060006101000a81548160ff02191690831515021790555050565b6000809054906101000a900473ffffffffffffffffffffffffffffffffffffffff1681565b6000600260009054906101000a900460ff16905090565b6000809054906101000a900473ffffffffffffffffffffffffffffffffffffffff1673ffffffffffffffffffffffffffffffffffffffff163373ffffffffffffffffffffffffffffffffffffffff16148061160e5750600160003373ffffffffffffffffffffffffffffffffffffffff1673ffffffffffffffffffffffffffffffffffffffff16815260200190815260200160002060009054906101000a900460ff165b151561161957600080fd5b6000600260006101000a81548160ff0219169083151502179055507f19aad37188a1d3921e29eb3c66acf43d81975e107cb650d58cca878627955fd660405160405180910390a1565b6000600373__AddressSet____________________________63913aa6cd90916000604051602001526040518263ffffffff167c01000000000000000000000000000000000000000000000000000000000281526004018082815260200191505060206040518083038186803b15156116da57600080fd5b6102c65a03f415156116eb57600080fd5b50505060405180519050905090565b60006002600381111561170957fe5b600260019054906101000a900460ff16600381111561172457fe5b14905090565b6000611734611553565b15801561176657506001600381111561174957fe5b600260019054906101000a900460ff16600381111561176457fe5b145b151561177157600080fd5b8260086000826000191660001916815260200190815260200160002060009054906101000a900460ff161515156117a757600080fd5b600160086000836000191660001916815260200190815260200160002060006101000a81548160ff021916908315150217905550600a60009054906101000a900473ffffffffffffffffffffffffffffffffffffffff1673ffffffffffffffffffffffffffffffffffffffff163373ffffffffffffffffffffffffffffffffffffffff1614151561183757600080fd5b8260076000866000191660001916815260200190815260200160002090805190602001906118669291906127d2565b50600091505b60098054905082101561194a5760098281548110151561188857fe5b906000526020600020900160009054906101000a900473ffffffffffffffffffffffffffffffffffffffff1673ffffffffffffffffffffffffffffffffffffffff16633efafb6e856040518263ffffffff167c0100000000000000000000000000000000000000000000000000000000028152600401808260001916600019168152602001915050600060405180830381600087803b151561192957600080fd5b6102c65a03f1151561193a57600080fd5b505050818060010192505061186c565b600660009054906101000a900473ffffffffffffffffffffffffffffffffffffffff1673ffffffffffffffffffffffffffffffffffffffff16630fb524ce6040518163ffffffff167c0100000000000000000000000000000000000000000000000000000000028152600401600060405180830381600087803b15156119cf57600080fd5b6102c65a03f115156119e057600080fd5b5050507fe071651fdb9485bc1f9dbd3312c8a999c04ad7a5fef33ee1036e1fc709c4da4f8460405180826000191660001916815260200191505060405180910390a150505050565b600080600073ffffffffffffffffffffffffffffffffffffffff16600660009054906101000a900473ffffffffffffffffffffffffffffffffffffffff1673ffffffffffffffffffffffffffffffffffffffff161415611a8b5760009150611f15565b600660009054906101000a900473ffffffffffffffffffffffffffffffffffffffff1673ffffffffffffffffffffffffffffffffffffffff16631e1c6a07306000604051602001526040518263ffffffff167c0100000000000000000000000000000000000000000000000000000000028152600401808273ffffffffffffffffffffffffffffffffffffffff1673ffffffffffffffffffffffffffffffffffffffff168152602001915050602060405180830381600087803b1515611b5057600080fd5b6102c65a03f11515611b6157600080fd5b505050604051805190501515611b7a5760009150611f15565b600090505b600373__AddressSet____________________________63913aa6cd90916000604051602001526040518263ffffffff167c01000000000000000000000000000000000000000000000000000000000281526004018082815260200191505060206040518083038186803b1515611bf557600080fd5b6102c65a03f41515611c0657600080fd5b50505060405180519050811015611f1057600373__AddressSet____________________________635c2125a79091836000604051602001526040518363ffffffff167c0100000000000000000000000000000000000000000000000000000000028152600401808381526020018281526020019250505060206040518083038186803b1515611c9557600080fd5b6102c65a03f41515611ca657600080fd5b5050506040518051905073ffffffffffffffffffffffffffffffffffffffff16631e1c6a07306000604051602001526040518263ffffffff167c0100000000000000000000000000000000000000000000000000000000028152600401808273ffffffffffffffffffffffffffffffffffffffff1673ffffffffffffffffffffffffffffffffffffffff168152602001915050602060405180830381600087803b1515611d5257600080fd5b6102c65a03f11515611d6357600080fd5b505050604051805190501515611d7c5760009150611f15565b600660009054906101000a900473ffffffffffffffffffffffffffffffffffffffff1673ffffffffffffffffffffffffffffffffffffffff1663138b1fa0600373__AddressSet____________________________635c2125a79091856000604051602001526040518363ffffffff167c0100000000000000000000000000000000000000000000000000000000028152600401808381526020018281526020019250505060206040518083038186803b1515611e3857600080fd5b6102c65a03f41515611e4957600080fd5b505050604051805190506000604051602001526040518263ffffffff167c0100000000000000000000000000000000000000000000000000000000028152600401808273ffffffffffffffffffffffffffffffffffffffff1673ffffffffffffffffffffffffffffffffffffffff168152602001915050602060405180830381600087803b1515611ed957600080fd5b6102c65a03f11515611eea57600080fd5b505050604051805190501515611f035760009150611f15565b8080600101915050611b7f565b600191505b5090565b611f21611553565b158015611f53575060006003811115611f3657fe5b600260019054906101000a900460ff166003811115611f5157fe5b145b1515611f5e57600080fd5b6000809054906101000a900473ffffffffffffffffffffffffffffffffffffffff1673ffffffffffffffffffffffffffffffffffffffff163373ffffffffffffffffffffffffffffffffffffffff1614806120025750600160003373ffffffffffffffffffffffffffffffffffffffff1673ffffffffffffffffffffffffffffffffffffffff16815260200190815260200160002060009054906101000a900460ff165b151561200d57600080fd5b600373__AddressSet____________________________63e134066a9091836040518363ffffffff167c0100000000000000000000000000000000000000000000000000000000028152600401808381526020018273ffffffffffffffffffffffffffffffffffffffff1673ffffffffffffffffffffffffffffffffffffffff1681526020019250505060006040518083038186803b15156120ae57600080fd5b6102c65a03f415156120bf57600080fd5b50505050565b6000600373__AddressSet____________________________6318c402499091846000604051602001526040518363ffffffff167c0100000000000000000000000000000000000000000000000000000000028152600401808381526020018273ffffffffffffffffffffffffffffffffffffffff1673ffffffffffffffffffffffffffffffffffffffff1681526020019250505060206040518083038186803b151561217157600080fd5b6102c65a03f4151561218257600080fd5b505050604051805190509050919050565b600061219d611a28565b80156121ad57506121ac610dfc565b5b905090565b6000809054906101000a900473ffffffffffffffffffffffffffffffffffffffff1673ffffffffffffffffffffffffffffffffffffffff163373ffffffffffffffffffffffffffffffffffffffff1614151561220d57600080fd5b600073ffffffffffffffffffffffffffffffffffffffff168173ffffffffffffffffffffffffffffffffffffffff161415151561224957600080fd5b8073ffffffffffffffffffffffffffffffffffffffff166000809054906101000a900473ffffffffffffffffffffffffffffffffffffffff1673ffffffffffffffffffffffffffffffffffffffff167f8be0079c531659141344cd1fd0a4f28419497f9722a3daafe3b4186f6b6457e060405160405180910390a3806000806101000a81548173ffffffffffffffffffffffffffffffffffffffff021916908373ffffffffffffffffffffffffffffffffffffffff16021790555050565b6000809054906101000a900473ffffffffffffffffffffffffffffffffffffffff1673ffffffffffffffffffffffffffffffffffffffff163373ffffffffffffffffffffffffffffffffffffffff1614806123ab5750600160003373ffffffffffffffffffffffffffffffffffffffff1673ffffffffffffffffffffffffffffffffffffffff16815260200190815260200160002060009054906101000a900460ff165b15156123b657600080fd5b6001600260006101000a81548160ff0219169083151502179055507f0f2e5b6c72c6a4491efd919a9f9a409f324ef0708c11ee57d410c2cb06c0992b60405160405180910390a1565b612407611553565b15801561243957506000600381111561241c57fe5b600260019054906101000a900460ff16600381111561243757fe5b145b151561244457600080fd5b6000809054906101000a900473ffffffffffffffffffffffffffffffffffffffff1673ffffffffffffffffffffffffffffffffffffffff163373ffffffffffffffffffffffffffffffffffffffff1614806124e85750600160003373ffffffffffffffffffffffffffffffffffffffff1673ffffffffffffffffffffffffffffffffffffffff16815260200190815260200160002060009054906101000a900460ff165b15156124f357600080fd5b600373__AddressSet____________________________63f9802f859091836040518363ffffffff167c0100000000000000000000000000000000000000000000000000000000028152600401808381526020018273ffffffffffffffffffffffffffffffffffffffff1673ffffffffffffffffffffffffffffffffffffffff1681526020019250505060006040518083038186803b151561259457600080fd5b6102c65a03f415156125a557600080fd5b50505050565b6000600373__AddressSet____________________________635c2125a79091846000604051602001526040518363ffffffff167c0100000000000000000000000000000000000000000000000000000000028152600401808381526020018281526020019250505060206040518083038186803b151561262b57600080fd5b6102c65a03f4151561263c57600080fd5b505050604051805190509050919050565b612655611553565b15801561268757506000600381111561266a57fe5b600260019054906101000a900460ff16600381111561268557fe5b145b151561269257600080fd5b6000809054906101000a900473ffffffffffffffffffffffffffffffffffffffff1673ffffffffffffffffffffffffffffffffffffffff163373ffffffffffffffffffffffffffffffffffffffff1614806127365750600160003373ffffffffffffffffffffffffffffffffffffffff1673ffffffffffffffffffffffffffffffffffffffff16815260200190815260200160002060009054906101000a900460ff165b151561274157600080fd5b612749612193565b151561275457600080fd5b6001600260016101000a81548160ff0219169083600381111561277357fe5b02179055507fed1cd0670ee0c0017f550451a038818c696d0b6a9d6ce5b369e44275573cf9b060405160405180910390a1565b8154818355818115116127cd578183600052602060002091820191016127cc9190612852565b5b505050565b828054600181600116156101000203166002900490600052602060002090601f016020900481019282601f1061281357805160ff1916838001178555612841565b82800160010185558215612841579182015b82811115612840578251825591602001919060010190612825565b5b50905061284e9190612852565b5090565b61287491905b80821115612870576000816000905550600101612858565b5090565b905600a165627a7a723058206fa0edac99902b2520f77c4cfd3230aea11225941bfac4fa03a7b56d1dcb5c4d0029",
  "source": "// ------------------------------------------------------------------------------\n// This file is part of netvote.\n//\n// netvote is free software: you can redistribute it and/or modify\n// it under the terms of the GNU General Public License as published by\n// the Free Software Foundation, either version 3 of the License, or\n// (at your option) any later version.\n//\n// netvote is distributed in the hope that it will be useful,\n// but WITHOUT ANY WARRANTY; without even the implied warranty of\n// MERCHANTABILITY or FITNESS FOR A PARTICULAR PURPOSE.  See the\n// GNU General Public License for more details.\n//\n// You should have received a copy of the GNU General Public License\n// along with solidity.  If not, see <http://www.gnu.org/licenses/>\n//\n// (c) 2017 netvote contributors.\n//------------------------------------------------------------------------------\n\npragma solidity ^0.4.17;\n\nimport \"./Election.sol\";\nimport \"./Ballot.sol\";\nimport \"../links/BallotRegistry.sol\";\n\n\ncontract RegistrationPool is BallotRegistry {\n    Election public election;\n\n    // events\n    event Vote(bytes32 voteId);\n    event UpdateVote(bytes32 voteId);\n\n    // voteId to vote map\n    mapping (bytes32 => string) public votes;\n\n    // map to prevent duplicate votes\n    mapping (bytes32 => bool) voteIdVoted;\n\n    address[] ballots;\n\n    address public gateway;\n\n    function RegistrationPool(address el, address gw) public {\n        election = Election(el);\n        gateway = gw;\n    }\n\n    modifier onlyGateway() {\n        require(msg.sender == gateway);\n        _;\n    }\n\n    // returns true if pool can vote on all configured ballots\n    function checkBallots() public constant returns (bool) {\n        // ballots are configured\n        if ( ballotSet.size() == 0) {\n            return false;\n        }\n        // all ballots have this pool\n        for (uint256 i = 0; i<ballotSet.size(); i++) {\n            Ballot ballot = Ballot(ballotSet.getAt(i));\n            if (!ballot.poolExists(this)) {\n                return false;\n            }\n        }\n        return true;\n    }\n\n    // returns true if pool can vote on election\n    function checkElection() public constant returns (bool) {\n        if (election == address(0)) {\n            return false;\n        }\n        if (!election.poolExists(this)) {\n            return false;\n        }\n        for (uint256 i = 0; i<ballotSet.size(); i++) {\n            if (!Ballot(ballotSet.getAt(i)).poolExists(this)) {\n                return false;\n            }\n            if (!election.ballotExists(ballotSet.getAt(i))) {\n                return false;\n            }\n        }\n        return true;\n    }\n\n    // returns true if pool can vote on election\n    function checkConfig() public constant returns (bool) {\n        return checkElection() && checkBallots();\n    }\n\n    // activates pool\n    function activate() public building admin {\n        for (uint256 i = 0; i<ballotSet.size(); i++) {\n            ballots.push(ballotSet.getAt(i));\n        }\n        super.activate();\n    }\n\n    // avoids allowing a duplicate vote\n    modifier notDuplicate(bytes32 voteId) {\n        require(!voteIdVoted[voteId]);\n        voteIdVoted[voteId] = true;\n        _;\n    }\n\n    // checks election to see if updates to votes are allowed\n    modifier updatesAllowed() {\n        require(election.allowVoteUpdates());\n        _;\n    }\n\n    // for each ballot, cast vote for sender, store vote to pool\n    function castVote(bytes32 voteId, string vote) public voting notDuplicate(voteId) onlyGateway {\n        votes[voteId] = vote;\n        for (uint256 i = 0; i<ballots.length; i++) {\n            Ballot(ballots[i]).castVote(voteId);\n        }\n        election.castVote();\n        Vote(voteId);\n    }\n\n    // voter can update their vote if election allows it\n    function updateVote(bytes32 voteId, string vote) public voting updatesAllowed onlyGateway {\n        require(voteIdVoted[voteId]);\n        votes[voteId] = vote;\n        UpdateVote(voteId);\n    }\n}",
  "sourcePath": "/Users/slanders/netvote/elections/contracts/elections/RegistrationPool.sol",
  "compiler": {
    "name": "solc",
    "version": "0.4.18+commit.9cf6e910.Emscripten.clang"
  },
  "schemaVersion": "1.0.1",
  "updatedAt": "2017-12-19T00:44:28.716Z"
}