{
  "contractName": "RegistrationPool",
  "abi": [
    {
      "constant": false,
      "inputs": [],
      "name": "activate",
      "outputs": [],
      "payable": false,
      "stateMutability": "nonpayable",
      "type": "function"
    },
    {
      "constant": true,
      "inputs": [
        {
          "name": "b",
          "type": "address"
        }
      ],
      "name": "ballotExists",
      "outputs": [
        {
          "name": "",
          "type": "bool"
        }
      ],
      "payable": false,
      "stateMutability": "view",
      "type": "function"
    },
    {
      "constant": false,
      "inputs": [
        {
          "name": "addr",
          "type": "address"
        }
      ],
      "name": "removeAdmin",
      "outputs": [],
      "payable": false,
      "stateMutability": "nonpayable",
      "type": "function"
    },
    {
      "constant": true,
      "inputs": [],
      "name": "electionPhase",
      "outputs": [
        {
          "name": "",
          "type": "uint8"
        }
      ],
      "payable": false,
      "stateMutability": "view",
      "type": "function"
    },
    {
      "constant": false,
      "inputs": [
        {
          "name": "v",
          "type": "address"
        }
      ],
      "name": "unregister",
      "outputs": [],
      "payable": false,
      "stateMutability": "nonpayable",
      "type": "function"
    },
    {
      "constant": false,
      "inputs": [],
      "name": "abort",
      "outputs": [],
      "payable": false,
      "stateMutability": "nonpayable",
      "type": "function"
    },
    {
      "constant": true,
      "inputs": [],
      "name": "checkBallots",
      "outputs": [
        {
          "name": "",
          "type": "bool"
        }
      ],
      "payable": false,
      "stateMutability": "view",
      "type": "function"
    },
    {
      "constant": false,
      "inputs": [],
      "name": "close",
      "outputs": [],
      "payable": false,
      "stateMutability": "nonpayable",
      "type": "function"
    },
    {
      "constant": false,
      "inputs": [
        {
          "name": "v",
          "type": "address"
        }
      ],
      "name": "register",
      "outputs": [],
      "payable": false,
      "stateMutability": "nonpayable",
      "type": "function"
    },
    {
      "constant": true,
      "inputs": [],
      "name": "election",
      "outputs": [
        {
          "name": "",
          "type": "address"
        }
      ],
      "payable": false,
      "stateMutability": "view",
      "type": "function"
    },
    {
      "constant": false,
      "inputs": [
        {
          "name": "addr",
          "type": "address"
        }
      ],
      "name": "addAdmin",
      "outputs": [],
      "payable": false,
      "stateMutability": "nonpayable",
      "type": "function"
    },
    {
      "constant": true,
      "inputs": [
        {
          "name": "voter",
          "type": "address"
        }
      ],
      "name": "getVote",
      "outputs": [
        {
          "name": "",
          "type": "string"
        }
      ],
      "payable": false,
      "stateMutability": "view",
      "type": "function"
    },
    {
      "constant": true,
      "inputs": [],
      "name": "owner",
      "outputs": [
        {
          "name": "",
          "type": "address"
        }
      ],
      "payable": false,
      "stateMutability": "view",
      "type": "function"
    },
    {
      "constant": false,
      "inputs": [
        {
          "name": "vote",
          "type": "string"
        }
      ],
      "name": "updateVote",
      "outputs": [],
      "payable": false,
      "stateMutability": "nonpayable",
      "type": "function"
    },
    {
      "constant": false,
      "inputs": [
        {
          "name": "vote",
          "type": "string"
        }
      ],
      "name": "castVote",
      "outputs": [],
      "payable": false,
      "stateMutability": "nonpayable",
      "type": "function"
    },
    {
      "constant": true,
      "inputs": [],
      "name": "isLocked",
      "outputs": [
        {
          "name": "",
          "type": "bool"
        }
      ],
      "payable": false,
      "stateMutability": "view",
      "type": "function"
    },
    {
      "constant": false,
      "inputs": [],
      "name": "unlock",
      "outputs": [],
      "payable": false,
      "stateMutability": "nonpayable",
      "type": "function"
    },
    {
      "constant": true,
      "inputs": [],
      "name": "getBallotCount",
      "outputs": [
        {
          "name": "",
          "type": "uint256"
        }
      ],
      "payable": false,
      "stateMutability": "view",
      "type": "function"
    },
    {
      "constant": true,
      "inputs": [],
      "name": "isClosed",
      "outputs": [
        {
          "name": "",
          "type": "bool"
        }
      ],
      "payable": false,
      "stateMutability": "view",
      "type": "function"
    },
    {
      "constant": true,
      "inputs": [],
      "name": "checkElection",
      "outputs": [
        {
          "name": "",
          "type": "bool"
        }
      ],
      "payable": false,
      "stateMutability": "view",
      "type": "function"
    },
    {
      "constant": false,
      "inputs": [
        {
          "name": "b",
          "type": "address"
        }
      ],
      "name": "removeBallot",
      "outputs": [],
      "payable": false,
      "stateMutability": "nonpayable",
      "type": "function"
    },
    {
      "constant": true,
      "inputs": [
        {
          "name": "b",
          "type": "address"
        }
      ],
      "name": "getBallotIndex",
      "outputs": [
        {
          "name": "",
          "type": "uint256"
        }
      ],
      "payable": false,
      "stateMutability": "view",
      "type": "function"
    },
    {
      "constant": true,
      "inputs": [],
      "name": "checkConfig",
      "outputs": [
        {
          "name": "",
          "type": "bool"
        }
      ],
      "payable": false,
      "stateMutability": "view",
      "type": "function"
    },
    {
      "constant": false,
      "inputs": [
        {
          "name": "newOwner",
          "type": "address"
        }
      ],
      "name": "transferOwnership",
      "outputs": [],
      "payable": false,
      "stateMutability": "nonpayable",
      "type": "function"
    },
    {
      "constant": false,
      "inputs": [],
      "name": "lock",
      "outputs": [],
      "payable": false,
      "stateMutability": "nonpayable",
      "type": "function"
    },
    {
      "constant": false,
      "inputs": [
        {
          "name": "b",
          "type": "address"
        }
      ],
      "name": "addBallot",
      "outputs": [],
      "payable": false,
      "stateMutability": "nonpayable",
      "type": "function"
    },
    {
      "constant": true,
      "inputs": [
        {
          "name": "index",
          "type": "uint256"
        }
      ],
      "name": "getBallot",
      "outputs": [
        {
          "name": "",
          "type": "address"
        }
      ],
      "payable": false,
      "stateMutability": "view",
      "type": "function"
    },
    {
      "inputs": [
        {
          "name": "el",
          "type": "address"
        },
        {
          "name": "reg",
          "type": "address"
        }
      ],
      "payable": false,
      "stateMutability": "nonpayable",
      "type": "constructor"
    },
    {
      "anonymous": false,
      "inputs": [
        {
          "indexed": false,
          "name": "voter",
          "type": "address"
        }
      ],
      "name": "Vote",
      "type": "event"
    },
    {
      "anonymous": false,
      "inputs": [
        {
          "indexed": false,
          "name": "voter",
          "type": "address"
        }
      ],
      "name": "UpdateVote",
      "type": "event"
    },
    {
      "anonymous": false,
      "inputs": [
        {
          "indexed": false,
          "name": "voter",
          "type": "address"
        }
      ],
      "name": "RegisterVoter",
      "type": "event"
    },
    {
      "anonymous": false,
      "inputs": [
        {
          "indexed": false,
          "name": "voter",
          "type": "address"
        }
      ],
      "name": "UnregisterVoter",
      "type": "event"
    },
    {
      "anonymous": false,
      "inputs": [],
      "name": "Closed",
      "type": "event"
    },
    {
      "anonymous": false,
      "inputs": [],
      "name": "Activated",
      "type": "event"
    },
    {
      "anonymous": false,
      "inputs": [],
      "name": "Aborted",
      "type": "event"
    },
    {
      "anonymous": false,
      "inputs": [],
      "name": "Locked",
      "type": "event"
    },
    {
      "anonymous": false,
      "inputs": [],
      "name": "Unlocked",
      "type": "event"
    },
    {
      "anonymous": false,
      "inputs": [
        {
          "indexed": true,
          "name": "previousOwner",
          "type": "address"
        },
        {
          "indexed": true,
          "name": "newOwner",
          "type": "address"
        }
      ],
      "name": "OwnershipTransferred",
      "type": "event"
    }
  ],
  "bytecode": "0x60606040526002805461ffff19169055341561001a57600080fd5b604051604080611ba0833981016040528080519190602001805160008054600160a060020a03338116600160a060020a0319928316179092556006805496831696821696909617909555600b8054919092169416939093179092555050611b1a806100866000396000f300606060405236156101435763ffffffff60e060020a6000350416630f15f4c08114610148578063138b1fa01461015d5780631785f53c14610190578063265050b6146101af5780632ec2c246146101e657806335a063b4146102055780633abfb2e91461021857806343d726d61461022b5780634420e4861461023e5780634b1d3ede1461025d578063704802751461028c5780638d337b81146102ab5780638da5cb5b1461034157806392642c4b146103545780639cc2d993146103a5578063a4e2d634146103f6578063a69df4b514610409578063b47414951461041c578063c2b6b58c14610441578063d1bdd4d314610454578063d71c677214610467578063db30eafb14610486578063f098fe47146104a5578063f2fde38b146104b8578063f83d08ba146104d7578063f8c74afa146104ea578063f9d5ee7514610509575b600080fd5b341561015357600080fd5b61015b61051f565b005b341561016857600080fd5b61017c600160a060020a03600435166106ef565b604051901515815260200160405180910390f35b341561019b57600080fd5b61015b600160a060020a0360043516610778565b34156101ba57600080fd5b6101c26107d9565b604051808260038111156101d257fe5b60ff16815260200191505060405180910390f35b34156101f157600080fd5b61015b600160a060020a03600435166107e7565b341561021057600080fd5b61015b6108d5565b341561022357600080fd5b61017c610952565b341561023657600080fd5b61015b610b69565b341561024957600080fd5b61015b600160a060020a0360043516610c1b565b341561026857600080fd5b610270610cc1565b604051600160a060020a03909116815260200160405180910390f35b341561029757600080fd5b61015b600160a060020a0360043516610cd0565b34156102b657600080fd5b6102ca600160a060020a0360043516610d37565b60405160208082528190810183818151815260200191508051906020019080838360005b838110156103065780820151838201526020016102ee565b50505050905090810190601f1680156103335780820380516001836020036101000a031916815260200191505b509250505060405180910390f35b341561034c57600080fd5b610270610e33565b341561035f57600080fd5b61015b60046024813581810190830135806020601f82018190048102016040519081016040528181529291906020840183838082843750949650610e4295505050505050565b34156103b057600080fd5b61015b60046024813581810190830135806020601f82018190048102016040519081016040528181529291906020840183838082843750949650610f7695505050505050565b341561040157600080fd5b61017c61115f565b341561041457600080fd5b61015b611169565b341561042757600080fd5b61042f6111e1565b60405190815260200160405180910390f35b341561044c57600080fd5b61017c61125a565b341561045f57600080fd5b61017c611279565b341561047257600080fd5b61015b600160a060020a03600435166115a2565b341561049157600080fd5b61042f600160a060020a036004351661168d565b34156104b057600080fd5b61017c6116f6565b34156104c357600080fd5b61015b600160a060020a0360043516611714565b34156104e257600080fd5b61015b6117af565b34156104f557600080fd5b61015b600160a060020a036004351661182a565b341561051457600080fd5b6102706004356118fe565b600061052961115f565b15801561054b57506000600254610100900460ff16600381111561054957fe5b145b151561055657600080fd5b60005433600160a060020a039081169116148061058b5750600160a060020a03331660009081526001602052604090205460ff165b151561059657600080fd5b5060005b73__AddressSet____________________________63913aa6cd600360006040516020015260405160e060020a63ffffffff8416028152600481019190915260240160206040518083038186803b15156105f357600080fd5b6102c65a03f4151561060457600080fd5b505050604051805190508110156106e457600a8054600181016106278382611a23565b91600052602060002090016000600373__AddressSet____________________________635c2125a790918660006040516020015260405160e060020a63ffffffff85160281526004810192909252602482015260440160206040518083038186803b151561069557600080fd5b6102c65a03f415156106a657600080fd5b50505060405180519050909190916101000a815481600160a060020a030219169083600160a060020a0316021790555050808060010191505061059a565b6106ec61195e565b50565b600073__AddressSet____________________________63758241e0600384846040516020015260405160e060020a63ffffffff85160281526004810192909252600160a060020a0316602482015260440160206040518083038186803b151561075857600080fd5b6102c65a03f4151561076957600080fd5b50505060405180519392505050565b60005433600160a060020a03908116911614806107ad5750600160a060020a03331660009081526001602052604090205460ff165b15156107b857600080fd5b600160a060020a03166000908152600160205260409020805460ff19169055565b600254610100900460ff1681565b60005433600160a060020a039081169116148061081c5750600160a060020a03331660009081526001602052604090205460ff165b151561082757600080fd5b600160a060020a03811660009081526009602052604090205460ff1680156108685750600160a060020a03811660009081526008602052604090205460ff16155b151561087357600080fd5b600160a060020a03811660009081526009602052604090819020805460ff191690557f4578b342355f8db2b56526115fcc8d0254c12796bfd1055a4eead24cea1764cc90829051600160a060020a03909116815260200160405180910390a150565b60005433600160a060020a039081169116148061090a5750600160a060020a03331660009081526001602052604090205460ff165b151561091557600080fd5b6002805461ff0019166103001790557f72c874aeff0b183a56e2b79c71b46e1aed4dee5e09862134b8821ba2fddbf8bf60405160405180910390a1565b6000808073__AddressSet____________________________63913aa6cd6003836040516020015260405160e060020a63ffffffff8416028152600481019190915260240160206040518083038186803b15156109ae57600080fd5b6102c65a03f415156109bf57600080fd5b5050506040518051151590506109d85760009250610b64565b600091505b73__AddressSet____________________________63913aa6cd600360006040516020015260405160e060020a63ffffffff8416028152600481019190915260240160206040518083038186803b1515610a3657600080fd5b6102c65a03f41515610a4757600080fd5b50505060405180519050821015610b5f5773__AddressSet____________________________635c2125a760038460006040516020015260405160e060020a63ffffffff85160281526004810192909252602482015260440160206040518083038186803b1515610ab757600080fd5b6102c65a03f41515610ac857600080fd5b5050506040518051915050600160a060020a038116631e1c6a073060006040516020015260405160e060020a63ffffffff8416028152600160a060020a039091166004820152602401602060405180830381600087803b1515610b2a57600080fd5b6102c65a03f11515610b3b57600080fd5b505050604051805190501515610b545760009250610b64565b6001909101906109dd565b600192505b505090565b610b7161115f565b158015610b9357506001600254610100900460ff166003811115610b9157fe5b145b1515610b9e57600080fd5b60005433600160a060020a0390811691161480610bd35750600160a060020a03331660009081526001602052604090205460ff165b1515610bde57600080fd5b6002805461ff0019166102001790557f1cdde67b72a90f19919ac732a437ac2f7a10fc128d28c2a6e525d89ce5cd9d3a60405160405180910390a1565b600b5433600160a060020a03908116911614610c3657600080fd5b600160a060020a03811660009081526009602052604090205460ff1615610c5c57600080fd5b600160a060020a03811660009081526009602052604090819020805460ff191660011790557f15fe6f1bc57ee784ec1d747d150facfe23b3d8f21303f37b9c99ff8d2389c82690829051600160a060020a03909116815260200160405180910390a150565b600654600160a060020a031681565b60005433600160a060020a0390811691161480610d055750600160a060020a03331660009081526001602052604090205460ff165b1515610d1057600080fd5b600160a060020a03166000908152600160208190526040909120805460ff19169091179055565b610d3f611a4c565b610d4761125a565b80610d63575081600160a060020a031633600160a060020a0316145b1515610d6e57600080fd5b6007600083600160a060020a0316600160a060020a031681526020019081526020016000208054600181600116156101000203166002900480601f016020809104026020016040519081016040528092919081815260200182805460018160011615610100020316600290048015610e275780601f10610dfc57610100808354040283529160200191610e27565b820191906000526020600020905b815481529060010190602001808311610e0a57829003601f168201915b50505050509050919050565b600054600160a060020a031681565b610e4a61115f565b158015610e6c57506001600254610100900460ff166003811115610e6a57fe5b145b1515610e7757600080fd5b600654600160a060020a031663bf41bf366000604051602001526040518163ffffffff1660e060020a028152600401602060405180830381600087803b1515610ebf57600080fd5b6102c65a03f11515610ed057600080fd5b505050604051805190501515610ee557600080fd5b600160a060020a03331660009081526008602052604090205460ff161515610f0c57600080fd5b600160a060020a0333166000908152600760205260409020818051610f35929160200190611a5e565b507f207900c36507982d6ee9c85ba6680c12f516a7948d0a974ecdeb36225372511b33604051600160a060020a03909116815260200160405180910390a150565b6000610f8061115f565b158015610fa257506001600254610100900460ff166003811115610fa057fe5b145b1515610fad57600080fd5b600160a060020a03331660009081526008602052604090205460ff1615610fd357600080fd5b600160a060020a0333166000908152600860209081526040808320805460ff19166001179055600990915290205460ff16151561100f57600080fd5b600160a060020a0333166000908152600760205260409020828051611038929160200190611a5e565b50600090505b600a548110156110cb57600a80548290811061105657fe5b600091825260209091200154600160a060020a03166353358fc43360405160e060020a63ffffffff8416028152600160a060020a039091166004820152602401600060405180830381600087803b15156110af57600080fd5b6102c65a03f115156110c057600080fd5b50505060010161103e565b600654600160a060020a0316630fb524ce6040518163ffffffff1660e060020a028152600401600060405180830381600087803b151561110a57600080fd5b6102c65a03f1151561111b57600080fd5b5050507ff5b08346e1e6b0b55d07ce94e81fcb198d47fbbecfea3b9a476f454c86761ec433604051600160a060020a03909116815260200160405180910390a15050565b60025460ff165b90565b60005433600160a060020a039081169116148061119e5750600160a060020a03331660009081526001602052604090205460ff165b15156111a957600080fd5b6002805460ff191690557f19aad37188a1d3921e29eb3c66acf43d81975e107cb650d58cca878627955fd660405160405180910390a1565b600073__AddressSet____________________________63913aa6cd6003836040516020015260405160e060020a63ffffffff8416028152600481019190915260240160206040518083038186803b151561123b57600080fd5b6102c65a03f4151561124c57600080fd5b505050604051805191505090565b600060028054610100900460ff16600381111561127357fe5b14905090565b6006546000908190600160a060020a03161515611299576000915061159e565b600654600160a060020a0316631e1c6a073060006040516020015260405160e060020a63ffffffff8416028152600160a060020a039091166004820152602401602060405180830381600087803b15156112f257600080fd5b6102c65a03f1151561130357600080fd5b50505060405180519050151561131c576000915061159e565b5060005b73__AddressSet____________________________63913aa6cd600360006040516020015260405160e060020a63ffffffff8416028152600481019190915260240160206040518083038186803b151561137957600080fd5b6102c65a03f4151561138a57600080fd5b505050604051805190508110156115995773__AddressSet____________________________635c2125a760038360006040516020015260405160e060020a63ffffffff85160281526004810192909252602482015260440160206040518083038186803b15156113fa57600080fd5b6102c65a03f4151561140b57600080fd5b50505060405180519050600160a060020a0316631e1c6a073060006040516020015260405160e060020a63ffffffff8416028152600160a060020a039091166004820152602401602060405180830381600087803b151561146b57600080fd5b6102c65a03f1151561147c57600080fd5b505050604051805190501515611495576000915061159e565b600654600160a060020a031663138b1fa073__AddressSet____________________________635c2125a760038560006040516020015260405160e060020a63ffffffff85160281526004810192909252602482015260440160206040518083038186803b151561150557600080fd5b6102c65a03f4151561151657600080fd5b5050506040518051905060006040516020015260405160e060020a63ffffffff8416028152600160a060020a039091166004820152602401602060405180830381600087803b151561156757600080fd5b6102c65a03f1151561157857600080fd5b505050604051805190501515611591576000915061159e565b600101611320565b600191505b5090565b6115aa61115f565b1580156115cc57506000600254610100900460ff1660038111156115ca57fe5b145b15156115d757600080fd5b60005433600160a060020a039081169116148061160c5750600160a060020a03331660009081526001602052604090205460ff165b151561161757600080fd5b73__AddressSet____________________________63e134066a60038360405160e060020a63ffffffff85160281526004810192909252600160a060020a0316602482015260440160006040518083038186803b151561167657600080fd5b6102c65a03f4151561168757600080fd5b50505050565b600073__AddressSet____________________________6318c40249600384846040516020015260405160e060020a63ffffffff85160281526004810192909252600160a060020a0316602482015260440160206040518083038186803b151561075857600080fd5b6000611700611279565b801561170f575061170f610952565b905090565b60005433600160a060020a0390811691161461172f57600080fd5b600160a060020a038116151561174457600080fd5b600054600160a060020a0380831691167f8be0079c531659141344cd1fd0a4f28419497f9722a3daafe3b4186f6b6457e060405160405180910390a36000805473ffffffffffffffffffffffffffffffffffffffff1916600160a060020a0392909216919091179055565b60005433600160a060020a03908116911614806117e45750600160a060020a03331660009081526001602052604090205460ff165b15156117ef57600080fd5b6002805460ff191660011790557f0f2e5b6c72c6a4491efd919a9f9a409f324ef0708c11ee57d410c2cb06c0992b60405160405180910390a1565b61183261115f565b15801561185457506000600254610100900460ff16600381111561185257fe5b145b151561185f57600080fd5b60005433600160a060020a03908116911614806118945750600160a060020a03331660009081526001602052604090205460ff165b151561189f57600080fd5b73__AddressSet____________________________63f9802f8560038360405160e060020a63ffffffff85160281526004810192909252600160a060020a0316602482015260440160006040518083038186803b151561167657600080fd5b600073__AddressSet____________________________635c2125a7600384846040516020015260405160e060020a63ffffffff85160281526004810192909252602482015260440160206040518083038186803b151561075857600080fd5b61196661115f565b15801561198857506000600254610100900460ff16600381111561198657fe5b145b151561199357600080fd5b60005433600160a060020a03908116911614806119c85750600160a060020a03331660009081526001602052604090205460ff165b15156119d357600080fd5b6119db6116f6565b15156119e657600080fd5b6002805461ff0019166101001790557fed1cd0670ee0c0017f550451a038818c696d0b6a9d6ce5b369e44275573cf9b060405160405180910390a1565b815481835581811511611a4757600083815260209020611a47918101908301611ad4565b505050565b60206040519081016040526000815290565b828054600181600116156101000203166002900490600052602060002090601f016020900481019282601f10611a9f57805160ff1916838001178555611acc565b82800160010185558215611acc579182015b82811115611acc578251825591602001919060010190611ab1565b5061159e9291505b61116691905b8082111561159e5760008155600101611ada5600a165627a7a72305820c39c6050e7aca2eae5b3da31adcdf7408ce12645d689d4b9e26da021795fb64c0029",
  "source": "// ------------------------------------------------------------------------------\n// This file is part of netvote.\n//\n// netvote is free software: you can redistribute it and/or modify\n// it under the terms of the GNU General Public License as published by\n// the Free Software Foundation, either version 3 of the License, or\n// (at your option) any later version.\n//\n// netvote is distributed in the hope that it will be useful,\n// but WITHOUT ANY WARRANTY; without even the implied warranty of\n// MERCHANTABILITY or FITNESS FOR A PARTICULAR PURPOSE.  See the\n// GNU General Public License for more details.\n//\n// You should have received a copy of the GNU General Public License\n// along with solidity.  If not, see <http://www.gnu.org/licenses/>\n//\n// (c) 2017 netvote contributors.\n//------------------------------------------------------------------------------\n\npragma solidity ^0.4.17;\n\nimport \"./Election.sol\";\nimport \"./Ballot.sol\";\nimport \"../links/BallotRegistry.sol\";\n\n\ncontract RegistrationPool is BallotRegistry {\n    Election public election;\n\n    // events\n    event Vote(address voter);\n    event UpdateVote(address voter);\n    event RegisterVoter(address voter);\n    event UnregisterVoter(address voter);\n\n    // vote for each voter\n    mapping (address => string) votes;\n\n    // map to prevent duplicate votes\n    mapping (address => bool) voterVoted;\n\n    // map to record whether voter is registered\n    mapping (address => bool) registeredVoters;\n\n    address[] ballots;\n\n    address registrar;\n\n    function RegistrationPool(address el, address reg) public {\n        election = Election(el);\n        registrar = reg;\n    }\n\n    modifier onlyRegistrar() {\n        require(msg.sender == registrar);\n        _;\n    }\n\n    modifier registeredVoter() {\n        require(registeredVoters[msg.sender]);\n        _;\n    }\n\n    // register a voter\n    function register(address v) public onlyRegistrar {\n        require(!registeredVoters[v]);\n        registeredVoters[v] = true;\n        RegisterVoter(v);\n    }\n\n    // returns true if pool can vote on all configured ballots\n    function checkBallots() public constant returns (bool) {\n        // ballots are configured\n        if ( ballotSet.size() == 0) {\n            return false;\n        }\n        // all ballots have this pool\n        for (uint256 i = 0; i<ballotSet.size(); i++) {\n            Ballot ballot = Ballot(ballotSet.getAt(i));\n            if (!ballot.poolExists(this)) {\n                return false;\n            }\n        }\n        return true;\n    }\n\n    // returns true if pool can vote on election\n    function checkElection() public constant returns (bool) {\n        if (election == address(0)) {\n            return false;\n        }\n        if (!election.poolExists(this)) {\n            return false;\n        }\n        for (uint256 i = 0; i<ballotSet.size(); i++) {\n            if (!Ballot(ballotSet.getAt(i)).poolExists(this)) {\n                return false;\n            }\n            if (!election.ballotExists(ballotSet.getAt(i))) {\n                return false;\n            }\n        }\n        return true;\n    }\n\n    // returns true if pool can vote on election\n    function checkConfig() public constant returns (bool) {\n        return checkElection() && checkBallots();\n    }\n\n    // activates pool\n    function activate() public building admin {\n        for (uint256 i = 0; i<ballotSet.size(); i++) {\n            ballots.push(ballotSet.getAt(i));\n        }\n        super.activate();\n    }\n\n    // only can be unregistered if not already voted\n    function unregister(address v) public admin {\n        require(registeredVoters[v] && !voterVoted[v]);\n        delete registeredVoters[v];\n        UnregisterVoter(v);\n    }\n\n    // get a particular voter's vote (only voter can read unless closed)\n    function getVote(address voter) public constant returns (string) {\n        require(isClosed() || msg.sender == voter);\n        return votes[voter];\n    }\n\n    // avoids allowing a duplicate vote\n    modifier notDuplicate() {\n        require(!voterVoted[msg.sender]);\n        voterVoted[msg.sender] = true;\n        _;\n    }\n\n    // checks election to see if updates to votes are allowed\n    modifier updatesAllowed() {\n        require(election.allowVoteUpdates());\n        _;\n    }\n\n    // for each ballot, cast vote for sender, store vote to pool\n    function castVote(string vote) public voting notDuplicate registeredVoter {\n        votes[msg.sender] = vote;\n        for (uint256 i = 0; i<ballots.length; i++) {\n            Ballot(ballots[i]).castVote(msg.sender);\n        }\n        election.castVote();\n        Vote(msg.sender);\n    }\n\n    // voter can update their vote if election allows it\n    function updateVote(string vote) public voting updatesAllowed {\n        require(voterVoted[msg.sender]);\n        votes[msg.sender] = vote;\n        UpdateVote(msg.sender);\n    }\n}",
  "sourcePath": "/Users/slanders/netvote/elections/contracts/elections/RegistrationPool.sol",
  "schemaVersion": "1.0.0",
  "updatedAt": "2017-12-04T16:50:28.457Z"
}