{
  "contractName": "RegistrationPool",
  "abi": [
    {
      "constant": false,
      "inputs": [],
      "name": "activate",
      "outputs": [],
      "payable": false,
      "stateMutability": "nonpayable",
      "type": "function"
    },
    {
      "constant": false,
      "inputs": [
        {
          "name": "addr",
          "type": "address"
        }
      ],
      "name": "removeAdmin",
      "outputs": [],
      "payable": false,
      "stateMutability": "nonpayable",
      "type": "function"
    },
    {
      "constant": true,
      "inputs": [],
      "name": "electionPhase",
      "outputs": [
        {
          "name": "",
          "type": "uint8"
        }
      ],
      "payable": false,
      "stateMutability": "view",
      "type": "function"
    },
    {
      "constant": false,
      "inputs": [
        {
          "name": "v",
          "type": "address"
        }
      ],
      "name": "unregister",
      "outputs": [],
      "payable": false,
      "stateMutability": "nonpayable",
      "type": "function"
    },
    {
      "constant": false,
      "inputs": [],
      "name": "abort",
      "outputs": [],
      "payable": false,
      "stateMutability": "nonpayable",
      "type": "function"
    },
    {
      "constant": false,
      "inputs": [],
      "name": "close",
      "outputs": [],
      "payable": false,
      "stateMutability": "nonpayable",
      "type": "function"
    },
    {
      "constant": false,
      "inputs": [
        {
          "name": "v",
          "type": "address"
        }
      ],
      "name": "register",
      "outputs": [],
      "payable": false,
      "stateMutability": "nonpayable",
      "type": "function"
    },
    {
      "constant": false,
      "inputs": [
        {
          "name": "addr",
          "type": "address"
        }
      ],
      "name": "addAdmin",
      "outputs": [],
      "payable": false,
      "stateMutability": "nonpayable",
      "type": "function"
    },
    {
      "constant": true,
      "inputs": [
        {
          "name": "voter",
          "type": "address"
        }
      ],
      "name": "getVote",
      "outputs": [
        {
          "name": "",
          "type": "string"
        }
      ],
      "payable": false,
      "stateMutability": "view",
      "type": "function"
    },
    {
      "constant": true,
      "inputs": [],
      "name": "owner",
      "outputs": [
        {
          "name": "",
          "type": "address"
        }
      ],
      "payable": false,
      "stateMutability": "view",
      "type": "function"
    },
    {
      "constant": false,
      "inputs": [
        {
          "name": "vote",
          "type": "string"
        }
      ],
      "name": "updateVote",
      "outputs": [],
      "payable": false,
      "stateMutability": "nonpayable",
      "type": "function"
    },
    {
      "constant": false,
      "inputs": [
        {
          "name": "vote",
          "type": "string"
        }
      ],
      "name": "castVote",
      "outputs": [],
      "payable": false,
      "stateMutability": "nonpayable",
      "type": "function"
    },
    {
      "constant": true,
      "inputs": [],
      "name": "isLocked",
      "outputs": [
        {
          "name": "",
          "type": "bool"
        }
      ],
      "payable": false,
      "stateMutability": "view",
      "type": "function"
    },
    {
      "constant": false,
      "inputs": [],
      "name": "unlock",
      "outputs": [],
      "payable": false,
      "stateMutability": "nonpayable",
      "type": "function"
    },
    {
      "constant": true,
      "inputs": [],
      "name": "isClosed",
      "outputs": [
        {
          "name": "",
          "type": "bool"
        }
      ],
      "payable": false,
      "stateMutability": "view",
      "type": "function"
    },
    {
      "constant": false,
      "inputs": [],
      "name": "clearBallots",
      "outputs": [],
      "payable": false,
      "stateMutability": "nonpayable",
      "type": "function"
    },
    {
      "constant": false,
      "inputs": [
        {
          "name": "newOwner",
          "type": "address"
        }
      ],
      "name": "transferOwnership",
      "outputs": [],
      "payable": false,
      "stateMutability": "nonpayable",
      "type": "function"
    },
    {
      "constant": false,
      "inputs": [],
      "name": "lock",
      "outputs": [],
      "payable": false,
      "stateMutability": "nonpayable",
      "type": "function"
    },
    {
      "constant": false,
      "inputs": [
        {
          "name": "bal",
          "type": "address"
        }
      ],
      "name": "addBallot",
      "outputs": [],
      "payable": false,
      "stateMutability": "nonpayable",
      "type": "function"
    },
    {
      "inputs": [
        {
          "name": "el",
          "type": "address"
        },
        {
          "name": "reg",
          "type": "address"
        }
      ],
      "payable": false,
      "stateMutability": "nonpayable",
      "type": "constructor"
    },
    {
      "anonymous": false,
      "inputs": [
        {
          "indexed": false,
          "name": "voter",
          "type": "address"
        }
      ],
      "name": "Vote",
      "type": "event"
    },
    {
      "anonymous": false,
      "inputs": [
        {
          "indexed": false,
          "name": "voter",
          "type": "address"
        }
      ],
      "name": "UpdateVote",
      "type": "event"
    },
    {
      "anonymous": false,
      "inputs": [
        {
          "indexed": false,
          "name": "voter",
          "type": "address"
        }
      ],
      "name": "RegisterVoter",
      "type": "event"
    },
    {
      "anonymous": false,
      "inputs": [
        {
          "indexed": false,
          "name": "voter",
          "type": "address"
        }
      ],
      "name": "UnregisterVoter",
      "type": "event"
    },
    {
      "anonymous": false,
      "inputs": [],
      "name": "Closed",
      "type": "event"
    },
    {
      "anonymous": false,
      "inputs": [],
      "name": "Activated",
      "type": "event"
    },
    {
      "anonymous": false,
      "inputs": [],
      "name": "Aborted",
      "type": "event"
    },
    {
      "anonymous": false,
      "inputs": [],
      "name": "Locked",
      "type": "event"
    },
    {
      "anonymous": false,
      "inputs": [],
      "name": "Unlocked",
      "type": "event"
    },
    {
      "anonymous": false,
      "inputs": [
        {
          "indexed": true,
          "name": "previousOwner",
          "type": "address"
        },
        {
          "indexed": true,
          "name": "newOwner",
          "type": "address"
        }
      ],
      "name": "OwnershipTransferred",
      "type": "event"
    }
  ],
  "bytecode": "0x60606040526002805461ffff19169055341561001a57600080fd5b6040516040806111c6833981016040528080519190602001805160008054600160a060020a03338116600160a060020a0319928316179092556002805496831662010000026201000060b060020a03199097169690961790955560088054919092169416939093179092555050611130806100966000396000f300606060405236156100eb5763ffffffff60e060020a6000350416630f15f4c081146100f05780631785f53c14610105578063265050b6146101245780632ec2c2461461015b57806335a063b41461017a57806343d726d61461018d5780634420e486146101a057806370480275146101bf5780638d337b81146101de5780638da5cb5b1461027457806392642c4b146102a35780639cc2d993146102f4578063a4e2d63414610345578063a69df4b51461036c578063c2b6b58c1461037f578063d5cc86c414610392578063f2fde38b146103a5578063f83d08ba146103c4578063f8c74afa146103d7575b600080fd5b34156100fb57600080fd5b6101036103f6565b005b341561011057600080fd5b610103600160a060020a03600435166104a8565b341561012f57600080fd5b610137610509565b6040518082600381111561014757fe5b60ff16815260200191505060405180910390f35b341561016657600080fd5b610103600160a060020a0360043516610517565b341561018557600080fd5b610103610605565b341561019857600080fd5b610103610682565b34156101ab57600080fd5b610103600160a060020a0360043516610734565b34156101ca57600080fd5b610103600160a060020a03600435166107da565b34156101e957600080fd5b6101fd600160a060020a0360043516610841565b60405160208082528190810183818151815260200191508051906020019080838360005b83811015610239578082015183820152602001610221565b50505050905090810190601f1680156102665780820380516001836020036101000a031916815260200191505b509250505060405180910390f35b341561027f57600080fd5b61028761093d565b604051600160a060020a03909116815260200160405180910390f35b34156102ae57600080fd5b61010360046024813581810190830135806020601f8201819004810201604051908101604052818152929190602084018383808284375094965061094c95505050505050565b34156102ff57600080fd5b61010360046024813581810190830135806020601f82018190048102016040519081016040528181529291906020840183838082843750949650610a8695505050505050565b341561035057600080fd5b610358610c75565b604051901515815260200160405180910390f35b341561037757600080fd5b610103610c7f565b341561038a57600080fd5b610358610cf7565b341561039d57600080fd5b610103610d16565b34156103b057600080fd5b610103600160a060020a0360043516610df1565b34156103cf57600080fd5b610103610e8c565b34156103e257600080fd5b610103600160a060020a0360043516610f07565b6103fe610c75565b15801561042057506000600254610100900460ff16600381111561041e57fe5b145b151561042b57600080fd5b60005433600160a060020a03908116911614806104605750600160a060020a03331660009081526001602052604090205460ff165b151561046b57600080fd5b6002805461ff0019166101001790557fed1cd0670ee0c0017f550451a038818c696d0b6a9d6ce5b369e44275573cf9b060405160405180910390a1565b60005433600160a060020a03908116911614806104dd5750600160a060020a03331660009081526001602052604090205460ff165b15156104e857600080fd5b600160a060020a03166000908152600160205260409020805460ff19169055565b600254610100900460ff1681565b60005433600160a060020a039081169116148061054c5750600160a060020a03331660009081526001602052604090205460ff165b151561055757600080fd5b600160a060020a03811660009081526007602052604090205460ff1680156105985750600160a060020a03811660009081526006602052604090205460ff16155b15156105a357600080fd5b600160a060020a03811660009081526007602052604090819020805460ff191690557f4578b342355f8db2b56526115fcc8d0254c12796bfd1055a4eead24cea1764cc90829051600160a060020a03909116815260200160405180910390a150565b60005433600160a060020a039081169116148061063a5750600160a060020a03331660009081526001602052604090205460ff165b151561064557600080fd5b6002805461ff0019166103001790557f72c874aeff0b183a56e2b79c71b46e1aed4dee5e09862134b8821ba2fddbf8bf60405160405180910390a1565b61068a610c75565b1580156106ac57506001600254610100900460ff1660038111156106aa57fe5b145b15156106b757600080fd5b60005433600160a060020a03908116911614806106ec5750600160a060020a03331660009081526001602052604090205460ff165b15156106f757600080fd5b6002805461ff0019166102001790557f1cdde67b72a90f19919ac732a437ac2f7a10fc128d28c2a6e525d89ce5cd9d3a60405160405180910390a1565b60085433600160a060020a0390811691161461074f57600080fd5b600160a060020a03811660009081526007602052604090205460ff161561077557600080fd5b600160a060020a03811660009081526007602052604090819020805460ff191660011790557f15fe6f1bc57ee784ec1d747d150facfe23b3d8f21303f37b9c99ff8d2389c82690829051600160a060020a03909116815260200160405180910390a150565b60005433600160a060020a039081169116148061080f5750600160a060020a03331660009081526001602052604090205460ff165b151561081a57600080fd5b600160a060020a03166000908152600160208190526040909120805460ff19169091179055565b610849611013565b610851610cf7565b8061086d575081600160a060020a031633600160a060020a0316145b151561087857600080fd5b6005600083600160a060020a0316600160a060020a031681526020019081526020016000208054600181600116156101000203166002900480601f0160208091040260200160405190810160405280929190818152602001828054600181600116156101000203166002900480156109315780601f1061090657610100808354040283529160200191610931565b820191906000526020600020905b81548152906001019060200180831161091457829003601f168201915b50505050509050919050565b600054600160a060020a031681565b610954610c75565b15801561097657506001600254610100900460ff16600381111561097457fe5b145b151561098157600080fd5b600254620100009004600160a060020a031663bf41bf366000604051602001526040518163ffffffff1660e060020a028152600401602060405180830381600087803b15156109cf57600080fd5b6102c65a03f115156109e057600080fd5b5050506040518051905015156109f557600080fd5b600160a060020a03331660009081526006602052604090205460ff161515610a1c57600080fd5b600160a060020a0333166000908152600560205260409020818051610a45929160200190611025565b507f207900c36507982d6ee9c85ba6680c12f516a7948d0a974ecdeb36225372511b33604051600160a060020a03909116815260200160405180910390a150565b6000610a90610c75565b158015610ab257506001600254610100900460ff166003811115610ab057fe5b145b1515610abd57600080fd5b600160a060020a03331660009081526006602052604090205460ff1615610ae357600080fd5b600160a060020a0333166000908152600660209081526040808320805460ff19166001179055600790915290205460ff161515610b1f57600080fd5b600160a060020a0333166000908152600560205260409020828051610b48929160200190611025565b50600090505b600454811015610bdb576004805482908110610b6657fe5b600091825260209091200154600160a060020a03166353358fc43360405160e060020a63ffffffff8416028152600160a060020a039091166004820152602401600060405180830381600087803b1515610bbf57600080fd5b6102c65a03f11515610bd057600080fd5b505050600101610b4e565b600254620100009004600160a060020a0316630fb524ce6040518163ffffffff1660e060020a028152600401600060405180830381600087803b1515610c2057600080fd5b6102c65a03f11515610c3157600080fd5b5050507ff5b08346e1e6b0b55d07ce94e81fcb198d47fbbecfea3b9a476f454c86761ec433604051600160a060020a03909116815260200160405180910390a15050565b60025460ff165b90565b60005433600160a060020a0390811691161480610cb45750600160a060020a03331660009081526001602052604090205460ff165b1515610cbf57600080fd5b6002805460ff191690557f19aad37188a1d3921e29eb3c66acf43d81975e107cb650d58cca878627955fd660405160405180910390a1565b600060028054610100900460ff166003811115610d1057fe5b14905090565b6000610d20610c75565b158015610d4257506000600254610100900460ff166003811115610d4057fe5b145b1515610d4d57600080fd5b60005433600160a060020a0390811691161480610d825750600160a060020a03331660009081526001602052604090205460ff165b1515610d8d57600080fd5b5060005b600454811015610de25760036000600483815481101515610dae57fe5b6000918252602080832090910154600160a060020a031683528201929092526040019020805460ff19169055600101610d91565b610dee600460006110a3565b50565b60005433600160a060020a03908116911614610e0c57600080fd5b600160a060020a0381161515610e2157600080fd5b600054600160a060020a0380831691167f8be0079c531659141344cd1fd0a4f28419497f9722a3daafe3b4186f6b6457e060405160405180910390a36000805473ffffffffffffffffffffffffffffffffffffffff1916600160a060020a0392909216919091179055565b60005433600160a060020a0390811691161480610ec15750600160a060020a03331660009081526001602052604090205460ff165b1515610ecc57600080fd5b6002805460ff191660011790557f0f2e5b6c72c6a4491efd919a9f9a409f324ef0708c11ee57d410c2cb06c0992b60405160405180910390a1565b610f0f610c75565b158015610f3157506000600254610100900460ff166003811115610f2f57fe5b145b1515610f3c57600080fd5b60005433600160a060020a0390811691161480610f715750600160a060020a03331660009081526001602052604090205460ff165b1515610f7c57600080fd5b600160a060020a03811660009081526003602052604090205460ff1615610fa257600080fd5b600160a060020a0381166000908152600360205260409020805460ff191660019081179091556004805490918101610fda83826110c1565b506000918252602090912001805473ffffffffffffffffffffffffffffffffffffffff1916600160a060020a0392909216919091179055565b60206040519081016040526000815290565b828054600181600116156101000203166002900490600052602060002090601f016020900481019282601f1061106657805160ff1916838001178555611093565b82800160010185558215611093579182015b82811115611093578251825591602001919060010190611078565b5061109f9291506110ea565b5090565b5080546000825590600052602060002090810190610dee91906110ea565b8154818355818115116110e5576000838152602090206110e59181019083016110ea565b505050565b610c7c91905b8082111561109f57600081556001016110f05600a165627a7a72305820c05c465b3b87362a93887fd212d4d180cabdd0fbb85ff5b9af1aa3fbf2ce403c0029",
  "source": "// ------------------------------------------------------------------------------\n// This file is part of netvote.\n//\n// netvote is free software: you can redistribute it and/or modify\n// it under the terms of the GNU General Public License as published by\n// the Free Software Foundation, either version 3 of the License, or\n// (at your option) any later version.\n//\n// netvote is distributed in the hope that it will be useful,\n// but WITHOUT ANY WARRANTY; without even the implied warranty of\n// MERCHANTABILITY or FITNESS FOR A PARTICULAR PURPOSE.  See the\n// GNU General Public License for more details.\n//\n// You should have received a copy of the GNU General Public License\n// along with solidity.  If not, see <http://www.gnu.org/licenses/>\n//\n// (c) 2017 netvote contributors.\n//------------------------------------------------------------------------------\n\npragma solidity ^0.4.17;\n\nimport \"../ElectionPhaseable.sol\";\nimport \"./Election.sol\";\nimport \"./Ballot.sol\";\n\n\ncontract RegistrationPool is ElectionPhaseable {\n    Election election;\n    event Vote(address voter);\n    event UpdateVote(address voter);\n    event RegisterVoter(address voter);\n    event UnregisterVoter(address voter);\n\n    // map that lets us avoid adding duplicate ballots to ballot list\n    mapping (address => bool) ballotExists;\n\n    // list of ballots where votes will be distributed\n    // note: ballot must also allow this pool\n    address[] ballots;\n\n    // vote for each voter\n    mapping (address => string) votes;\n\n    // map to prevent duplicate votes\n    mapping (address => bool) voterVoted;\n\n    // map to record whether voter is registered\n    mapping (address => bool) registeredVoters;\n\n    address registrar;\n\n    function RegistrationPool(address el, address reg) public {\n        election = Election(el);\n        registrar = reg;\n    }\n\n    modifier onlyRegistrar() {\n        require(msg.sender == registrar);\n        _;\n    }\n\n    modifier registeredVoter() {\n        require(registeredVoters[msg.sender]);\n        _;\n    }\n\n    // register a voter\n    function register(address v) public onlyRegistrar {\n        require(!registeredVoters[v]);\n        registeredVoters[v] = true;\n        RegisterVoter(v);\n    }\n\n    // only can be unregistered if not already voted\n    function unregister(address v) public admin {\n        require(registeredVoters[v] && !voterVoted[v]);\n        delete registeredVoters[v];\n        UnregisterVoter(v);\n    }\n\n    // add a ballot to this pool\n    // note: ballot must also allow this pool\n    function addBallot(address bal) public building admin {\n        require(!ballotExists[bal]);\n        ballotExists[bal] = true;\n        ballots.push(bal);\n    }\n\n    // get a particular voter's vote (only voter can read unless closed)\n    function getVote(address voter) public constant returns (string) {\n        require(isClosed() || msg.sender == voter);\n        return votes[voter];\n    }\n\n    // reset the ballot list\n    function clearBallots() public building admin {\n        for (uint256 i = 0; i<ballots.length; i++) {\n            delete ballotExists[ballots[i]];\n        }\n        delete ballots;\n    }\n\n    // avoids allowing a duplicate vote\n    modifier notDuplicate() {\n        require(!voterVoted[msg.sender]);\n        voterVoted[msg.sender] = true;\n        _;\n    }\n\n    // checks election to see if updates to votes are allowed\n    modifier updatesAllowed() {\n        require(election.allowVoteUpdates());\n        _;\n    }\n\n    // for each ballot, cast vote for sender, store vote to pool\n    function castVote(string vote) public voting notDuplicate registeredVoter {\n        votes[msg.sender] = vote;\n        for (uint256 i = 0; i<ballots.length; i++) {\n            Ballot(ballots[i]).castVote(msg.sender);\n        }\n        election.castVote();\n        Vote(msg.sender);\n    }\n\n    // voter can update their vote if election allows it\n    function updateVote(string vote) public voting updatesAllowed {\n        require(voterVoted[msg.sender]);\n        votes[msg.sender] = vote;\n        UpdateVote(msg.sender);\n    }\n}",
  "sourcePath": "/Users/slanders/netvote/elections/contracts/elections/RegistrationPool.sol",
  "schemaVersion": "1.0.0",
  "updatedAt": "2017-11-27T21:41:59.010Z"
}