{
  "contractName": "TieredElection",
  "abi": [
    {
      "constant": true,
      "inputs": [
        {
          "name": "index",
          "type": "uint256"
        }
      ],
      "name": "getPool",
      "outputs": [
        {
          "name": "",
          "type": "address"
        }
      ],
      "payable": false,
      "stateMutability": "view",
      "type": "function"
    },
    {
      "constant": false,
      "inputs": [],
      "name": "activate",
      "outputs": [],
      "payable": false,
      "stateMutability": "nonpayable",
      "type": "function"
    },
    {
      "constant": true,
      "inputs": [
        {
          "name": "b",
          "type": "address"
        }
      ],
      "name": "ballotExists",
      "outputs": [
        {
          "name": "",
          "type": "bool"
        }
      ],
      "payable": false,
      "stateMutability": "view",
      "type": "function"
    },
    {
      "constant": false,
      "inputs": [
        {
          "name": "addr",
          "type": "address"
        }
      ],
      "name": "removeAdmin",
      "outputs": [],
      "payable": false,
      "stateMutability": "nonpayable",
      "type": "function"
    },
    {
      "constant": true,
      "inputs": [
        {
          "name": "p",
          "type": "address"
        }
      ],
      "name": "poolExists",
      "outputs": [
        {
          "name": "",
          "type": "bool"
        }
      ],
      "payable": false,
      "stateMutability": "view",
      "type": "function"
    },
    {
      "constant": true,
      "inputs": [
        {
          "name": "addr",
          "type": "address"
        }
      ],
      "name": "isAdmin",
      "outputs": [
        {
          "name": "",
          "type": "bool"
        }
      ],
      "payable": false,
      "stateMutability": "view",
      "type": "function"
    },
    {
      "constant": true,
      "inputs": [],
      "name": "electionPhase",
      "outputs": [
        {
          "name": "",
          "type": "uint8"
        }
      ],
      "payable": false,
      "stateMutability": "view",
      "type": "function"
    },
    {
      "constant": false,
      "inputs": [],
      "name": "abort",
      "outputs": [],
      "payable": false,
      "stateMutability": "nonpayable",
      "type": "function"
    },
    {
      "constant": false,
      "inputs": [
        {
          "name": "p",
          "type": "address"
        }
      ],
      "name": "removePool",
      "outputs": [],
      "payable": false,
      "stateMutability": "nonpayable",
      "type": "function"
    },
    {
      "constant": false,
      "inputs": [],
      "name": "close",
      "outputs": [],
      "payable": false,
      "stateMutability": "nonpayable",
      "type": "function"
    },
    {
      "constant": true,
      "inputs": [],
      "name": "electionType",
      "outputs": [
        {
          "name": "",
          "type": "string"
        }
      ],
      "payable": false,
      "stateMutability": "view",
      "type": "function"
    },
    {
      "constant": true,
      "inputs": [],
      "name": "privateKey",
      "outputs": [
        {
          "name": "",
          "type": "string"
        }
      ],
      "payable": false,
      "stateMutability": "view",
      "type": "function"
    },
    {
      "constant": false,
      "inputs": [],
      "name": "removeSelf",
      "outputs": [],
      "payable": false,
      "stateMutability": "nonpayable",
      "type": "function"
    },
    {
      "constant": true,
      "inputs": [],
      "name": "publicKey",
      "outputs": [
        {
          "name": "",
          "type": "string"
        }
      ],
      "payable": false,
      "stateMutability": "view",
      "type": "function"
    },
    {
      "constant": false,
      "inputs": [
        {
          "name": "key",
          "type": "string"
        }
      ],
      "name": "setPublicKey",
      "outputs": [],
      "payable": false,
      "stateMutability": "nonpayable",
      "type": "function"
    },
    {
      "constant": false,
      "inputs": [
        {
          "name": "addr",
          "type": "address"
        }
      ],
      "name": "addAdmin",
      "outputs": [],
      "payable": false,
      "stateMutability": "nonpayable",
      "type": "function"
    },
    {
      "constant": true,
      "inputs": [
        {
          "name": "p",
          "type": "address"
        }
      ],
      "name": "getPoolIndex",
      "outputs": [
        {
          "name": "",
          "type": "uint256"
        }
      ],
      "payable": false,
      "stateMutability": "view",
      "type": "function"
    },
    {
      "constant": true,
      "inputs": [],
      "name": "owner",
      "outputs": [
        {
          "name": "",
          "type": "address"
        }
      ],
      "payable": false,
      "stateMutability": "view",
      "type": "function"
    },
    {
      "constant": true,
      "inputs": [],
      "name": "getPoolCount",
      "outputs": [
        {
          "name": "",
          "type": "uint256"
        }
      ],
      "payable": false,
      "stateMutability": "view",
      "type": "function"
    },
    {
      "constant": true,
      "inputs": [],
      "name": "isLocked",
      "outputs": [
        {
          "name": "",
          "type": "bool"
        }
      ],
      "payable": false,
      "stateMutability": "view",
      "type": "function"
    },
    {
      "constant": false,
      "inputs": [],
      "name": "unlock",
      "outputs": [],
      "payable": false,
      "stateMutability": "nonpayable",
      "type": "function"
    },
    {
      "constant": true,
      "inputs": [],
      "name": "getBallotCount",
      "outputs": [
        {
          "name": "",
          "type": "uint256"
        }
      ],
      "payable": false,
      "stateMutability": "view",
      "type": "function"
    },
    {
      "constant": true,
      "inputs": [],
      "name": "allowVoteUpdates",
      "outputs": [
        {
          "name": "",
          "type": "bool"
        }
      ],
      "payable": false,
      "stateMutability": "view",
      "type": "function"
    },
    {
      "constant": true,
      "inputs": [],
      "name": "isClosed",
      "outputs": [
        {
          "name": "",
          "type": "bool"
        }
      ],
      "payable": false,
      "stateMutability": "view",
      "type": "function"
    },
    {
      "constant": false,
      "inputs": [
        {
          "name": "b",
          "type": "address"
        }
      ],
      "name": "removeBallot",
      "outputs": [],
      "payable": false,
      "stateMutability": "nonpayable",
      "type": "function"
    },
    {
      "constant": false,
      "inputs": [
        {
          "name": "p",
          "type": "address"
        }
      ],
      "name": "addPool",
      "outputs": [],
      "payable": false,
      "stateMutability": "nonpayable",
      "type": "function"
    },
    {
      "constant": true,
      "inputs": [
        {
          "name": "b",
          "type": "address"
        }
      ],
      "name": "getBallotIndex",
      "outputs": [
        {
          "name": "",
          "type": "uint256"
        }
      ],
      "payable": false,
      "stateMutability": "view",
      "type": "function"
    },
    {
      "constant": false,
      "inputs": [],
      "name": "deductVote",
      "outputs": [],
      "payable": false,
      "stateMutability": "nonpayable",
      "type": "function"
    },
    {
      "constant": false,
      "inputs": [
        {
          "name": "key",
          "type": "string"
        }
      ],
      "name": "setPrivateKey",
      "outputs": [],
      "payable": false,
      "stateMutability": "nonpayable",
      "type": "function"
    },
    {
      "constant": true,
      "inputs": [],
      "name": "checkConfig",
      "outputs": [
        {
          "name": "",
          "type": "bool"
        }
      ],
      "payable": false,
      "stateMutability": "view",
      "type": "function"
    },
    {
      "constant": false,
      "inputs": [
        {
          "name": "newOwner",
          "type": "address"
        }
      ],
      "name": "transferOwnership",
      "outputs": [],
      "payable": false,
      "stateMutability": "nonpayable",
      "type": "function"
    },
    {
      "constant": false,
      "inputs": [],
      "name": "lock",
      "outputs": [],
      "payable": false,
      "stateMutability": "nonpayable",
      "type": "function"
    },
    {
      "constant": false,
      "inputs": [
        {
          "name": "b",
          "type": "address"
        }
      ],
      "name": "addBallot",
      "outputs": [],
      "payable": false,
      "stateMutability": "nonpayable",
      "type": "function"
    },
    {
      "constant": true,
      "inputs": [
        {
          "name": "index",
          "type": "uint256"
        }
      ],
      "name": "getBallot",
      "outputs": [
        {
          "name": "",
          "type": "address"
        }
      ],
      "payable": false,
      "stateMutability": "view",
      "type": "function"
    },
    {
      "inputs": [
        {
          "name": "allowanceAddress",
          "type": "address"
        },
        {
          "name": "acct",
          "type": "address"
        },
        {
          "name": "allowUpdates",
          "type": "bool"
        },
        {
          "name": "revealer",
          "type": "address"
        }
      ],
      "payable": false,
      "stateMutability": "nonpayable",
      "type": "constructor"
    },
    {
      "anonymous": false,
      "inputs": [],
      "name": "KeyReleased",
      "type": "event"
    },
    {
      "anonymous": false,
      "inputs": [],
      "name": "Closed",
      "type": "event"
    },
    {
      "anonymous": false,
      "inputs": [],
      "name": "Activated",
      "type": "event"
    },
    {
      "anonymous": false,
      "inputs": [],
      "name": "Aborted",
      "type": "event"
    },
    {
      "anonymous": false,
      "inputs": [],
      "name": "Locked",
      "type": "event"
    },
    {
      "anonymous": false,
      "inputs": [],
      "name": "Unlocked",
      "type": "event"
    },
    {
      "anonymous": false,
      "inputs": [
        {
          "indexed": true,
          "name": "previousOwner",
          "type": "address"
        },
        {
          "indexed": true,
          "name": "newOwner",
          "type": "address"
        }
      ],
      "name": "OwnershipTransferred",
      "type": "event"
    }
  ],
  "bytecode": "0x60606040526000600260006101000a81548160ff0219169083151502179055506000600260016101000a81548160ff021916908360038111156200003f57fe5b02179055506000600560006101000a81548160ff02191690831515021790555034156200006b57600080fd5b60405160808062002509833981016040528080519060200190919080519060200190919080519060200190919080519060200190919050508383838380336000806101000a81548173ffffffffffffffffffffffffffffffffffffffff021916908373ffffffffffffffffffffffffffffffffffffffff160217905550806002806101000a81548173ffffffffffffffffffffffffffffffffffffffff021916908373ffffffffffffffffffffffffffffffffffffffff1602179055505083600560016101000a81548173ffffffffffffffffffffffffffffffffffffffff021916908373ffffffffffffffffffffffffffffffffffffffff16021790555082600660006101000a81548173ffffffffffffffffffffffffffffffffffffffff021916908373ffffffffffffffffffffffffffffffffffffffff16021790555081600660146101000a81548160ff021916908315150217905550505050506040805190810160405280600681526020017f5449455245440000000000000000000000000000000000000000000000000000815250600790805190602001906200021692919062000221565b5050505050620002d0565b828054600181600116156101000203166002900490600052602060002090601f016020900481019282601f106200026457805160ff191683800117855562000295565b8280016001018555821562000295579182015b828111156200029457825182559160200191906001019062000277565b5b509050620002a49190620002a8565b5090565b620002cd91905b80821115620002c9576000816000905550600101620002af565b5090565b90565b61222980620002e06000396000f3006060604052600436106101ac576000357c0100000000000000000000000000000000000000000000000000000000900463ffffffff168063068bcd8d146101b15780630f15f4c014610214578063138b1fa0146102295780631785f53c1461027a5780631e1c6a07146102b357806324d7806c14610304578063265050b61461035557806335a063b41461038c5780633b7d0946146103a157806343d726d6146103da5780634885c72a146103ef57806349da5a0f1461047d5780635e898dac1461050b57806363ffab31146105205780636f6fc077146105ae578063704802751461060b57806387063850146106445780638da5cb5b146106915780638eec5d70146106e6578063a4e2d6341461070f578063a69df4b51461073c578063b474149514610751578063bf41bf361461077a578063c2b6b58c146107a7578063d71c6772146107d4578063d914cd4b1461080d578063db30eafb14610846578063de61a73214610893578063e0d4f017146108a8578063f098fe4714610905578063f2fde38b14610932578063f83d08ba1461096b578063f8c74afa14610980578063f9d5ee75146109b9575b600080fd5b34156101bc57600080fd5b6101d26004808035906020019091905050610a1c565b604051808273ffffffffffffffffffffffffffffffffffffffff1673ffffffffffffffffffffffffffffffffffffffff16815260200191505060405180910390f35b341561021f57600080fd5b610227610abe565b005b341561023457600080fd5b610260600480803573ffffffffffffffffffffffffffffffffffffffff16906020019091905050610b7c565b604051808215151515815260200191505060405180910390f35b341561028557600080fd5b6102b1600480803573ffffffffffffffffffffffffffffffffffffffff16906020019091905050610c4a565b005b34156102be57600080fd5b6102ea600480803573ffffffffffffffffffffffffffffffffffffffff16906020019091905050610d00565b604051808215151515815260200191505060405180910390f35b341561030f57600080fd5b61033b600480803573ffffffffffffffffffffffffffffffffffffffff16906020019091905050610dce565b604051808215151515815260200191505060405180910390f35b341561036057600080fd5b610368610eb3565b6040518082600381111561037857fe5b60ff16815260200191505060405180910390f35b341561039757600080fd5b61039f610ec6565b005b34156103ac57600080fd5b6103d8600480803573ffffffffffffffffffffffffffffffffffffffff16906020019091905050610f2c565b005b34156103e557600080fd5b6103ed61103d565b005b34156103fa57600080fd5b6104026110e7565b6040518080602001828103825283818151815260200191508051906020019080838360005b83811015610442578082015181840152602081019050610427565b50505050905090810190601f16801561046f5780820380516001836020036101000a031916815260200191505b509250505060405180910390f35b341561048857600080fd5b610490611185565b6040518080602001828103825283818151815260200191508051906020019080838360005b838110156104d05780820151818401526020810190506104b5565b50505050905090810190601f1680156104fd5780820380516001836020036101000a031916815260200191505b509250505060405180910390f35b341561051657600080fd5b61051e611223565b005b341561052b57600080fd5b610533611291565b6040518080602001828103825283818151815260200191508051906020019080838360005b83811015610573578082015181840152602081019050610558565b50505050905090810190601f1680156105a05780820380516001836020036101000a031916815260200191505b509250505060405180910390f35b34156105b957600080fd5b610609600480803590602001908201803590602001908080601f0160208091040260200160405190810160405280939291908181526020018383808284378201915050505050509190505061132f565b005b341561061657600080fd5b610642600480803573ffffffffffffffffffffffffffffffffffffffff169060200190919050506113e9565b005b341561064f57600080fd5b61067b600480803573ffffffffffffffffffffffffffffffffffffffff1690602001909190505061149e565b6040518082815260200191505060405180910390f35b341561069c57600080fd5b6106a461156c565b604051808273ffffffffffffffffffffffffffffffffffffffff1673ffffffffffffffffffffffffffffffffffffffff16815260200191505060405180910390f35b34156106f157600080fd5b6106f9611591565b6040518082815260200191505060405180910390f35b341561071a57600080fd5b610722611629565b604051808215151515815260200191505060405180910390f35b341561074757600080fd5b61074f611640565b005b341561075c57600080fd5b6107646116b8565b6040518082815260200191505060405180910390f35b341561078557600080fd5b61078d611750565b604051808215151515815260200191505060405180910390f35b34156107b257600080fd5b6107ba611763565b604051808215151515815260200191505060405180910390f35b34156107df57600080fd5b61080b600480803573ffffffffffffffffffffffffffffffffffffffff16906020019091905050611793565b005b341561081857600080fd5b610844600480803573ffffffffffffffffffffffffffffffffffffffff169060200190919050506118a4565b005b341561085157600080fd5b61087d600480803573ffffffffffffffffffffffffffffffffffffffff169060200190919050506119b5565b6040518082815260200191505060405180910390f35b341561089e57600080fd5b6108a6611a83565b005b34156108b357600080fd5b610903600480803590602001908201803590602001908080601f01602080910402602001604051908101604052809392919081815260200183838082843782019150505050505091905050611b5d565b005b341561091057600080fd5b610918611c43565b604051808215151515815260200191505060405180910390f35b341561093d57600080fd5b610969600480803573ffffffffffffffffffffffffffffffffffffffff16906020019091905050611c4c565b005b341561097657600080fd5b61097e611da1565b005b341561098b57600080fd5b6109b7600480803573ffffffffffffffffffffffffffffffffffffffff16906020019091905050611e1a565b005b34156109c457600080fd5b6109da6004808035906020019091905050611f2b565b604051808273ffffffffffffffffffffffffffffffffffffffff1673ffffffffffffffffffffffffffffffffffffffff16815260200191505060405180910390f35b6000600b73__AddressSet____________________________635c2125a79091846000604051602001526040518363ffffffff167c0100000000000000000000000000000000000000000000000000000000028152600401808381526020018281526020019250505060206040518083038186803b1515610a9c57600080fd5b6102c65a03f41515610aad57600080fd5b505050604051805190509050919050565b610ac6611629565b158015610af8575060006003811115610adb57fe5b600260019054906101000a900460ff166003811115610af657fe5b145b1515610b0357600080fd5b610b0c33610dce565b1515610b1757600080fd5b610b1f611c43565b1515610b2a57600080fd5b6001600260016101000a81548160ff02191690836003811115610b4957fe5b02179055507fed1cd0670ee0c0017f550451a038818c696d0b6a9d6ce5b369e44275573cf9b060405160405180910390a1565b6000600873__AddressSet____________________________63758241e09091846000604051602001526040518363ffffffff167c0100000000000000000000000000000000000000000000000000000000028152600401808381526020018273ffffffffffffffffffffffffffffffffffffffff1673ffffffffffffffffffffffffffffffffffffffff1681526020019250505060206040518083038186803b1515610c2857600080fd5b6102c65a03f41515610c3957600080fd5b505050604051805190509050919050565b6000809054906101000a900473ffffffffffffffffffffffffffffffffffffffff1673ffffffffffffffffffffffffffffffffffffffff163373ffffffffffffffffffffffffffffffffffffffff16141515610ca557600080fd5b6000600160008373ffffffffffffffffffffffffffffffffffffffff1673ffffffffffffffffffffffffffffffffffffffff16815260200190815260200160002060006101000a81548160ff02191690831515021790555050565b6000600b73__AddressSet____________________________63758241e09091846000604051602001526040518363ffffffff167c0100000000000000000000000000000000000000000000000000000000028152600401808381526020018273ffffffffffffffffffffffffffffffffffffffff1673ffffffffffffffffffffffffffffffffffffffff1681526020019250505060206040518083038186803b1515610dac57600080fd5b6102c65a03f41515610dbd57600080fd5b505050604051805190509050919050565b60008073ffffffffffffffffffffffffffffffffffffffff168273ffffffffffffffffffffffffffffffffffffffff1614158015610eac57506000809054906101000a900473ffffffffffffffffffffffffffffffffffffffff1673ffffffffffffffffffffffffffffffffffffffff168273ffffffffffffffffffffffffffffffffffffffff161480610eab5750600160008373ffffffffffffffffffffffffffffffffffffffff1673ffffffffffffffffffffffffffffffffffffffff16815260200190815260200160002060009054906101000a900460ff165b5b9050919050565b600260019054906101000a900460ff1681565b610ecf33610dce565b1515610eda57600080fd5b6003600260016101000a81548160ff02191690836003811115610ef957fe5b02179055507f72c874aeff0b183a56e2b79c71b46e1aed4dee5e09862134b8821ba2fddbf8bf60405160405180910390a1565b610f34611629565b158015610f66575060006003811115610f4957fe5b600260019054906101000a900460ff166003811115610f6457fe5b145b1515610f7157600080fd5b610f7a33610dce565b1515610f8557600080fd5b600b73__AddressSet____________________________63e134066a9091836040518363ffffffff167c0100000000000000000000000000000000000000000000000000000000028152600401808381526020018273ffffffffffffffffffffffffffffffffffffffff1673ffffffffffffffffffffffffffffffffffffffff1681526020019250505060006040518083038186803b151561102657600080fd5b6102c65a03f4151561103757600080fd5b50505050565b611045611629565b15801561107757506001600381111561105a57fe5b600260019054906101000a900460ff16600381111561107557fe5b145b151561108257600080fd5b61108b33610dce565b151561109657600080fd5b60028060016101000a81548160ff021916908360038111156110b457fe5b02179055507f1cdde67b72a90f19919ac732a437ac2f7a10fc128d28c2a6e525d89ce5cd9d3a60405160405180910390a1565b60078054600181600116156101000203166002900480601f01602080910402602001604051908101604052809291908181526020018280546001816001161561010002031660029004801561117d5780601f106111525761010080835404028352916020019161117d565b820191906000526020600020905b81548152906001019060200180831161116057829003601f168201915b505050505081565b60048054600181600116156101000203166002900480601f01602080910402602001604051908101604052809291908181526020018280546001816001161561010002031660029004801561121b5780601f106111f05761010080835404028352916020019161121b565b820191906000526020600020905b8154815290600101906020018083116111fe57829003601f168201915b505050505081565b61122c33610dce565b151561123757600080fd5b6000600160003373ffffffffffffffffffffffffffffffffffffffff1673ffffffffffffffffffffffffffffffffffffffff16815260200190815260200160002060006101000a81548160ff021916908315150217905550565b60038054600181600116156101000203166002900480601f0160208091040260200160405190810160405280929190818152602001828054600181600116156101000203166002900480156113275780601f106112fc57610100808354040283529160200191611327565b820191906000526020600020905b81548152906001019060200180831161130a57829003601f168201915b505050505081565b611337611629565b15801561136957506000600381111561134c57fe5b600260019054906101000a900460ff16600381111561136757fe5b145b151561137457600080fd5b6002809054906101000a900473ffffffffffffffffffffffffffffffffffffffff1673ffffffffffffffffffffffffffffffffffffffff163373ffffffffffffffffffffffffffffffffffffffff161415156113cf57600080fd5b80600390805190602001906113e5929190612158565b5050565b6000809054906101000a900473ffffffffffffffffffffffffffffffffffffffff1673ffffffffffffffffffffffffffffffffffffffff163373ffffffffffffffffffffffffffffffffffffffff1614151561144457600080fd5b60018060008373ffffffffffffffffffffffffffffffffffffffff1673ffffffffffffffffffffffffffffffffffffffff16815260200190815260200160002060006101000a81548160ff02191690831515021790555050565b6000600b73__AddressSet____________________________6318c402499091846000604051602001526040518363ffffffff167c0100000000000000000000000000000000000000000000000000000000028152600401808381526020018273ffffffffffffffffffffffffffffffffffffffff1673ffffffffffffffffffffffffffffffffffffffff1681526020019250505060206040518083038186803b151561154a57600080fd5b6102c65a03f4151561155b57600080fd5b505050604051805190509050919050565b6000809054906101000a900473ffffffffffffffffffffffffffffffffffffffff1681565b6000600b73__AddressSet____________________________63913aa6cd90916000604051602001526040518263ffffffff167c01000000000000000000000000000000000000000000000000000000000281526004018082815260200191505060206040518083038186803b151561160957600080fd5b6102c65a03f4151561161a57600080fd5b50505060405180519050905090565b6000600260009054906101000a900460ff16905090565b61164933610dce565b151561165457600080fd5b600260009054906101000a900460ff16151561166f57600080fd5b6000600260006101000a81548160ff0219169083151502179055507f19aad37188a1d3921e29eb3c66acf43d81975e107cb650d58cca878627955fd660405160405180910390a1565b6000600873__AddressSet____________________________63913aa6cd90916000604051602001526040518263ffffffff167c01000000000000000000000000000000000000000000000000000000000281526004018082815260200191505060206040518083038186803b151561173057600080fd5b6102c65a03f4151561174157600080fd5b50505060405180519050905090565b600660149054906101000a900460ff1681565b60006002600381111561177257fe5b600260019054906101000a900460ff16600381111561178d57fe5b14905090565b61179b611629565b1580156117cd5750600060038111156117b057fe5b600260019054906101000a900460ff1660038111156117cb57fe5b145b15156117d857600080fd5b6117e133610dce565b15156117ec57600080fd5b600873__AddressSet____________________________63e134066a9091836040518363ffffffff167c0100000000000000000000000000000000000000000000000000000000028152600401808381526020018273ffffffffffffffffffffffffffffffffffffffff1673ffffffffffffffffffffffffffffffffffffffff1681526020019250505060006040518083038186803b151561188d57600080fd5b6102c65a03f4151561189e57600080fd5b50505050565b6118ac611629565b1580156118de5750600060038111156118c157fe5b600260019054906101000a900460ff1660038111156118dc57fe5b145b15156118e957600080fd5b6118f233610dce565b15156118fd57600080fd5b600b73__AddressSet____________________________63f9802f859091836040518363ffffffff167c0100000000000000000000000000000000000000000000000000000000028152600401808381526020018273ffffffffffffffffffffffffffffffffffffffff1673ffffffffffffffffffffffffffffffffffffffff1681526020019250505060006040518083038186803b151561199e57600080fd5b6102c65a03f415156119af57600080fd5b50505050565b6000600873__AddressSet____________________________6318c402499091846000604051602001526040518363ffffffff167c0100000000000000000000000000000000000000000000000000000000028152600401808381526020018273ffffffffffffffffffffffffffffffffffffffff1673ffffffffffffffffffffffffffffffffffffffff1681526020019250505060206040518083038186803b1515611a6157600080fd5b6102c65a03f41515611a7257600080fd5b505050604051805190509050919050565b600b73__AddressSet____________________________63758241e09091336000604051602001526040518363ffffffff167c0100000000000000000000000000000000000000000000000000000000028152600401808381526020018273ffffffffffffffffffffffffffffffffffffffff1673ffffffffffffffffffffffffffffffffffffffff1681526020019250505060206040518083038186803b1515611b2d57600080fd5b6102c65a03f41515611b3e57600080fd5b505050604051805190501515611b5357600080fd5b611b5b611fcd565b565b611b65611629565b158015611b97575060026003811115611b7a57fe5b600260019054906101000a900460ff166003811115611b9557fe5b145b1515611ba257600080fd5b6002809054906101000a900473ffffffffffffffffffffffffffffffffffffffff1673ffffffffffffffffffffffffffffffffffffffff163373ffffffffffffffffffffffffffffffffffffffff16141515611bfd57600080fd5b8060049080519060200190611c13929190612158565b507ff9d8c4f7f692590eaf6d41d6160024ffe0ce509fa752efcf47543eb851869cfb60405160405180910390a150565b60006001905090565b6000809054906101000a900473ffffffffffffffffffffffffffffffffffffffff1673ffffffffffffffffffffffffffffffffffffffff163373ffffffffffffffffffffffffffffffffffffffff16141515611ca757600080fd5b600073ffffffffffffffffffffffffffffffffffffffff168173ffffffffffffffffffffffffffffffffffffffff1614151515611ce357600080fd5b8073ffffffffffffffffffffffffffffffffffffffff166000809054906101000a900473ffffffffffffffffffffffffffffffffffffffff1673ffffffffffffffffffffffffffffffffffffffff167f8be0079c531659141344cd1fd0a4f28419497f9722a3daafe3b4186f6b6457e060405160405180910390a3806000806101000a81548173ffffffffffffffffffffffffffffffffffffffff021916908373ffffffffffffffffffffffffffffffffffffffff16021790555050565b611daa33610dce565b1515611db557600080fd5b600260009054906101000a900460ff16151515611dd157600080fd5b6001600260006101000a81548160ff0219169083151502179055507f0f2e5b6c72c6a4491efd919a9f9a409f324ef0708c11ee57d410c2cb06c0992b60405160405180910390a1565b611e22611629565b158015611e54575060006003811115611e3757fe5b600260019054906101000a900460ff166003811115611e5257fe5b145b1515611e5f57600080fd5b611e6833610dce565b1515611e7357600080fd5b600873__AddressSet____________________________63f9802f859091836040518363ffffffff167c0100000000000000000000000000000000000000000000000000000000028152600401808381526020018273ffffffffffffffffffffffffffffffffffffffff1673ffffffffffffffffffffffffffffffffffffffff1681526020019250505060006040518083038186803b1515611f1457600080fd5b6102c65a03f41515611f2557600080fd5b50505050565b6000600873__AddressSet____________________________635c2125a79091846000604051602001526040518363ffffffff167c0100000000000000000000000000000000000000000000000000000000028152600401808381526020018281526020019250505060206040518083038186803b1515611fab57600080fd5b6102c65a03f41515611fbc57600080fd5b505050604051805190509050919050565b611fd5611629565b158015612007575060016003811115611fea57fe5b600260019054906101000a900460ff16600381111561200557fe5b145b151561201257600080fd5b600560009054906101000a900460ff1615151561202e57600080fd5b6001600560006101000a81548160ff021916908315150217905550600560019054906101000a900473ffffffffffffffffffffffffffffffffffffffff1673ffffffffffffffffffffffffffffffffffffffff1663dff6797c600660009054906101000a900473ffffffffffffffffffffffffffffffffffffffff166040518263ffffffff167c0100000000000000000000000000000000000000000000000000000000028152600401808273ffffffffffffffffffffffffffffffffffffffff1673ffffffffffffffffffffffffffffffffffffffff168152602001915050600060405180830381600087803b151561212757600080fd5b6102c65a03f1151561213857600080fd5b5050506000600560006101000a81548160ff021916908315150217905550565b828054600181600116156101000203166002900490600052602060002090601f016020900481019282601f1061219957805160ff19168380011785556121c7565b828001600101855582156121c7579182015b828111156121c65782518255916020019190600101906121ab565b5b5090506121d491906121d8565b5090565b6121fa91905b808211156121f65760008160009055506001016121de565b5090565b905600a165627a7a72305820de13300386443398dcaa474acb228ab8450e3b1c31d8ae5653979573d2826c730029",
  "source": "// ------------------------------------------------------------------------------\n// This file is part of netvote.\n//\n// netvote is free software: you can redistribute it and/or modify\n// it under the terms of the GNU General Public License as published by\n// the Free Software Foundation, either version 3 of the License, or\n// (at your option) any later version.\n//\n// netvote is distributed in the hope that it will be useful,\n// but WITHOUT ANY WARRANTY; without even the implied warranty of\n// MERCHANTABILITY or FITNESS FOR A PARTICULAR PURPOSE.  See the\n// GNU General Public License for more details.\n//\n// You should have received a copy of the GNU General Public License\n// along with solidity.  If not, see <http://www.gnu.org/licenses/>\n//\n// (c) 2017 netvote contributors.\n//------------------------------------------------------------------------------\n\npragma solidity ^0.4.17;\n\nimport \"../links/BallotRegistry.sol\";\nimport \"../links/PoolRegistry.sol\";\nimport \"../BaseElection.sol\";\n\n\n/**\n * @title TieredElection\n * @dev This allows one to map many ballots and pools into a single election.\n * Only registered pools are allowed to transact vote allowance.\n */\ncontract TieredElection is BaseElection, BallotRegistry, PoolRegistry {\n\n    /**\n     * @dev Create an election\n     * @param allowanceAddress address of Netvote VoteAllowance contract\n     * @param acct address of account from whom to deduct votes from\n     * @param allowUpdates allow voters to update votes after voting\n     */\n    function TieredElection(\n        address allowanceAddress,\n        address acct,\n        bool allowUpdates,\n        address revealer) BaseElection(allowanceAddress, acct, allowUpdates, revealer) public\n    {\n        electionType = \"TIERED\";\n    }\n\n    function checkConfig() public constant returns (bool) {\n        //TODO: implement confirmation that election is configured\n        return true;\n    }\n\n    //only allow pools that are listed explicitly\n    modifier poolIsAllowed() {\n        require(poolSet.contains(msg.sender));\n        _;\n    }\n\n    function deductVote() public poolIsAllowed {\n        super.deductVote();\n    }\n}",
  "sourcePath": "/Users/slanders/netvote/elections-solidity/contracts/elections/tiered/TieredElection.sol",
  "compiler": {
    "name": "solc",
    "version": "0.4.18+commit.9cf6e910.Emscripten.clang"
  },
  "schemaVersion": "1.0.1",
  "updatedAt": "2018-01-02T21:50:06.426Z"
}