{
  "contractName": "TieredBallot",
  "abi": [
    {
      "constant": true,
      "inputs": [
        {
          "name": "group",
          "type": "bytes32"
        }
      ],
      "name": "groupPoolCount",
      "outputs": [
        {
          "name": "",
          "type": "uint256"
        }
      ],
      "payable": false,
      "stateMutability": "view",
      "type": "function"
    },
    {
      "constant": true,
      "inputs": [],
      "name": "getGroupCount",
      "outputs": [
        {
          "name": "",
          "type": "uint256"
        }
      ],
      "payable": false,
      "stateMutability": "view",
      "type": "function"
    },
    {
      "constant": true,
      "inputs": [
        {
          "name": "index",
          "type": "uint256"
        }
      ],
      "name": "getPool",
      "outputs": [
        {
          "name": "",
          "type": "address"
        }
      ],
      "payable": false,
      "stateMutability": "view",
      "type": "function"
    },
    {
      "constant": false,
      "inputs": [],
      "name": "activate",
      "outputs": [],
      "payable": false,
      "stateMutability": "nonpayable",
      "type": "function"
    },
    {
      "constant": false,
      "inputs": [
        {
          "name": "addr",
          "type": "address"
        }
      ],
      "name": "removeAdmin",
      "outputs": [],
      "payable": false,
      "stateMutability": "nonpayable",
      "type": "function"
    },
    {
      "constant": true,
      "inputs": [
        {
          "name": "p",
          "type": "address"
        }
      ],
      "name": "poolExists",
      "outputs": [
        {
          "name": "",
          "type": "bool"
        }
      ],
      "payable": false,
      "stateMutability": "view",
      "type": "function"
    },
    {
      "constant": true,
      "inputs": [
        {
          "name": "addr",
          "type": "address"
        }
      ],
      "name": "isAdmin",
      "outputs": [
        {
          "name": "",
          "type": "bool"
        }
      ],
      "payable": false,
      "stateMutability": "view",
      "type": "function"
    },
    {
      "constant": true,
      "inputs": [],
      "name": "electionPhase",
      "outputs": [
        {
          "name": "",
          "type": "uint8"
        }
      ],
      "payable": false,
      "stateMutability": "view",
      "type": "function"
    },
    {
      "constant": false,
      "inputs": [],
      "name": "abort",
      "outputs": [],
      "payable": false,
      "stateMutability": "nonpayable",
      "type": "function"
    },
    {
      "constant": false,
      "inputs": [
        {
          "name": "p",
          "type": "address"
        }
      ],
      "name": "removePool",
      "outputs": [],
      "payable": false,
      "stateMutability": "nonpayable",
      "type": "function"
    },
    {
      "constant": false,
      "inputs": [
        {
          "name": "voteId",
          "type": "bytes32"
        }
      ],
      "name": "castVote",
      "outputs": [],
      "payable": false,
      "stateMutability": "nonpayable",
      "type": "function"
    },
    {
      "constant": false,
      "inputs": [
        {
          "name": "group",
          "type": "bytes32"
        }
      ],
      "name": "removeGroup",
      "outputs": [],
      "payable": false,
      "stateMutability": "nonpayable",
      "type": "function"
    },
    {
      "constant": false,
      "inputs": [],
      "name": "close",
      "outputs": [],
      "payable": false,
      "stateMutability": "nonpayable",
      "type": "function"
    },
    {
      "constant": true,
      "inputs": [],
      "name": "election",
      "outputs": [
        {
          "name": "",
          "type": "address"
        }
      ],
      "payable": false,
      "stateMutability": "view",
      "type": "function"
    },
    {
      "constant": true,
      "inputs": [
        {
          "name": "pool",
          "type": "address"
        },
        {
          "name": "index",
          "type": "uint256"
        }
      ],
      "name": "getPoolGroupAt",
      "outputs": [
        {
          "name": "",
          "type": "bytes32"
        }
      ],
      "payable": false,
      "stateMutability": "view",
      "type": "function"
    },
    {
      "constant": false,
      "inputs": [],
      "name": "removeSelf",
      "outputs": [],
      "payable": false,
      "stateMutability": "nonpayable",
      "type": "function"
    },
    {
      "constant": true,
      "inputs": [
        {
          "name": "pool",
          "type": "address"
        },
        {
          "name": "i",
          "type": "uint256"
        }
      ],
      "name": "getPoolVoter",
      "outputs": [
        {
          "name": "",
          "type": "bytes32"
        }
      ],
      "payable": false,
      "stateMutability": "view",
      "type": "function"
    },
    {
      "constant": false,
      "inputs": [
        {
          "name": "addr",
          "type": "address"
        }
      ],
      "name": "addAdmin",
      "outputs": [],
      "payable": false,
      "stateMutability": "nonpayable",
      "type": "function"
    },
    {
      "constant": true,
      "inputs": [
        {
          "name": "group",
          "type": "bytes32"
        },
        {
          "name": "index",
          "type": "uint256"
        }
      ],
      "name": "getGroupPool",
      "outputs": [
        {
          "name": "",
          "type": "address"
        }
      ],
      "payable": false,
      "stateMutability": "view",
      "type": "function"
    },
    {
      "constant": true,
      "inputs": [
        {
          "name": "p",
          "type": "address"
        }
      ],
      "name": "getPoolIndex",
      "outputs": [
        {
          "name": "",
          "type": "uint256"
        }
      ],
      "payable": false,
      "stateMutability": "view",
      "type": "function"
    },
    {
      "constant": true,
      "inputs": [],
      "name": "owner",
      "outputs": [
        {
          "name": "",
          "type": "address"
        }
      ],
      "payable": false,
      "stateMutability": "view",
      "type": "function"
    },
    {
      "constant": true,
      "inputs": [],
      "name": "checkPools",
      "outputs": [
        {
          "name": "",
          "type": "bool"
        }
      ],
      "payable": false,
      "stateMutability": "view",
      "type": "function"
    },
    {
      "constant": true,
      "inputs": [],
      "name": "getPoolCount",
      "outputs": [
        {
          "name": "",
          "type": "uint256"
        }
      ],
      "payable": false,
      "stateMutability": "view",
      "type": "function"
    },
    {
      "constant": true,
      "inputs": [
        {
          "name": "pool",
          "type": "address"
        }
      ],
      "name": "getPoolVoterCount",
      "outputs": [
        {
          "name": "",
          "type": "uint256"
        }
      ],
      "payable": false,
      "stateMutability": "view",
      "type": "function"
    },
    {
      "constant": true,
      "inputs": [],
      "name": "isLocked",
      "outputs": [
        {
          "name": "",
          "type": "bool"
        }
      ],
      "payable": false,
      "stateMutability": "view",
      "type": "function"
    },
    {
      "constant": false,
      "inputs": [],
      "name": "unlock",
      "outputs": [],
      "payable": false,
      "stateMutability": "nonpayable",
      "type": "function"
    },
    {
      "constant": true,
      "inputs": [],
      "name": "metadataLocation",
      "outputs": [
        {
          "name": "",
          "type": "string"
        }
      ],
      "payable": false,
      "stateMutability": "view",
      "type": "function"
    },
    {
      "constant": true,
      "inputs": [],
      "name": "isClosed",
      "outputs": [
        {
          "name": "",
          "type": "bool"
        }
      ],
      "payable": false,
      "stateMutability": "view",
      "type": "function"
    },
    {
      "constant": true,
      "inputs": [
        {
          "name": "index",
          "type": "uint256"
        }
      ],
      "name": "getGroup",
      "outputs": [
        {
          "name": "",
          "type": "bytes32"
        }
      ],
      "payable": false,
      "stateMutability": "view",
      "type": "function"
    },
    {
      "constant": true,
      "inputs": [],
      "name": "checkElection",
      "outputs": [
        {
          "name": "",
          "type": "bool"
        }
      ],
      "payable": false,
      "stateMutability": "view",
      "type": "function"
    },
    {
      "constant": false,
      "inputs": [
        {
          "name": "p",
          "type": "address"
        }
      ],
      "name": "addPool",
      "outputs": [],
      "payable": false,
      "stateMutability": "nonpayable",
      "type": "function"
    },
    {
      "constant": false,
      "inputs": [
        {
          "name": "pool",
          "type": "address"
        },
        {
          "name": "group",
          "type": "bytes32"
        }
      ],
      "name": "addPoolToGroup",
      "outputs": [],
      "payable": false,
      "stateMutability": "nonpayable",
      "type": "function"
    },
    {
      "constant": true,
      "inputs": [
        {
          "name": "pool",
          "type": "address"
        }
      ],
      "name": "getPoolGroupCount",
      "outputs": [
        {
          "name": "",
          "type": "uint256"
        }
      ],
      "payable": false,
      "stateMutability": "view",
      "type": "function"
    },
    {
      "constant": true,
      "inputs": [],
      "name": "checkConfig",
      "outputs": [
        {
          "name": "",
          "type": "bool"
        }
      ],
      "payable": false,
      "stateMutability": "view",
      "type": "function"
    },
    {
      "constant": false,
      "inputs": [
        {
          "name": "newOwner",
          "type": "address"
        }
      ],
      "name": "transferOwnership",
      "outputs": [],
      "payable": false,
      "stateMutability": "nonpayable",
      "type": "function"
    },
    {
      "constant": false,
      "inputs": [],
      "name": "lock",
      "outputs": [],
      "payable": false,
      "stateMutability": "nonpayable",
      "type": "function"
    },
    {
      "constant": false,
      "inputs": [
        {
          "name": "group",
          "type": "bytes32"
        }
      ],
      "name": "addGroup",
      "outputs": [],
      "payable": false,
      "stateMutability": "nonpayable",
      "type": "function"
    },
    {
      "inputs": [
        {
          "name": "electionAddress",
          "type": "address"
        },
        {
          "name": "ownerAddress",
          "type": "address"
        },
        {
          "name": "location",
          "type": "string"
        }
      ],
      "payable": false,
      "stateMutability": "nonpayable",
      "type": "constructor"
    },
    {
      "anonymous": false,
      "inputs": [
        {
          "indexed": false,
          "name": "pool",
          "type": "address"
        },
        {
          "indexed": false,
          "name": "voteId",
          "type": "bytes32"
        }
      ],
      "name": "BallotVote",
      "type": "event"
    },
    {
      "anonymous": false,
      "inputs": [],
      "name": "Closed",
      "type": "event"
    },
    {
      "anonymous": false,
      "inputs": [],
      "name": "Activated",
      "type": "event"
    },
    {
      "anonymous": false,
      "inputs": [],
      "name": "Aborted",
      "type": "event"
    },
    {
      "anonymous": false,
      "inputs": [],
      "name": "Locked",
      "type": "event"
    },
    {
      "anonymous": false,
      "inputs": [],
      "name": "Unlocked",
      "type": "event"
    },
    {
      "anonymous": false,
      "inputs": [
        {
          "indexed": true,
          "name": "previousOwner",
          "type": "address"
        },
        {
          "indexed": true,
          "name": "newOwner",
          "type": "address"
        }
      ],
      "name": "OwnershipTransferred",
      "type": "event"
    }
  ],
  "bytecode": "0x60606040526000600260006101000a81548160ff0219169083151502179055506000600260016101000a81548160ff021916908360038111156200003f57fe5b021790555034156200005057600080fd5b6040516200313438038062003134833981016040528080519060200190919080519060200190919080518201919050508181336000806101000a81548173ffffffffffffffffffffffffffffffffffffffff021916908373ffffffffffffffffffffffffffffffffffffffff16021790555060018060008473ffffffffffffffffffffffffffffffffffffffff1673ffffffffffffffffffffffffffffffffffffffff16815260200190815260200160002060006101000a81548160ff0219169083151502179055508060039080519060200190620001319291906200026e565b505050600073ffffffffffffffffffffffffffffffffffffffff168373ffffffffffffffffffffffffffffffffffffffff16141515156200017157600080fd5b82600c60006101000a81548173ffffffffffffffffffffffffffffffffffffffff021916908373ffffffffffffffffffffffffffffffffffffffff160217905550600773__Bytes32Set____________________________63fffd959290917f414c4c00000000000000000000000000000000000000000000000000000000006040518363ffffffff167c01000000000000000000000000000000000000000000000000000000000281526004018083815260200182600019166000191681526020019250505060006040518083038186803b15156200025057600080fd5b6102c65a03f415156200026257600080fd5b5050505050506200031d565b828054600181600116156101000203166002900490600052602060002090601f016020900481019282601f10620002b157805160ff1916838001178555620002e2565b82800160010185558215620002e2579182015b82811115620002e1578251825591602001919060010190620002c4565b5b509050620002f19190620002f5565b5090565b6200031a91905b8082111562000316576000816000905550600101620002fc565b5090565b90565b612e07806200032d6000396000f3006060604052600436106101cd576000357c0100000000000000000000000000000000000000000000000000000000900463ffffffff168063027defc1146101d257806306545a931461020d578063068bcd8d146102365780630f15f4c0146102995780631785f53c146102ae5780631e1c6a07146102e757806324d7806c14610338578063265050b61461038957806335a063b4146103c05780633b7d0946146103d55780633efafb6e1461040e578063432732131461043557806343d726d61461045c5780634b1d3ede14610471578063597c92f7146104c65780635e898dac1461052457806368e3e6b61461053957806370480275146105975780637a4e367c146105d057806387063850146106405780638da5cb5b1461068d5780638e3d89cb146106e25780638eec5d701461070f578063978daca714610738578063a4e2d63414610785578063a69df4b5146107b2578063b86901af146107c7578063c2b6b58c14610855578063ceb6065414610882578063d1bdd4d3146108c1578063d914cd4b146108ee578063e5d3b25814610927578063e5de025a1461096d578063f098fe47146109ba578063f2fde38b146109e7578063f83d08ba14610a20578063fe2b699a14610a35575b600080fd5b34156101dd57600080fd5b6101f7600480803560001916906020019091905050610a5c565b6040518082815260200191505060405180910390f35b341561021857600080fd5b610220610b0f565b6040518082815260200191505060405180910390f35b341561024157600080fd5b6102576004808035906020019091905050610ba7565b604051808273ffffffffffffffffffffffffffffffffffffffff1673ffffffffffffffffffffffffffffffffffffffff16815260200191505060405180910390f35b34156102a457600080fd5b6102ac610c49565b005b34156102b957600080fd5b6102e5600480803573ffffffffffffffffffffffffffffffffffffffff16906020019091905050610d07565b005b34156102f257600080fd5b61031e600480803573ffffffffffffffffffffffffffffffffffffffff16906020019091905050610dbd565b604051808215151515815260200191505060405180910390f35b341561034357600080fd5b61036f600480803573ffffffffffffffffffffffffffffffffffffffff16906020019091905050610e8b565b604051808215151515815260200191505060405180910390f35b341561039457600080fd5b61039c610f70565b604051808260038111156103ac57fe5b60ff16815260200191505060405180910390f35b34156103cb57600080fd5b6103d3610f83565b005b34156103e057600080fd5b61040c600480803573ffffffffffffffffffffffffffffffffffffffff16906020019091905050610fe9565b005b341561041957600080fd5b6104336004808035600019169060200190919050506110fa565b005b341561044057600080fd5b61045a60048080356000191690602001909190505061135a565b005b341561046757600080fd5b61046f61165f565b005b341561047c57600080fd5b610484611709565b604051808273ffffffffffffffffffffffffffffffffffffffff1673ffffffffffffffffffffffffffffffffffffffff16815260200191505060405180910390f35b34156104d157600080fd5b610506600480803573ffffffffffffffffffffffffffffffffffffffff1690602001909190803590602001909190505061172f565b60405180826000191660001916815260200191505060405180910390f35b341561052f57600080fd5b61053761180f565b005b341561054457600080fd5b610579600480803573ffffffffffffffffffffffffffffffffffffffff1690602001909190803590602001909190505061187d565b60405180826000191660001916815260200191505060405180910390f35b34156105a257600080fd5b6105ce600480803573ffffffffffffffffffffffffffffffffffffffff169060200190919050506118df565b005b34156105db57600080fd5b6105fe600480803560001916906020019091908035906020019091905050611994565b604051808273ffffffffffffffffffffffffffffffffffffffff1673ffffffffffffffffffffffffffffffffffffffff16815260200191505060405180910390f35b341561064b57600080fd5b610677600480803573ffffffffffffffffffffffffffffffffffffffff16906020019091905050611a50565b6040518082815260200191505060405180910390f35b341561069857600080fd5b6106a0611b1e565b604051808273ffffffffffffffffffffffffffffffffffffffff1673ffffffffffffffffffffffffffffffffffffffff16815260200191505060405180910390f35b34156106ed57600080fd5b6106f5611b43565b604051808215151515815260200191505060405180910390f35b341561071a57600080fd5b610722612105565b6040518082815260200191505060405180910390f35b341561074357600080fd5b61076f600480803573ffffffffffffffffffffffffffffffffffffffff1690602001909190505061219d565b6040518082815260200191505060405180910390f35b341561079057600080fd5b6107986121e9565b604051808215151515815260200191505060405180910390f35b34156107bd57600080fd5b6107c5612200565b005b34156107d257600080fd5b6107da612278565b6040518080602001828103825283818151815260200191508051906020019080838360005b8381101561081a5780820151818401526020810190506107ff565b50505050905090810190601f1680156108475780820380516001836020036101000a031916815260200191505b509250505060405180910390f35b341561086057600080fd5b610868612316565b604051808215151515815260200191505060405180910390f35b341561088d57600080fd5b6108a36004808035906020019091905050612346565b60405180826000191660001916815260200191505060405180910390f35b34156108cc57600080fd5b6108d46123e8565b604051808215151515815260200191505060405180910390f35b34156108f957600080fd5b610925600480803573ffffffffffffffffffffffffffffffffffffffff16906020019091905050612529565b005b341561093257600080fd5b61096b600480803573ffffffffffffffffffffffffffffffffffffffff1690602001909190803560001916906020019091905050612664565b005b341561097857600080fd5b6109a4600480803573ffffffffffffffffffffffffffffffffffffffff169060200190919050506129d9565b6040518082815260200191505060405180910390f35b34156109c557600080fd5b6109cd612ab0565b604051808215151515815260200191505060405180910390f35b34156109f257600080fd5b610a1e600480803573ffffffffffffffffffffffffffffffffffffffff16906020019091905050612acf565b005b3415610a2b57600080fd5b610a33612c24565b005b3415610a4057600080fd5b610a5a600480803560001916906020019091905050612c9d565b005b6000600a6000836000191660001916815260200190815260200160002073__AddressSet____________________________63913aa6cd90916000604051602001526040518263ffffffff167c01000000000000000000000000000000000000000000000000000000000281526004018082815260200191505060206040518083038186803b1515610aed57600080fd5b6102c65a03f41515610afe57600080fd5b505050604051805190509050919050565b6000600773__Bytes32Set____________________________633640611190916000604051602001526040518263ffffffff167c01000000000000000000000000000000000000000000000000000000000281526004018082815260200191505060206040518083038186803b1515610b8757600080fd5b6102c65a03f41515610b9857600080fd5b50505060405180519050905090565b6000600473__AddressSet____________________________635c2125a79091846000604051602001526040518363ffffffff167c0100000000000000000000000000000000000000000000000000000000028152600401808381526020018281526020019250505060206040518083038186803b1515610c2757600080fd5b6102c65a03f41515610c3857600080fd5b505050604051805190509050919050565b610c516121e9565b158015610c83575060006003811115610c6657fe5b600260019054906101000a900460ff166003811115610c8157fe5b145b1515610c8e57600080fd5b610c9733610e8b565b1515610ca257600080fd5b610caa612ab0565b1515610cb557600080fd5b6001600260016101000a81548160ff02191690836003811115610cd457fe5b02179055507fed1cd0670ee0c0017f550451a038818c696d0b6a9d6ce5b369e44275573cf9b060405160405180910390a1565b6000809054906101000a900473ffffffffffffffffffffffffffffffffffffffff1673ffffffffffffffffffffffffffffffffffffffff163373ffffffffffffffffffffffffffffffffffffffff16141515610d6257600080fd5b6000600160008373ffffffffffffffffffffffffffffffffffffffff1673ffffffffffffffffffffffffffffffffffffffff16815260200190815260200160002060006101000a81548160ff02191690831515021790555050565b6000600473__AddressSet____________________________63758241e09091846000604051602001526040518363ffffffff167c0100000000000000000000000000000000000000000000000000000000028152600401808381526020018273ffffffffffffffffffffffffffffffffffffffff1673ffffffffffffffffffffffffffffffffffffffff1681526020019250505060206040518083038186803b1515610e6957600080fd5b6102c65a03f41515610e7a57600080fd5b505050604051805190509050919050565b60008073ffffffffffffffffffffffffffffffffffffffff168273ffffffffffffffffffffffffffffffffffffffff1614158015610f6957506000809054906101000a900473ffffffffffffffffffffffffffffffffffffffff1673ffffffffffffffffffffffffffffffffffffffff168273ffffffffffffffffffffffffffffffffffffffff161480610f685750600160008373ffffffffffffffffffffffffffffffffffffffff1673ffffffffffffffffffffffffffffffffffffffff16815260200190815260200160002060009054906101000a900460ff165b5b9050919050565b600260019054906101000a900460ff1681565b610f8c33610e8b565b1515610f9757600080fd5b6003600260016101000a81548160ff02191690836003811115610fb657fe5b02179055507f72c874aeff0b183a56e2b79c71b46e1aed4dee5e09862134b8821ba2fddbf8bf60405160405180910390a1565b610ff16121e9565b15801561102357506000600381111561100657fe5b600260019054906101000a900460ff16600381111561102157fe5b145b151561102e57600080fd5b61103733610e8b565b151561104257600080fd5b600473__AddressSet____________________________63e134066a9091836040518363ffffffff167c0100000000000000000000000000000000000000000000000000000000028152600401808381526020018273ffffffffffffffffffffffffffffffffffffffff1673ffffffffffffffffffffffffffffffffffffffff1681526020019250505060006040518083038186803b15156110e357600080fd5b6102c65a03f415156110f457600080fd5b50505050565b6111026121e9565b15801561113457506001600381111561111757fe5b600260019054906101000a900460ff16600381111561113257fe5b145b151561113f57600080fd5b600473__AddressSet____________________________63758241e09091336000604051602001526040518363ffffffff167c0100000000000000000000000000000000000000000000000000000000028152600401808381526020018273ffffffffffffffffffffffffffffffffffffffff1673ffffffffffffffffffffffffffffffffffffffff1681526020019250505060206040518083038186803b15156111e957600080fd5b6102c65a03f415156111fa57600080fd5b50505060405180519050151561120f57600080fd5b600d6000826000191660001916815260200190815260200160002060009054906101000a900460ff1615151561124457600080fd5b6001600d6000836000191660001916815260200190815260200160002060006101000a81548160ff021916908315150217905550600e60003373ffffffffffffffffffffffffffffffffffffffff1673ffffffffffffffffffffffffffffffffffffffff16815260200190815260200160002080548060010182816112c99190612d8a565b9160005260206000209001600083909190915090600019169055507f8da004b68c600da3aa991b5e006cb35a6909fb3a11e86cd1e36b7d97922da4a53382604051808373ffffffffffffffffffffffffffffffffffffffff1673ffffffffffffffffffffffffffffffffffffffff16815260200182600019166000191681526020019250505060405180910390a150565b6000806113656121e9565b15801561139757506000600381111561137a57fe5b600260019054906101000a900460ff16600381111561139557fe5b145b15156113a257600080fd5b6113ab33610e8b565b15156113b657600080fd5b600773__Bytes32Set____________________________639e3084b09091856040518363ffffffff167c01000000000000000000000000000000000000000000000000000000000281526004018083815260200182600019166000191681526020019250505060006040518083038186803b151561143357600080fd5b6102c65a03f4151561144457600080fd5b505050600091505b600473__AddressSet____________________________63913aa6cd90916000604051602001526040518263ffffffff167c01000000000000000000000000000000000000000000000000000000000281526004018082815260200191505060206040518083038186803b15156114c257600080fd5b6102c65a03f415156114d357600080fd5b5050506040518051905082101561165a57600473__AddressSet____________________________635c2125a79091846000604051602001526040518363ffffffff167c0100000000000000000000000000000000000000000000000000000000028152600401808381526020018281526020019250505060206040518083038186803b151561156257600080fd5b6102c65a03f4151561157357600080fd5b505050604051805190509050600b60008273ffffffffffffffffffffffffffffffffffffffff1673ffffffffffffffffffffffffffffffffffffffff16815260200190815260200160002073__Bytes32Set____________________________639e3084b09091856040518363ffffffff167c01000000000000000000000000000000000000000000000000000000000281526004018083815260200182600019166000191681526020019250505060006040518083038186803b151561163957600080fd5b6102c65a03f4151561164a57600080fd5b505050818060010192505061144c565b505050565b6116676121e9565b15801561169957506001600381111561167c57fe5b600260019054906101000a900460ff16600381111561169757fe5b145b15156116a457600080fd5b6116ad33610e8b565b15156116b857600080fd5b60028060016101000a81548160ff021916908360038111156116d657fe5b02179055507f1cdde67b72a90f19919ac732a437ac2f7a10fc128d28c2a6e525d89ce5cd9d3a60405160405180910390a1565b600c60009054906101000a900473ffffffffffffffffffffffffffffffffffffffff1681565b6000600b60008473ffffffffffffffffffffffffffffffffffffffff1673ffffffffffffffffffffffffffffffffffffffff16815260200190815260200160002073__Bytes32Set____________________________639286e5419091846000604051602001526040518363ffffffff167c0100000000000000000000000000000000000000000000000000000000028152600401808381526020018281526020019250505060206040518083038186803b15156117ec57600080fd5b6102c65a03f415156117fd57600080fd5b50505060405180519050905092915050565b61181833610e8b565b151561182357600080fd5b6000600160003373ffffffffffffffffffffffffffffffffffffffff1673ffffffffffffffffffffffffffffffffffffffff16815260200190815260200160002060006101000a81548160ff021916908315150217905550565b6000600e60008473ffffffffffffffffffffffffffffffffffffffff1673ffffffffffffffffffffffffffffffffffffffff168152602001908152602001600020828154811015156118cb57fe5b906000526020600020900154905092915050565b6000809054906101000a900473ffffffffffffffffffffffffffffffffffffffff1673ffffffffffffffffffffffffffffffffffffffff163373ffffffffffffffffffffffffffffffffffffffff1614151561193a57600080fd5b60018060008373ffffffffffffffffffffffffffffffffffffffff1673ffffffffffffffffffffffffffffffffffffffff16815260200190815260200160002060006101000a81548160ff02191690831515021790555050565b6000600a6000846000191660001916815260200190815260200160002073__AddressSet____________________________635c2125a79091846000604051602001526040518363ffffffff167c0100000000000000000000000000000000000000000000000000000000028152600401808381526020018281526020019250505060206040518083038186803b1515611a2d57600080fd5b6102c65a03f41515611a3e57600080fd5b50505060405180519050905092915050565b6000600473__AddressSet____________________________6318c402499091846000604051602001526040518363ffffffff167c0100000000000000000000000000000000000000000000000000000000028152600401808381526020018273ffffffffffffffffffffffffffffffffffffffff1673ffffffffffffffffffffffffffffffffffffffff1681526020019250505060206040518083038186803b1515611afc57600080fd5b6102c65a03f41515611b0d57600080fd5b505050604051805190509050919050565b6000809054906101000a900473ffffffffffffffffffffffffffffffffffffffff1681565b6000806000600473__AddressSet____________________________63913aa6cd90916000604051602001526040518263ffffffff167c01000000000000000000000000000000000000000000000000000000000281526004018082815260200191505060206040518083038186803b1515611bbe57600080fd5b6102c65a03f41515611bcf57600080fd5b505050604051805190501415611be85760009150612101565b600090505b600473__AddressSet____________________________63913aa6cd90916000604051602001526040518263ffffffff167c01000000000000000000000000000000000000000000000000000000000281526004018082815260200191505060206040518083038186803b1515611c6357600080fd5b6102c65a03f41515611c7457600080fd5b505050604051805190508110156120fc57600473__AddressSet____________________________635c2125a79091836000604051602001526040518363ffffffff167c0100000000000000000000000000000000000000000000000000000000028152600401808381526020018281526020019250505060206040518083038186803b1515611d0357600080fd5b6102c65a03f41515611d1457600080fd5b5050506040518051905073ffffffffffffffffffffffffffffffffffffffff1663138b1fa0306000604051602001526040518263ffffffff167c0100000000000000000000000000000000000000000000000000000000028152600401808273ffffffffffffffffffffffffffffffffffffffff1673ffffffffffffffffffffffffffffffffffffffff168152602001915050602060405180830381600087803b1515611dc057600080fd5b6102c65a03f11515611dd157600080fd5b505050604051805190501515611dea5760009150612101565b600c60009054906101000a900473ffffffffffffffffffffffffffffffffffffffff1673ffffffffffffffffffffffffffffffffffffffff16600473__AddressSet____________________________635c2125a79091846000604051602001526040518363ffffffff167c0100000000000000000000000000000000000000000000000000000000028152600401808381526020018281526020019250505060206040518083038186803b1515611ea157600080fd5b6102c65a03f41515611eb257600080fd5b5050506040518051905073ffffffffffffffffffffffffffffffffffffffff16634b1d3ede6000604051602001526040518163ffffffff167c0100000000000000000000000000000000000000000000000000000000028152600401602060405180830381600087803b1515611f2757600080fd5b6102c65a03f11515611f3857600080fd5b5050506040518051905073ffffffffffffffffffffffffffffffffffffffff16141515611f685760009150612101565b600c60009054906101000a900473ffffffffffffffffffffffffffffffffffffffff1673ffffffffffffffffffffffffffffffffffffffff16631e1c6a07600473__AddressSet____________________________635c2125a79091856000604051602001526040518363ffffffff167c0100000000000000000000000000000000000000000000000000000000028152600401808381526020018281526020019250505060206040518083038186803b151561202457600080fd5b6102c65a03f4151561203557600080fd5b505050604051805190506000604051602001526040518263ffffffff167c0100000000000000000000000000000000000000000000000000000000028152600401808273ffffffffffffffffffffffffffffffffffffffff1673ffffffffffffffffffffffffffffffffffffffff168152602001915050602060405180830381600087803b15156120c557600080fd5b6102c65a03f115156120d657600080fd5b5050506040518051905015156120ef5760009150612101565b8080600101915050611bed565b600191505b5090565b6000600473__AddressSet____________________________63913aa6cd90916000604051602001526040518263ffffffff167c01000000000000000000000000000000000000000000000000000000000281526004018082815260200191505060206040518083038186803b151561217d57600080fd5b6102c65a03f4151561218e57600080fd5b50505060405180519050905090565b6000600e60008373ffffffffffffffffffffffffffffffffffffffff1673ffffffffffffffffffffffffffffffffffffffff168152602001908152602001600020805490509050919050565b6000600260009054906101000a900460ff16905090565b61220933610e8b565b151561221457600080fd5b600260009054906101000a900460ff16151561222f57600080fd5b6000600260006101000a81548160ff0219169083151502179055507f19aad37188a1d3921e29eb3c66acf43d81975e107cb650d58cca878627955fd660405160405180910390a1565b60038054600181600116156101000203166002900480601f01602080910402602001604051908101604052809291908181526020018280546001816001161561010002031660029004801561230e5780601f106122e35761010080835404028352916020019161230e565b820191906000526020600020905b8154815290600101906020018083116122f157829003601f168201915b505050505081565b60006002600381111561232557fe5b600260019054906101000a900460ff16600381111561234057fe5b14905090565b6000600773__Bytes32Set____________________________639286e5419091846000604051602001526040518363ffffffff167c0100000000000000000000000000000000000000000000000000000000028152600401808381526020018281526020019250505060206040518083038186803b15156123c657600080fd5b6102c65a03f415156123d757600080fd5b505050604051805190509050919050565b60008073ffffffffffffffffffffffffffffffffffffffff16600c60009054906101000a900473ffffffffffffffffffffffffffffffffffffffff1673ffffffffffffffffffffffffffffffffffffffff16141580156125245750600c60009054906101000a900473ffffffffffffffffffffffffffffffffffffffff1673ffffffffffffffffffffffffffffffffffffffff1663138b1fa0306000604051602001526040518263ffffffff167c0100000000000000000000000000000000000000000000000000000000028152600401808273ffffffffffffffffffffffffffffffffffffffff1673ffffffffffffffffffffffffffffffffffffffff168152602001915050602060405180830381600087803b151561250857600080fd5b6102c65a03f1151561251957600080fd5b505050604051805190505b905090565b6125316121e9565b15801561256357506000600381111561254657fe5b600260019054906101000a900460ff16600381111561256157fe5b145b151561256e57600080fd5b61257733610e8b565b151561258257600080fd5b600473__AddressSet____________________________63f9802f859091836040518363ffffffff167c0100000000000000000000000000000000000000000000000000000000028152600401808381526020018273ffffffffffffffffffffffffffffffffffffffff1673ffffffffffffffffffffffffffffffffffffffff1681526020019250505060006040518083038186803b151561262357600080fd5b6102c65a03f4151561263457600080fd5b505050612661817f414c4c0000000000000000000000000000000000000000000000000000000000612664565b50565b61266c6121e9565b15801561269e57506000600381111561268157fe5b600260019054906101000a900460ff16600381111561269c57fe5b145b15156126a957600080fd5b6126b233610e8b565b15156126bd57600080fd5b600773__Bytes32Set____________________________63932dd8399091836000604051602001526040518363ffffffff167c01000000000000000000000000000000000000000000000000000000000281526004018083815260200182600019166000191681526020019250505060206040518083038186803b151561274357600080fd5b6102c65a03f4151561275457600080fd5b50505060405180519050151561276957600080fd5b600473__AddressSet____________________________63758241e09091846000604051602001526040518363ffffffff167c0100000000000000000000000000000000000000000000000000000000028152600401808381526020018273ffffffffffffffffffffffffffffffffffffffff1673ffffffffffffffffffffffffffffffffffffffff1681526020019250505060206040518083038186803b151561281357600080fd5b6102c65a03f4151561282457600080fd5b50505060405180519050151561283957600080fd5b600a6000826000191660001916815260200190815260200160002073__AddressSet____________________________63f9802f859091846040518363ffffffff167c0100000000000000000000000000000000000000000000000000000000028152600401808381526020018273ffffffffffffffffffffffffffffffffffffffff1673ffffffffffffffffffffffffffffffffffffffff1681526020019250505060006040518083038186803b15156128f357600080fd5b6102c65a03f4151561290457600080fd5b505050600b60008373ffffffffffffffffffffffffffffffffffffffff1673ffffffffffffffffffffffffffffffffffffffff16815260200190815260200160002073__Bytes32Set____________________________63fffd95929091836040518363ffffffff167c01000000000000000000000000000000000000000000000000000000000281526004018083815260200182600019166000191681526020019250505060006040518083038186803b15156129c157600080fd5b6102c65a03f415156129d257600080fd5b5050505050565b6000600b60008373ffffffffffffffffffffffffffffffffffffffff1673ffffffffffffffffffffffffffffffffffffffff16815260200190815260200160002073__Bytes32Set____________________________633640611190916000604051602001526040518263ffffffff167c01000000000000000000000000000000000000000000000000000000000281526004018082815260200191505060206040518083038186803b1515612a8e57600080fd5b6102c65a03f41515612a9f57600080fd5b505050604051805190509050919050565b6000612aba6123e8565b8015612aca5750612ac9611b43565b5b905090565b6000809054906101000a900473ffffffffffffffffffffffffffffffffffffffff1673ffffffffffffffffffffffffffffffffffffffff163373ffffffffffffffffffffffffffffffffffffffff16141515612b2a57600080fd5b600073ffffffffffffffffffffffffffffffffffffffff168173ffffffffffffffffffffffffffffffffffffffff1614151515612b6657600080fd5b8073ffffffffffffffffffffffffffffffffffffffff166000809054906101000a900473ffffffffffffffffffffffffffffffffffffffff1673ffffffffffffffffffffffffffffffffffffffff167f8be0079c531659141344cd1fd0a4f28419497f9722a3daafe3b4186f6b6457e060405160405180910390a3806000806101000a81548173ffffffffffffffffffffffffffffffffffffffff021916908373ffffffffffffffffffffffffffffffffffffffff16021790555050565b612c2d33610e8b565b1515612c3857600080fd5b600260009054906101000a900460ff16151515612c5457600080fd5b6001600260006101000a81548160ff0219169083151502179055507f0f2e5b6c72c6a4491efd919a9f9a409f324ef0708c11ee57d410c2cb06c0992b60405160405180910390a1565b612ca56121e9565b158015612cd7575060006003811115612cba57fe5b600260019054906101000a900460ff166003811115612cd557fe5b145b1515612ce257600080fd5b612ceb33610e8b565b1515612cf657600080fd5b600773__Bytes32Set____________________________63fffd95929091836040518363ffffffff167c01000000000000000000000000000000000000000000000000000000000281526004018083815260200182600019166000191681526020019250505060006040518083038186803b1515612d7357600080fd5b6102c65a03f41515612d8457600080fd5b50505050565b815481835581811511612db157818360005260206000209182019101612db09190612db6565b5b505050565b612dd891905b80821115612dd4576000816000905550600101612dbc565b5090565b905600a165627a7a72305820a2b85d996a199b6d294032bd8ca09ad35278d8bb0e95b16e057d65bf9a8f666f0029",
  "source": "// ------------------------------------------------------------------------------\n// This file is part of netvote.\n//\n// netvote is free software: you can redistribute it and/or modify\n// it under the terms of the GNU General Public License as published by\n// the Free Software Foundation, either version 3 of the License, or\n// (at your option) any later version.\n//\n// netvote is distributed in the hope that it will be useful,\n// but WITHOUT ANY WARRANTY; without even the implied warranty of\n// MERCHANTABILITY or FITNESS FOR A PARTICULAR PURPOSE.  See the\n// GNU General Public License for more details.\n//\n// You should have received a copy of the GNU General Public License\n// along with solidity.  If not, see <http://www.gnu.org/licenses/>\n//\n// (c) 2017 netvote contributors.\n//------------------------------------------------------------------------------\n\npragma solidity ^0.4.17;\n\nimport \"../../lib/Bytes32Set.sol\";\nimport \"../links/PoolRegistry.sol\";\nimport \"./TieredElection.sol\";\nimport \"./TieredPool.sol\";\nimport \"../BaseBallot.sol\";\n\n\n/**\n * @title TieredBallot\n * @dev A tiered ballot represents one instance of a ballot in a tiered eleciton.\n * This allows one to partition pools into groups for the purposes of separating votes.\n */\ncontract TieredBallot is BaseBallot, PoolRegistry {\n    using Bytes32Set for Bytes32Set.SetData;\n\n    // events for subscribing to this ballot\n    event BallotVote(address pool, bytes32 voteId);\n\n    // default group (popular vote)\n    bytes32 constant GROUP_ALL = \"ALL\";\n\n    // configuration\n    Bytes32Set.SetData groupSet;\n    mapping (bytes32 => AddressSet.SetData) groupPoolSet;\n    mapping (address => Bytes32Set.SetData) poolGroupSet;\n\n    address public election;\n\n    // state\n    // map of voters to prevent duplicates\n    mapping (bytes32 => bool) voterVoted;\n\n    // pools to the list of voters\n    mapping (address => bytes32[]) poolVoters;\n\n    function TieredBallot(address electionAddress, address ownerAddress, string location) BaseBallot(ownerAddress, location) public {\n        require(electionAddress != address(0));\n        election = electionAddress;\n        groupSet.put(GROUP_ALL);\n    }\n\n    modifier validPool() {\n        require(poolSet.contains(msg.sender));\n        _;\n    }\n\n    function groupPoolCount(bytes32 group) constant public returns (uint256) {\n        return groupPoolSet[group].size();\n    }\n\n    function getGroupPool(bytes32 group, uint256 index) constant public returns (address) {\n        return groupPoolSet[group].getAt(index);\n    }\n\n    function getPoolVoterCount(address pool) constant public returns(uint256) {\n        return poolVoters[pool].length;\n    }\n\n    // gets voter address by pool and index (for iteration)\n    function getPoolVoter(address pool, uint256 i) constant public returns(bytes32) {\n        return poolVoters[pool][i];\n    }\n\n    // adds a pool to the ballot\n    function addPool(address p) public building admin {\n        poolSet.put(p);\n        addPoolToGroup(p, GROUP_ALL);\n    }\n\n    function checkElection() public constant returns (bool) {\n        return election != address(0) && TieredElection(election).ballotExists(this);\n    }\n\n    function checkPools() public constant returns (bool) {\n        // there must be at least one pool set\n        if (poolSet.size() == 0) {\n            return false;\n        }\n        for (uint256 i = 0; i<poolSet.size(); i++) {\n            // pool must reference this ballot\n            if (!TieredPool(poolSet.getAt(i)).ballotExists(this)) {\n                return false;\n            }\n            // pool must point to same election\n            if (TieredPool(poolSet.getAt(i)).election() != election) {\n                return false;\n            }\n            // election has the pool\n            if (!TieredElection(election).poolExists(poolSet.getAt(i))) {\n                return false;\n            }\n        }\n        return true;\n    }\n\n    function checkConfig() public constant returns (bool) {\n        return checkElection() && checkPools();\n    }\n\n    function getGroupCount() constant public returns (uint256) {\n        return groupSet.size();\n    }\n\n    function getGroup(uint256 index) constant public returns (bytes32) {\n        return groupSet.getAt(index);\n    }\n\n    function removeGroup(bytes32 group) public building admin {\n        groupSet.remove(group);\n        for (uint256 i = 0; i<poolSet.size(); i++) {\n            address p = poolSet.getAt(i);\n            poolGroupSet[p].remove(group);\n        }\n    }\n\n    function addGroup(bytes32 group) public building admin {\n        groupSet.put(group);\n    }\n\n    function getPoolGroupCount(address pool) constant public returns(uint256) {\n        return poolGroupSet[pool].size();\n    }\n\n    function getPoolGroupAt(address pool, uint256 index) constant public returns(bytes32) {\n        return poolGroupSet[pool].getAt(index);\n    }\n\n    function addPoolToGroup(address pool, bytes32 group) public building admin {\n        require(groupSet.contains(group));\n        require(poolSet.contains(pool));\n        groupPoolSet[group].put(pool);\n        poolGroupSet[pool].put(group);\n    }\n\n    function castVote(bytes32 voteId) public voting validPool {\n        require(!voterVoted[voteId]);\n        voterVoted[voteId] = true;\n        poolVoters[msg.sender].push(voteId);\n        BallotVote(msg.sender, voteId);\n    }\n}",
  "sourcePath": "/Users/slanders/netvote/elections-solidity/contracts/elections/tiered/TieredBallot.sol",
  "compiler": {
    "name": "solc",
    "version": "0.4.18+commit.9cf6e910.Emscripten.clang"
  },
  "schemaVersion": "1.0.1",
  "updatedAt": "2018-01-02T21:50:06.439Z"
}