{
  "contractName": "TieredPool",
  "abi": [
    {
      "constant": false,
      "inputs": [],
      "name": "activate",
      "outputs": [],
      "payable": false,
      "stateMutability": "nonpayable",
      "type": "function"
    },
    {
      "constant": true,
      "inputs": [],
      "name": "gateway",
      "outputs": [
        {
          "name": "",
          "type": "address"
        }
      ],
      "payable": false,
      "stateMutability": "view",
      "type": "function"
    },
    {
      "constant": true,
      "inputs": [
        {
          "name": "b",
          "type": "address"
        }
      ],
      "name": "ballotExists",
      "outputs": [
        {
          "name": "",
          "type": "bool"
        }
      ],
      "payable": false,
      "stateMutability": "view",
      "type": "function"
    },
    {
      "constant": false,
      "inputs": [
        {
          "name": "addr",
          "type": "address"
        }
      ],
      "name": "removeAdmin",
      "outputs": [],
      "payable": false,
      "stateMutability": "nonpayable",
      "type": "function"
    },
    {
      "constant": true,
      "inputs": [
        {
          "name": "addr",
          "type": "address"
        }
      ],
      "name": "isAdmin",
      "outputs": [
        {
          "name": "",
          "type": "bool"
        }
      ],
      "payable": false,
      "stateMutability": "view",
      "type": "function"
    },
    {
      "constant": true,
      "inputs": [],
      "name": "electionPhase",
      "outputs": [
        {
          "name": "",
          "type": "uint8"
        }
      ],
      "payable": false,
      "stateMutability": "view",
      "type": "function"
    },
    {
      "constant": true,
      "inputs": [
        {
          "name": "",
          "type": "bytes32"
        }
      ],
      "name": "votes",
      "outputs": [
        {
          "name": "",
          "type": "string"
        }
      ],
      "payable": false,
      "stateMutability": "view",
      "type": "function"
    },
    {
      "constant": false,
      "inputs": [],
      "name": "abort",
      "outputs": [],
      "payable": false,
      "stateMutability": "nonpayable",
      "type": "function"
    },
    {
      "constant": true,
      "inputs": [],
      "name": "checkBallots",
      "outputs": [
        {
          "name": "",
          "type": "bool"
        }
      ],
      "payable": false,
      "stateMutability": "view",
      "type": "function"
    },
    {
      "constant": false,
      "inputs": [
        {
          "name": "voteId",
          "type": "bytes32"
        },
        {
          "name": "vote",
          "type": "string"
        }
      ],
      "name": "updateVote",
      "outputs": [],
      "payable": false,
      "stateMutability": "nonpayable",
      "type": "function"
    },
    {
      "constant": false,
      "inputs": [],
      "name": "close",
      "outputs": [],
      "payable": false,
      "stateMutability": "nonpayable",
      "type": "function"
    },
    {
      "constant": true,
      "inputs": [],
      "name": "election",
      "outputs": [
        {
          "name": "",
          "type": "address"
        }
      ],
      "payable": false,
      "stateMutability": "view",
      "type": "function"
    },
    {
      "constant": false,
      "inputs": [],
      "name": "removeSelf",
      "outputs": [],
      "payable": false,
      "stateMutability": "nonpayable",
      "type": "function"
    },
    {
      "constant": false,
      "inputs": [
        {
          "name": "addr",
          "type": "address"
        }
      ],
      "name": "addAdmin",
      "outputs": [],
      "payable": false,
      "stateMutability": "nonpayable",
      "type": "function"
    },
    {
      "constant": true,
      "inputs": [],
      "name": "owner",
      "outputs": [
        {
          "name": "",
          "type": "address"
        }
      ],
      "payable": false,
      "stateMutability": "view",
      "type": "function"
    },
    {
      "constant": true,
      "inputs": [
        {
          "name": "index",
          "type": "uint256"
        }
      ],
      "name": "getVoteAt",
      "outputs": [
        {
          "name": "",
          "type": "string"
        }
      ],
      "payable": false,
      "stateMutability": "view",
      "type": "function"
    },
    {
      "constant": true,
      "inputs": [],
      "name": "isLocked",
      "outputs": [
        {
          "name": "",
          "type": "bool"
        }
      ],
      "payable": false,
      "stateMutability": "view",
      "type": "function"
    },
    {
      "constant": false,
      "inputs": [],
      "name": "unlock",
      "outputs": [],
      "payable": false,
      "stateMutability": "nonpayable",
      "type": "function"
    },
    {
      "constant": true,
      "inputs": [],
      "name": "getBallotCount",
      "outputs": [
        {
          "name": "",
          "type": "uint256"
        }
      ],
      "payable": false,
      "stateMutability": "view",
      "type": "function"
    },
    {
      "constant": true,
      "inputs": [],
      "name": "isClosed",
      "outputs": [
        {
          "name": "",
          "type": "bool"
        }
      ],
      "payable": false,
      "stateMutability": "view",
      "type": "function"
    },
    {
      "constant": false,
      "inputs": [
        {
          "name": "voteId",
          "type": "bytes32"
        },
        {
          "name": "vote",
          "type": "string"
        }
      ],
      "name": "castVote",
      "outputs": [],
      "payable": false,
      "stateMutability": "nonpayable",
      "type": "function"
    },
    {
      "constant": false,
      "inputs": [
        {
          "name": "b",
          "type": "address"
        }
      ],
      "name": "removeBallot",
      "outputs": [],
      "payable": false,
      "stateMutability": "nonpayable",
      "type": "function"
    },
    {
      "constant": true,
      "inputs": [
        {
          "name": "b",
          "type": "address"
        }
      ],
      "name": "getBallotIndex",
      "outputs": [
        {
          "name": "",
          "type": "uint256"
        }
      ],
      "payable": false,
      "stateMutability": "view",
      "type": "function"
    },
    {
      "constant": true,
      "inputs": [],
      "name": "getVoteCount",
      "outputs": [
        {
          "name": "",
          "type": "uint256"
        }
      ],
      "payable": false,
      "stateMutability": "view",
      "type": "function"
    },
    {
      "constant": true,
      "inputs": [],
      "name": "checkConfig",
      "outputs": [
        {
          "name": "",
          "type": "bool"
        }
      ],
      "payable": false,
      "stateMutability": "view",
      "type": "function"
    },
    {
      "constant": false,
      "inputs": [
        {
          "name": "newOwner",
          "type": "address"
        }
      ],
      "name": "transferOwnership",
      "outputs": [],
      "payable": false,
      "stateMutability": "nonpayable",
      "type": "function"
    },
    {
      "constant": false,
      "inputs": [],
      "name": "lock",
      "outputs": [],
      "payable": false,
      "stateMutability": "nonpayable",
      "type": "function"
    },
    {
      "constant": false,
      "inputs": [
        {
          "name": "b",
          "type": "address"
        }
      ],
      "name": "addBallot",
      "outputs": [],
      "payable": false,
      "stateMutability": "nonpayable",
      "type": "function"
    },
    {
      "constant": true,
      "inputs": [
        {
          "name": "index",
          "type": "uint256"
        }
      ],
      "name": "getBallot",
      "outputs": [
        {
          "name": "",
          "type": "address"
        }
      ],
      "payable": false,
      "stateMutability": "view",
      "type": "function"
    },
    {
      "inputs": [
        {
          "name": "el",
          "type": "address"
        },
        {
          "name": "gw",
          "type": "address"
        }
      ],
      "payable": false,
      "stateMutability": "nonpayable",
      "type": "constructor"
    },
    {
      "anonymous": false,
      "inputs": [
        {
          "indexed": false,
          "name": "voteId",
          "type": "bytes32"
        }
      ],
      "name": "Vote",
      "type": "event"
    },
    {
      "anonymous": false,
      "inputs": [
        {
          "indexed": false,
          "name": "voteId",
          "type": "bytes32"
        }
      ],
      "name": "UpdateVote",
      "type": "event"
    },
    {
      "anonymous": false,
      "inputs": [],
      "name": "Closed",
      "type": "event"
    },
    {
      "anonymous": false,
      "inputs": [],
      "name": "Activated",
      "type": "event"
    },
    {
      "anonymous": false,
      "inputs": [],
      "name": "Aborted",
      "type": "event"
    },
    {
      "anonymous": false,
      "inputs": [],
      "name": "Locked",
      "type": "event"
    },
    {
      "anonymous": false,
      "inputs": [],
      "name": "Unlocked",
      "type": "event"
    },
    {
      "anonymous": false,
      "inputs": [
        {
          "indexed": true,
          "name": "previousOwner",
          "type": "address"
        },
        {
          "indexed": true,
          "name": "newOwner",
          "type": "address"
        }
      ],
      "name": "OwnershipTransferred",
      "type": "event"
    }
  ],
  "bytecode": "0x60606040526000600260006101000a81548160ff0219169083151502179055506000600260016101000a81548160ff0219169083600381111561003e57fe5b0217905550341561004e57600080fd5b60405160408061285f833981016040528080519060200190919080519060200190919050508181336000806101000a81548173ffffffffffffffffffffffffffffffffffffffff021916908373ffffffffffffffffffffffffffffffffffffffff160217905550600073ffffffffffffffffffffffffffffffffffffffff168273ffffffffffffffffffffffffffffffffffffffff161415801561011f5750600073ffffffffffffffffffffffffffffffffffffffff168173ffffffffffffffffffffffffffffffffffffffff1614155b151561012a57600080fd5b81600960006101000a81548173ffffffffffffffffffffffffffffffffffffffff021916908373ffffffffffffffffffffffffffffffffffffffff16021790555080600b60006101000a81548173ffffffffffffffffffffffffffffffffffffffff021916908373ffffffffffffffffffffffffffffffffffffffff160217905550505050506126a0806101bf6000396000f300606060405260043610610175576000357c0100000000000000000000000000000000000000000000000000000000900463ffffffff1680630f15f4c01461017a578063116191b61461018f578063138b1fa0146101e45780631785f53c1461023557806324d7806c1461026e578063265050b6146102bf5780632b38cd96146102f657806335a063b4146103965780633abfb2e9146103ab578063431b1335146103d857806343d726d6146104425780634b1d3ede146104575780635e898dac146104ac57806370480275146104c15780638da5cb5b146104fa5780639cc8f2b31461054f578063a4e2d634146105eb578063a69df4b514610618578063b47414951461062d578063c2b6b58c14610656578063cac1e34e14610683578063d71c6772146106ed578063db30eafb14610726578063e7b3387c14610773578063f098fe471461079c578063f2fde38b146107c9578063f83d08ba14610802578063f8c74afa14610817578063f9d5ee7514610850575b600080fd5b341561018557600080fd5b61018d6108b3565b005b341561019a57600080fd5b6101a2610971565b604051808273ffffffffffffffffffffffffffffffffffffffff1673ffffffffffffffffffffffffffffffffffffffff16815260200191505060405180910390f35b34156101ef57600080fd5b61021b600480803573ffffffffffffffffffffffffffffffffffffffff16906020019091905050610997565b604051808215151515815260200191505060405180910390f35b341561024057600080fd5b61026c600480803573ffffffffffffffffffffffffffffffffffffffff16906020019091905050610a65565b005b341561027957600080fd5b6102a5600480803573ffffffffffffffffffffffffffffffffffffffff16906020019091905050610b1b565b604051808215151515815260200191505060405180910390f35b34156102ca57600080fd5b6102d2610c00565b604051808260038111156102e257fe5b60ff16815260200191505060405180910390f35b341561030157600080fd5b61031b600480803560001916906020019091905050610c13565b6040518080602001828103825283818151815260200191508051906020019080838360005b8381101561035b578082015181840152602081019050610340565b50505050905090810190601f1680156103885780820380516001836020036101000a031916815260200191505b509250505060405180910390f35b34156103a157600080fd5b6103a9610cc3565b005b34156103b657600080fd5b6103be610d29565b604051808215151515815260200191505060405180910390f35b34156103e357600080fd5b61044060048080356000191690602001909190803590602001908201803590602001908080601f016020809104026020016040519081016040528093929190818152602001838380828437820191505050505050919050506110cb565b005b341561044d57600080fd5b61045561133f565b005b341561046257600080fd5b61046a6113e9565b604051808273ffffffffffffffffffffffffffffffffffffffff1673ffffffffffffffffffffffffffffffffffffffff16815260200191505060405180910390f35b34156104b757600080fd5b6104bf61140f565b005b34156104cc57600080fd5b6104f8600480803573ffffffffffffffffffffffffffffffffffffffff1690602001909190505061147d565b005b341561050557600080fd5b61050d611532565b604051808273ffffffffffffffffffffffffffffffffffffffff1673ffffffffffffffffffffffffffffffffffffffff16815260200191505060405180910390f35b341561055a57600080fd5b6105706004808035906020019091905050611557565b6040518080602001828103825283818151815260200191508051906020019080838360005b838110156105b0578082015181840152602081019050610595565b50505050905090810190601f1680156105dd5780820380516001836020036101000a031916815260200191505b509250505060405180910390f35b34156105f657600080fd5b6105fe6116b2565b604051808215151515815260200191505060405180910390f35b341561062357600080fd5b61062b6116c9565b005b341561063857600080fd5b610640611741565b6040518082815260200191505060405180910390f35b341561066157600080fd5b6106696117d9565b604051808215151515815260200191505060405180910390f35b341561068e57600080fd5b6106eb60048080356000191690602001909190803590602001908201803590602001908080601f01602080910402602001604051908101604052809392919081815260200183838082843782019150505050505091905050611809565b005b34156106f857600080fd5b610724600480803573ffffffffffffffffffffffffffffffffffffffff16906020019091905050611b36565b005b341561073157600080fd5b61075d600480803573ffffffffffffffffffffffffffffffffffffffff16906020019091905050611c47565b6040518082815260200191505060405180910390f35b341561077e57600080fd5b610786611d15565b6040518082815260200191505060405180910390f35b34156107a757600080fd5b6107af611dad565b604051808215151515815260200191505060405180910390f35b34156107d457600080fd5b610800600480803573ffffffffffffffffffffffffffffffffffffffff16906020019091905050611f4d565b005b341561080d57600080fd5b6108156120a2565b005b341561082257600080fd5b61084e600480803573ffffffffffffffffffffffffffffffffffffffff1690602001909190505061211b565b005b341561085b57600080fd5b610871600480803590602001909190505061222c565b604051808273ffffffffffffffffffffffffffffffffffffffff1673ffffffffffffffffffffffffffffffffffffffff16815260200191505060405180910390f35b6108bb6116b2565b1580156108ed5750600060038111156108d057fe5b600260019054906101000a900460ff1660038111156108eb57fe5b145b15156108f857600080fd5b61090133610b1b565b151561090c57600080fd5b610914611dad565b151561091f57600080fd5b6001600260016101000a81548160ff0219169083600381111561093e57fe5b02179055507fed1cd0670ee0c0017f550451a038818c696d0b6a9d6ce5b369e44275573cf9b060405160405180910390a1565b600b60009054906101000a900473ffffffffffffffffffffffffffffffffffffffff1681565b6000600373__AddressSet____________________________63758241e09091846000604051602001526040518363ffffffff167c0100000000000000000000000000000000000000000000000000000000028152600401808381526020018273ffffffffffffffffffffffffffffffffffffffff1673ffffffffffffffffffffffffffffffffffffffff1681526020019250505060206040518083038186803b1515610a4357600080fd5b6102c65a03f41515610a5457600080fd5b505050604051805190509050919050565b6000809054906101000a900473ffffffffffffffffffffffffffffffffffffffff1673ffffffffffffffffffffffffffffffffffffffff163373ffffffffffffffffffffffffffffffffffffffff16141515610ac057600080fd5b6000600160008373ffffffffffffffffffffffffffffffffffffffff1673ffffffffffffffffffffffffffffffffffffffff16815260200190815260200160002060006101000a81548160ff02191690831515021790555050565b60008073ffffffffffffffffffffffffffffffffffffffff168273ffffffffffffffffffffffffffffffffffffffff1614158015610bf957506000809054906101000a900473ffffffffffffffffffffffffffffffffffffffff1673ffffffffffffffffffffffffffffffffffffffff168273ffffffffffffffffffffffffffffffffffffffff161480610bf85750600160008373ffffffffffffffffffffffffffffffffffffffff1673ffffffffffffffffffffffffffffffffffffffff16815260200190815260200160002060009054906101000a900460ff165b5b9050919050565b600260019054906101000a900460ff1681565b600a6020528060005260406000206000915090508054600181600116156101000203166002900480601f016020809104026020016040519081016040528092919081815260200182805460018160011615610100020316600290048015610cbb5780601f10610c9057610100808354040283529160200191610cbb565b820191906000526020600020905b815481529060010190602001808311610c9e57829003601f168201915b505050505081565b610ccc33610b1b565b1515610cd757600080fd5b6003600260016101000a81548160ff02191690836003811115610cf657fe5b02179055507f72c874aeff0b183a56e2b79c71b46e1aed4dee5e09862134b8821ba2fddbf8bf60405160405180910390a1565b600080600090505b600373__AddressSet____________________________63913aa6cd90916000604051602001526040518263ffffffff167c01000000000000000000000000000000000000000000000000000000000281526004018082815260200191505060206040518083038186803b1515610da757600080fd5b6102c65a03f41515610db857600080fd5b505050604051805190508110156110c257600373__AddressSet____________________________635c2125a79091836000604051602001526040518363ffffffff167c0100000000000000000000000000000000000000000000000000000000028152600401808381526020018281526020019250505060206040518083038186803b1515610e4757600080fd5b6102c65a03f41515610e5857600080fd5b5050506040518051905073ffffffffffffffffffffffffffffffffffffffff16631e1c6a07306000604051602001526040518263ffffffff167c0100000000000000000000000000000000000000000000000000000000028152600401808273ffffffffffffffffffffffffffffffffffffffff1673ffffffffffffffffffffffffffffffffffffffff168152602001915050602060405180830381600087803b1515610f0457600080fd5b6102c65a03f11515610f1557600080fd5b505050604051805190501515610f2e57600091506110c7565b600960009054906101000a900473ffffffffffffffffffffffffffffffffffffffff1673ffffffffffffffffffffffffffffffffffffffff1663138b1fa0600373__AddressSet____________________________635c2125a79091856000604051602001526040518363ffffffff167c0100000000000000000000000000000000000000000000000000000000028152600401808381526020018281526020019250505060206040518083038186803b1515610fea57600080fd5b6102c65a03f41515610ffb57600080fd5b505050604051805190506000604051602001526040518263ffffffff167c0100000000000000000000000000000000000000000000000000000000028152600401808273ffffffffffffffffffffffffffffffffffffffff1673ffffffffffffffffffffffffffffffffffffffff168152602001915050602060405180830381600087803b151561108b57600080fd5b6102c65a03f1151561109c57600080fd5b5050506040518051905015156110b557600091506110c7565b8080600101915050610d31565b600191505b5090565b6110d36116b2565b1580156111055750600160038111156110e857fe5b600260019054906101000a900460ff16600381111561110357fe5b145b151561111057600080fd5b600b60009054906101000a900473ffffffffffffffffffffffffffffffffffffffff1673ffffffffffffffffffffffffffffffffffffffff163373ffffffffffffffffffffffffffffffffffffffff1614151561116c57600080fd5b600960009054906101000a900473ffffffffffffffffffffffffffffffffffffffff1673ffffffffffffffffffffffffffffffffffffffff1663bf41bf366000604051602001526040518163ffffffff167c0100000000000000000000000000000000000000000000000000000000028152600401602060405180830381600087803b15156111fa57600080fd5b6102c65a03f1151561120b57600080fd5b50505060405180519050151561122057600080fd5b600673__Bytes32Set____________________________63932dd8399091846000604051602001526040518363ffffffff167c01000000000000000000000000000000000000000000000000000000000281526004018083815260200182600019166000191681526020019250505060206040518083038186803b15156112a657600080fd5b6102c65a03f415156112b757600080fd5b5050506040518051905015156112cc57600080fd5b80600a6000846000191660001916815260200190815260200160002090805190602001906112fb9291906125bb565b507fb76baefd7e249e81a2c6ab2dd1692b4629b993e50c0f341cd9410ca6b0f3392e8260405180826000191660001916815260200191505060405180910390a15050565b6113476116b2565b15801561137957506001600381111561135c57fe5b600260019054906101000a900460ff16600381111561137757fe5b145b151561138457600080fd5b61138d33610b1b565b151561139857600080fd5b60028060016101000a81548160ff021916908360038111156113b657fe5b02179055507f1cdde67b72a90f19919ac732a437ac2f7a10fc128d28c2a6e525d89ce5cd9d3a60405160405180910390a1565b600960009054906101000a900473ffffffffffffffffffffffffffffffffffffffff1681565b61141833610b1b565b151561142357600080fd5b6000600160003373ffffffffffffffffffffffffffffffffffffffff1673ffffffffffffffffffffffffffffffffffffffff16815260200190815260200160002060006101000a81548160ff021916908315150217905550565b6000809054906101000a900473ffffffffffffffffffffffffffffffffffffffff1673ffffffffffffffffffffffffffffffffffffffff163373ffffffffffffffffffffffffffffffffffffffff161415156114d857600080fd5b60018060008373ffffffffffffffffffffffffffffffffffffffff1673ffffffffffffffffffffffffffffffffffffffff16815260200190815260200160002060006101000a81548160ff02191690831515021790555050565b6000809054906101000a900473ffffffffffffffffffffffffffffffffffffffff1681565b61155f61263b565b600a6000600673__Bytes32Set____________________________639286e5419091866000604051602001526040518363ffffffff167c0100000000000000000000000000000000000000000000000000000000028152600401808381526020018281526020019250505060206040518083038186803b15156115e157600080fd5b6102c65a03f415156115f257600080fd5b50505060405180519050600019166000191681526020019081526020016000208054600181600116156101000203166002900480601f0160208091040260200160405190810160405280929190818152602001828054600181600116156101000203166002900480156116a65780601f1061167b576101008083540402835291602001916116a6565b820191906000526020600020905b81548152906001019060200180831161168957829003601f168201915b50505050509050919050565b6000600260009054906101000a900460ff16905090565b6116d233610b1b565b15156116dd57600080fd5b600260009054906101000a900460ff1615156116f857600080fd5b6000600260006101000a81548160ff0219169083151502179055507f19aad37188a1d3921e29eb3c66acf43d81975e107cb650d58cca878627955fd660405160405180910390a1565b6000600373__AddressSet____________________________63913aa6cd90916000604051602001526040518263ffffffff167c01000000000000000000000000000000000000000000000000000000000281526004018082815260200191505060206040518083038186803b15156117b957600080fd5b6102c65a03f415156117ca57600080fd5b50505060405180519050905090565b6000600260038111156117e857fe5b600260019054906101000a900460ff16600381111561180357fe5b14905090565b60006118136116b2565b15801561184557506001600381111561182857fe5b600260019054906101000a900460ff16600381111561184357fe5b145b151561185057600080fd5b82600673__Bytes32Set____________________________63932dd8399091836000604051602001526040518363ffffffff167c01000000000000000000000000000000000000000000000000000000000281526004018083815260200182600019166000191681526020019250505060206040518083038186803b15156118d757600080fd5b6102c65a03f415156118e857600080fd5b505050604051805190501515156118fe57600080fd5b600b60009054906101000a900473ffffffffffffffffffffffffffffffffffffffff1673ffffffffffffffffffffffffffffffffffffffff163373ffffffffffffffffffffffffffffffffffffffff1614151561195a57600080fd5b600091505b600373__AddressSet____________________________63913aa6cd90916000604051602001526040518263ffffffff167c01000000000000000000000000000000000000000000000000000000000281526004018082815260200191505060206040518083038186803b15156119d557600080fd5b6102c65a03f415156119e657600080fd5b50505060405180519050821015611b2657600373__AddressSet____________________________635c2125a79091846000604051602001526040518363ffffffff167c0100000000000000000000000000000000000000000000000000000000028152600401808381526020018281526020019250505060206040518083038186803b1515611a7557600080fd5b6102c65a03f41515611a8657600080fd5b5050506040518051905073ffffffffffffffffffffffffffffffffffffffff16633efafb6e856040518263ffffffff167c0100000000000000000000000000000000000000000000000000000000028152600401808260001916600019168152602001915050600060405180830381600087803b1515611b0557600080fd5b6102c65a03f11515611b1657600080fd5b505050818060010192505061195f565b611b3084846122ce565b50505050565b611b3e6116b2565b158015611b70575060006003811115611b5357fe5b600260019054906101000a900460ff166003811115611b6e57fe5b145b1515611b7b57600080fd5b611b8433610b1b565b1515611b8f57600080fd5b600373__AddressSet____________________________63e134066a9091836040518363ffffffff167c0100000000000000000000000000000000000000000000000000000000028152600401808381526020018273ffffffffffffffffffffffffffffffffffffffff1673ffffffffffffffffffffffffffffffffffffffff1681526020019250505060006040518083038186803b1515611c3057600080fd5b6102c65a03f41515611c4157600080fd5b50505050565b6000600373__AddressSet____________________________6318c402499091846000604051602001526040518363ffffffff167c0100000000000000000000000000000000000000000000000000000000028152600401808381526020018273ffffffffffffffffffffffffffffffffffffffff1673ffffffffffffffffffffffffffffffffffffffff1681526020019250505060206040518083038186803b1515611cf357600080fd5b6102c65a03f41515611d0457600080fd5b505050604051805190509050919050565b6000600673__Bytes32Set____________________________633640611190916000604051602001526040518263ffffffff167c01000000000000000000000000000000000000000000000000000000000281526004018082815260200191505060206040518083038186803b1515611d8d57600080fd5b6102c65a03f41515611d9e57600080fd5b50505060405180519050905090565b600080600373__AddressSet____________________________63913aa6cd90916000604051602001526040518263ffffffff167c01000000000000000000000000000000000000000000000000000000000281526004018082815260200191505060206040518083038186803b1515611e2657600080fd5b6102c65a03f41515611e3757600080fd5b505050604051805190501415611e505760009050611f4a565b600960009054906101000a900473ffffffffffffffffffffffffffffffffffffffff1673ffffffffffffffffffffffffffffffffffffffff16631e1c6a07306000604051602001526040518263ffffffff167c0100000000000000000000000000000000000000000000000000000000028152600401808273ffffffffffffffffffffffffffffffffffffffff1673ffffffffffffffffffffffffffffffffffffffff168152602001915050602060405180830381600087803b1515611f1557600080fd5b6102c65a03f11515611f2657600080fd5b505050604051805190501515611f3f5760009050611f4a565b611f47610d29565b90505b90565b6000809054906101000a900473ffffffffffffffffffffffffffffffffffffffff1673ffffffffffffffffffffffffffffffffffffffff163373ffffffffffffffffffffffffffffffffffffffff16141515611fa857600080fd5b600073ffffffffffffffffffffffffffffffffffffffff168173ffffffffffffffffffffffffffffffffffffffff1614151515611fe457600080fd5b8073ffffffffffffffffffffffffffffffffffffffff166000809054906101000a900473ffffffffffffffffffffffffffffffffffffffff1673ffffffffffffffffffffffffffffffffffffffff167f8be0079c531659141344cd1fd0a4f28419497f9722a3daafe3b4186f6b6457e060405160405180910390a3806000806101000a81548173ffffffffffffffffffffffffffffffffffffffff021916908373ffffffffffffffffffffffffffffffffffffffff16021790555050565b6120ab33610b1b565b15156120b657600080fd5b600260009054906101000a900460ff161515156120d257600080fd5b6001600260006101000a81548160ff0219169083151502179055507f0f2e5b6c72c6a4491efd919a9f9a409f324ef0708c11ee57d410c2cb06c0992b60405160405180910390a1565b6121236116b2565b15801561215557506000600381111561213857fe5b600260019054906101000a900460ff16600381111561215357fe5b145b151561216057600080fd5b61216933610b1b565b151561217457600080fd5b600373__AddressSet____________________________63f9802f859091836040518363ffffffff167c0100000000000000000000000000000000000000000000000000000000028152600401808381526020018273ffffffffffffffffffffffffffffffffffffffff1673ffffffffffffffffffffffffffffffffffffffff1681526020019250505060006040518083038186803b151561221557600080fd5b6102c65a03f4151561222657600080fd5b50505050565b6000600373__AddressSet____________________________635c2125a79091846000604051602001526040518363ffffffff167c0100000000000000000000000000000000000000000000000000000000028152600401808381526020018281526020019250505060206040518083038186803b15156122ac57600080fd5b6102c65a03f415156122bd57600080fd5b505050604051805190509050919050565b6122d66116b2565b1580156123085750600160038111156122eb57fe5b600260019054906101000a900460ff16600381111561230657fe5b145b151561231357600080fd5b600b60009054906101000a900473ffffffffffffffffffffffffffffffffffffffff1673ffffffffffffffffffffffffffffffffffffffff163373ffffffffffffffffffffffffffffffffffffffff1614151561236f57600080fd5b81600673__Bytes32Set____________________________63932dd8399091836000604051602001526040518363ffffffff167c01000000000000000000000000000000000000000000000000000000000281526004018083815260200182600019166000191681526020019250505060206040518083038186803b15156123f657600080fd5b6102c65a03f4151561240757600080fd5b5050506040518051905015151561241d57600080fd5b600673__Bytes32Set____________________________63fffd95929091856040518363ffffffff167c01000000000000000000000000000000000000000000000000000000000281526004018083815260200182600019166000191681526020019250505060006040518083038186803b151561249a57600080fd5b6102c65a03f415156124ab57600080fd5b50505081600a6000856000191660001916815260200190815260200160002090805190602001906124dd9291906125bb565b50600960009054906101000a900473ffffffffffffffffffffffffffffffffffffffff1673ffffffffffffffffffffffffffffffffffffffff1663de61a7326040518163ffffffff167c0100000000000000000000000000000000000000000000000000000000028152600401600060405180830381600087803b151561256357600080fd5b6102c65a03f1151561257457600080fd5b5050507fe071651fdb9485bc1f9dbd3312c8a999c04ad7a5fef33ee1036e1fc709c4da4f8360405180826000191660001916815260200191505060405180910390a1505050565b828054600181600116156101000203166002900490600052602060002090601f016020900481019282601f106125fc57805160ff191683800117855561262a565b8280016001018555821561262a579182015b8281111561262957825182559160200191906001019061260e565b5b509050612637919061264f565b5090565b602060405190810160405280600081525090565b61267191905b8082111561266d576000816000905550600101612655565b5090565b905600a165627a7a723058204e072d1488f2a06dcad6fec0518e2147cf284dab5933a8c8e8a5ecdaf4265f720029",
  "source": "// ------------------------------------------------------------------------------\n// This file is part of netvote.\n//\n// netvote is free software: you can redistribute it and/or modify\n// it under the terms of the GNU General Public License as published by\n// the Free Software Foundation, either version 3 of the License, or\n// (at your option) any later version.\n//\n// netvote is distributed in the hope that it will be useful,\n// but WITHOUT ANY WARRANTY; without even the implied warranty of\n// MERCHANTABILITY or FITNESS FOR A PARTICULAR PURPOSE.  See the\n// GNU General Public License for more details.\n//\n// You should have received a copy of the GNU General Public License\n// along with solidity.  If not, see <http://www.gnu.org/licenses/>\n//\n// (c) 2017 netvote contributors.\n//------------------------------------------------------------------------------\n\npragma solidity ^0.4.17;\n\nimport \"../BasePool.sol\";\nimport \"./TieredBallot.sol\";\nimport \"./TieredElection.sol\";\n\n\n/**\n * @title TieredPool\n * @dev This allows a particular group over voters to collect votes for a set\n * of mapped ballots.\n */\ncontract TieredPool is BasePool {\n\n    function TieredPool(address el, address gw) BasePool(el, gw) public {\n\n    }\n\n    function checkBallots() public constant returns (bool) {\n        //all ballots include pool, and election includes ballot\n        for (uint256 i = 0; i<ballotSet.size(); i++) {\n            if (!TieredBallot(ballotSet.getAt(i)).poolExists(this)) {\n                return false;\n            }\n            if (!TieredElection(election).ballotExists(ballotSet.getAt(i))) {\n                return false;\n            }\n        }\n        return true;\n    }\n\n    // returns true if pool can vote on election\n    function checkConfig() public constant returns (bool) {\n        // has ballots\n        if ( ballotSet.size() == 0) {\n            return false;\n        }\n        // election includes this pool\n        if (!TieredElection(election).poolExists(this)) {\n            return false;\n        }\n\n        return checkBallots();\n    }\n\n    // for each ballot, cast vote for sender, store vote to pool\n    function castVote(bytes32 voteId, string vote) public voting notDuplicate(voteId) onlyGateway {\n        for (uint256 i = 0; i<ballotSet.size(); i++) {\n            TieredBallot(ballotSet.getAt(i)).castVote(voteId);\n        }\n        super.castVote(voteId, vote);\n    }\n\n}",
  "sourcePath": "/Users/slanders/netvote/elections-solidity/contracts/elections/tiered/TieredPool.sol",
  "compiler": {
    "name": "solc",
    "version": "0.4.18+commit.9cf6e910.Emscripten.clang"
  },
  "schemaVersion": "1.0.1",
  "updatedAt": "2018-01-02T21:50:06.430Z"
}