{
  "contractName": "VoteAllowance",
  "abi": [
    {
      "constant": false,
      "inputs": [
        {
          "name": "addr",
          "type": "address"
        }
      ],
      "name": "removeAdmin",
      "outputs": [],
      "payable": false,
      "stateMutability": "nonpayable",
      "type": "function"
    },
    {
      "constant": false,
      "inputs": [
        {
          "name": "election",
          "type": "address"
        }
      ],
      "name": "addElection",
      "outputs": [],
      "payable": false,
      "stateMutability": "nonpayable",
      "type": "function"
    },
    {
      "constant": false,
      "inputs": [
        {
          "name": "addr",
          "type": "address"
        }
      ],
      "name": "addAdmin",
      "outputs": [],
      "payable": false,
      "stateMutability": "nonpayable",
      "type": "function"
    },
    {
      "constant": true,
      "inputs": [],
      "name": "owner",
      "outputs": [
        {
          "name": "",
          "type": "address"
        }
      ],
      "payable": false,
      "stateMutability": "view",
      "type": "function"
    },
    {
      "constant": true,
      "inputs": [],
      "name": "isLocked",
      "outputs": [
        {
          "name": "",
          "type": "bool"
        }
      ],
      "payable": false,
      "stateMutability": "view",
      "type": "function"
    },
    {
      "constant": false,
      "inputs": [],
      "name": "unlock",
      "outputs": [],
      "payable": false,
      "stateMutability": "nonpayable",
      "type": "function"
    },
    {
      "constant": false,
      "inputs": [
        {
          "name": "account",
          "type": "address"
        },
        {
          "name": "votes",
          "type": "uint256"
        }
      ],
      "name": "addVotes",
      "outputs": [],
      "payable": false,
      "stateMutability": "nonpayable",
      "type": "function"
    },
    {
      "constant": false,
      "inputs": [
        {
          "name": "account",
          "type": "address"
        }
      ],
      "name": "deduct",
      "outputs": [],
      "payable": false,
      "stateMutability": "nonpayable",
      "type": "function"
    },
    {
      "constant": false,
      "inputs": [
        {
          "name": "election",
          "type": "address"
        }
      ],
      "name": "removeElection",
      "outputs": [],
      "payable": false,
      "stateMutability": "nonpayable",
      "type": "function"
    },
    {
      "constant": false,
      "inputs": [
        {
          "name": "newOwner",
          "type": "address"
        }
      ],
      "name": "transferOwnership",
      "outputs": [],
      "payable": false,
      "stateMutability": "nonpayable",
      "type": "function"
    },
    {
      "constant": false,
      "inputs": [],
      "name": "lock",
      "outputs": [],
      "payable": false,
      "stateMutability": "nonpayable",
      "type": "function"
    },
    {
      "anonymous": false,
      "inputs": [
        {
          "indexed": false,
          "name": "election",
          "type": "address"
        }
      ],
      "name": "Vote",
      "type": "event"
    },
    {
      "anonymous": false,
      "inputs": [
        {
          "indexed": false,
          "name": "acct",
          "type": "address"
        },
        {
          "indexed": false,
          "name": "election",
          "type": "address"
        }
      ],
      "name": "ElectionRegistered",
      "type": "event"
    },
    {
      "anonymous": false,
      "inputs": [
        {
          "indexed": false,
          "name": "acct",
          "type": "address"
        },
        {
          "indexed": false,
          "name": "election",
          "type": "address"
        }
      ],
      "name": "ElectionUnregistered",
      "type": "event"
    },
    {
      "anonymous": false,
      "inputs": [],
      "name": "Locked",
      "type": "event"
    },
    {
      "anonymous": false,
      "inputs": [],
      "name": "Unlocked",
      "type": "event"
    },
    {
      "anonymous": false,
      "inputs": [
        {
          "indexed": true,
          "name": "previousOwner",
          "type": "address"
        },
        {
          "indexed": true,
          "name": "newOwner",
          "type": "address"
        }
      ],
      "name": "OwnershipTransferred",
      "type": "event"
    }
  ],
  "bytecode": "0x60606040526002805461ffff1916905560008054600160a060020a033316600160a060020a03199091161790556107bb8061003b6000396000f300606060405236156100ac5763ffffffff7c01000000000000000000000000000000000000000000000000000000006000350416631785f53c81146100b1578063694b98ce146100d257806370480275146100f15780638da5cb5b14610110578063a4e2d6341461013f578063a69df4b514610166578063de63298d14610179578063dff6797c1461019b578063edb7b3dc146101ba578063f2fde38b146101d9578063f83d08ba146101f8575b600080fd5b34156100bc57600080fd5b6100d0600160a060020a036004351661020b565b005b34156100dd57600080fd5b6100d0600160a060020a036004351661026c565b34156100fc57600080fd5b6100d0600160a060020a036004351661032a565b341561011b57600080fd5b610123610391565b604051600160a060020a03909116815260200160405180910390f35b341561014a57600080fd5b6101526103a0565b604051901515815260200160405180910390f35b341561017157600080fd5b6100d06103a9565b341561018457600080fd5b6100d0600160a060020a0360043516602435610421565b34156101a657600080fd5b6100d0600160a060020a03600435166104c1565b34156101c557600080fd5b6100d0600160a060020a03600435166105bd565b34156101e457600080fd5b6100d0600160a060020a0360043516610679565b341561020357600080fd5b6100d0610714565b60005433600160a060020a03908116911614806102405750600160a060020a03331660009081526001602052604090205460ff165b151561024b57600080fd5b600160a060020a03166000908152600160205260409020805460ff19169055565b60025460ff161561027c57600080fd5b600160a060020a0333811660009081526005602090815260408083209385168352929052205460ff16156102af57600080fd5b600160a060020a033381811660009081526005602090815260408083209486168352939052829020805460ff191660011790557f98c4f8ec5fc60ab501cb2adcdcf4a24dae4a7901b020ec66698adab6c08b609a91839051600160a060020a039283168152911660208201526040908101905180910390a150565b60005433600160a060020a039081169116148061035f5750600160a060020a03331660009081526001602052604090205460ff165b151561036a57600080fd5b600160a060020a03166000908152600160208190526040909120805460ff19169091179055565b600054600160a060020a031681565b60025460ff1690565b60005433600160a060020a03908116911614806103de5750600160a060020a03331660009081526001602052604090205460ff165b15156103e957600080fd5b6002805460ff191690557f19aad37188a1d3921e29eb3c66acf43d81975e107cb650d58cca878627955fd660405160405180910390a1565b60025460ff161561043157600080fd5b60005433600160a060020a03908116911614806104665750600160a060020a03331660009081526001602052604090205460ff165b151561047157600080fd5b600254610100900460ff161561048657600080fd5b6002805461ff0019908116610100178255600160a060020a039093166000908152600460205260409020805490920190915580549091169055565b60025460ff16156104d157600080fd5b600160a060020a0380821660009081526005602090815260408083203390941683529290522054819060ff16151561050857600080fd5b600254610100900460ff161561051d57600080fd5b6002805461ff001916610100179055600160a060020a0382166000908152600460205260408120541161054f57600080fd5b600160a060020a0382166000908152600460205260409081902080546000190190557ff5b08346e1e6b0b55d07ce94e81fcb198d47fbbecfea3b9a476f454c86761ec490339051600160a060020a03909116815260200160405180910390a150506002805461ff0019169055565b60025460ff16156105cd57600080fd5b600160a060020a0333811660009081526005602090815260408083209385168352929052205460ff16151561060157600080fd5b600160a060020a033381811660009081526005602090815260408083209486168352939052829020805460ff191690557f165f4eb5dca8881477cca2d9f1c035875249490d5f0c3c9b1f885322b1789ce791839051600160a060020a039283168152911660208201526040908101905180910390a150565b60005433600160a060020a0390811691161461069457600080fd5b600160a060020a03811615156106a957600080fd5b600054600160a060020a0380831691167f8be0079c531659141344cd1fd0a4f28419497f9722a3daafe3b4186f6b6457e060405160405180910390a36000805473ffffffffffffffffffffffffffffffffffffffff1916600160a060020a0392909216919091179055565b60005433600160a060020a03908116911614806107495750600160a060020a03331660009081526001602052604090205460ff165b151561075457600080fd5b6002805460ff191660011790557f0f2e5b6c72c6a4491efd919a9f9a409f324ef0708c11ee57d410c2cb06c0992b60405160405180910390a15600a165627a7a72305820649530231890828b49d6b736ebaad21b5c95f5e772e1575a600252f5b9252fcd0029",
  "source": "// ------------------------------------------------------------------------------\n// This file is part of netvote.\n//\n// netvote is free software: you can redistribute it and/or modify\n// it under the terms of the GNU General Public License as published by\n// the Free Software Foundation, either version 3 of the License, or\n// (at your option) any later version.\n//\n// netvote is distributed in the hope that it will be useful,\n// but WITHOUT ANY WARRANTY; without even the implied warranty of\n// MERCHANTABILITY or FITNESS FOR A PARTICULAR PURPOSE.  See the\n// GNU General Public License for more details.\n//\n// You should have received a copy of the GNU General Public License\n// along with solidity.  If not, see <http://www.gnu.org/licenses/>\n//\n// (c) 2017 netvote contributors.\n//------------------------------------------------------------------------------\n\npragma solidity ^0.4.17;\n\nimport \"../Lockable.sol\";\nimport \"zeppelin-solidity/contracts/ReentrancyGuard.sol\";\n\n\ncontract VoteAllowance is Lockable, ReentrancyGuard {\n    event Vote(address election);\n    event ElectionRegistered(address acct, address election);\n    event ElectionUnregistered(address acct, address election);\n\n    // how many votes a votecoin buys for this address\n    mapping(address => uint256) votesPerCoin;\n\n    // number of votes left on an account\n    mapping(address => uint256) allowance;\n\n    // elections allowed to transact for account\n    mapping(address => mapping(address => bool)) accountToElections;\n\n    // if new contract is purchased, this is rate\n    uint256 currentVotesPerCoin;\n\n    //TODO: right now only NETVOTE (owner of this contract) can add votes\n    function addVotes(address account, uint256 votes) public unlocked admin nonReentrant {\n        //TODO: transact votecoin\n        allowance[account] = allowance[account] + votes;\n    }\n\n    // election must be allowed to transact on account\n    modifier senderAllowed(address account){\n        require(accountToElections[account][msg.sender]);\n        _;\n    }\n\n    // allow an address (election) to transact on sender's behalf\n    function addElection(address election) public unlocked {\n        require(!accountToElections[msg.sender][election]);\n        accountToElections[msg.sender][election] = true;\n        ElectionRegistered(msg.sender, election);\n    }\n\n    // disallow an address (election) to transact on sender's behalf\n    function removeElection(address election) public unlocked {\n        require(accountToElections[msg.sender][election]);\n        accountToElections[msg.sender][election] = false;\n        ElectionUnregistered(msg.sender, election);\n    }\n\n    // subtract 1 vote from account\n    function deduct(address account) public unlocked senderAllowed(account) nonReentrant {\n        require(allowance[account] > 0);\n        allowance[account] = allowance[account] - 1;\n        Vote(msg.sender);\n    }\n}",
  "sourcePath": "/Users/slanders/netvote/elections/contracts/elections/VoteAllowance.sol",
  "schemaVersion": "1.0.0",
  "updatedAt": "2017-11-27T21:41:59.011Z"
}